:020000040800F2
:1000000000000220E14800082D490008251D0008D5
:100010002D1D0008351D00083D1D000800000000D2
:1000200000000000000000000000000001230008A4
:100030002D4900080000000097230008A7230008AE
:100040002D4900082D4900082D4900082D490008B8
:100050002D4900082D4900082D4900082D490008A8
:100060002D4900082D4900082D4900082D49000898
:100070002D4900082D4900082D4900082D49000888
:100080002D4900082D4900082D49000800000000F6
:100090000000000000000000000000002D490008E2
:1000A0002D4900082D4900082D4900082D49000858
:1000B0002D4900082D4900082D4900082D49000848
:1000C0002D4900082D4900082D4900082D49000838
:1000D0002D4900082D4900082D49000800000000A6
:1000E0002D4900082D4900082D4900080000000096
:1000F0000000000000000000000000002D49000882
:10010000000000002D4900082D4900082D49000875
:1001100000000000000000000000000000000000DF
:100120002D4900082D4900082D4900082D490008D7
:100130002D49000800000000000000000000000041
:100140000000000000000000000000002D49000831
:100150002D4900082D4900082D4900082D490008A7
:100160002D4900082D490008000000000000000093
:10017000000000000000000000000000000000007F
:10018000000000002D4900080000000000000000F1
:100190002D4900082D49000810B5054C237833B9C6
:1001A000044B13B10448AFF300800123237010BD4A
:1001B000580D002000000000942401080C4B43B1AE
:1001C0000C480D4910B5AFF300800C48036823B903
:1001D00010BD0A48036833B97047094B002BF7D0AC
:1001E000BDE810401847064B002BF5D0184700BF5C
:1001F00000000000942401085C0D0020540D002034
:1002000000000000154B002B08BF134B9D46A3F5C3
:10021000803A00218B460F461348144A121A09F0FF
:100220001DFA0F4B002B00D098470E4B002B00D02F
:1002300098470020002104000D000D48002802D03E
:100240000C4801F00EFB08F02FFD2000290001F002
:10025000BFFF01F003FB00BF000008000000022008
:1002600000000000E1210008580D0020603100204E
:1002700063180008000000007047704770470000D6
:1002800010B5034B0360044600F0F8FC204610BD97
:100290008806010810B55021044606F005FD2046E9
:1002A00010BD10B5044601F0DDF9237E1BB100F04E
:1002B00025FF0023237601F0EBF9204610BD000056
:1002C000F7B51F460E4B04460D4640F8043B164654
:1002D0000021102209F0C2F9002104F1400001F0D0
:1002E0000FFD04F1540001F0C5FC089B009320466B
:1002F0003B463246294604F0A9F9204603B0F0BD3A
:100300008010010838B51C2204460D46002109F072
:10031000A5F92046294600F06BFE204638BD38B5C9
:1003200004460D4601F09EF9237E1BB900F0CCFE79
:10033000012323762946204605F084FFBDE8384096
:1003400001F0A6B908B52DED028B01F08BF911482B
:1003500005F0D2FF08EE100A01F09AF9DFED0E7AEF
:100360000C48B4EE678AF1EE10FAB7EE007A14BFCB
:1003700017EE901A17EE101AFFF7D1FF074B9A6885
:1003800019681160BDEC028BDA681B681B041360EE
:1003900008BD00BFAC0D00200000000014130020B9
:1003A00010B5044600F076FD2046064B40F8283B89
:1003B0001022002109F052F9012384F83830204638
:1003C00010BD00BFD8060108C36810B504460BB1C4
:1003D0009B689847204610BD38B50546064B45F842
:1003E000283B044600F0B7FC2846FFF7EDFF204607
:1003F00000F078FD204638BDD806010810B5044647
:10040000FFF7EAFF2046402106F04EFC204610BDD3
:1004100010B50446F030FFF7DFFF04F1D00000F024
:10042000C6FC04F1500000F0E1F9204600F0DEF9CE
:10043000204610BD1B4BDA681B68F0B51B04136027
:10044000194B1A4F9A681B68136087B0102200215D
:1004500002A809F003F9164B1648059302A900F00B
:10046000F5F902A8FFF7B0FF134C144E144D4FF0EE
:100470007E5001F08FFB394602A806F0DDFADDE977
:100480000201DDE90423C4E90001C5E90001CDE969
:1004900000010C490C48C4E90223C6E9002300F01E
:1004A00077FAE3E7740D0020900D0020600E002025
:1004B00020060108D00F0020F0110020A801002024
:1004C000B00100202C060108E410002070B504469D
:1004D000054654F8043B7BB90C4E4FF0FF313068B1
:1004E00003F0CEF82B6823B914B1204601F0C2FB0B
:1004F0002C60306803F0E2F82B68A34204D05D2240
:100500000349044801F032F8286870BD601F0020DC
:10051000E40501080906010808B50348FFF7D6FFFE
:10052000BDE8084001F0B8BBB413002008B504488A
:10053000FFF7CCFF4FF0FF31BDE8084001F0A2BB50
:10054000B413002010B50446FFF79AFE2046BC21E4
:1005500006F0AAFB204610BDF7B5644E644C654F0B
:100560000025357601F07EF830460F2105F088FF32
:1005700001F08EF822466049304601F06DF90E21F7
:100580005E485F4EFFF7BEFE0D215E48FFF7BAFEE4
:1005900017215D48FFF7B6FE1F215C48FFF7B2FE4A
:1005A0001E215B48FFF7AEFE5A4BB3F900205A4BB1
:1005B000B3F90010042301934FF07E5300933046AB
:1005C0004FF4E75306F062FA3046544E544922463F
:1005D00001F042F94FF4E13303220221304600F0EA
:1005E000A7F930464F4E5049224601F035F93046C2
:1005F00000F039FC30464D4E4D49224601F02CF9B1
:100600003046FFF7CDFE30464A4E2246394601F0CD
:1006100023F93046FFF7C4FE22463946304601F042
:100620001BF9454F454B464EB3F90010384600F0D4
:10063000ABF822463146384601F00EF9414F424BA5
:100640003846B3F9001000F09FF82246314638468C
:100650003E4F01F001F92C213D48FFF753FE2A21BE
:10066000384600F091F831463A4E2246384601F0BD
:10067000F3F8394F00952B464FF48052182130463D
:10068000FFF71EFE3046354E2246394601F0E4F8AB
:100690002B4600954FF4805218213046FFF710FE8C
:1006A00022463946304601F0D7F82D4B2D4DB3F98F
:1006B00000602D4B2B602846FFF738FF3146281D80
:1006C00004F036F92846FFF727FF2846274D28492A
:1006D000224601F0C1F8284601F094FA2549224645
:1006E000284603B0BDE8F04001F0B6B8AC0D0020DC
:1006F00098010020D9030008A3020008740D00200F
:10070000600E0020900D0020E40D0020C80D002098
:10071000000E00209E0100209C010020E41000201B
:10072000110400083013002081020008200E002070
:10073000AF0D0008900F0020D00F0020A001002076
:10074000ED07000864130020A2010020C41200205D
:1007500014130020201000200D4700080012002074
:10076000B8010020A0110020D4050108501300207A
:1007700079020008131C0008C36810B504460BB1C9
:100780009B689847204610BD2DE9F0410546154B62
:1007900045F8043B04460F46102604F120081C22AD
:1007A0000021284608F05AFF32460021404608F052
:1007B00055FF3246002104F1300008F04FFF324669
:1007C000002104F1400008F049FF2346064A39465B
:1007D000404605F0A3FA2846394600F0F6FB2046CD
:1007E000BDE8F081780601080D09000810B5084B36
:1007F000044640F8203B05F053FB04F14000FFF7AE
:10080000E3FD04F13000FFF7DFFD204610BD00BF1F
:100810007806010810B50446FFF7E8FF204650218E
:1008200006F042FA204610BD884238B504460D460F
:100830000AD0FFF7C9FD3CB1EB681BB15B682946E4
:1008400020469847EB68E360204638BDF0B50F4678
:1008500085B0044600F006FFFD6804F13006203440
:1008600065B139463046FFF7DFFF012201212046FE
:1008700005F0DCF900F00CFF05B0F0BD10222946B0
:10088000684608F0EBFE69463046FFF7CDFF684644
:10089000FFF79AFD2A46E9E7F0B50F4685B0044612
:1008A00000F0E0FEFD6804F14006203465B13946F1
:1008B0003046FFF7B9FF01220221204605F0B6F9C4
:1008C00000F0E6FE05B0F0BD10222946684608F0AB
:1008D000C5FE69463046FFF7A7FF6846FFF774FD7F
:1008E0002A46E9E7C36810B504462BB94FF40472F1
:1008F0000449054800F03AFEE36820461B68BDE85D
:10090000104018474706010868060108012908B584
:1009100002D0022906D008BDC36B13B13030FFF7F7
:10092000E1FF08BDC36C002BFBD04030F7E77047F8
:1009300010B5044600F0EEF8014B2360204610BDD0
:100940008806010838B5036804460D461B689847B9
:100950002946204600F0D6F8236805465B68204605
:100960009847284638BD036870B51B680D46044695
:100970009847013D15F8016F26B131462046FFF733
:10098000E1FFF7E7236820465B689847304670BD73
:100990000EB4F0B5A0B025AD036855F8047B1B6814
:1009A000044698472B463A460121684601950CF0CB
:1009B00079FA7728054612DC3946019A02A80CF02C
:1009C0009BFA02A92046FFF7CEFF236820465B680A
:1009D0009847284620B0BDE8F04003B0704701308A
:1009E00001F0A4F839460646019A0CF085FA314622
:1009F0002046FFF7B8FF002EE7D0304601F0A4F8FC
:100A0000E3E738B5044648B15830A04206D0A0F11B
:100A10002C051438FFF7B0FE2846F6E7204638BD0F
:100A200038B500250446294640F8045B282208F022
:100A300015FE1022294604F1180008F00FFE20468A
:100A400038BD000010B50A4C2046FFF7E9FF04F15D
:100A50002C00FFF7E5FF0023A3652046E365054A68
:100A600084F860300449BDE8104000F0F5BE00BFD6
:100A7000DC13002098010020030A000803681B69AA
:100A8000184703689B69184703689B6A18474FF02B
:100A9000FF30704770477047704710B480B11468DA
:100AA00053680CB9DA070BD513F0010F4FEA630353
:100AB0001CBFC2581459184423465DF8044B18470C
:100AC0005DF8044B70470000090170B501F198050D
:100AD0000544EB6883B14418D4F8A4302BB94FF423
:100AE00004720649064800F041FDD4F8A4302846B7
:100AF0001B68BDE87040184770BD00BF980601082C
:100B00006806010810B54C300C4604F051FF204631
:100B100010BD00002DE9F04F87B0002592460095EA
:100B200002460195044689469B469DE80300324BE8
:100B300042F8083B314B82E80300236148F2070387
:100B400063612F4BE561A46122626362BFF36F8F23
:100B5000BFF34F8F102284F8285084F8295004F1F5
:100B60002C0008F07BFD04F14C062946102204F10C
:100B70003C0008F073FD04F1980829464C223046E9
:100B800008F06CFD04F1A80729461022404608F041
:100B900065FD29461022384608F060FD10222946DE
:100BA000C4F8B8B002A808F059FD02A94046FFF702
:100BB0003BFE02A8FFF708FC1022294602A808F015
:100BC0004DFD02A93846FFF72FFE02A8FFF7FCFBF8
:100BD00052464946304605F0B3FDD4F8B8103046C9
:100BE00005F088FD30462246064904F073FE204693
:100BF00007B0BDE8F08F00BFC006010801A090E873
:100C00009B0A0008C90A00082DE9FF4106468846EC
:100C100056F84C3B17461B6805463C01984700F0C8
:100C200021FDD8F80C3098342C44ABB1E3680BB9F3
:100C300000F04AFA41462046FFF7F6FD0122394608
:100C4000304604F053FE00F023FD2B6828465B6815
:100C5000984704B0BDE8F081E3680BB100F04EFAAC
:100C600010220021684608F0F9FC69462046FFF78B
:100C7000DBFD6846FFF7A8FB0022E0E77FB51A4BD3
:100C80000360044610220021684608F0E7FC0022B9
:100C900069462046FFF7B8FF6846FFF795FB10222C
:100CA0000021684608F0DAFC012269462046FFF779
:100CB000ABFF6846FFF788FB14F1980608D004F1F3
:100CC000B805B54204D0103D2846FFF77DFBF8E794
:100CD00004F13C00FFF750FD04F12C00FFF74CFD40
:100CE000204604B070BD00BFC006010810B5044620
:100CF000FFF7C4FF2046BC2105F0D6FF204610BDFB
:100D000070B5D0E90823D0E90245064612196B41B7
:100D100000F0D8F8736B2BB106F128001B68BDE812
:100D20007040184770BDD0B5044616461F4600F007
:100D300099FC204600F0D0F8C4E90867A06900F0EB
:100D4000E5FB321847EB0103204600F0BBF8BDE895
:100D5000D04000F09DBC7FB5044600F083FC2046E7
:100D600000F0BAF8636B13B194F83830E3B904F1CA
:100D700028066D4610220021684608F06FFCAE423E
:100D80000BD03046FFF720FB3EB1039B1BB15B68E5
:100D9000694630469847039B63632846FFF714FB78
:100DA00000F076FC04B070BD00F0A8F9DFE710B5E4
:100DB000044600F057FC23681BB1237F0BB100F001
:100DC0009DF90023236000F063FC204610BD10B5A0
:100DD000044600F047FC236853B9237F0BB100F0B1
:100DE00073F9A06900F092FBC4E9020101232360BA
:100DF000BDE8104000F04CBC38B5044600F032FCB1
:100E0000236863B1A06900F081FBD4E90245041BAB
:100E100061EB050500F03CFC2046294638BD002466
:100E20000025F7E770B5064600F01CFC3046D6E911
:100E30000445FFF7E1FF24184D4100F029FC20464E
:100E4000294670BD10B5044600F00CFCA06900F006
:100E50005DFB00220023C4E90201C4E90423BDE8CC
:100E6000104000F015BC002310B5002203600023E1
:100E7000C0E90223C0E90423044600F05FFB01231C
:100E8000A06123772046FFF7DDFF204610BD0368F1
:100E90009B681847094B10B5002203600023C0E986
:100EA0000223002303614361044600F047FB044929
:100EB000A06100F0AFFA204610BD00BFEC060108AB
:100EC0008F0E000807B5009000F10801806900F05E
:100ED000D8FA03B05DF804FB00F10801806900F066
:100EE000FABA000010B5034B03600446FFF7F4FFA5
:100EF000204610BDEC060108036801221B69002191
:100F00001847036800221B691146184738B5CB689B
:100F100004460D460BB15B689847EB68E3602046DA
:100F200038BD0000EFF31083DB4372B6044A11783A
:100F300029B9044903F001030B70012313707047B2
:100F4000411400204014002008B5EFF31083DB07A4
:100F500004D436220549064800F008FB054B002260
:100F60001A70054B1B7803B162B608BDF80601087C
:100F700023070108411400204014002070B50E46DC
:100F80000446154604F0ACFD013609D02046002188
:100F900004F0CAFD29462046BDE8704004F0C0BDFB
:100FA00070BD38B504460D4603685AB182681360B7
:100FB0002046012104F0B8FD29462046BDE838400E
:100FC00004F0AEBDC2681B04F1E70022FFF7D6BFF4
:100FD00070B50E460446154604F082FD013606D073
:100FE0002A4620460021BDE87040FFF7DABF70BDF9
:100FF0000022FFF7EDBF000010B5044601300DD10F
:1010000010BD9C4209D12046896805F03FF8204672
:101010000021BDE8104005F0D1B80C31B1F9003025
:101020005A1CEED10248BDE8104000F053BB00BF8F
:101030008C070108884208B508D0431C06D001314E
:1010400006D0044800F046FB4FF0FF31084608BDCB
:101050000146FBE75B070108B1F900305A1C01D1DA
:1010600018467047834201D1486870470C31F3E756
:10107000421C10B5044607D0FFF7EEFF431C0446A0
:1010800002D1024800F026FB204610BD6C07010883
:10109000B1F900305A1C01D118467047834201D182
:1010A000886870470C31F3E7421C10B5044607D03E
:1010B000FFF7EEFF431C044602D1024800F00AFB92
:1010C000204610BD3D07010808B500F0CBFA094BDA
:1010D0001A884FF6FF739A4204D100F0D9FA0648F5
:1010E00000F0F8FA0121034800F0E0FABDE80840FA
:1010F00000F0CEBA421400209D07010808B500F0A8
:10110000B1FA084B1B8823B900F0C2FA064800F078
:10111000E1FA0121034800F0D3FABDE8084000F0ED
:10112000B7BA00BF42140020CA07010808B500F092
:1011300099FA064B1B882BB905F0D4FBBDE8084093
:1011400000F0A6BA05F0BEFBF8E700BF421400208D
:101150002DE9F34790E8080404465B689847636804
:101160001B6A984235D0DAF82040DAF80C30DAF809
:101170000820CAF82000041B1C402E4B9A42264629
:101180004FF000071FD0DAE90A01B2F5004FA4FBC7
:101190000345CDE9000127D1DDE9002347F6FF70C3
:1011A000E60B00210440121946EA45464FEAD537BE
:1011B00005EA01056B41994208BF904214461D465D
:1011C0000AD3CAE90A45DAE90C23B6185F41CAE92D
:1011D0000C6702B0BDE8F087013647F10007B2F5B1
:1011E000004443F1FF35ECE74FF000094B46204641
:1011F000294690460EF0A4F8424606460F464B4656
:10120000204629460EF09CF8DDE90001801859417E
:10121000494508BF404502460B4602D2CAE90A23A7
:10122000D1E7013647F10007B0EB080261EB090393
:10123000F4E700BF40420F00824206D98A420BD930
:10124000884294BF002001207047884206D98A4214
:101250008CBF00200120704701207047002070479C
:101260002DE9F0478146D0F80480FFF771FFD9F8E7
:101270000450D9F800A0696800294ED0D5E90C23A4
:10128000D1E90067BB4208BFB24204D3DAF8143098
:10129000BDE8F0471847B61A67EB0307D5E9062300
:1012A000BB4208BFB2422C6906D3AB68224A9342C4
:1012B0001DD1B44228BF34462A6AD8F820301444DD
:1012C000EA681440A342E1D0DAF81030204698478B
:1012D000D9F800305B68984722460146D8F82000CC
:1012E000FFF7AAFF30B3D9F800305B69D0E7B3F558
:1012F000004F0BD1F903104A0023F00341EA564195
:101300000EF01EF8844228BF0446D5E7A3FB060171
:1013100003FB0711084A0023F2E7D8F81030D8F889
:101320002000D8F80C2018441040DAF81030BDE83E
:10133000F0471847BDE8F08740420F0003682DE9E9
:10134000F74F04461B68984723689B699847D0F875
:1013500000B00546BBF1000F06D129222A492B48CF
:10136000DFF8ACB000F002F9D5F804A0AAF104034C
:101370001C2B06D92F222449244800F0F7F84FF0FF
:10138000200AAAF1040307251BF1FF3005FA03F533
:101390001F4E4FF0000343F1FF315A46C6FB0501D3
:1013A0000DF0CEFFD4F804800023C8F80030C8F850
:1013B000043023685B680F46064698476368C8F8A0
:1013C00020004FF000094FF00008C3E90A89C3F874
:1013D00008B052460120002101930DF0F5FA019B5F
:1013E00001220138D8601D612046C3E90667C3E9C0
:1013F0000C8983F83820FFF7ABFE204603B0BDE828
:10140000F04FFFF72DBF00BFF00701086F1701086D
:1014100040420F0038B5436893F8383004460D4613
:101420000BB9FFF78BFF00F01DF963681D60BDE885
:10143000384000F02DB970B5044600F013F9236868
:10144000DB68984763685B68A3B12046FFF780FEBE
:1014500065686E68D5E90C01D6E90023994208BF9A
:10146000904207D3F3686B602B68002BEAD0B0681A
:101470009847E7E72046FFF7F3FEBDE8704000F02D
:1014800007B92DE9F84305460C4616461F46DDF818
:10149000208000F0E7F82846FFF75AFE6968C4F894
:1014A0000880C4E900674B6800224BB9E36082B949
:1014B0004C602846FFF7D4FEBDE8F84300F0E8B8DA
:1014C000D3E900894F4508BF4645EFD31A46DB688C
:1014D000EBE7D460EDE738B505460C4600F0C2F8FE
:1014E0006A685368A34209D1DB6853602846FFF756
:1014F000B7FEBDE8384000F0CBB81346002BF8D05B
:10150000DA689442F9D1E268DA60F2E7436893F866
:10151000383010B504460BB9FFF710FF00F0A2F801
:101520002046FFF715FE00F0B3F86368D3E90C011D
:1015300010BD08B5FFF7EAFF08BD0000004870477E
:1015400014080108024B1B680BB10248184770478A
:10155000BC010020140801080020704707F06ABC95
:1015600008F0CAB807F004B906F0D8BE70B5044652
:101570000D46164600F076F833462A4621460348C3
:1015800000F05CF8BDE8704000F002B838080108CF
:1015900010B588B000F066F8052101A8FFF728FD16
:1015A0000424039B019A1A60962000F001FB019B22
:1015B000049A1B041360962000F0FAFA013CF0D163
:1015C0000424039B019A1A604FF4C87000F0F0FAEB
:1015D000019B049A1B0413604FF4C87000F0E8FAF2
:1015E000013CEED1DCE7000070B50D46A0B004462A
:1015F00000F038F82B462246802168460BF052FC5A
:10160000051E03DC00F044F820B070BD094B1B68D8
:1016100023B903220221084805F092F8064E00245F
:101620001DF804103046013404F0C2F9A542F7D188
:10163000E8E700BF901D0020B03000200FB407B5D0
:1016400004A951F8040B0191FFF7CEFF03B05DF838
:1016500004EB04B07047EFF31080C04300F00100CA
:101660007047000010B5074C2368013304D15522A0
:1016700005490648FFF77AFFFFF754FC236801335A
:10168000236010BD88140020690801088D08010836
:10169000054B1A6832B11A68013A1A601B680BB917
:1016A000FFF752BC704700BF88140020D0E85F3FAE
:1016B0000B449BB2C0E8523F002AF7D1184670474E
:1016C000D0E85F3F5B1A9BB2C0E8523F002AF7D1D7
:1016D000184670470FB413B5084B1A784AB901245D
:1016E00005A904981C700191FFF77EFF204600F0C9
:1016F000B5F802B0BDE8104004B070478C1400206B
:101700006FF01C0070476FF01500704701207047A4
:101710000020704770470000014B186801F0CEBFF1
:10172000601F0020F8B5074E15460C468F18BC42C6
:1017300005D014F8011B304604F03AF9F7E72846C3
:10174000F8BD00BFB030002038B58DB215F00104EF
:1017500005D0084804F082FF041C18BF0124EB06E2
:1017600005D5044804F090FF08B144F01004204669
:1017700038BD00BFB030002010B50421044605F08C
:1017800093FA204610BD000010B50C462AB104485B
:1017900004F0FCF82070012010BD104610BD00BF01
:1017A000B030002038B51D46074B0360074B1B685F
:1017B000044633B9064804F0C3FF2946044804F040
:1017C00099FF204638BD00BFD0080108901D0020B9
:1017D000B030002000207047002070470148FFF71C
:1017E00079BF00BFBE08010808B5012000F036F837
:1017F0000C4A136810B51844EFF30881884205D3EA
:10180000094B0C221A604FF0FF3010BD07490C68DD
:1018100024B10749096821448842F1D21060184672
:1018200010BD00BFC00200205C31002098140020D1
:101830009C140020074C08B523680546986806F0FC
:10184000CFFE2368D86806F0CBFE0DB1FFF7A0FEEF
:10185000FEE700BF840300200120704708B5FFF7B2
:10186000E9FF0120704708B500F0DAFC08BD08B5B3
:1018700000F0DEFC08BD000010B5037803F00303A0
:10188000012B04460CD00E4B4FF0FF31186801F0CD
:10189000F7FE237803F00303012B03D1FFF73CFF8E
:1018A000002010BD2BB140F20F5206490648FFF749
:1018B0005DFE237843F002032370012010BD00BFBA
:1018C000601F0020580901087E09010810B503783F
:1018D00003F00303022B044605D040F217520749D8
:1018E0000748FFF743FE237823F0030343F0010387
:1018F0002370BDE81040FFF70FBF00BF5809010873
:10190000A40901083F2870B504462FDC184D55F88E
:1019100020305A1C13D1022811DCFFF75DFF03466B
:1019200058B92046FFF756FF034630B9114E3378B9
:10193000BFF35B8FDB0704D50F4B45F82430184607
:1019400070BD3046FFF798FF0028F5D04FF4E13323
:10195000032202210848FFF725FF3046FFF7B6FFB4
:10196000064A07490448FFF777FFE5E70023E6E763
:10197000C001002090140020941400209801002041
:101980001517000838B50546FFF7BCFF0B4B0024C0
:1019900043F8254030B906F0F1FC092303604FF00D
:1019A000FF3038BD03685B699847051E04DA06F00E
:1019B000E5FC6D420560F2E7204638BDC00100201D
:1019C000FFF7E0BF38B50C461546FFF79BFF38B967
:1019D00006F0D4FC092303604FF0FF34204638BDE5
:1019E00003682146DB682A469847041EF6DA06F0AB
:1019F000C5FC64420460EFE708B5131E06DA06F082
:101A0000BDFC162303604FF0FF3008BD04D0FFF784
:101A1000D9FF40EAE07008BD184608BD38B50C464D
:101A20001546FFF76FFF38B906F0A8FC09230360DD
:101A30004FF0FF34204638BD036821469B682A4694
:101A40009847041EF6DA06F099FC64420460EFE75A
:101A5000002A08B503DBBDE80840FFF7DFBF06F04A
:101A60008DFC162303604FF0FF3008BD10B5FFF763
:101A700049FF044628B906F081FC0923036020468B
:101A800010BD0368DB699847041EF8DA06F076FC9F
:101A9000644204600024F2E7FFF7E8BF38B50C4663
:101AA0001546FFF72FFF38B906F068FC09230360DD
:101AB0004FF0FF34204638BD036821461B692A4693
:101AC0009847041EF6DA06F059FC64420460EFE71A
:101AD000FFF7E4BF38B50D46FFF714FF044630B9F1
:101AE00006F04CFC092303604FF0FF3038BD03685B
:101AF000DB699847002814BF4FF400534FF40043AC
:101B00006B60236820469B6A98472861002038BD97
:101B1000FFF7E0BF10B507F07DF9044610B90248A1
:101B2000FFF7D8FD204610BD3B09010810B507F0AE
:101B300071F9044610B90248FFF7CCFD204610BDEC
:101B40001C09010807F06EB907F06CB9004870472E
:101B500014090108F8B50546FFF7F0FC0646FFF743
:101B6000E8FC4FF47A7495FBF4F4002C074602DD90
:101B7000FFF771FD30B93046FFF7DBFCC01BA84210
:101B8000F9D3F8BDFFF7A0FA204602F0BCFDFFF73D
:101B9000B5FAF0E707EE100ADFED047A67EE277A70
:101BA000FDEEE77A17EE900AFFF7D4BF00247449E0
:101BB0004FF47A735843FFF7CDBF00007FB5061D81
:101BC00005460C4610220021304607F047FD0A4B1F
:101BD0000296002C08BF1C4668461023009403930D
:101BE00000F0EAFC286020B92F2204490448FFF7DE
:101BF000BDFC04B070BD00BFE3090108030A010881
:101C0000220A010810B500210446FFF7D7FF20463D
:101C100010BD10B50446006800F0FAFC204610BD67
:101C20007FB5061D05460C461C220021304607F0F4
:101C300015FD10220021684607F010FD0A4B0296A0
:101C4000002C08BF1C461C23039368460B230094FA
:101C5000019301F0E9FC286020B9322203490448CD
:101C6000FFF784FC04B070BD260A01083F0A010892
:101C7000220A010810B5002104460162FFF7D0FFD7
:101C8000204610BD10B50446006801F0F9FC10B9FB
:101C9000236A0133236210BD036A013B03620068BB
:101CA00001F00CBD10B50446006801F023FD20468C
:101CB00010BD00002DE9FF41061D04468846174669
:101CC000002110221025304607F0C8FC2A460021CA
:101CD000684607F0C3FC6A464146384602960395BB
:101CE00001F024FE206020B92C2203490348FFF7AD
:101CF0003DFC04B0BDE8F081590A0108770A0108EB
:101D000010B54FF6FF720446FFF7D4FF204610BD12
:101D1000006801F03BBE10B50446006801F070FE9B
:101D2000204610BD4FF0100300F00CB84FF0200318
:101D300000F008B84FF0300300F004B84FF0400353
:101D400000F000B8EFF308804FF0040172460A4239
:101D500001D0EFF309809C46244902680A600431EF
:101D600042680A60043182680A600431C2680A600D
:101D70000431F0C147460F6004314F460F60043113
:101D800057460F6004315F460F60043102690A60F4
:101D9000083142690A60043182690A600431C2690B
:101DA0000A600431034620334FF40076324200D0FB
:101DB000043375464FF01006354200D148330C46C7
:101DC000103C2360EFF309820A600431EFF30882CC
:101DD0000A60043172460A600431EFF314820A602B
:101DE000034B60460149034A9847FEE7941E0020D2
:101DF000E11F0008C8020020044B1B6823B903221E
:101E00000221034804F09CBC704700BF901D0020D5
:101E1000B0300020F0B5114B85B006460A466D463D
:101E200003F11007186859682C4603C40833BB42F5
:101E30002546F7D182B102F108010F201C2200FAD9
:101E400002F33340D34004AC2344043A13F8103C6B
:101E500001F8013D131DF2D105B0F0BD830A010860
:101E60002DE9F04385B001AD0024124F019488465E
:101E70006C602C72461E16F8011F11B905B0BDE842
:101E8000F083252910D158F824002946FFF7C2FF16
:101E900004F101090724295D384603F089FD14F196
:101EA000FF34F8D24C46E6E7384603F081FDA14600
:101EB000F8E700BFB030002030B52B4C2B492C4840
:101EC00089B0FFF7CDFF21462A48FFF7C9FF1C2242
:101ED000002101A807F0C2FBE36A0193A36A264828
:101EE000DBB20293A36AC3F307230393A36A1B0C19
:101EF0000493236B0593E36B0693636A079301A92D
:101F0000FFF7AEFF029B1A0603D51C491C48FFF7DA
:101F1000A7FF039B1B0603D51A491B48FFF7A0FF29
:101F2000124CE16C11F0080516D000211748FFF79C
:101F300097FF216D11F0010113D015480021FFF723
:101F40008FFFE16C11F004011ABF00211148124803
:101F5000FFF786FF09B030BD29461048FFF780FF24
:101F600029460F48EBE700BF00ED00E0941E00207B
:101F70006D0B0108190C0108230C010834ED00E079
:101F8000630C010838ED00E06D0C0108770C0108C6
:101F9000860C0108B60C0108C20C0108A60C010849
:101FA000930C01087FB543780193C36B0293436B95
:101FB0000393036B049301A9836B03480593FFF715
:101FC0004FFF07B05DF804FBCE0C010810B50446C6
:101FD00004B910BD2046FFF7E5FFA468F8E700004C
:101FE00008B505461446FFF707FF00212448FFF710
:101FF00037FF202D3ED004D8102D09D000212148D4
:1020000008E0302D39D0402DF8D100211E4801E0E4
:102010001E480021FFF724FF00211D48FFF720FF85
:10202000FFF74AFF00211B48FFF71AFF6069FFF71F
:10203000B9FF00211848FFF713FFA069FFF7B2FFAF
:1020400000211648FFF70CFF206BFFF7BFFF0021B0
:102050001348FFF705FFE06AFFF7B8FF00211148BA
:10206000FFF7FEFEA06AFFF7B1FF00210E48FFF761
:10207000F7FEFEE700210D48CCE700210C48C9E738
:10208000930A0108E90A0108DE0A0108BC0A0108EE
:10209000F70A0108020B01081A0B0108210B0108BD
:1020A000300B0108400B01084E0B0108C60A01085D
:1020B000D50A0108154838B5154B03600B251C24BB
:1020C000144B4560C460836001F0AEFA124B186097
:1020D0001248134BC46080E82800124B836001F063
:1020E000A3FA114B18601148114BC46080E8280016
:1020F000104B836001F098FA0F4B186006F0D4FD86
:1021000000210846BDE8384000F062B8141F0020E6
:10211000260D0108E81E0020601F0020041F00207B
:10212000360D0108641F00205C1F0020241F0020C2
:10213000430D0108801F0020341F00200A4A0B486D
:10214000C2F1005303F50033B3F5806F194628BF81
:102150004FF480615B1A01600549981808600549D1
:102160000B60054B1A60704760310020A0140020FE
:10217000A4140020981400209C1400207047000034
:102180000D4A0E4808B50E4B13614FF4805353614E
:102190004823D3600B4B93601823936100210A4BB3
:1021A000136002F051F910B90848FFF793FABDE83F
:1021B000084000F007BC00BF381F0020B520000811
:1021C000E81F00209C1F0020FE0C01080A0D0108DA
:1021D00008B5FFF7D3FFBDE80840FEF72BB90000B4
:1021E00010B5FFF7ABFF0B4B0B499A680B48043A4D
:1021F00052F8044F41F8044F8142F9D14FF0005298
:102200009A6003F01BFF00F093FBBDE81040FFF75E
:10221000B7BF00BF00ED00E0FCFFFF1F94010020EE
:10222000024B4FF0FF31186801F02ABA5C1F002002
:10223000014B186801F042BA5C1F002008B500F09D
:1022400057F8FCE708B505460C4602F019F96B1E75
:102250000246042B24D8DFE803F0030D13191E00F7
:10226000204602F0F5F82246034601210F48FFF709
:1022700031FAFEE7234602210D48FFF72BFAF8E773
:10228000234603210B48FFF725FAF2E704210A4809
:10229000FFF720FAEDE705210848FFF71BFAE8E70A
:1022A00029460748FFF716FAE3E700BF4D0D01087E
:1022B0009D0D0108F30D0108580E0108B30E010829
:1022C000130F010808B502F0DBF8BDE8084002F082
:1022D000B5B902F0B3B908B5FFF7C4F9FEF7F4FEDB
:1022E000FEF724FFFEF70AFFBDE80840FFF7D0B96C
:1022F00008B5024C23689847FCE700BFC4020020E1
:10230000EFF30980816911F8021CB9BB01B590E8AF
:102310000F10E047BDE800508CE80300264B93E81F
:102320000600914208BF704741B91EF0100F10D14E
:102330002249086820F0010008600AE02CE9F00F4B
:102340001EF0100F08BF2CED108AC1F838C081F8BC
:1023500022E001F0DDFD184B93E806001A6092F8C8
:102360002210906B61F0FF0E1EF0100F08BFB0EC52
:10237000108AB0E8F00F80F30988704710B5104A52
:102380001368994206D852F821400FC8A047EFF3CE
:102390000984206010BD10B501F096FBBDE8104027
:1023A000EFF3098CBAE710B501F054FBBDE810401B
:1023B000EFF3098CB2E70000DC02002034EF00E00C
:1023C000F80F010808B5014610B1132001F03AFFDB
:1023D000002008BD10B5044600F04EF9EFF3058368
:1023E0002BB9EFF3108313B9EFF311833BB16FF007
:1023F0000501002000F034F96FF0050010BD204603
:10240000DFF804C000DF10BDC523000838B5002880
:1024100038D08468056864B114F0030302D1C2683F
:102420000F2A1FD86FF00801002000F028F90020C3
:1024300038BDC368002BF5D1134BD3F8900030B9E9
:1024400001221021D3F8800000F012FB01E000F01F
:1024500096FB044628B96FF0040100F010F92046FD
:1024600038BD0123A370032200232270A360E36020
:102470000122054B62706560044A5A66204600F0EE
:1024800000F9ECE70546D7E7C802002077250008E9
:1024900010B5044610B10378032B07D020466FF027
:1024A000030100F0ECF86FF0030010BD437833B97E
:1024B0006FF0020100F0E3F86FF0020010BD00239E
:1024C0004370836863B1204601F013FC00226FF073
:1024D000020101F07DFDA0680028F4D101F04AFD61
:1024E000A378DB0706D5084BD3F89000214630B11E
:1024F00000F073FB204600F0C8F8002010BDD3F8B0
:10250000800000F0E9FAF5E7C802002012F0020F9F
:1025100010B502F0010222D100F10C0382B153E8A0
:10252000000F00EA01028A4203D0BFF32F8F002080
:1025300005E020EA010243E8002404B1EFE710BD02
:1025400053E8000F084203D1BFF32F8F002005E0AE
:1025500020EA010243E8002404B1F1E710BDC0689D
:1025600001EA00031AB1994218BF002010BD002BE8
:1025700008BF002010BDF8B5437805460BB184684C
:1025800004B9F8BD94F82320616AA7682846FFF7CC
:10259000BDFF064670B1204601F0BCFB002231466B
:1025A000204601F015FD334694F82320616A284641
:1025B00000F069F83C46E3E710B5044600F060F827
:1025C000EFF305832BB9EFF3108313B9EFF3118306
:1025D00033B16FF00501002000F051F8002010BD6C
:1025E0002046DFF828C0EFF3148313F0020F0AD15E
:1025F00013F0040FEFF308830CBF203B683B23F07C
:10260000070383F3098800DF10BD00BF0D24000815
:1026100010B5044600F038F8EFF305832BB9EFF35B
:10262000108313B9EFF311833BB120466FF005011E
:1026300000F025F86FF0050010BD2046DFF804C05B
:1026400000DF10BD91240008704770477047704745
:1026500070477047704770477047704770477047C2
:1026600070477047704770477047704770477047B2
:1026700070477047704770477047704770477047A2
:102680007047704770477047704770477047704792
:102690007047704770477047704770477047704782
:1026A0007047704770477047704770477047704772
:1026B0007047704770477047704770477047704762
:1026C0007047704770477047704770477047704752
:1026D0007047704770B56348017A0129044603D1F9
:1026E000FFF7BAFF002070BD31B14FF0FF30FFF7A8
:1026F000B1FF4FF0FF3070BD5B4D9C22083006F0FB
:10270000ADFF6B6D472B02D86FF00A00EFE7EA6868
:10271000002AEAD02B8A002BE7D0EE6AA4F85430C6
:10272000296BAB68E2653046236400F081F908B19B
:10273000C4F880606E69A969304600F079F9002814
:1027400000F084806667EE69296A304600F070F90F
:1027500000287FD0A6676E6AA96A304600F068F943
:1027600000287BD0E6676E6B46B1F368B2683168CB
:10277000304600F0D6F908B1C4F88460AE6B46B1BB
:10278000F368B2683168304600F0CBF908B1C4F89C
:102790008860EE6B46B1F368B2683168304600F08D
:1027A000C0F908B1C4F88C602E6C46B1F368B26809
:1027B0003168304600F0B5F908B1C4F890606E6C2D
:1027C00046B1F368B2683168304600F0AAF908B142
:1027D000C4F89460AE6C46B1F368B26831683046B4
:1027E00000F09FF908B1C4F89860EE6C46B1F36848
:1027F000B2683168304600F094F908B1C4F89C60C2
:102800002D6D45B1EB68AA682968284600F089F962
:1028100008B1C4F8A050154AFF2382F8223092F87C
:102820002230D16863F0FF03DB43B3FA83F3C3F1D3
:102830002003C1F302218B4298BF4B1CFE2101FAF9
:1028400003F3DBB2D3770123237249E7D4F8803056
:10285000636778E7D4F88030A3677CE7D4F88030EA
:10286000E36780E7C8020020900F010800ED00E058
:1028700010B5034C207AFFF7F0FE207A10BD00BFA0
:10288000C802002038B5244C237A012B06D06FF003
:102890000600FFF7DFFE4FF0FF3038BDA36A1F4D83
:1028A0004BB9AA6D1E48194601F0C4FBA06210B9CD
:1028B0004FF0FF30EDE76B6E4BB1A36C3BB9EA6DA7
:1028C0001848194601F0B6FBA0640028F0D016495C
:1028D000686801F073FE0028DDD101F0ABFE2061D5
:1028E00001F08CFE0028D6D1104801F002FA002831
:1028F000DED001F02FFB2B6813F0010F4FF0020325
:1029000006D083F314882372FFF7A9FE002038BD98
:10291000032282F31488F6E7C8020020900F010812
:102920003D22000871450008A7230008E4020020AA
:1029300008B5FFF790FEEFF305832BB9EFF3108393
:1029400013B9EFF3118333B16FF00500FFF782FE87
:102950006FF0050008BDDFF828C0EFF3148313F013
:10296000020F0AD113F0040FEFF308830CBF203BD2
:10297000683B23F0070383F3098800DF08BD00BF2D
:10298000D526000808B5EFF305832BB9EFF31083C4
:1029900013B9EFF3118333B14FF0FF30FFF75DFE52
:1029A0004FF0FF3008BDEFF31483DB0703D4BDE81D
:1029B0000840FFF75DBFDFF808C000DF08BD00BFBB
:1029C0007128000808B5FFF749FEEFF305832BB91E
:1029D000EFF3108313B9EFF3118333B16FF00500F8
:1029E000FFF738FE6FF0050008BDFFF7CBFF0228A8
:1029F00005D00D4B1B6813B15B6803B19847DFF836
:102A00002CC0EFF3148313F0020F0AD113F0040F5C
:102A1000EFF308830CBF203B683B23F0070383F3ED
:102A2000098800DF08BD00BFE82F002085280008C6
:102A300038B50C46034630B140EA010212F00702F5
:102A400001D1172906D8184600222146FFF7FCFDC0
:102A5000002038BDA1F10804102519604560251833
:102A600085602250C2600122FFF7EEFD012038BDD3
:102A7000F8B518B111B132F0030304D00023FFF709
:102A8000E4FD0020F8BD0F3121F0070100F108033B
:102A90001E68D3F804E0F41A2EF00305641BA1426B
:102AA00004D934683346002CF2D1E7E744680C447B
:102AB000446042EA0107BEF1000F07D15F6003F1F5
:102AC00008042346FFF7C1FD2046F8BD5C195E519E
:102AD00067601C600834F4E738B500B121B9002202
:102AE000FFF7B4FD002038BDA1F1080500F108038F
:102AF0000022AB420CD15C6824F003054468641BDF
:102B000044605AB95A600122FFF7A0FD012038BD88
:102B10001C681A46002CE2D02346EAE71B681360C3
:102B2000F1E72DE9F0410C4617461D46064600B375
:102B3000C1B102B30BB34FF0000E02FB01F83160DC
:102B4000C0F804E003EB080EF3607361B260C0F8F4
:102B500010E0FFF77CFD2B46013C06D1A8EB0707F0
:102B6000EC5101242046BDE8F081DA191A601346C1
:102B7000F2E70446F6E71446F4E71C46F2E738B5F8
:102B8000044628B90146FFF763FD2546284638BDAF
:102B9000031D026853E8001F8A4202D8BFF32F8F3B
:102BA00004E0481C43E8000505B1F3E723688B42C5
:102BB00011D904F1140353E8005F15B9BFF32F8F47
:102BC00004E02A6843E8002101B1F4E729462046E1
:102BD000FFF73EFDDAE70025F8E738B528B1C3680E
:102BE0008B4202D80369994207D36FF00302FFF7C3
:102BF00030FD6FF00304204638BD031D53E8002F5D
:102C000012B9BFF32F8F04E0541E43E8004505B10D
:102C1000F4E79AB100F114031A680A60BFF35F8FFA
:102C200053E8002F0C689442F6D143E8001505B133
:102C3000F2E700242246FFF70CFDDCE76FF0020408
:102C4000F8E7036B30B5E3B1CD780024DA78AA4217
:102C50000FD31A464A608C608AB19160A4B161605A
:102C6000283050E8003F5A1C40E8002101B1F8E745
:102C700030BD5A681C46002AECD01346E6E7C16214
:102C8000ECE74B608B60C1620163E9E74B688A68DF
:102C900023B19A608A681AB153607047C262F9E73B
:102CA000036370472DE9F74F8B46804600B141B969
:102CB0006FF003010020FFF7FFFC002003B0BDE828
:102CC000F08FCF1C27F003070C37B0FA80F3B7FA68
:102CD00087F10B441F2BEBDD07FB00F9F2B1946881
:102CE00013680193166950693CB1A30702D1D368F8
:102CF000332B05D86FF00801DCE7D368002BF9D13E
:102D00003EB116F0030501D1814562D96FF009018A
:102D1000D0E70028FAD11CB1054619E00192164609
:102D20002E4BD3F8A00048B1FFF729FF044660B945
:102D30006FF00401FFF7C0FC2046BFE701223421F9
:102D4000D3F88000FFF794FEF0E7002E3FD1012575
:102D5000DFF888A000224946DAF87C00FFF788FEF9
:102D6000064690B96FF00401FFF7A6FC002DA4D031
:102D7000DAF8A05021461DB12846FFF72EFF9CE748
:102D8000DAF88000FFF7A8FE97E74A46002106F030
:102D900065FC45F002000823237001236370019B4A
:102DA00063600023A070A360A362E36223633A46DA
:102DB0003346C4F824B0414604F10C00FFF7B1FEDD
:102DC000064B074A1A672046FFF778FCB4E7012054
:102DD000E1E7002CA4D02846DDE700BFC8020020B0
:102DE000DD2E00082DE9F0410E4690461D460446B2
:102DF00018B10378082B00D141B920466FF00301C8
:102E0000FFF75AFC6FF00300BDE8F08143783BB94F
:102E10006FF00201FFF750FC6FF00200BDE8F08197
:102E2000836803B35B78832B1DD1FFF74CFC2046EE
:102E300000F05FFF01220546002101F0C9F8284695
:102E400000F0E4FF0546626A8068314606F008FB40
:102E5000EB680BB183F80080A9682046FFF738FCC7
:102E60000020BDE8F08104F10C00FFF788FE074662
:102E7000A8B1626A31460C3006F0F2FA07233B70C3
:102E800000250123394620467B70BD7087F80380FA
:102E9000FFF7D7FE31462046FFF715FCE0E7B5B156
:102EA0002A4631462046FFF70BFC0B4B204659695A
:102EB00000F00CFF2946932001F0C4F9EFF30983D9
:102EC0006FF001009E60C3F80C80BDE8F0813146D0
:102ED0002046FFF7F9FB9FE7C8020020F8B54378CA
:102EE0000446002B7AD08678002E3ED0C5686B78D9
:102EF000002B73D001460026284605F10C07FFF78A
:102F0000C5FE667021463846FFF767FEAB68002BAA
:102F100064D05B78932B61D13846FFF730FE0446CE
:102F200000285BD0284600F0E4FE324631460746D2
:102F300001F04EF8384600F069FF6A6A816807467A
:102F400004F10C0006F08CFA072323700123637050
:102F5000A670FB68E37021462846FFF772FEB96849
:102F60002846BDE8F840FFF7AEBB85686B78ABB389
:102F7000AB684BB35B78832B26D141682846FFF7BB
:102F8000A2FB284600F0B5FE32463146074601F066
:102F90001FF8384600F03AFF06466A6A806804F176
:102FA0000C0106F05DFAF3680BB1E2781A70B168B3
:102FB0002846FFF78DFB00236370214605F10C00C6
:102FC000BDE8F840FFF709BE61682846FFF77BFBC4
:102FD00021462846BDE8F840FFF733BEF8BD10B5DE
:102FE00000F1280353E8002F12B9BFF32F8F04E03C
:102FF000511E43E8001404B1F4E70AB9002010BDE3
:10300000C06A01230028F9D0821CD2E84F1FC2E811
:10301000443F04B1F9E711F0FF0F01D08068F1E7F8
:1030200010BD00002DE9F0410D46174698460446B4
:1030300018B10378082B00D141B920466FF0030185
:10304000FFF73AFB6FF00300BDE8F08143783BB92E
:103050006FF00201FFF730FB6FF00200BDE8F08176
:10306000FFF7BDFF0646E8B101462046FFF70EFE1A
:10307000626A06F10C01284606F0F2F90FB1F37806
:103080003B7029462046002504F10C07FFF720FB82
:10309000757031463846FFF7A0FDA36803BB0020DA
:1030A000BDE8F081B8F1000F15D042462946204610
:1030B000FFF70CFB204B2046596900F007FE414604
:1030C000832001F0BFF8EFF309836FF001009D60EA
:1030D000DF60BDE8F08129462046FFF7FAFABBE73A
:1030E0005B78932BDBD13846FFF749FD0646002875
:1030F000D5D0204600F0FDFD29460746012200F00C
:1031000067FF384600F082FE626A8168074606F172
:103110000C0006F0A5F90723337001237370B57016
:10312000FB68F37031462046FFF78BFDB9682046F7
:10313000FFF7C9FAB3E700BFC802002070B5064622
:103140000D461446FFF7B9FAEFF305832BB9EFF3F9
:10315000108313B9EFF3118333B16FF00501002031
:10316000FFF7AAFA002070BD304629462246DFF854
:1031700028C0EFF3148313F0020F0AD113F0040FE9
:10318000EFF308830CBF203B683B23F0070383F376
:10319000098800DF70BD00BFA52C00082DE9F041B3
:1031A00004460F4690461D46FFF789FAEFF3058364
:1031B00033B9EFF310831BB9EFF31183002B3CD02D
:1031C00024B12378082B01D107B145B120466FF017
:1031D0000301FFF771FA6FF00300BDE8F081637837
:1031E00043B96FF002012046FFF766FA6FF0020064
:1031F000BDE8F08104F10C00FFF7C1FC0646B8B150
:10320000626A39460C3006F02BF90723337001232C
:1032100073703046B57086F803807760B46000F054
:1032200097FC20463946FFF74DFA2846BDE8F08165
:1032300039462046FFF748FAD8E720463946424645
:103240002B46DFF808C000DFBDE8F081E52D00085F
:10325000F8B504460D4617461E46FFF736FAEFF35B
:1032600005832BB9EFF3108313B9EFF31183A3B3E5
:1032700024B12378082B01D105B13EB120466FF06F
:103280000301FFF719FA6FF00300F8BD63783BB94B
:103290006FF002012046FFF70FFA6FF00200F8BD51
:1032A0002046FFF79CFE064690B100F10C01626AD1
:1032B000284606F0D5F80FB1F3783B702946204632
:1032C000FFF706FA3046F46000F042FC0020F8BD3B
:1032D00029462046FFF7FDF9DFE7204629463A4612
:1032E0003346DFF808C000DFF8BD00BF2530000816
:1032F00070B500283AD0846890E8600064B114F09A
:10330000030302D1C2681B2A1FD86FF008010020F6
:10331000FFF7BCF9002070BDC368002BF5D1154B39
:10332000D3F8940030B901221C21D3F88000FFF7B4
:103330009FFB01E0FFF723FC044628B96FF004016E
:10334000FFF7A4F9204670BD012304222270A37068
:10335000012200236270E6706560A360E360236170
:10336000636123762046FFF793F9EBE705460646AF
:10337000D5E700BFC8020020304B70B55D69044638
:103380000E4635B96FF00701FFF780F94FF0FF30B7
:1033900070BD10B10378042B07D020466FF00301F5
:1033A000FFF774F96FF0030070BD437833B96FF025
:1033B0000201FFF76BF96FF0020070BD017E69B981
:1033C000EB6AC5604361016103B118610121EC62E0
:1033D00020462176FFF760F9002070BDC378DA0738
:1033E0000BD5C268954208D1FF2902D16FF00F01B9
:1033F000DFE70131C9B20176ECE7DEB19B070AD500
:10340000E06895F9203090F920209A4203DA80F89C
:10341000203000F089FC31462046FFF73BF9294671
:10342000204600F053FC3146532000F00BFF6FF0B4
:10343000010070BD2046FFF730F9BCE7C80200204C
:1034400038B5334B5D69044635B96FF00701FFF7B6
:103450001DF94FF0FF3038BD10B10378042B07D0B1
:1034600020466FF00301FFF711F96FF0030038BD3C
:10347000437833B96FF00201FFF708F96FF00200EB
:1034800038BDC3689D4202D06FF00D01F4E7017EA4
:1034900011B96FF00E01EFE70139C9B20176FFF7FC
:1034A000FEF8237E3BBB63690BB122691A61226976
:1034B0001AB35361E3789B0705D595F92120EB6A90
:1034C000EBB985F82020A36893B1204600F011FCE9
:1034D00000220546114600F07BFDEB6A6361012185
:1034E0000023E56023612046EC622176FFF7D4F8E3
:1034F000002000F03FFD002038BDEB62DAE799685C
:1035000021B191F920108A42B8BF0A465B69D7E71A
:10351000C802002010B5044610B10378042B07D070
:1035200020466FF00301FFF7B1F86FF0030010BD04
:10353000437833B96FF00201FFF7A8F86FF002008B
:1035400010BD00234370037EDBB16369C0680BB11B
:1035500022691A6122691AB35361E3789A070BD57D
:1035600090F92130C26AEAB990F920209A4203D03A
:1035700080F8203000F0D8FBA368E3B9002000F009
:10358000F9FCA378DB0706D5124BD3F8940021464B
:10359000D0B1FFF722FB2046FFF783F8002010BDD3
:1035A000C362DAE7916821B191F920108B42B8BF6C
:1035B0000B465269D7E7204600F09BFB00226FF0D4
:1035C000020100F005FDD7E7D3F88000FFF784FA89
:1035D000E1E700BFC80200202DE9F04104460026C3
:1035E00001270CB9BDE8F081E378D4F814801B07FB
:1035F00018D5267600212046FFF751F8A3688BB135
:10360000204600F076FB00220546114600F0E0FC63
:10361000EB6AE560636126610121EC622046277652
:10362000FFF73AF84446DCE710B50446FFF72FF8F9
:10363000EFF305832BB9EFF3108313B9EFF3118385
:1036400033B16FF005010020FFF720F8002010BD16
:103650002046DFF828C0EFF3148313F0020F0AD1DD
:1036600013F0040FEFF308830CBF203B683B23F0FB
:10367000070383F3098800DF10BD00BFF1320008A3
:1036800038B504460D46FFF704F8EFF305832BB970
:10369000EFF3108313B9EFF311833BB120466FF0C2
:1036A0000501FEF7F3FF6FF0050038BD20462946FF
:1036B000DFF804C000DF38BD7933000810B50446D8
:1036C000FEF7ECFFEFF305832BB9EFF3108313B98B
:1036D000EFF311833BB120466FF00501FEF7D6FFF3
:1036E0006FF0050010BD2046DFF804C000DF10BDFC
:1036F0004134000810B50446FEF7D2FFEFF305830E
:103700002BB9EFF3108313B9EFF311833BB12046CC
:103710006FF00501FEF7BAFF6FF0050010BD2046FF
:10372000DFF804C000DF10BD1535000800F10C0300
:10373000D3E85F0F10B9BFF32F8F04E0421EC3E838
:10374000512F01B1F4E780B2003018BF012070475B
:1037500030B500F10C02C189D2E85F3F994202D82E
:10376000BFF32F8F04E05C1CC2E8554F05B1F3E7AF
:10377000C0899BB2984294BF0020012030BD000058
:10378000F8B50F464FF6FE73411E9942054601D823
:10379000B84206D26FF003010020FEF783FF00203D
:1037A000F8BD002A35D09468166844B114F00303BC
:1037B00002D1D2680F2A1BD86FF00801ECE7D3685A
:1037C000002BF9D1144BD3F8980030B90122102105
:1037D000D3F88000FFF74CF901E0FFF7D0F9044679
:1037E00028B96FF00401FEF75DFF2046F8BD012304
:1037F000A370052200232270A3600122064B627091
:103800006660A781E581054A9A662046FEF74CFF6F
:10381000EBE71646D6E700BFC80200209D38000837
:1038200010B5044610B10378052B07D020466FF081
:103830000301FEF737FF6FF0030010BD437833B983
:103840006FF00201FEF72EFF6FF0020010BD0023A3
:103850004370836863B1204600F04BFA00226FF09A
:10386000020100F0B5FBA0680028F4D100F082FB53
:10387000A378DB0706D5084BD3F89800214630B172
:10388000FFF7ABF92046FEF715FF002010BDD3F877
:103890008000FFF721F9F5E7C802002010B5437852
:1038A000044683B1836873B1FFF740FF58B12046E7
:1038B00000F01FFA0022114600F08AFB2046BDE806
:1038C0001040FEF7F3BE10BD38B5054610B10378C1
:1038D000052B07D028466FF00301FEF7E3FE6FF0DB
:1038E000030038BD437833B96FF00201FEF7DAFE0A
:1038F0006FF0020038BD84686CB1FEF7D9FE28462F
:1039000000F0F7F90122002100F062FB2846FEF7E3
:10391000CDFE002038BDFFF71BFF18B96FF0100176
:103920002846E3E72846FEF7C3FEF2E770B50646F1
:103930000D461446FEF7B7FEEFF305832BB9EFF300
:10394000108313B9EFF3118333B16FF00501002039
:10395000FEF7A8FE002070BD304629462246DFF85B
:1039600028C0EFF3148313F0020F0AD113F0040FF1
:10397000EFF308830CBF203B683B23F0070383F37E
:10398000098800DF70BD00BF8137000810B504460C
:10399000FEF78DFEEFF305832BB9EFF3108313B918
:1039A000EFF3118323B314B12378052B07D02046FE
:1039B0006FF00301FEF776FE6FF0030010BD637831
:1039C0003BB96FF002012046FEF76CFE6FF002007B
:1039D00010BD2046FFF7BCFE38B1204600F0B8F815
:1039E0002046FEF765FE002010BD6FF01001EAE7EB
:1039F0002046DFF808C000DF10BD00BFC93800084E
:103A000010B50446FEF755FEEFF305832BB9EFF32F
:103A1000108313B9EFF311833BB120466FF005011A
:103A2000FEF740FE6FF0050010BD2046DFF804C031
:103A300000DF10BD2138000810B5D0E85F3F5A1CE8
:103A4000914200D80022C0E8542F04B1F5E798B2A3
:103A500010BD000038B51B4C00F0E6FDE3680133F3
:103A6000E360236D03B1984700F0DAF9002000F01D
:103A700081FA236C2BB1A26BA1698A4202D0A163A7
:103A8000E36338BDE36B0BB1013BE363E36B002BF6
:103A9000F7D1237A022BF4D1656A002DF1D095F984
:103AA000201092F920309942EBD1284600F032F9EB
:103AB000A06B00F04BF9284600F04CFAA563236C8C
:103AC000DEE700BFC802002070B5204C04F15605A7
:103AD00004F15A06B4F85410D5E85F3F13B9BFF3A8
:103AE0002F8F04E05A1EC5E8502F00B1F4E79BB2B7
:103AF0003BB33046FFF7A0FFE36D53F8200000B35F
:103B00000378013B062BE5D801A252F823F000BF51
:103B10002D3B0008D53A0008333B0008D53A000891
:103B2000373B00083B3B00083F3B0008236E9847AB
:103B3000D0E7636EFBE7A36EF9E7E36EF7E7236F69
:103B4000F5E70020BDE8704000F014BAC80200207C
:103B500070B5164C0546B4F8541004F15602D2E87C
:103B60005F3F994202D8BFF32F8F04E0581CC2E890
:103B7000560F06B1F3E79BB2994210D904F15800F1
:103B8000FFF75AFFE36D43F82050637A23B9084BDF
:103B90004FF080525A6070BD0123A37270BD294658
:103BA0000220BDE87040FEF74DBB00BFC8020020F8
:103BB00000ED00E010B5034B5C692046FEF754FDB4
:103BC000204610BDC802002008B5FEF77BFBDFF8D9
:103BD00010C000DF4FF0FF310020FEF741FDFEE78F
:103BE0008D42000812F0020F10B502F0010222D13E
:103BF00000F1280382B153E8000F00EA01028A4273
:103C000003D0BFF32F8F002005E020EA010243E834
:103C1000002404B1EFE710BD53E8000F084203D1C0
:103C2000BFF32F8F002005E020EA010243E80024C3
:103C300004B1F1E710BD806A01EA00031AB19942AC
:103C400018BF002010BD002B08BF002010BD0000D1
:103C500010B50023437083789A07044608D513F003
:103C6000100F016B0E4B0FD0D3F88400FEF7B5FF99
:103C7000A378DB0712D50A4BD3F88800214638B168
:103C8000BDE81040FEF7A9BF586FFEF725FFEFE72C
:103C9000D3F88000BDE81040FEF71EBF10BD00BF86
:103CA000C802002010B5044610B10378012B05D0DE
:103CB00020460021FEF7D7FC002010BD4378002BE2
:103CC000F6D04168FEF7CFFC606810BD10B561B159
:103CD00091F9202083681BB193F92040944205DAC2
:103CE000C8608B60816003B1D96010BD18469B68C5
:103CF000F1E783682BB19A68826002B1D06000223C
:103D0000DA601846704710B10378012B00D0704775
:103D1000C068F8E7C36833B182689A60826802B10C
:103D2000D3600023C360704710B501460446237872
:103D3000012B07D00846FFF7EDFF2046BDE81040F5
:103D4000FFF7C4BFE468002CF1D110BD0123014688
:103D500043700148FFF7BABFE40200204B1C30B5A6
:103D6000144A0FD1136B00213BB94FF0FF34C461EB
:103D70004161036121B1086130BD19461B69F3E758
:103D8000106330BDD36A002413B1DD69A9420AD2A1
:103D9000C1614461036154B120611BB1DA695861AA
:103DA000511AD96130BD1C46491B1B69ECE7D06232
:103DB000F3E700BFC802002010B5C4694269631C64
:103DC00010D11AB9104B1B6B98421BD1036903B178
:103DD0005A6142691AB113610023436110BD0A4A56
:103DE000136310BD1AB9084BDB6A98420AD1036904
:103DF0001BB1D9695A612144D9614269002AEAD1CB
:103E0000014AD36210BD00BFC802002090F82220F2
:103E1000836B12F0100F0CBF6020202018447047F5
:103E200038B52E4DEC6A002C57D0E369013BE361B5
:103E3000002B52D16378532B37D008D8332B2BD09B
:103E4000432B2CD0132B07D1FEF717FC04E0732B68
:103E500037D017D8632B2ED02046FFF7D7FF016845
:103E60002046FEF704FC2046FFF754FF2046FFF7EC
:103E70006DFF246924B1E369002BDBD0002363616B
:103E8000EC6238BD832B22D0932BE5D12046FFF77F
:103E90003AFFFEF716FCDFE7FEF7ECFBDCE7204617
:103EA000FFF731FFFEF7EEFBD6E72046FFF72BFFCB
:103EB000FEF7F1FBD0E72046FFF725FFFEF7F5FB05
:103EC000CAE72046FFF71FFFFEF7F5FBC4E72046D1
:103ED000FFF719FFFEF7FBFBBEE738BDC802002065
:103EE00010B50123094A437090F92010536A1C321F
:103EF0001BB193F920408C4205DCC2608360906066
:103F000003B1D86010BD1A469B68F1E7C8020020D3
:103F1000044B1B682BB11B691BB1034A9269506C9F
:103F200018477047E82F0020C8020020074B596946
:103F300051B10B6B8A6B934203D21A68044B9A42BD
:103F400002D00120FEF77EB9704700BFC8020020F2
:103F5000A52E5AE210B502234370054B0446986122
:103F6000FFF7E4FF2046BDE81040FEF781BB00BF2D
:103F7000C802002010B5154B04461A7A5969A8B931
:103F8000022A5C6A20D1F9B1F4B194F9202091F9A8
:103F900020309A4218DD2046FFF7BCFE0846FFF7A6
:103FA0009FFF2046BDE81040FFF7D4BF022A06D18C
:103FB00029B190F9202091F920309A42EEDC204678
:103FC000BDE81040FFF7C2BE10BD00BFC802002010
:103FD00070B504460E461546FEF749FB2046FFF72E
:103FE00015FF06602046FFF7E7FE20461DB1BDE83D
:103FF0007040FFF7BFBFBDE87040FFF7A7BE38B500
:104000004378332B044613D190F82320416AFFF7FD
:10401000E9FD054660B1014600222046FFF7D8FFC2
:104020002A4694F82310606ABDE83840FEF723BBA7
:1040300038BD00002DE9F04F85B082460391029310
:1040400038B96FF00301FEF70BFB002005B0BDE8A7
:10405000F08F002A39D0946802F11005E0CD44B108
:10406000A30702D1D368472B06D86FF008010020C0
:10407000E9E7D368002BF8D13DB1680702D1002EE3
:1040800040F0CE806FF00A01F1E72FB17B1E372B95
:1040900003D96FF00B01EAE718271EB17107F1D1C0
:1040A000472EEFD95368D2F800800193D4B95F4B03
:1040B000D3F8880078B1FEF762FD0446A0BB6FF02C
:1040C0000401FEF7CDFA2046C0E7904618271646B1
:1040D00015460192EBE701224821D3F88000FEF754
:1040E000C7FCEAE74FF0000B2DBBDFF84091002E34
:1040F0007ED14F4AD9F88400566D002878D0FEF75B
:104100003EFD054698B96FF004010020FEF7A8FABD
:10411000BBF1000F99D0D9F888502146002D71D0FD
:104120002846FEF75AFD90E74FF0010BDCE74BF015
:10413000100B4BF0020B9DF80430E3700023A360DA
:10414000E36023616361A361E36184F82330636208
:10415000A362E362A6F1400301222B442270627045
:104160007FB2A363FD22334B84F802B0C4F804800D
:1041700084F8207084F8217084F822202563666317
:10418000C4F83CA02B602A4B1B685B0743D5043561
:10419000B608A6F111032A464FF0CC31002B36D1D8
:1041A00006F18046113E05EB860505F13403002239
:1041B00045F8042B9D42FBD11F4B204A85E808049B
:1041C0004FF08073AB60039B45F8143C174B2046BF
:1041D0001A66FEF747FA1A4B1B68F3B19B68E3B106
:1041E00002992046984760642046FFF7C3FE6AE7BD
:1041F0002A463146D9F87400FEF73AFC05460028F5
:1042000097D180E7D9F88000FEF766FC1DE742F8F9
:10421000041B013BC2E7A56BC7E7029B6364E3E7AE
:10422000002F7FF433AF182738E700BFC802002003
:10423000900F0108A52E5AE2C93B0008FF3F000875
:10424000E82F0020F8B5104D6C6907460E46CCB13A
:104250002B7A022B04D02046FFF75CFD0020F8BD2E
:10426000686A80B12046FEF701FA31462046677041
:10427000FFF774FD05F11C00FFF73BFDFFF76AFE39
:104280000120F8BD2046F8BDC802002038B51B4DFE
:104290006C69002C30D0E06AFFF79EF9A06930B15C
:1042A00000221146FFF794FEA069FEF7DEF92B7A93
:1042B000022B21D16B6AFBB1EFF309831048A36392
:1042C000FFF717FDFFF746FE00236B61E378DB077E
:1042D00001D5A3693BB12046FFF7BAFC2046BDE8F3
:1042E0003840FEF7C6B904226270E3606B6BA360CE
:1042F00003B1DC606C63F1E738BD00BFC802002089
:10430000E402002038B5044610B10378012B07D031
:1043100020466FF00301FEF7A3F96FF0030038BDEC
:10432000437803F00F03022B05D0032B23D0012B7E
:1043300026D1FFF7EFFC294B1B681BB1DB680BB1E3
:10434000606C9847E06AFFF747F9A06930B1002236
:104350001146FFF73DFEA069FEF787F96378022B4F
:104360002DD11F4D2B7A022B01D16B6A7BB96FF0D7
:104370000201204606E0FFF7CDFCFFF71DFDDAE75E
:104380006FF00201FEF76CF96FF0020038BDEFF339
:104390000983A36305F11C00FFF7ABFCFFF7DAFD0F
:1043A00000236B61E378DB0701D5A3695BB120468D
:1043B000FFF74EFC2046FEF75CF9002038BD0020D8
:1043C000FFF7D8FDEEE70422E360054B62705A6BFD
:1043D000A26002B1D4605C63ECE700BFE82F00206C
:1043E000C8020020F8B507460E4615461C46FEF7E3
:1043F00038F9EFF305832BB9EFF3108313B9EFF31B
:10440000118333B16FF005010020FEF729F9002078
:10441000F8BD384631462A462346DFF828C0EFF378
:10442000148414F0020F0AD114F0040FEFF308847F
:104430000CBF203C683C24F0070484F3098800DFAB
:10444000F8BD00BF354000080023FFF7CBBF0000D8
:1044500008B50346EFF305822AB9EFF3108212B9CB
:10446000EFF311822AB118460021FEF7FCF8002074
:1044700008BDDFF808C000DF08BD00BFA53C00088C
:1044800008B5EFF305832BB9EFF3108313B9EFF3FE
:10449000118323B10020FEF7E7F8002008BDDFF804
:1044A00008C000DF08BD00BFB53B000810B50446DA
:1044B000FDF70FFFEFF305832BB9EFF3108313B96B
:1044C000EFF311833BB120466FF00501FEF7C8F80A
:1044D0006FF0050010BD2046DFF804C000DF10BDFE
:1044E000054300080C4A536C30B5002413B11D6914
:1044F000A9420AD201618460C3601BB11D69986042
:10450000691A19612CB1E06030BD1C46491BDB689B
:10451000ECE7506430BD00BFC802002070B5134DF9
:104520006C6C04B32369013B236101262369D3B971
:10453000E3680BB1A2689A606B6400231A4604F129
:104540001801E86CFEF72AFE18B121460320FDF79A
:1045500079FEE378012B07D161692046FFF7C2FF9E
:104560006C6C002CE2D170BD6670F9E7C8020020C7
:104570000F4B13B51A6E586E0E4C0821FEF7DEFD78
:10458000E06490B10C4B23654FF0FF330022694685
:10459000E06CFEF75DFE0028F6D19DE80300FEF713
:1045A0006DF80198009B9847EEE702B010BD00BF80
:1045B000900F0108C80200201D450008A8B10C4B4F
:1045C0001B68B3FBF0F00138B0F1807F0DD2094BCE
:1045D000FF2283F82320A3F54F6306221A60586058
:1045E00000209860044B187070474FF0FF30704700
:1045F0007003002000ED00E0001B0020074B1A783C
:104600002AB100221A70064B4FF080625A60054AA8
:10461000136843F00103136000207047001B002063
:1046200000ED00E010E000E0014B00201B68704747
:1046300010E000E04FF0FF3070470000024B1B68B5
:1046400003B11847704700BF041B00202DE9F04755
:104650001D466B07B5FA85F34FF000094FEA531377
:10466000044618BF25F0070680F83C308A461746F6
:10467000C0F8149080F8C0904FF04802494600F10D
:10468000780014BF08362E46DDF8208004F0E6FFDF
:104690002422494604F1180004F0E0FF751B074B83
:1046A000C4F830A07D1B25F00705C84508BF984613
:1046B000E562C4F81880A662BDE8F0875C100108C6
:1046C00070B500F1540504464FF0FF312846FDF760
:1046D000D9FA04F140006669FDF71AFB0023636113
:1046E00094F8C0302BB100242846FDF7D5FA2046B7
:1046F00070BD012384F8C030002EF4D03046FFF79F
:10470000D5FE0446F0E7FDF765BE000010B50D4B81
:1047100003600446FFF7D4FF94F83C302BB1A06A45
:1047200008B1FDF711FA0023A36204F15400FDF76C
:10473000B9FA04F14000FDF7EEFA201DFBF744FE44
:10474000204610BD8010010810B50446FFF7DEFFBB
:104750002046C42102F0A8FA204610BD7FB50F23E1
:104760000193022302934FF480520023032101A8F6
:1047700003930492059300F00BFCB0FA80F040091B
:1047800007B05DF804FB00000F49D1F8883043F40E
:104790007003C1F888300D4B1A68002042F0010206
:1047A0001A6098601A6822F0847222F480321A60CB
:1047B000074A5A601A6822F480221A60D8604FF0C3
:1047C00000638B60704700BF00ED00E000380240DE
:1047D0001030002400B58FB01C4B002100911A6CE2
:1047E00042F080521A641B6C194A03F08053009304
:1047F000009B0191136823F4404343F4004313608A
:10480000136803F440430193019B01230293C0B951
:104810004FF480330393022308934FF480030993EA
:1048200004230A930C930823C8220DEB03000B9278
:104830000D9300F0FDF938B9FFF790FF0FB05DF868
:1048400004FB4FF4A023E5E70020F7E7003802401F
:104850000070004010B58EB000241A4B00941A6C02
:1048600042F080521A641B6C174A03F08053009385
:10487000009B0194136823F4404343F40043136006
:104880001368039403F440430193019B09940323A9
:10489000029301230593102306930223C822089351
:1048A00008230B920DEB030004220A930C920D9344
:1048B00000F0BEF918B9FFF751FF0EB010BD204649
:1048C000FBE700BF003802400070004008B501203F
:1048D000FFF780FF18B9FFF7BDFF00B9FEE708BD7D
:1048E000DFF830D0002103E00B4B5B58435004311C
:1048F0000A480B4B42189A42F6D30A4A02E00023B8
:1049000042F8043B084B9A42F9D3FFF73DFFFBF70F
:1049100079FC704700000220B027010898010020B0
:10492000580D0020580D002060310020FEE70000E7
:10493000A1F1F0039BB20F2B73B504460D4649D984
:104940002A492846FCF794FB284920602846FCF7B2
:10495000ABFB264906462846FCF74EFB236801338D
:1049600004D13C2222492348FCF700FE731C04D1E9
:104970003D221F492048FCF7F9FD0122E261216830
:104980001E4AA4F848500023C6F30436914284F826
:104990004A6023646360A3602361A361236263624E
:1049A000E362A362E360236363610AD10193144B62
:1049B0005A6C42F480725A645B6C03F48073019306
:1049C000019B204600F052F810B10E48FCF782FE21
:1049D00002B070BD0C492846FCF74AFB0A4920602A
:1049E0002846FCF761FB0646B8E700BF88100108BF
:1049F00064130108A3130108CD130108002001402E
:104A000000380240E61301083C110108704700001D
:104A100008B50B4B1A6842F400721A601A6842F427
:104A200080621A601A6842F480721A60032000F0F3
:104A3000C1F80F2001F08AFAFFF7E8FF002008BD57
:104A4000003C0240034A044B11681B780B4413607E
:104A5000704700BFEC2F00206C030020014B18684A
:104A6000704700BFEC2F00207047000010B50446CF
:104A7000002800F09980036C23B9436480F83C302F
:104A8000FFF7F2FF236CDB0600F18C80236C23F42C
:104A9000885323F0020343F002032364434B5A6814
:104AA00022F440325A605A6861680A435A602368A7
:104AB00021695A6822F480725A605A6842EA0122D7
:104AC0005A605A68A16822F040725A605A680A43D4
:104AD0005A609A68E16822F400629A609A680A4310
:104AE0009A603349A26A8A4250D0996821F0706175
:104AF000996099680A439A609A68E16A22F0405284
:104B00009A609A680A439A609A68A16922F0020240
:104B10009A609A6842EA41029A60226A002A3DD06D
:104B20005A68616A42F400625A605A6822F460422C
:104B30005A605A68013942EA41325A60DA6AE169D8
:104B400022F47002DA62DA6A013942EA0152DA6268
:104B50009A68216B22F400729A609A6842EA4122B4
:104B60009A609A68616922F480629A609A6800206B
:104B700042EA81229A606064236C23F0030343F0CD
:104B800001032364002384F83C3010BD9A6822F0AE
:104B900070629A609A6822F04052B4E75A6822F430
:104BA0000062CAE70120EDE7012010BD00230140AB
:104BB0000100000F074AD36823F4E0631B041B0CB9
:104BC00043F0BF63000243F4003300F4E0600343AA
:104BD000D360704700ED00E0064A1369012923F015
:104BE0000403136101D130BF704740BF20BF20BF15
:104BF000704700BF00ED00E00B4A136823F0030389
:104C000018430A4B10601A69012942F004021A6124
:104C100005D130BF1A6922F004021A61704740BF03
:104C200020BF20BFF6E700BF0070004000ED00E0AD
:104C30002DE9F341044618B9012002B0BDE8F08126
:104C40000368DD0710D42368980758D423681A072F
:104C500000F19A8023685B0700F1B880A269002AFE
:104C600040F019810020E8E7A64B9A6802F00C0298
:104C7000042A07D09A6802F00C02082A0AD15B685D
:104C8000590207D59F4B1B689A03DCD56368002B3C
:104C9000D9D1D1E763689B4DB3F5803F11D12B6823
:104CA00043F480332B60FFF7D9FE964D06462B6800
:104CB0009B03C8D4FFF7D2FE801B6428F7D90320DA
:104CC000BBE7B3F5A02F04D12B6843F480232B60FE
:104CD000E5E72A6822F480322A602A6822F48022DA
:104CE0002A60002BDFD1FFF7B9FE06462B689F0331
:104CF000A9D5FFF7B3FE801B6428F7D9DFE7814B06
:104D00009A6812F00C0F07D09A6802F00C02082A79
:104D100011D15B685E020ED47A4B1A68950702D5F2
:104D2000E268012A88D11A68216922F0F80242EA71
:104D3000C1021A608AE7E268734BB2B101221A60BD
:104D4000FFF78CFE6F4D06462B68980707D52B683A
:104D5000226923F0F80343EAC2032B6076E7FFF7EA
:104D60007DFE801B0228EFD9A9E71A60FFF776FEC7
:104D7000644D06462B6899077FF568AFFFF76EFE16
:104D8000801B0228F6D99AE76269604B7AB101224A
:104D90001A60FFF763FE5B4D06466B6F9F073FF59A
:104DA00059AFFFF75BFE801B0228F6D987E71A6030
:104DB000FFF754FE534D06466B6F98077FF54AAFD9
:104DC000FFF74CFE801B0228F6D978E74D4B1A6C92
:104DD00012F0805228D101921A6C42F080521A646B
:104DE0001B6C03F080530193019B0126484D2B68F7
:104DF000D9051BD5A368434D012B27D12B6F43F059
:104E000001032B67FFF72AFE3E4D074641F2883823
:104E10002B6F9B0739D5002E3FF420AF394A136C16
:104E200023F08053136419E70026DFE72B6843F46F
:104E300080732B60FFF712FE07462B68DA05D9D482
:104E4000FFF70CFEC01B0228F7D938E7052B04D169
:104E50002B6F43F004032B67D0E72A6F22F0010287
:104E60002A672A6F22F004022A67002BCAD1FFF7B3
:104E7000F5FD41F2883807462B6F9807CBD5FFF731
:104E8000EDFDC01B4045F7D919E7FFF7E7FDC01B53
:104E90004045BDD913E71B4DAB6803F00C03082B4D
:104EA0003FF4CAAE1B4E0023022A336034D1FFF711
:104EB000D5FD07462B6899011ED4226AE369134386
:104EC000626A43EA8213E26A43EA0263A26A0D4C11
:104ED0005208013A43EA02436B6001233360FFF753
:104EE000BDFD054623689A013FF5BCAEFFF7B6FD50
:104EF000401B0228F6D9E2E6FFF7B0FDC01B0228EE
:104F0000D8D9DCE60038024000004742800E474214
:104F10000070004060004742FFF7A0FD04462B6888
:104F20009B017FF59FAEFFF799FD001B0228F6D984
:104F3000C5E600BF134908B58B6803F00C03042BCA
:104F400003D0082B03D0104808BD104808BD4A689C
:104F50004B68496813F4800314BF0C480A48C1F336
:104F6000881118BF002302F03F02A1FB00010AF0E4
:104F7000E7F9044B5B68C3F3014301335B00B0FB0B
:104F8000F3F008BD003802400024F40000127A005B
:104F90002DE9F0410D46044610B90120BDE8F0812D
:104FA000444B1A6802F00F028A4228D321688F0707
:104FB0002DD4C80740D43F4B1A6802F00F02954227
:104FC00066D3226851076CD4130707D53A4A216982
:104FD000936823F4604343EAC1039360FFF7AAFF99
:104FE000354B364A9B68C3F30313D35CD840344B2C
:104FF00018600F2000F0AAFF0020BDE8F081CAB2BF
:105000001A701B6803F00F039942C6D1CEE72A4BF2
:1050100011F0040F1EBF9A6842F4E0529A600E0726
:1050200042BF9A6842F460429A609A68A06822F08F
:10503000F00202439A60BCE762681F4B012A1DD14F
:105040001B6813F4003FA8D01B4EB36823F0030382
:105050001343B360FFF702FD41F288380746B36897
:10506000626803F00C03B3EB820FA4D0FFF7F6FCE9
:10507000C01B4045F3D90320BDE8F081911E0129F2
:105080001B6802D813F0007FDDE713F0020FDAE7A8
:10509000EAB21A701B6803F00F039D427FF47DAFE4
:1050A0008FE70549E0688B6823F4E05303438B6086
:1050B0008AE700BF003C024000380240FC130108B0
:1050C00070030020044B054A9B68C3F38223D35C22
:1050D000034A1068D8407047003802400C14010899
:1050E00070030020044B054A9B68C3F34233D35C32
:1050F000034A1068D8407047003802400C14010879
:10510000700300200F2303600B4B9A6802F0030228
:1051100042609A6802F0F00282609A6802F4E052FB
:10512000C2609B68DB0803F4E0530361034B1B6818
:1051300003F00F030B60704700380240003C024050
:10514000026838B5D36823F0A003D3600446FFF7A4
:1051500085FC05462368DB689B0601D5002038BD29
:10516000FFF77CFC401BB0F57A7FF3D9032038BDF4
:10517000036A23F001030362036A70B5446882691D
:105180000D6822F073022A438D6823F002032B433B
:105190000A4DA8420BD1CD688E6923F008032B433A
:1051A0004D6924F44074354323F004032C434460D8
:1051B00082614A684263036270BD00BF0000014023
:1051C000036A23F480730362036A70B54468C2699A
:1051D0000D6822F073022A438D6823F4007343EABA
:1051E00005230B4DA8420DD1CD688E6923F40063D1
:1051F00043EA05234D6924F44054354323F4806386
:1052000044EA05144460C2614A68C263036270BD27
:1052100000000140036A23F480530362036A30B53F
:105220004468C2690D6822F4E64242EA05228D68AC
:1052300023F4005343EA0533064DA84202BF4D69EB
:1052400024F4804444EA85144460C2614A680264DC
:10525000036230BD0000014070477047224A036876
:1052600090420ED0B0F1804F0BD0A2F57C4290421C
:1052700007D002F58062904203D002F5806290422E
:1052800019D14A6823F070031343174A904204D19E
:10529000CA6823F44073134318E0B0F1804FF7D08D
:1052A000124A9042F4D002F580629042F0D002F5AA
:1052B00080629042ECD00E4A9042E9D002F58062C2
:1052C0009042E5D002F580629042E1D003608B68A5
:1052D000C3620B688362044B984204BF0B6903638B
:1052E00001234361704700BF0000014000040040FB
:1052F0000040014010B50446A0B190F8393003F0E9
:10530000FF021BB980F83820FFF7A6FF022384F8BC
:1053100039302068211DFFF7A1FF012384F83930BF
:10532000002010BD012010BD10B50446A0B190F8BA
:10533000393003F0FF021BB980F83820FFF78DFFEA
:10534000022384F839302068211DFFF787FF0123ED
:1053500084F83930002010BD012010BD036A23F00D
:1053600010030362036A70B5446882690D6822F411
:10537000E64242EA05228D6823F0200343EA051342
:105380000B4DA8420DD1CD688E6923F0800343EA0E
:1053900005134D6924F44064354323F0400344EA87
:1053A0008504446082614A688263036270BD00BF05
:1053B0000000014038B590F83830012B04464FF01A
:1053C000020025D0012384F8383084F839000C2AF3
:1053D00018D8DFE802F0071717171E1717172F172F
:1053E000171740002068FFF7C3FE236809699A6910
:1053F00042F008029A619A6922F004029A619A695D
:105400000A439A610123002084F8393084F8380077
:1054100038BD2068FFF7A2FF236809699A6942F442
:1054200000629A619A6922F480629A619A6942EAFA
:105430000122E6E72068FFF7C3FE23680969DA69FD
:1054400042F00802DA61DA6922F00402DA61DA690C
:105450000A43DA61D6E72068FFF7DCFE23680969B2
:10546000DA6942F40062DA61DA6922F48062DA61B0
:10547000DA6942EA0122ECE7036A10B501248C40A4
:1054800023EA04030362036A8A401A43026210BDDE
:1054900010B5044601220068FFF7EEFF2368064AB4
:1054A000934202BF5A6C42F400425A641A6842F0B6
:1054B00001021A60002010BD00000140FFF7E8BFA4
:1054C000036A10B504248C4023EA04030362036AD0
:1054D0008A401A43026210BD10B5044604220068D7
:1054E000FFF7EEFF23685A6C42F400425A641A68D0
:1054F00042F001021A60002010BD00002DE9F047C3
:105500000668C2683369C16923F4405313433361A9
:10551000044683680069F2680343606922F4164216
:10552000034322F00C020B431343F3607369A26937
:1055300023F440731343B1F5004F73617A4B7CD170
:105540009E4203D003F580639E4244D1FFF7CAFD1B
:10555000192505FB00F360684FF064094000B3FBB8
:10556000F0F3B3FBF9F34FEA0318FFF7BBFD6368F1
:1055700068435B00B0FBF3F7FFF7B4FD6368684373
:105580005B00B0FBF3F3B3FBF9F309FB1373DB0030
:105590003233B3FBF9F35B0003F4F877FFF7A2FDB6
:1055A000626868435200B0FBF2FAFFF79BFD636844
:1055B00068435B00B0FBF3F3B3FBF9F309FB13A300
:1055C000DB003233B3FBF9F303F0070343443B44FE
:1055D000B360BDE8F087FFF775FD192505FB00F303
:1055E00060684FF064094000B3FBF0F3B3FBF9F3DC
:1055F0004FEA0318FFF766FD636868435B00B0FB82
:10560000F3F7FFF75FFD636868435B00B0FBF3F3FC
:10561000B3FBF9F309FB1373DB003233B3FBF9F38C
:105620005B0003F4F877FFF74DFD626868435200B2
:10563000B0FBF2FAFFF746FDB9E79E4202D03B4BC2
:105640009E4240D1FFF74EFD676819254FF064096F
:1056500005FB00F3BF00B3FBF7F3B3FBF9F31F0146
:10566000FFF740FD636868439B00B0FBF3F8FFF76A
:1056700039FD636868439B00B0FBF3F3B3FBF9F3B8
:1056800009FB13831B013233B3FBF9F303F0F0087A
:10569000FFF728FD626868439200B0FBF2FAFFF75B
:1056A00021FD636868439B00B0FBF3F3B3FBF9F3A0
:1056B00009FB13A31B013233B3FBF9F303F00F0310
:1056C00043EA080383E7FFF7FDFC676819254FF0FD
:1056D000640905FB00F3BF00B3FBF7F3B3FBF9F379
:1056E0001F01FFF7EFFC636868439B00B0FBF3F812
:1056F000FFF7E8FC636868439B00B0FBF3F3B3FB80
:10570000F9F309FB13831B013233B3FBF9F303F005
:10571000F008FFF7D7FC626868439200B0FBF2FA2A
:10572000FFF7D0FCBDE700BF0010014000140140AE
:10573000704710B5044640B390F8393003F0FF02CB
:105740001BB980F83820FFF7F3FF2268242384F880
:105750003930D36823F40053D3602046FFF7CEFEE0
:1057600023681A6922F490421A615A6922F02A02C7
:105770005A61DA6842F40052DA6000202023E063C4
:1057800084F8393084F83A3010BD012010BD000093
:10579000174A1849936803F00C03042B10B50DD079
:1057A000082B0DD0144B0B60114B144A9B68C3F3AC
:1057B0000313D25C0B68D3400B6010BD104BF2E7B3
:1057C0005468506852686302C2F3881200F03F00C8
:1057D0004CBF0B4B084BB3FBF0F35343044A5268E6
:1057E000C2F3014201325200B3FBF2F3DBE700BF28
:1057F00000380240700300200024F400FC1301086C
:1058000000127A00002808DB4209012300F01F0083
:1058100003FA00F0014B43F82200704700E100E07A
:1058200000280DDB4309012200F01F0002FA00F0FE
:105830002033044A42F82300BFF34F8FBFF36F8F2A
:10584000704700BF00E100E0F7B500F063FF071EFE
:1058500026DB144E56F8270010B3134CBD016359D4
:105860001A68120606D5DB68190603D50F4B01210D
:105870001B68984763591A68920608D5DB68980632
:1058800005D50A4B56F827001B6800219847635935
:105890001A68110704D55A69D20744BF5B6801939F
:1058A00003B0F0BD0C1B0020F02F0020081B0020CF
:1058B0000148FFF7C9BF00BF001401400148FFF7CE
:1058C000C3BF00BF004400400148FFF7BDBF00BF99
:1058D00000100140034B19604168034B43F821203D
:1058E000704700BF081B00200C1B002009C830B403
:1058F000204CA0420AD004F58064A0421AD0A4F53E
:105900005044A04219D11C4C262001E01B4C2520FC
:105910001B4D9B01BAB1EA58D36889B943F0200303
:10592000D360184B00F110029B6843F8224030BC52
:10593000FFF768BF144C4720EAE700242046E7E75A
:1059400043F08003ECE7EB58DA6849B922F0200213
:10595000DA60DB6813F0800F09D130BCFFF760BF5D
:1059600022F08002DA60DB6813F0200FF4E730BC2D
:10597000704700BF00100140BD580008C95800081A
:10598000F02F002000ED00E0B158000838B5446861
:105990000546284600F062FE0028FAD0A401034B19
:1059A0001B595868C0F3080038BD00BFF02F002015
:1059B00070B5456806460C46304600F065FE002886
:1059C000FAD0AD01024B5B59C4F308045C6070BDB2
:1059D000F02F00207FB50023072855D8DFE800F01E
:1059E0000413202D3A54544700932A4B2A481A6B2B
:1059F00042F001021A631B6B03F001030093009B4A
:105A000007B05DF804FB0193224B24481A6B42F067
:105A100002021A631B6B03F002030193019BEFE781
:105A200002931C4B1E481A6B42F004021A631B6B54
:105A300003F004030293029BE2E70393154B19481A
:105A40001A6B42F008021A631B6B03F008030393FE
:105A5000039BD5E704930F4B13481A6B42F01002D7
:105A60001A631B6B03F010030493049BC8E70593B0
:105A7000084B0E481A6B42F080021A631B6B03F04E
:105A800080030593059BBBE70948FBF723FE002035
:105A9000B6E700BF003802400000024000040240A8
:105AA00000080240000C024000100240001C0240AE
:105AB0001C150108431C10B5044604D17422064984
:105AC0000648FBF753FD2046002100F0DFFA04F002
:105AD0000F040120A04010BD3D1501086615010806
