:020000040800F2
:1000000000000220C9170008FD170008FD170008AE
:10001000FD170008FD170008FD170008000000008C
:10002000000000000000000000000000FD170008B4
:10003000FD17000800000000FD170008FD1700086C
:10004000FD170008FD170008FD170008FD17000840
:10005000FD170008FD170008FD170008FD17000830
:10006000FD170008FD170008FD170008FD17000820
:10007000FD170008FD170008FD170008FD17000810
:10008000FD170008FD170008FD170008000000001C
:10009000000000000000000000000000FD17000844
:1000A000FD170008FD170008FD170008FD170008E0
:1000B000FD170008FD170008FD170008FD170008D0
:1000C000FD170008FD170008FD170008FD170008C0
:1000D000FD170008FD170008FD17000800000000CC
:1000E000FD170008FD170008FD17000800000000BC
:1000F000000000000000000000000000FD170008E4
:1001000000000000FD170008FD170008FD1700089B
:1001100000000000000000000000000000000000DF
:10012000FD170008FD170008FD170008FD1700085F
:10013000FD170008000000000000000000000000A3
:10014000000000000000000000000000FD17000893
:10015000FD170008FD170008FD170008FD1700082F
:10016000FD170008FD170008000000000000000057
:10017000000000000000000000000000000000007F
:1001800000000000FD170008000000000000000053
:10019000FD170008FD17000810B5054C237833B98A
:1001A000044B13B10448AFF300800123237010BD4A
:1001B000980B002000000000DC1C01080C4B43B130
:1001C0000C480D4910B5AFF300800C48036823B903
:1001D00010BD0A48036833B97047094B002BF7D0AC
:1001E000BDE810401847064B002BF5D0184700BF5C
:1001F00000000000DC1C01089C0B0020900B00207C
:1002000000000000154B002B08BF134B9D46A3F5C3
:10021000803A00218B460F461348144A121A08F000
:100220002DFA0F4B002B00D098470E4B002B00D01F
:1002300098470020002104000D000D48002802D03E
:100240000C4802F046F907F0EFFF2000290002F009
:1002500047FA02F03BF900BF00000800000002204E
:1002600000000000D1260008980B0020C0130020D9
:10027000D32400080000000070470000024A1378F1
:1002800083F0010313707047640F002010B504461B
:10029000044B40F8043B23690BB19B689847204608
:1002A00010BD00BFD80B01080368184708B10B68E0
:1002B00003607047704710B55021044605F082FE78
:1002C000204610BD10B5094B036003F120027C33BA
:1002D0000446C0F8BC20C0F8C030BC3005F0B6FD04
:1002E000204605F0C5F9204610BD00BFFC0D0108F1
:1002F000A0F1BC00E6E7A0F1C000E3E710B50446BA
:1003000005F006FC237E1BB104F0FCFE00232376DF
:1003100005F02AFC204610BD10B50446FFF7B6FFD5
:100320002046D42105F04EFE204610BD10B50B4CE2
:10033000204600F001FC2046042100F039FC204654
:10034000012101F087F92046054905F091FD4FF0A4
:100350007E50BDE8104005F0D9BC00BF380D00202C
:100360008B010108C36810B504460BB19B68984720
:10037000204610BD38B50546064B45F8283B0446D7
:1003800004F003FF2846FFF7EDFF204604F096FE39
:10039000204638BD640B010810B50446FFF7EAFF9C
:1003A0002046402105F00EFE204610BD38B5CB6832
:1003B00004460D460BB15B689847EB68E360204646
:1003C00038BD0000034610B553F8042B044602B9AB
:1003D000036022689A4204D05D220349034805F075
:1003E000FBFB206810BD00BF8F010108B1010108AF
:1003F00008B50248FFF7E6FF08BD00BFE010002087
:1004000008B50248FFF7DEFF08BD00BFE01000207E
:10041000F0B52DED028B254C254D83B02046FFF71E
:10042000D1FF244801F0ECF908EE100A2046FFF74E
:10043000C9FF18EE100A0DF05DFCD5ED007A1E4CD8
:1004400068EE277A064617EE900A0F460DF052FC2A
:100450003B46CDE9000132461849194805F008FD30
:1004600000221146204600F065FB3B463246154906
:10047000204605F0FDFC01222046002100F05AFB39
:10048000D5ED007A68EE277A17EE900A0DF032FC6F
:1004900002460B4620460C4905F0EAFC03B0BDECD1
:1004A000028BBDE8F040FFF7E9BE00BFE01000207E
:1004B0009C010020EC0C0020380D00205C0101089C
:1004C000480F0020740101087D01010800B589B0C2
:1004D000FFF72CFF2D492E4805F0CAFC2B492D486B
:1004E00005F0C6FC4FF4FA7005F01EFC284800F039
:1004F00023FB10220021684608F0C0F8264B009329
:100500006946264B039304A8FFF750FF05F000FB54
:10051000234B5A6B1AB993F83830002B33D121484A
:10052000214CFFF71FFF04A91E48FFF73FFF0023E0
:100530001E4A1B4804F011FE05F016FB04A8FFF745
:1005400011FF6846FFF70EFF05F0E2FA237E1BB9A4
:1005500004F0BEFD012323764FF07C511248144D68
:10056000144C02F0BDF905F0FFFA2B780BB1FFF740
:100570004FFF63681A6823681A420EBFA268E268D8
:100580001B041360F1E704F0A3FDC8E7C5010108EF
:10059000380D0020480F00207D020008500101089E
:1005A000B80B0020E00B0020F80B002020A1070072
:1005B000640F0020980D002010B50446FFF782FE5E
:1005C0002046D82105F0FEFC204610BDA0F1BC005D
:1005D000F2E7A0F1C000EFE710B5044B0360703301
:1005E0000446436005F032FC204610BD9402010829
:1005F000A0F10400F0E700BF10B5044B03607033B6
:1006000004464360FFF7E8FF204610BD14020108CE
:10061000A0F10400F0E700BF10B50446FFF7DCFFCF
:100620002046582105F0CEFC204610BDA0F1040064
:10063000F2E710B50446FFF7DFFF2046602105F022
:10064000C1FC204610BDA0F10400F2E72DE9F34102
:10065000414D424C424EDFF84C814FF4E137009758
:10066000002303220221284605F0DEFA28463D4DEC
:100670002246314601F028FF002300970322022181
:10068000284605F0D1FA3146374E384F22462846E3
:1006900001F01AFF364D18221921304604F0CCFD26
:1006A00022463449304601F00FFF284604F0DEFCB4
:1006B0002846314B40F8283B1022002107F0DEFF8E
:1006C000012322462D4985F83830284601F0FCFEEA
:1006D0002B4B2C4D1A784FF080735200009331460B
:1006E000294B2A4E02F0FE02284600F0B9FF2246AE
:1006F00027492846002501F0E7FE357605F008FA7F
:100700003046142102F006FA05F02EFA224621495D
:1007100030463E4601F0D8FE1F4B46F8043B4046AB
:10072000FFF750FE2946304601F07AF84046FFF7C1
:1007300049FE2246194C1A49384601F0C5FE2946A1
:100740001C22204607F09AFF0521204602B0BDE892
:10075000F04104F085BC00BF8C0E00209801002001
:10076000C5020008B40D0020140C0020E80C002085
:10077000B80B00208D020008640B01087503000807
:10078000A0010020380D002000140400F80B002008
:10079000F9050008FD02000840010108980D00203D
:1007A00079020008E010002003681B6918470368FD
:1007B0009B69184703689B6A18474FF0FF307047E2
:1007C000112070477047704770474FF0FF307047F7
:1007D00038B5036804460D465B6D012198472368D0
:1007E00029111B6E20469847012005F080FA2368E6
:1007F00000215B6D20469847012005F078FA2368B8
:1008000020465B6D01219847236829461B6E2046D0
:100810009847012005F06BFA236820465B6D0021A4
:1008200098470120BDE8384005F061BA07B590F857
:100830005D3081B143F0010380F85D30002390F812
:100840005C10009300F15D020123806D04F06AFDED
:1008500003B05DF804FB23F00103EDE707B590F862
:100860005D3081B143F0080380F85D30002390F8DB
:100870005C10009300F15D020123806D04F052FDD5
:1008800003B05DF804FB23F00803EDE770B50D46F7
:1008900000210446164605F0B1FA0B4BA56103F1A1
:1008A000080278336360C5F30723E662E36106F468
:1008B0007046C5F3074305F07065226023626562E8
:1008C0002663204670BD00BF8C02010838B503685E
:1008D00004460D465B6D01219847236829461B6E2F
:1008E00020469847012005F002FA236820465B6DF8
:1008F000002198470120BDE8384005F0F8B938B527
:10090000036804460D469B6D00219847012005F0C1
:10091000EEF9236820465B6E294698472820BDE8FB
:10092000384005F0E4B938B5036804460D469B6DC0
:1009300001219847012005F0DAF9236820465B6E13
:10094000294698472820BDE8384005F0D0B9000076
:1009500010B4064BC46A9C4241F0080108BF02F083
:10096000020211435DF8044BFFF7C9BF15000043B5
:10097000436AB3F1407F70B506460C46154635D044
:100980000CDCB3F1807F26D0B3F1007F27D063B9B0
:10099000032A20D8DFE802F02128191CB3F1A06F48
:1009A0003BD004DCB3F1806F2ED0002415E0B3F10E
:1009B000C06F5ED0B3F1E06FF7D1012D67D0022D8B
:1009C00027D0002D18BF002407E0C3691C4404E0B1
:1009D000C3694033FAE705B10834204670BDC369E6
:1009E0005B109942F9DBCC1A4034F6E7032A0BD8A6
:1009F00001A353F822F000BFDB090008130A000826
:100A0000E9090008170A0008012DEDD0022D02D0D7
:100A10001DB92034E1E76034DFE7012D96F834306A
:100A200013DC7BB1002296F828103046FFF790FFC8
:100A3000002386F8343096F8402096F82810304687
:100A4000FFF786FF04EB8514C7E7012B0FD00022C8
:100A500096F828103046FFF77BFF012386F83430E4
:100A600096F8402096F828103046FFF771FF023DB7
:100A7000E8E7012AB8D0022A02D0002A9DD1ACE7CB
:100A8000C3695A109142A4BF40338C1A9EE71034B8
:100A9000A3E700BF0A2938B504460D4615D1002347
:100AA0008363C36B026A01339342C36301DB002398
:100AB000E363E26BA16B2046FFF75AFF40F0800131
:100AC0002046FFF71CFF284638BDFFF72CFFA36B1D
:100AD000E26901339342A363EBDB0023A363E36B7F
:100AE000226A01339A42E363E1DDE2E7002910B5AF
:100AF000044611DA0023A363002A14DA0023E36317
:100B0000A16BE26B2046FFF733FF40F080012046E7
:100B1000BDE81040FFF7F3BEC369994201DB013B1A
:100B2000E9E78163E8E7236A9A4201DB013BE6E7F4
:100B3000E263E5E7FFF7DABF38B58269174B9A42FF
:100B4000044611D10125002290F8281080F8345075
:100B5000FFF7FEFE29462046FFF7D1FE142005F0E0
:100B6000E3F8002384F8343001212046FFF7C7FE64
:100B7000142005F0D9F8A269084B9A4206D194F8DE
:100B8000402094F828102046FFF7E2FE002220467D
:100B90001146BDE83840FFF7A9BF00BF0028040593
:100BA00003460A4683F8401090F82810FFF7D0BE9D
:100BB00038B58269164B80F828109A42044623D132
:100BC00090F834507DB990F84020FFF7C1FE012322
:100BD00084F834302A4694F828102046FFF7B8FEEF
:100BE00084F8345038BD002280F83420FFF7B0FE7E
:100BF000012394F8402094F8281084F834302046DB
:100C0000BDE83840FFF7A4BE90F84020F8E700BFE9
:100C100000280405036870B59B6D0D46002104464D
:100C20009847002D43D103212046FFF74FFE0F20A8
:100C300005F07AF803212046FFF748FE0F2005F063
:100C400073F803212046FFF741FE0F2005F06CF8F2
:100C500020460221FFF73AFE282005F048F8E26A14
:100C6000B14B9A4200F0AF8279D8B04B9A4200F073
:100C700042843FD8AE4B9A4200F010841FD8AD4B4F
:100C80009A4200F03283A369AB4A934200F0A284F7
:100C900000F29784B3F5883F00F0A58400F28A84BF
:100CA000B3F5843F00F09F84082300F09DBC2046EC
:100CB0003021FFF724FE012005F036F8CFE79F4BE7
:100CC0009A42A36900F0C1809D498A42DBD1B3F505
:100CD000053F00F0058100F2FC80B3F58C3F00F089
:100CE000148100F2F080B3F5843F00F00E81B3F57B
:100CF000883FB7E0934B9A42A36900F0438213D830
:100D000091498A42BFD1914A93420BD000F2B481FB
:100D1000B3F5883F06D0B3F58C3F03D0B3F5843FDD
:100D200040F0C6816564B4E189498A4200F0A98235
:100D300001F57F41FF318A42A5D17F4A934200F0FD
:100D40007C8200F27282B3F58C3F00F07882B3F5BA
:100D5000063F00F094827F4804F0BEFE76E27E4BB0
:100D60009A4249D03CD87D4B9A4205D01AD8A3F577
:100D70000053023B9A4286D10A2004F0D5FFA369B2
:100D8000B3F58C3F00F0AF8200F29A82B3F5843F56
:100D900000F09F82B3F5883F00F09B826D4804F01D
:100DA0009BFE98E26E4B9A42A36900F0CF826D4998
:100DB0008A427FF468AF604A934200F0A18100F25A
:100DC0008081B3F5883F00F09B8100F27481B3F518
:100DD000843F00F09581082363640A23A3648DE1B6
:100DE000614B9A42A3691AD8604EB24280F00B81DF
:100DF0005F4B9A427FF447AFA3694F4A934200F09A
:100E0000C88000F2BD80B3F5883F00F0F98000F2A1
:100E10008480B3F5843F00F0F3800823F1E0554966
:100E20008A427FF430AF444A934200F0A48300F238
:100E30009983B3F5883F00F0BA8300F28D83B3F550
:100E4000843F00F0B4830823B2E3B3F5023F47D0F8
:100E500024D8B3F5883F58D01AD8B3F5843F54D07E
:100E6000B3F5863F51D03B4804F036FEA16C2046D6
:100E700041F02001FFF743FDE16C204641F00801FD
:100E8000FFF73DFD10212046FFF739FD80210BE1E2
:100E9000B3F58A3F39D0B3F58C3FE3E7B3F5063FAE
:100EA0001ED006D8B3F5043F1AD0B3F5053FDAD10A
:100EB00016E0314A93421FD002F5006293421BD0E4
:100EC000B3F5083FF3E7B3F5023F09D0B3F5043FAC
:100ED000EDE7B3F50A3F03D008D8B3F5063FEFD1ED
:100EE00045F00A03636445F00C0513E0174A93428A
:100EF0000BD0224A9342B6D145F0020345F00405D7
:100F00006364A5640123E364B0E745F0020363640E
:100F100045F00405A5640023F5E7B3F58C3F6FD0D9
:100F20000A4A934277E700BF0600038119000921AE
:100F30000D00021117000809000C0303030008212B
:100F4000040008210500008115000043000802018B
:100F500008000081CB010108110002C10C200381AF
:100F600016000AA10E000BA1130003C1120003C159
:100F7000100003C11A0003C5000C04030018040389
:100F8000C74A934205D036D8A2F5406293427FF417
:100F900044AFC44804F0A0FD616C204641F021013B
:100FA000FFF7ADFC1C212046FFF7A9FC2823636551
:100FB00078212046FFF7A3FCE26ABB4B9A420CBFA4
:100FC0000C2308232365616D236DC1F3011143F0E8
:100FD000500319432046FFF792FC0A2004F0A4FEB8
:100FE00020466C21FFF78BFC0A2004F09DFE616C0B
:100FF00041F02001A6E1AD4A9342CAD0AC4AC5E710
:1010000000236364C8E7AB4A934209D00CD8B3F518
:10101000883F05D0B3F58C3F02D0B3F5843F29D18A
:1010200000236364042511E09D4A934206D0A04A40
:10103000934208D002F1FC2293421BD1994804F05C
:101040004BFD002502E0082363640525616C204602
:1010500041F02101FFF753FC45F010012046FFF756
:101060004EFC2823636578212046FFF748FCE36A9D
:10107000B342A4E70823D4E7894A934206D08C4AB6
:10108000934203D002F1FC22934211D1854804F02F
:1010900023FD616C204641F02401FFF730FC042160
:1010A0002046FFF72CFC40212046FFF728FC9EE756
:1010B00045F0080536E6B3F58C3F21D07D4A9342D2
:1010C00087E67D4A934209D00ED8A2F58232934238
:1010D00016D002F57A4293427FF47DAE0823636412
:1010E0000A23A36401250FE06D4A934203D0704A9E
:1010F00093427FF470AE6B4804F0EEFC002503E0F1
:10110000002502236564A364A16C204641F0200100
:10111000FFF7F5FB06212046FFF7F1FB052004F061
:1011200003FE45F008012046FFF7E9FB10212046A9
:10113000FFF7E5FB616C204641F02101FFF7DFFB83
:101140002823636578212046FFF7D9FB616D0C23C6
:10115000C1F30111236541F05C012046FFF7CFFB8D
:101160000A2004F0E1FD20466E21FFF7C8FB0A20AB
:1011700004F0DAFDA16C204641F02001FFF7BFFB2F
:10118000102191E7B3F58C3F06D0B3F5033F18D09B
:10119000444804F0A1FC01E000236364616C204634
:1011A00041F02101FFF7ABFB0A2004F0BDFD052152
:1011B0002046FFF7A4FB02212046FFF7A0FB0821F1
:1011C00072E70423E9E7A369B3F58C3F06D0B3F5D2
:1011D000033F28D0334804F07FFC01E00023636420
:1011E000616C204641F02101FFF789FB0421204674
:1011F000FFF785FB20461021FFF781FB20464221A7
:10120000FFF77DFB202363652046A021FFF777FBD6
:1012100094F85410204641F0C001FFF770FB0A20FB
:1012200004F082FDC7E70423D9E7244A934204D09F
:1012300002F57F0293427FF48EAD2E2100E0222141
:101240002046FFF75CFB0A2004F06EFD02212046D9
:10125000FFF755FB0A2004F067FD20460621FFF743
:101260004EFB20461421FFF74AFB20460221FFF7E0
:1012700097FC20460421BDE87040FFF799BC2A2165
:10128000DEE70E4A934208D002F57F02934204D073
:1012900002F17F4293427FF45EAD2C21D0E700BF84
:1012A00000180403CB010108100003C1000C030463
:1012B000001003070008020100140403000C0403DB
:1012C000B3F5023F03D0B3F5043F7FF467AD0423C9
:1012D00000E002236364616C204641F02101FFF7C6
:1012E0000EFB072183E70023F4E717212046FFF7D1
:1012F00006FB0A2004F018FDA369BC4A93423FF4A0
:101300002AAD0ED8B3F5883F1BD004D8B3F5843F7F
:1013100017D0282116E0B3F58C3F12D0B44A93427F
:10132000F6E7B44A93423FF416AD04D8A2F5406202
:101330009342EED10FE5B04A93423FF40CADAF4A71
:10134000F6E720212046FFF7DAFA7FE7B3F5053FFD
:1013500011D016D8B3F5883F2AD006D8B3F5843F0C
:1013600026D0A74804F0B8FB09E0B3F5023F02D04D
:10137000B3F5043FF5D1082363640A23A364002571
:101380001AE09A4A934213D005D8994A93420FD053
:101390009C4A9342EEE79C4A934209D002F582327E
:1013A0009342DED1082363640A23A364012503E08A
:1013B000002502236564A36420460021FFF79FFAFD
:1013C000A16C204641F02001FFF799FA20467121D7
:1013D000FFF795FA20460021FFF7A5FA204679216C
:1013E000FFF78DFA2046D521FFF789FA20467021B4
:1013F000FFF785FA20467821FFF781FA204605217C
:10140000FFF77DFA45F008012046FFF778FA2046FD
:101410007221FFF774FA20460121FFF784FA204673
:101420007921FFF76CFA2046DA21FFF768FA2046A7
:101430001021FFF764FA2046DC21FFF760FA20460E
:101440008021FFF75CFA3F23636520468121FFF787
:1014500056FA616D8900204641F00301FFF74FFA0B
:101460002046D921FFF74BFA2046F121FFF747FA32
:101470002046DB21FFF743FA30212046FFF73FFAF1
:101480000A2004F051FC20467821FFF738FA616CFD
:10149000204641F02101FFF732FA6BE6A369B3F56C
:1014A000023F26D014D8B3F5883F03D00AD8B3F54D
:1014B000843F14D100236364616C3F23636561F052
:1014C00003013FE7B3F58A3FF4D0B3F58C3FF0E773
:1014D000B3F5053F0DD006D8B3F5043F09D0484811
:1014E00004F0FAFAE8E7B3F5063F02D0404A934227
:1014F000DFE70823DFE7A369B3F58C3F07D011D8F6
:10150000B3F5863F03D007D8B3F5843F12D1022349
:1015100063640423A364FEE4B3F5883FF7D0B3F516
:101520008A3FF3E7394A934211D007D8A2F5006207
:1015300093420CD00A2363640C23EBE72D4A9342B9
:101540003FF491AC2D4A93423FF48DACF2E7022375
:1015500063640423A364D5E4B3F58C3F27D0244A05
:1015600093426EE4234A934205D01BD8A2F5406211
:1015700093427FF468AC224804F0AEFA616C2046D6
:1015800041F02101FFF7BBF928236365782120464C
:10159000FFF7B5F9616D0C23C1F30111236541F02B
:1015A0005C0117E5144A9342E5D0144AE0E70023B2
:1015B0006364E3E7B3F58C3F15D00D4A9342FFF720
:1015C00071BB134A934205D008D8A2F57C429342DE
:1015D0007FF46AAB0A4804F07FFA08E5054A9342B3
:1015E000F8D0054AF3E70023636400E5000C030329
:1015F0000008020100180403000C03040010030794
:10160000CB010108001001020010030300140403C1
:10161000000C040338B5044664200D4604F084FB36
:10162000A2690B4B9A4206D1012384F83430294633
:101630002046FFF7EFFA0023204684F8343029468D
:10164000FFF7E8FA2046BDE83840FFF775BA00BF5B
:101650000028040503680129DB6D18BF0021184725
:1016600073B50E4615461946069A0446FFF70EF95D
:10167000104BA66503F1080225F0010578332260BE
:10168000636084F85C5030460B4903F01BFE224631
:10169000002502F85D5F012394F85C100095A06DB1
:1016A00003F040FE20462946FFF7B4FF204602B073
:1016B00070BD00BF0C020108A086010090F8342024
:1016C00090F85D3042B921B143F0040380F85D30F9
:1016D000704723F00403F9E711B143F00203F5E783
:1016E00023F00203F2E713B5FFF7E8FF002390F8B9
:1016F0005C10009300F15D020123806D03F012FE87
:1017000002B010BD90F85D30CA0703F00F0348BF68
:1017100043F0100380F85D308B0742BF90F85D30D6
:1017200043F0200380F85D304A0742BF90F85D30F7
:1017300043F0400380F85D300B0742BF90F85D3006
:1017400063F07F0380F85D30704713B5FFF7DAFF71
:10175000002390F85C10009300F15D020123806D7E
:1017600003F0E0FD02B010BD30B50D4685B001219B
:10177000FFF7A4FF2911FFF7C5FF002190F85D30A6
:101780008DF80830FFF79AFF012190F85D308DF851
:101790000930FFF793FF2946FFF7B4FF002190F8C7
:1017A0005D308DF80A30FFF789FF90F85D308DF8D5
:1017B0000B30002390F85C10009302AA0423806D84
:1017C00003F0B0FD05B030BDDFF820D0002103E00C
:1017D000074B5B58435004310648074B42189A4266
:1017E000F6D303F001FBFEF70DFD70470000022069
:1017F000F81F010898010020940B0020FEE700006C
:1018000008B500F07BF807EE900AB8EE677ADFEDD6
:10181000037A67EE277A17EE900A08BD010880392F
:10182000A1F1F0039BB20F2B73B504460D4649D9C5
:101830002A49284603F0EAFD28492060284603F09B
:1018400001FE26490646284603F0A4FD236801331D
:1018500004D13C222249234804F0BEF9731C04D170
:101860003D221F49204804F0B7F90122E2612168B6
:101870001E4AA4F848500023C6F30436914284F867
:101880004A6023646360A3602361A361236263628F
:10189000E362A362E360236363610AD10193144BA3
:1018A0005A6C42F480725A645B6C03F48073019347
:1018B000019B204601F04EFC10B10E4804F00CF9DB
:1018C00002B070BD0C49284603F0A0FD0A49206013
:1018D000284603F0B7FD0646B8E700BF0C03010831
:1018E0006C060108DA06010804070108002001401F
:1018F000003802401D070108C00301081FB5044657
:1019000010220021684606F0B9FE94F84A2001230F
:1019100001930293122A47D8DFE802F00C0B0A2346
:101920002527292B2D2F31333537393B3D3F4400B7
:10193000022300931D4A536823F440036946536011
:10194000204601F065FD204601F0AEFC0A2120464C
:1019500001F00AFD40BB204601F056FD80B204B004
:1019600010BD0323E5E70423E3E70523E1E70623AE
:10197000DFE70723DDE70823DBE70923D9E70A23AD
:10198000D7E70B23D5E70C23D3E70D23D1E70E23AD
:10199000CFE70F23CDE7064BCBE7112300930723B7
:1019A0000293C7E71223F9E70020D8E7002301409C
:1019B000120000107FB50023072855D8DFE800F09B
:1019C0000413202D3A54544700932A4B2A481A6B8B
:1019D00042F001021A631B6B03F001030093009BAA
:1019E00007B05DF804FB0193224B24481A6B42F0C8
:1019F00002021A631B6B03F002030193019BEFE7E2
:101A000002931C4B1E481A6B42F004021A631B6BB4
:101A100003F004030293029BE2E70393154B19487A
:101A20001A6B42F008021A631B6B03F0080303935E
:101A3000039BD5E704930F4B13481A6B42F0100237
:101A40001A631B6B03F010030493049BC8E7059310
:101A5000084B0E481A6B42F080021A631B6B03F0AE
:101A600080030593059BBBE7094804F035F8002087
:101A7000B6E700BF00380240000002400004024008
:101A800000080240000C024000100240001C02400E
:101A900033070108431C10B5044604D174220649DB
:101AA000064804F099F82046002100F03DFE04F0BD
:101AB0000F040120A04010BD54070108AC07010825
:101AC00070B504464B1C0E46218216D0C1F303109C
:101AD000FFF770FF05463046FFF7DCFF238A074A11
:101AE000656103F00F03206052F82330A36105F114
:101AF000100318356360A560E56070BD78080108C3
:101B0000B0F9100000F0A8BE10B58369446971B93E
:101B1000216893FAA3F2B2FA82F20320520000FA8B
:101B200002F221EA020293FAA3F3226010BD2268B6
:101B300093FAA3F1B1FA81F193FAA3F303204900D8
:101B400000FA01F1B3FA83F322EA01025B000121FA
:101B500001FA03F31343236010BD000070B5134C6A
:101B600023681A69950707D5DA68900704D56FF0DE
:101B700002021A6103F004FC23681A69510713D5A5
:101B8000DA68520710D56FF00402094E1A615D6AD7
:101B90003368EB1AB3F57A7F06D301F0CBFA2368EA
:101BA00005F57A729A63356070BD00BF5C13002042
:101BB000680F002030B589B001A903A802F0D2FD5A
:101BC00002F0A0FD00230293254B01901A6C254CD6
:101BD00042F008021A641A6C02F008020292029A99
:101BE0001A6A42F008021A621A6A22F008021A629D
:101BF000069AA3F50B3323604FF0FF33E3601A4BD3
:101C0000002A2AD1B0FBF3F00138002560601548A6
:101C10002561A560656102F085FE144B144A9B683E
:101C20001048C3F80821134B4FF480225A6029460C
:101C300002F05CFF04210B4802F058FF23680E4AB3
:101C4000596A1160126802F57A729A63DA68284656
:101C500042F00402DA6009B030BD4000D2E700BFB4
:101C6000003802405C13002040420F0000ED00E00D
:101C70005D1B000800E100E0680F002010B5054B77
:101C80009C68204601F07CFE2046BDE8104002F032
:101C9000D5B900BF6C0F002010B5054B5C6820461D
:101CA00001F06EFE2046BDE8104002F0C7B900BF4B
:101CB0006C0F002010B5054B1C68204601F060FE3B
:101CC0002046BDE8104002F0B9B900BF6C0F0020FB
:101CD00070B590F96420254C90F96530A56802F143
:101CE000100645F8261003F11006A56845F82610E1
:101CF00090F8681000290CBF02210121002A4FEA48
:101D000001110EDB1A488518CCB2002B85F8004370
:101D10001EDA03F00F041748C9B2002A01551ADA77
:101D200070BD02F00F0004380444CDB2002B2576BC
:101D3000EFDB03F1604202F5614282F8005303F0E9
:101D40001F02590901239340094A42F8213070BD0E
:101D5000184480F8004302F01F01500901228A4014
:101D60000349002B41F82020E9DA70BD00ED00E0C6
:101D700000E100E014ED00E010B590F9654090F945
:101D8000640001F0DDFB2046BDE8104001F0D8BB47
:101D900090F85830012B00F104010AD007D3022B30
:101DA000054818BF0020054A42F823107047044830
:101DB000F9E70448F7E700BF7D1C00086C0F00201E
:101DC000B51C0008991C0008194A03681268C16D07
:101DD000B2FBF1F1142243604A439969890701D5A6
:101DE000013AFAD1134A934209D1134B1A6A42F4C9
:101DF00000121A621A6A22F400121A6270470F4A1D
:101E0000934208D10C4B1A6A42F480021A621A6A91
:101E100022F48002F1E70A4A9342EFD1064B1A6A94
:101E200042F400021A621A6A22F40002E5E700BFD7
:101E3000A801002000540040003802400058004033
:101E4000005C0040F8B5124BC26D1B68B3FBF2F2A8
:101E500014235343426804460E46071D91698907BF
:101E600001D5013BFAD100252946A660E560384638
:101E700002F0A4F94FF480436361A56125626562B5
:101E80002561E561384601F083FBE665F8BD00BFDA
:101E9000A8010020F0B50E46044685B044493046FE
:101EA000154603F0B3FA43490746284603F0AEFA55
:101EB000A4F860600146A4F86250384603F088FA3E
:101EC0002060013005D140F20D123B493B4803F040
:101ED00083FE23683A4A93423CD10023019384F85D
:101EE0005830384B1A6C42F400121A641B6C03F41D
:101EF00000130193019B1F2384F86430202384F88E
:101F000065302B49304603F045FA2A49284603F04C
:101F100041FA0421304600F09FFC0421284600F0DD
:101F20009BFCE36D0BB9284BE3652046FFF74CFFA4
:101F3000E16D2046FFF786FF002384F8693084F8BE
:101F4000683084F86A3084F86730042384F8663097
:101F500005B0F0BD1D4A934213D1012384F85830D7
:101F600000230293174B1A6C42F480021A641B6C14
:101F700003F480030293029B212384F8643022231C
:101F8000BDE7134A9342BCD1022384F858300023A2
:101F900003930C4B1A6C42F400021A641B6C03F49A
:101FA00000030393039B482384F864304923A6E786
:101FB0002C040108F0030108BF07010816080108F6
:101FC0000054004000380240A08601000058004044
:101FD000005C00402DE9F3411E4690F86630042B6A
:101FE0000F4604469046089900F1040501D0082BDD
:101FF0003FD100293BD0042384F86630002384F8C5
:1020000067302046FFF7C4FE01462046FFF760FE1A
:1020100094F8663000934246B3B2B9B2284601F054
:1020200025FBF0B9194B1D68E36DB5FBF3F31E25D5
:1020300006FB05555D4394F8673013F01E0F01D180
:10204000013D1ED12046FFF797FE1DB194F8673081
:10205000082B08D0B4F96220B4F960102046FFF7CD
:1020600019FF6FF00106304602B0BDE8F081012390
:10207000C2E7013B012BC1D809B10823BCE7022309
:10208000BAE7012003F033FED5E700BFA801002026
:10209000436F07B5BBB1D0F88430A3B190F86C2082
:1020A0007AB1082280F8622090F86220B0F86810B7
:1020B00000929BB2D0F8802001F042FB03B05DF8A3
:1020C00004FB0222EEE7082380F86330F6E70823DA
:1020D00080F86330704738B5051D04460261284614
:1020E00001F056FA2046FFF753FE01462046FFF75F
:1020F000EFFD2846BDE8384001F090BB70B590F880
:1021000064500446061F05B1C568B4F95E20B4F9F1
:102110005C103046FFF7BEFE45B1012384F8643001
:1021200000232A4619463046FFF7D5FF022384F8DC
:10213000633070BD19B9012380F8653070470129FB
:1021400008BF80F866107047002380F8653070473C
:10215000002380F86630704701F060BB10B504467C
:1021600050F80429536823F4E0635360FFF704FE3A
:10217000022384F8633010BD10B588B003F0C8FCAA
:10218000052101A802F06CFF0424039B019A1A6048
:10219000962003F0C9FD019B049A1B04136096204E
:1021A00003F0C2FD013CF0D10424039B019A1A60A4
:1021B0004FF4C87003F0B8FD019B049A1B04136030
:1021C0004FF4C87003F0B0FD013CEED1DCE7000035
:1021D00070B50D46A0B0044603F09AFC2B4622468B
:1021E0008021684608F022FC051E03DC03F0BCFCDD
:1021F00020B070BD094B1B6823B903220221084897
:1022000000F0D4FD064E00241DF8041030460134C1
:1022100000F064FFA542F7D1E8E700BFCC10002032
:102220004C1200200FB407B504A951F8040B01911A
:10223000FFF7CEFF03B05DF804EB04B0704708B5BC
:1022400002F07EFE00F05EFF02F070FEBDE8084086
:1022500002F076BE08B5084B1B685BB9022107483F
:10226000032200F0A3FD4FF416510448BDE80840D6
:1022700000F076BD08BD00BFCC1000204C1200203D
:10228000022810B501DC002010BDC31E0B4A52F815
:102290002300002142F8231030B905F0CDF90923BD
:1022A00003604FF0FF3010BD03685B699847041E60
:1022B000E9DA05F0C1F964420460F2E7800F00201A
:1022C0000228F8B50D4614460EDC134B1B680BB9FB
:1022D000FFF7C0FF114E2F19BD4210D015F8011B9A
:1022E000304600F0FBFEF7E703380D4B53F82000B3
:1022F00038B905F0A1F9092303604FF0FF342046F7
:10230000F8BD0368DB689847041EF8DA05F094F915
:1023100063420360F3E700BFCC1000204C120020A2
:10232000800F0020022810B50C460BDC104B1B68F8
:102330000BB9FFF78FFF0F4800F0BEFE207001249D
:10234000204610BD03380C4B53F8200030B905F07F
:1023500073F9092303604FF0FF34F1E703689B68CA
:102360009847041EECDA05F067F963420360E7E77B
:10237000CC1000204C120020800F0020022810B545
:1023800016DD03380B4B53F820402CB905F054F9F7
:1023900009230360204610BD23682046DB69984767
:1023A000041EF7DA05F048F9644204600024F1E7FE
:1023B0000124EFE7800F0020022810B506DC05F0AD
:1023C0003BF91D2303604FF0FF3010BD03380A4B6B
:1023D00053F8200018B905F02FF90923F2E7036834
:1023E0001B699847041E04DA05F026F9644204606C
:1023F000E9E7204610BD00BF800F0020022838B555
:102400000D4604DC4FF400534B60002038BD033808
:102410000D4B53F8204034B905F00EF90923036041
:102420004FF0FF3038BD23682046DB69984700280D
:1024300014BF4FF400534FF400436B6023682046F1
:102440009B6A98472861E0E7800F0020014803F06D
:1024500043BB00BF3008010808B5012000F036F882
:102460000C4A136810B51844EFF30881884205D36D
:10247000094B0C221A604FF0FF3010BD07490C6861
:1024800024B10749096821448842F1D210601846F6
:1024900010BD00BFA4010020BC1300208810002044
:1024A0008C100020074C08B523680546986805F095
:1024B000FDF92368D86805F0F9F90DB1FFF75CFE66
:1024C000FEE700BFC00100200120704708B5FFF7FC
:1024D000E9FF01207047002106F0C8B91FB50422AA
:1024E0000C463A230DEB020101900DF109008DF825
:1024F000083005F0C5FF214602A805F01BFB044685
:1025000038B101980368DB69984710B12046FFF79E
:10251000E2FF204604B010BD7047704708B5FFF7D2
:10252000FBFF08BD08B5FFF7F8FF08BD10B505F0C3
:1025300031FF044610B9024803F0CEFA204610BD20
:102540004408010805F02EBF004870473C08010808
:1025500010B504460948FDF735FF0023084A19461F
:1025600052F82300A04208BF42F823100133402B49
:10257000F6D10248FDF726FF10BD00BF80100020F5
:10258000800F00202DE9FF4789464049064606F0A6
:10259000DBFA044628B9FFF75DFE204604B0BDE82B
:1025A000F0873B49304606F0CFFA18B9FFF752FEE4
:1025B0000124F2E73749304606F0C6FA18B9FFF7AA
:1025C00049FE0224E9E73448344DFDF7FBFE0024C0
:1025D000A84655F82470002F40D00134402CF8D183
:1025E00005F02AF8182303602B48FDF7EBFE0EE0F8
:1025F000314602A803F032FB02A803F073FB064643
:1026000040B905F019F81323036045F824604FF032
:10261000FF34C2E702A803F053FB074602A81FB12C
:1026200003F057FB01902BE003F041FB0646002826
:10263000E7D0036802A8D3F808A003F02DFB29F423
:102640000043024601A93046D0470646C0B104F017
:10265000F3FF7642066045F82470D8E74FF0FF3369
:102660000D4845F82430FDF7ADFE337801973A2B3D
:10267000BED10422711C02A805F002FF029B019347
:10268000019B48F82430033487E700BF690801083C
:10269000700801086108010880100020800F0020E8
:1026A00070477047074B08499A68084810B5043AC4
:1026B00052F8044F41F8044F8142F9D14FF00052D3
:1026C0009A6010BD00ED00E0FCFFFF1F94010020A8
:1026D00008B5FFF7E7FFFFF7B2FDFFF7E2FF08BD20
:1026E00008B5FFF7DDFFBDE80840FDF7EFBE30B5E8
:1026F000C36891FAA1F4B4FA84F491FAA1F1032524
:10270000B1FA81F1640005FA04F4490023EA0403F4
:1027100002FA01F11943C16030BD012A02D0022A38
:1027200018BF0022FFF7E3BF2DE9F0410E46411C20
:10273000044604D13E224449444803F04DFA04F0D3
:102740000F08434BC4F3031053F82850FFF732F936
:1027500006F007070446836895FAA5F1B1FA81F1FE
:1027600095FAA5F20320490000FA01F1B2FA82F2CB
:1027700023EA01035200022101FA02F21343A3608B
:1027800087425AD8DFE807F05E1D021DB8F1070F37
:10279000C6F303203BD9626A2B0A93FAA3F1B1FA7C
:1027A00081F193FAA3F34FF00F0EB3FA83F389008C
:1027B0000EFA01F19B0022EA010200FA03F313432F
:1027C00063623B46226895FAA5F0B0FA80F095FA6C
:1027D000A5F14FF0030EB1FA81F140000EFA00F0BE
:1027E000490022EA00028B40013F1343012F23607E
:1027F00005D8636832074CBF2B43AB436360C6F315
:10280000011229462046BDE8F041FFF786BF226A43
:1028100095FAA5F3B3FA83F395FAA5F14FF00F0EED
:10282000B1FA81F19B000EFA03F3890022EA030258
:1028300000FA01F313432362C3E767220249054804
:1028400003F0CAF90023BDE7B8080108AC07010886
:1028500078080108D90A0108431C70B506460D46E0
:1028600004D188221B491C4803F0B6F906F00F0278
:102870001A4BC6F3031053F82240FFF79BF804FBF2
:1028800004F2016802EB42030B40B3FBF2F3013B9D
:10289000012B05D8EB1E022B436809D82343436064
:1028A000032D08D101222146BDE87040FFF735BF56
:1028B00023EA04034360012DF4D0052D01D0022D3D
:1028C00001D10222EFE721460022BDE87040FFF768
:1028D0000EBF00BFB8080108AC070108780801085E
:1028E00030B507EE101A284B02681A60B5EEC07AB0
:1028F000F1EE10FA89B0054628D4F7EE007AB4EE6E
:10290000677AF1EE10FAC8BFB0EE677AD5ED037AB8
:10291000F8EE677A602267EE877A0192FCEEE77A3A
:10292000AA68C5ED047A17EE903AB3FBF2F302936E
:102930000023039305930693049307932B7D013B98
:10294000032B16D8DFE803F01B0517199FED0F7A4C
:10295000DCE70424224601A90B4802F043F810B139
:102960000B4803F0B9F86B7D074821464BB102F0E4
:10297000CBF809B030BD0824ECE70C24EAE70024CA
:10298000E8E702F09DF8F4E7901000200000000056
:1029900095090108C368ABB107EE903AD0ED046A1F
:1029A000B8EE677AF8EE666AC6EE877AB7EE007A16
:1029B000F4EE477AF1EE10FAC8BFF0EE477A17EE60
:1029C000900A7047DFED017AF9E700BF00000000D0
:1029D0002DE9F0474A4C0268226086B000230E467B
:1029E00000930546FFF7D6FF116A41F21113194211
:1029F000074608D1116A40F24443194202BF1368E6
:102A000023F001031360694601A801F0ABFE3D48C5
:102A10002968002380465FFA83F9013350F8392092
:102A20008A42F8D111B9384803F056F808EBC908C2
:102A300098F8043053BB01F065FE009004980099AB
:102A40000123AB60314B30BBB1FBF3F3013B63605F
:102A500006F1FF3C2D4B6268B1FBF3FE4FEA4108E3
:102A60000021B8FBF3F8C4F80CC063468A464FF661
:102A7000FE79B3F5803F12D2B2F5803F0FD2BAF1A2
:102A8000000F00D06260F1B1E3601CE001F052FE83
:102A900000900598D3E74A00B2FBF3F3D6E7AB68A2
:102AA0005B00AB6030BB0EFB03F2BCFBF3F34B45AA
:102AB00002F1FF3221D8B2F5803F1ED31448626084
:102AC000E36003F009F800230D482361A36001F0DF
:102AD00043FF10B10E4802F0FFFFEE603946284672
:102AE000FFF7FEFE2268136843F00103136006B08F
:102AF000BDE8F08708FB03F2D7E701218A46B8E773
:102B000090100020AC0901088009010840420F0024
:102B10009509010870B50E46044688B05449304600
:102B200002F074FC2060013004D12E225149524839
:102B300003F052F84E49304602F084FC431C05462F
:102B400004D132224B494D4803F046F8C5F3043313
:102B50004B4A23752368C5F34045934265754FF092
:102B600000021AD10092474A516C41F001015164B0
:102B7000526C02F001020092009A434A934229D11A
:102B8000002305933F4B5A6C42F480325A645B6CCD
:102B900003F480330593059B58E0B3F1804F0BD1CC
:102BA0000192384A116C41F001011164126C02F07B
:102BB00001020192019AE0E734498B421AD1029254
:102BC000304A116C41F002011164126C02F00202F1
:102BD0000292029A2E4A93421AD100230693294B5D
:102BE0005A6C42F400325A645B6C03F4003306936F
:102BF000069B2BE027498B421AD10392214A116C84
:102C000041F004011164126C02F004020392039A71
:102C1000214A93421AD1002307931A4B5A6C42F46B
:102C200080225A645B6C03F480230793079B0DE0BA
:102C30001A498B42A1D1134B04921A6C42F008023C
:102C40001A641B6C03F008030493049B0849304684
:102C500002F0A0FB0023E36023610123A680A360B0
:102C600044F620612046FFF7B3FE08B070BD00BFF8
:102C7000740401080E090108680901080407010825
:102C800000000140003802400040014000040040C4
:102C9000004401400008004000480140000C004092
:102CA0000FB407B5064B07491B6805AAD8680192FF
:102CB00007F034FE03B05DF804EB04B0704700BFCA
:102CC000C0010020F40901084368094A9B0182B051
:102CD000D3581A68120706D5002201921A68019289
:102CE0005A680192019A1868C0F3401002B0704708
:102CF000981200204368034A9B01D3581868C0F318
:102D0000C01070479812002042681449920110B414
:102D100004685450531882685A60C2689A60026905
:102D2000DA6042691A61026A9A610022DA84DA6121
:102D30009A84DA859A85B0F91A20013206D10822E0
:102D40005A6118465DF8044B02F00BB8B0F9182030
:102D500001320CBF04220C22F2E700BF98120020BF
:102D600010B581600C46FFF7CFFF28B1214603481C
:102D7000BDE81040FFF794BF10BD00BFF409010883
:102D8000094B98420BD0A3F54C43984209D003F568
:102D9000504398420CBF02204FF0FF307047002094
:102DA00070470120704700BF00100140F0B50E468B
:102DB00085B0044653493046154602F027FB524978
:102DC0000746284602F022FB0146384602F000FB87
:102DD0002060013004D138224C494D4802F0FCFEFD
:102DE000022E0CD0032D0AD04649022002F00EFB21
:102DF000874202D1474802F06FFE002700E001271A
:102E00002068454B98424AD103F594335A6A42F000
:102E100010025A625A6A22F010025A62002201928B
:102E20005A6C42F010025A645B6C03F01003019379
:102E3000019BFFF7A5FF0028606004DABE2233493A
:102E4000364802F0C9FE2F49304602F0A3FA2E4957
:102E5000284602F09FFA721C03D001213046FFF78A
:102E6000FBFC6B1C03D001212846FFF7F5FC4FF457
:102E70001653A3600023E36023616361236226830A
:102E800065832046FFF740FF3FB1254B25480122CF
:102E90001A6021464C2205F0F3FA05B0F0BD224B32
:102EA000984215D103F5FA331A6A42F400321A62D5
:102EB0001A6A22F400321A62002202921A6C42F458
:102EC00000321A641B6C03F400330293029BB0E7D8
:102ED000164B9842ADD103F592335A6A42F0200264
:102EE0005A625A6A22F020025A62002203925A6CF5
:102EF00042F020025A645B6C03F020030393039BAF
:102F000097E700BF18060108C40501081E0A01085A
:102F1000780A0108940A010800100140C90A010852
:102F2000CC1000204C12002000440040001401404E
:102F3000002808DB4209012300F01F0003FA00F01B
:102F4000014B43F82200704700E100E000280DDB50
:102F50004309012200F01F0002FA00F02033044A66
:102F600042F82300BFF34F8FBFF36F8F704700BF4E
:102F700000E100E0F7B5FFF703FF071E26DB144E64
:102F800056F8270010B3134CBD0163591A68120696
:102F900006D5DB68190603D50F4B01211B6898473E
:102FA00063591A68920608D5DB68980605D50A4B5E
:102FB00056F827001B680021984763591A681107C3
:102FC00004D55A69D20744BF5B68019303B0F0BDD2
:102FD000D410002098120020D01000200148FFF7E4
:102FE000C9BF00BF001401400148FFF7C3BF00BFC5
:102FF000004400400148FFF7BDBF00BF0010014082
:10300000034B19604168034B43F82120704700BF10
:10301000D0100020D410002009C830B4204CA042A9
:103020000AD004F58064A0421AD0A4F55044A0420E
:1030300019D11C4C262001E01B4C25201B4D9B0167
:10304000BAB1EA58D36889B943F02003D360184B6A
:1030500000F110029B6843F8224030BCFFF768BFC4
:10306000144C4720EAE700242046E7E743F08003BA
:10307000ECE7EB58DA6849B922F02002DA60DB6845
:1030800013F0800F09D130BCFFF760BF22F080023F
:10309000DA60DB6813F0200FF4E730BC704700BF44
:1030A00000100140E92F0008F52F000898120020B9
:1030B00000ED00E0DD2F000838B5446805462846DD
:1030C000FFF702FE0028FAD0A401034B1B595868F1
:1030D000C0F3080038BD00BF9812002070B54568E5
:1030E00006460C463046FFF705FE0028FAD0AD0133
:1030F000024B5B59C4F308045C6070BD9812002059
:103100007047000008B50A4B1A6842F400721A6052
:103110001A6842F480621A601A6842F480721A6077
:103120000F20FEF747FDFFF7EBFF002008BD00BFB3
:10313000003C0240024A136801331360704700BF2D
:1031400058130020014B1868704700BF5813002027
:103150007047000010B50446002800F09F80036C03
:1031600023B9436480F83C30FFF7F2FF236CDB06A1
:1031700000F19280236C23F4885323F0020343F080
:1031800002032364464B5A6822F440325A605A685C
:1031900061680A435A60236821695A6822F4807280
:1031A0005A605A6842EA01225A605A68A16822F0BD
:1031B00040725A605A680A435A609A68E16822F479
:1031C00000629A609A680A439A603649A26A8A4203
:1031D00056D0996821F07061996099680A439A60A5
:1031E0009A68E16A22F040529A609A680A439A60AB
:1031F0009A68A16922F002029A609A6842EA410242
:103200009A60226A002A43D05A6842F400625A60E7
:103210005A6822F460425A604FF4604292FAA2F275
:10322000B2FA82F1626A5868013A8A4002435A60EF
:10323000DA6AE16922F47002DA62DA6A013942EA92
:103240000152DA629A68216B22F400729A609A68DD
:1032500042EA41229A609A68616922F480629A6027
:103260009A68002042EA81229A606064236C23F00D
:10327000030343F001032364002384F83C3010BDB2
:103280009A6822F070629A609A6822F04052AEE723
:103290005A6822F40062CAE70120EDE7012010BD60
:1032A000002301400100000F82B00023019390F839
:1032B0003C30012B4ED0012380F83C3003689A68E3
:1032C000D10705D59A68D20714D4002002B0704700
:1032D0009A68214942F001029A60204A1268B2FBC2
:1032E000F1F202EB42020192019A002AEAD0019A1D
:1032F000013AF8E7026C22F4E06222F0010242F4A3
:10330000807202645A68510541BF026C22F4405237
:1033100042F480520264026C12F480521CBF426C70
:1033200022F006024264002280F83C206FF0220264
:103330001A600B4A5268D20608D1986810F04050C3
:10334000C3D19A6842F080429A60BFE7054A93422F
:10335000BBD1F2E70220B9E740420F00A8010020EC
:10336000002301400020014003689A6870B55605AB
:1033700004460D460BD59B68D80508D5236C43F051
:1033800020032364002384F83C30012070BDFFF744
:10339000D9FE064623681A6892070CD56FF0120210
:1033A0001A60226C42F4007222649A6812F0405F44
:1033B00013D0002070BD691CEDD045B9236C43F0DB
:1033C00004032364002384F83C30032070BDFFF71E
:1033D000B9FE801B8542DDD2F0E7A269002AE8D160
:1033E000DA6A12F4700F02D09B685B05E1D4236C9B
:1033F00023F480732364206C10F48050D9D1236CA3
:1034000043F00103236470BD0368D86C704700006B
:10341000F7B50023019390F83C30012B6AD00D687A
:1034200004688A680123092D80F83C30AEB22AD99D
:1034300006EB4603E7681E3B4FF0070E0EFA03FE4D
:1034400027EA0E07E760E76802FA03F33B43E3600D
:103450004A68062A4FEA820325D81344676B591F2E
:103460001F238B4027EA03036363626B06FA01F1B3
:10347000114361632D4B9C4234D0002380F83C30D3
:10348000184603B0F0BD276905EB45034FF0070E62
:103490000EFA03FE27EA0E072761276902FA03F3F3
:1034A0003B432361D4E70C2A0ED81344216BA3F1CC
:1034B00023021F23934021EA03032363236B06FAAD
:1034C00002F21A432263D5E71344E16A413B1F220B
:1034D0009A4021EA0202E262E26A06FA03F111432B
:1034E000E162C7E7122D07D1114A536843F4800304
:1034F0005360C2E70220C4E70E4B9D4201D0112D5C
:10350000BBD10B494A689D4242F400024A60B4D1E3
:10351000094B0A4A1B68B3FBF2F20A235343019397
:10352000019B002BA9D0019B013BF8E70020014043
:103530000023014012000010A801002040420F00AB
:1035400000280DDB4309012200F01F0002FA00F001
:103550002033044A42F82300BFF34F8FBFF36F8F2D
:10356000704700BF00E100E090F83530022B03D037
:1035700080234365012070470268052380F83530B9
:10358000136823F0010313600020704770470000A8
:1035900070B50446002862D090F83D3003F0FF0279
:1035A0001BB980F83C20FFF7F1FF22682D4E2E4D0D
:1035B000242384F83D30136823F00103136001F0E5
:1035C000A1F863682268B0FBF5F5B34284BF4FF4FD
:1035D00096716943556091BF691C4FF47A75B1FBD0
:1035E000F5F10131B342116221D85B00B0FBF3F079
:1035F000C0F30B03032B98BF0420216AE369D06159
:103600000B431360E16823690B439360A16963690D
:103610000B43D360136843F00103136000202023A1
:10362000206484F83D30206384F83E0070BDA168BA
:1036300049B903EB4303B0FBF3F0C0F30B0363B1F1
:1036400040F40040D9E719214B43B0FBF3F0C0F33D
:103650000B0313B140F44040CFE70120CDE7012038
:1036600070BD00BFA086010040420F0073B500246A
:103670000094019490F83D40069D202C02D0022039
:1036800002B070BD042D32D0012D30D090F83C40F6
:10369000012CF4D0012480F83C4004682668F60729
:1036A0005EBF266846F001062660266826F400669E
:1036B0002660212680F83D60102680F83E600026B6
:1036C00006644385C562438D41640385036B0093A3
:1036D000009B4262122B01D0009B2BBB042D01D01A
:1036E000012D1ED1236843F4807323601CE0134C2A
:1036F00046F2A8162468B4FBF6F619247443019424
:10370000019C661E01963CB92023046380F83C406E
:1037100080F83D300320B3E70468A469A407EFD420
:10372000B4E7009B122BDDD06268002342F4E06214
:1037300080F83C3062601846A2E700BFA801002074
:1037400073B50024019490F83D40069D202C02D0D2
:10375000022002B070BD042D37D0012D35D090F875
:103760003C40012CF4D0012480F83C4004682668D9
:10377000F6075EBF266846F001062660266826F436
:1037800000662660222680F83D60102680F83E60A4
:10379000002606644385C562438D41640385036B3F
:1037A0004262112B01D0036B63BB042D04D0012DA9
:1037B00002D015F5803F22D1236843F48063236053
:1037C000236843F4807323601CE0134C46F2A81670
:1037D0002468B4FBF6F6192474430194019C661E18
:1037E00001963CB92023046380F83C4080F83D30CA
:1037F0000320AEE70468A469A407EFD4AFE7036B26
:10380000112BD9D06268002342F4E06280F83C308A
:10381000626018469DE700BFA801002090F83D3087
:10382000202B14D1282380F83D3003681A68D20772
:103830005EBF1A6842F001021A601A6842F48062A0
:103840001A605A6842F440725A60002070470220A1
:10385000704770477047000090F83D30293B012BBE
:1038600010B50368044639D800220263282280F884
:103870003D201A6822F400621A605A6812F400624D
:1038800054D05A68606B22F400625A6090F8353068
:10389000012B394B31D00365FFF766FE50B122682A
:1038A000606B136823F001031360202384F83D301C
:1038B000036D984794F83D30282B0ED1236C5B079D
:1038C0000BD52E4BE362202200232363204684F88D
:1038D0003D2084F83E30FEF73FFC10BD90F83D20BF
:1038E000602A05D05A6812055CBF202280F83D206E
:1038F0000022226384F83E20BBE7A06B0365FFF73C
:1039000033FE0028D6D022685369580604D5636A6E
:103910001269591C61621A702268A06B136823F047
:1039200001031360202384F83D30C1E794F83D1073
:10393000602914D1202184F83D1022645A6951066F
:1039400004D5626A1B69511C616213702268136896
:1039500023F0010313602046FEF700FCAAE75A6932
:10396000520604D5626A1B69511C616213702046BD
:10397000FEF7C4FB9EE700BF714100080000FFFF97
:103980000368F0B59D6959695A6890F83E40E4B201
:10399000102C8DB002D0402C40F04A8211F0011F53
:1039A00066D0970564D590F83E40402C43D1046D15
:1039B000002C3BD1446C04F0FE041C61974E984CE3
:1039C0002E400C40002E00F09A81964D0D40002DA7
:1039D00000F06181550540F15E81002C40F05B8173
:1039E00090F83D20058D90F83E10C46AD2B2C9B25D
:1039F000002D40F00581212A40F00481042C00F0C4
:103A00006781082C00F0648114F5803F00F060812C
:103A10005A6822F4E0625A601123036380F83E5032
:103A2000202380F83D30FEF733FB10E1446C44F076
:103A30000104E4B2C1E70469B4F5804F05D190F800
:103A40003D40212C446CF2D1B5E7046D34B9446C8F
:103A5000E41104F0060444F0F004AEE7046D012C18
:103A6000ACD1446CE41104F0060444F0F104A4E782
:103A70006D4C0C401CB1960501D5446CD9E76B4CDC
:103A80000C40002C9AD0940598D590F83E40C66A18
:103A9000D0F830E090F83D70222FE4B240F0A880DA
:103AA000076D47B9402C06D101975C6901949C6968
:103AB0000194019C82E7046D8CB90769B7F5404F0A
:103AC0000DD102945C6902949C690294029C1C686A
:103AD00044F480741C60046D013404656EE7448D09
:103AE000A4B254B903945C6903949C690394039C45
:103AF0001C6844F400741C6019E0448DA4B2012CCD
:103B000042D116F5803F1BD11C6824F480641C60F0
:103B10005C6814F400640CD01C6824F480641C609D
:103B2000002404945C6904949C690494049C00241B
:103B3000D3E705945C6905949C690594059CD7E7D7
:103B4000042E15D0082E13D0BEF1120F10D0C46A67
:103B5000022C1C6814BF24F4806444F480641C604C
:103B6000002406945C6906949C690694069CDEE732
:103B70001C6824F480641C60002407945C6907942A
:103B80009C690794079CB3E7448DA4B2022C1CD116
:103B9000C46A022C1C681DBF24F480641C601C686D
:103BA00044F4806418BF44F400641C605C6827051A
:103BB00042BF5C6844F480545C60002408945C69F3
:103BC00008949C690894089CB1E71C6844F48064DC
:103BD0001C605C68260542BF5C6844F480545C60ED
:103BE000002409945C6909949C690994099C9EE7E6
:103BF00000240A945C690A949C690A940A9CDDE694
:103C0000212A03D0402922D1222A20D1428D92B2EA
:103C100072B95A6822F480625A6018E004001000F9
:103C20000400010080000100080001000200010002
:103C300090F83E20402A28D1026D82B9C26C012A38
:103C4000826C06D1D2B21A61036D023303650DB0E6
:103C5000F0BDC2F307221A61036D0133F6E7026D6E
:103C6000012A02D1826CD2B2F5E7026D022AEED1AE
:103C700090F83D20222A04D11A6842F480721A601A
:103C8000E5E790F83D20212AE1D1426A511C4162CA
:103C900012781A6192E0002CD9D09405D7D5C16A68
:103CA00090F83D20212AD2D1428D92B2002AECD147
:103CB00004290DD008290BD011F5803F08D0596890
:103CC00021F4E06159601123036380F83E20A7E6E8
:103CD0005A6822F4E0625A601A6842F400721A606C
:103CE00000232022036380F83D2090F83E2080F8D6
:103CF0003E30402A7FF497AEFFF7ABFDA7E78D4D2E
:103D00000D40002D3FD051053DD5002C3BD190F802
:103D10003D20222A9BD1428D92B2032A05D9426AC4
:103D20001B69511C4162137048E0023A012A1A686B
:103D300022F480621A6004D81A6842F400621A60A1
:103D400067E7C26A022A02BF1A6842F400621A6078
:103D50005A6822F4E0625A60426A1B69511C41624F
:103D60001370438D013B9BB24385202380F83D3087
:103D70000023036390F83E2080F83E30402A54D15F
:103D8000FFF768FD63E7002C3FF461AF97057FF50F
:103D90005EAFC26A418D89B20329416A13D1042AF8
:103DA00004D0082A02D012F5803F03D11A6822F409
:103DB00080621A604A1C1B6942620B70438D013B92
:103DC0009BB2438543E7448DA4B2022CF2D1042A6E
:103DD00027D0082A25D012F5803F22D01C68013A4E
:103DE00024F48064012A1C6003D81A6842F48072AB
:103DF0001A601B694A1C42620B70438D013B9BB2E7
:103E00004385436A5A1C4262026812691A70438DE4
:103E10000268013B9BB24385536823F440735360AF
:103E2000A3E71A6842F40072E2E7FEF750F90EE7E2
:103E3000414C0C4074B196050CD599699B6981F091
:103E400004011D06C1F3800154BF8289028BFEF775
:103E500071F9FCE6394C0C40002C73D0940571D5F7
:103E600090F83D20596821F4E061596000210B91E0
:103E700059690B91196841F0010119600B99196892
:103E800021F48061196059680905D2B20CD590F807
:103E90003D10222903D090F83D102A2929D1816BA9
:103EA0000968496889B24185418D89B2E1B1596992
:103EB0004F0708D5416A1B694C1C44620B70438D47
:103EC000013B9BB2438501684B695E0608D5436A96
:103ED00009695C1C44621970438D013B9BB24385A8
:103EE000036C43F004030364036C23B1FFF7B4FCD9
:103EF000ADE6416BD4E7A2F1280102290AD8104AA5
:103F0000C2622022036380F83D2080F83E30FEF735
:103F100023F99CE6036B222B02D0222A7FF497AE72
:103F200000232022036380F83D2080F83E30FEF716
:103F30000FF98CE6400001000200010010000100B2
:103F40000000FFFF394E3A4C2E400C40002E36D078
:103F5000384D0D403DB3550525D524BB90F83D1097
:103F6000428D92B2C9B2002A3FF471AE426A541C2B
:103F7000446212781A61428D013A92B24285428DB2
:103F800092B2002A7FF463AE29297FF460AE5A68AA
:103F900022F480625A6021230363282380F83D3095
:103FA000FEF7D2F853E6002C3FF451AE94057FF5AE
:103FB0004EAE428D92B2002A7FF467AE47E61E4DA8
:103FC0000D4035B3510524D51CBB90F83D20418DE3
:103FD00089B2D2B200293FF43AAE416A1B694C1C47
:103FE00044620B70438D013B9BB24385438D9BB272
:103FF000002B7FF42CAE2A2A7FF429AE0268536886
:1040000023F48063536022230363282380F83D3028
:104010008DE7002C3FF41BAE92057FF518AE428D64
:1040200092B2002A7FF47BAE11E600BF04001000BC
:10403000040001008000010040000100F8B50368A1
:10404000494A5E695D681642044608D0E80506D50F
:10405000226C42F0010222646FF480725A6116F4FD
:10406000813F08D0E90506D5226C42F002022264A5
:104070006FF400725A6116F4823F36D0EA0534D5E7
:1040800094F83E70618D94F83D20206B202F89B20A
:10409000D2B258D1002956D102F0F701212903D01C
:1040A000282A50D121284ED194F83D20E16A0429D4
:1040B000D2B201D008292CD1282A2AD12B4AE26277
:1040C0005A6822F4E0625A606FF480625A611A689A
:1040D00022F480621A60002320222363204684F8A1
:1040E0003D2084F83E30FEF737F816F4843F09D0BF
:1040F000EB0507D5236C43F00803236423686FF4B2
:1041000000625A61236C73B32046BDE8F840FFF7A4
:10411000A3BB212A23D11549E1622263202284F81E
:104120003D20002284F83E205A6822F4E0625A6062
:104130006FF480625A611A6822F480621A60204625
:10414000FEF702F8D1E7226C42F00402226494F8F0
:104150003E20102A02BF1A6842F400721A606FF4FF
:1041600080625A61C1E7F8BD000101000000FFFF55
:10417000806B08B50368416B1A6822F480621A608C
:10418000002242850A65816B0A6590F83D1060291E
:104190004FF0200180F83D1080F83E2007D10264E6
:1041A0001A6822F001021A60FDF7D8FF08BD1A68EC
:1041B00022F001021A60FDF7A1FF08BD90F83D2032
:1041C000D2B2202A10B516D1242380F83D300368DE
:1041D0001C6824F001041C605C6A24F010045C621A
:1041E0005C6A21435962196841F00101196080F845
:1041F0003D20002010BD022010BD00000368F7B56F
:104200000446D8073BD42368990700F186802368C9
:104210001E0700F1D18023685D072AD50023019392
:104220008E4B8F4D1A6C42F080521A641B6C03F057
:1042300080530193019B2B6843F480732B60FEF73E
:1042400081FF06462B68DA0540F1D880A368834DCC
:10425000012B40F0DA802B6F43F001032B67FEF750
:1042600071FF7E4D064641F288372B6F9B0740F168
:10427000ED80A269002A40F0F980002015E0774B1C
:104280009A6802F00C02042A07D09A6802F00C0225
:10429000082A0CD15B685A0209D5704B1B689B0336
:1042A000B1D56368002BAED1012003B0F0BD6368C7
:1042B0006A4DB3F5803F11D12B6843F480332B60F6
:1042C000FEF740FF654D06462B689F039BD4FEF723
:1042D00039FF801B6428F7D90320E6E7B3F5A02F48
:1042E00004D12B6843F480232B60E5E72A6822F48D
:1042F00080322A602A6822F480222A60002BDFD1D3
:10430000FEF720FF06462B6898037FF57CAFFEF78B
:1043100019FF801B6428F6D9DEE7504B9A6812F02B
:104320000C0F07D09A6802F00C02082A16D15B68BD
:10433000590213D4494B1A68920702D5E268012A40
:10434000B2D11868F82292FAA2F2B2FA82F1226986
:104350008A4020F0F8010A431A6058E7E268414BAE
:10436000DAB101221A60FEF7EDFE3C4D06462B68DD
:104370009B070CD52968F82393FAA3F3B3FA83F2C9
:104380002369934021F0F80213432B603FE7FEF7C7
:10439000D9FE801B0228EAD99EE71A60FEF7D2FEFA
:1043A0002E4D06462B689F077FF531AFFEF7CAFEFC
:1043B000801B0228F6D98FE762692B4B7AB1012264
:1043C0001A60FEF7BFFE254D06466B6F98073FF556
:1043D00022AFFEF7B7FE801B0228F6D97CE71A60F1
:1043E000FEF7B0FE1D4D06466B6F99077FF513AFC4
:1043F000FEF7A8FE801B0228F6D96DE7FEF7A2FEA5
:10440000801B02287FF61EAF66E7052B04D12B6FB9
:1044100043F004032B671EE72A6F22F001022A678C
:104420002A6F22F004022A67002B7FF418AFFEF7F0
:1044300089FE41F2883706462B6F98077FF519AF42
:10444000FEF780FE801BB842F6D945E7FEF77AFEFC
:10445000801BB8427FF609AF3EE700BF003802403C
:104460000070004000004742800E47422B4DAB6871
:1044700003F00C03082B3FF417AF294E0023022A48
:1044800033603ED1FEF75EFE07462B68990132D4B9
:1044900047F6C07797FAA7F74FF44032B7FA87F795
:1044A00092FAA2F24FF07061B2FA82F091FAA1F1A1
:1044B000226AE3691343626A02FA07F7A26A5208A2
:1044C000013A82403B431343E26A144CB1FA81F152
:1044D00002FA01F10B436B6001233360FEF732FEF9
:1044E000054623689A013FF5C8AEFEF72BFE401B38
:1044F0000228F6D9F0E6FEF725FEC01B0228C4D933
:10450000EAE6FEF71FFE04462B689B017FF5B5AE79
:10451000FEF718FE001B0228F6D9DDE6003802403F
:1045200060004742194A936803F00C03042B10B54E
:1045300003D0082B03D0164810BD164810BD516893
:10454000536801F03F0113F4800F47F6C0745368BD
:1045500094FAA4F0B0FA80F003EA040323FA00F31B
:1045600014BF0C480A48B0FBF1F05843074B4FF416
:1045700040325B6892FAA2F2B2FA82F203F440335C
:10458000D34001335B00B0FBF3F010BD00380240B4
:104590000024F40000127A00564B1A6802F00F0251
:1045A0008A422DE9F04105460E4630D32A68940729
:1045B00037D4D0073DD44F4B1A6802F00F02964211
:1045C000C0F088802A68510700F18C80130707D556
:1045D000494A2969936823F4604343EAC10393601D
:1045E000FFF7A0FF444BF0229B6892FAA2F2B2FAC6
:1045F00082F203F0F003D340404AD35CD840404BF2
:1046000018600F20FDF7D6FA0020BDE8F081CAB28D
:104610001A701B6803F00F039942C7D00120BDE850
:10462000F0813549A8688B6823F0F00303438B6061
:10463000BFE76A68304B012A1ED11B6813F4003FA4
:10464000ECD02D4CA36823F003031343A360FEF7C3
:1046500079FD6B68012B074641F2883816D1A368B3
:1046600003F00C03042BA6D0FEF76CFDC01B4045E5
:10467000F5D90320BDE8F081911E01291B6802D8FD
:1046800013F0007FDCE713F0020FD9E7022B0AD109
:10469000A36803F00C03082B8DD0FEF753FDC01B5D
:1046A0004045F5D9E5E7032B0FD1A36803F00C03D0
:1046B0000C2B80D0FEF746FDC01B4045F5D9D8E74E
:1046C000FEF740FDC01B4045D3D8A36813F00C0F84
:1046D000F6D170E7F2B21A701B6803F00F039E4226
:1046E0009CD16FE70449E8688B6823F4E0530343E7
:1046F0008B606BE7003C024000380240DB0A010897
:10470000A8010020084B4FF4E0529B6892FAA2F2F5
:10471000B2FA82F203F4E053D340044AD35C044A71
:104720001068D840704700BF00380240EB0A01080B
:10473000A8010020084B4FF460429B6892FAA2F255
:10474000B2FA82F203F46043D340044AD35C044AD1
:104750001068D840704700BF00380240EB0A0108DB
:10476000A80100200F2303600B4B9A6802F003029C
:1047700042609A6802F0F00282609A6802F4E052A5
:10478000C2609B68DB0803F4E0530361034B1B68C2
:1047900003F00F030B60704700380240003C0240FA
:1047A000036A23F001030362036A70B544688269F7
:1047B0000D6822F073022A438D6823F002032B4315
:1047C0000A4DA8420BD1CD688E6923F008032B4314
:1047D0004D6924F44074354323F004032C434460B2
:1047E00082614A684263036270BD00BF00000140FD
:1047F000036A23F480730362036A70B54468C26974
:104800000D6822F073022A438D6823F4007343EA93
:1048100005230B4DA8420DD1CD688E6923F40063AA
:1048200043EA05234D6924F44054354323F480635F
:1048300044EA05144460C2614A68C263036270BD01
:1048400000000140036A23F480530362036A30B519
:104850004468C2690D6822F4E64242EA05228D6886
:1048600023F4005343EA0533064DA84202BF4D69C5
:1048700024F4804444EA85144460C2614A680264B6
:10488000036230BD0000014070477047224A036850
:1048900090420ED0B0F1804F0BD0A2F57C429042F6
:1048A00007D002F58062904203D002F58062904208
:1048B00019D14A6823F070031343174A904204D178
:1048C000CA6823F44073134318E0B0F1804FF7D067
:1048D000124A9042F4D002F580629042F0D002F584
:1048E00080629042ECD00E4A9042E9D002F580629C
:1048F0009042E5D002F580629042E1D003608B687F
:10490000C3620B688362044B984204BF0B69036364
:1049100001234361704700BF0000014000040040D4
:104920000040014010B50446A0B190F8393003F0C2
:10493000FF021BB980F83820FFF7A6FF022384F896
:1049400039302068211DFFF7A1FF012384F8393099
:10495000002010BD012010BD10B50446A0B190F894
:10496000393003F0FF021BB980F83820FFF78DFFC4
:10497000022384F839302068211DFFF787FF0123C7
:1049800084F83930002010BD012010BD036A23F0E7
:1049900010030362036A70B5446882690D6822F4EB
:1049A000E64242EA05228D6823F0200343EA05131C
:1049B0000B4DA8420DD1CD688E6923F0800343EAE8
:1049C00005134D6924F44064354323F0400344EA61
:1049D0008504446082614A688263036270BD00BFDF
:1049E0000000014038B590F83830012B04464FF0F4
:1049F000020025D0012384F8383084F839000C2ACD
:104A000018D8DFE802F0071717171E1717172F1708
:104A1000171740002068FFF7C3FE236809699A69E9
:104A200042F008029A619A6922F004029A619A6936
:104A30000A439A610123002084F8393084F8380051
:104A400038BD2068FFF7A2FF236809699A6942F41C
:104A500000629A619A6922F480629A619A6942EAD4
:104A60000122E6E72068FFF7C3FE23680969DA69D7
:104A700042F00802DA61DA6922F00402DA61DA69E6
:104A80000A43DA61D6E72068FFF7DCFE236809698C
:104A9000DA6942F40062DA61DA6922F48062DA618A
:104AA000DA6942EA0122ECE7036A10B501248C407E
:104AB00023EA04030362036A8A401A43026210BDB8
:104AC00010B5044601220068FFF7EEFF2368064A8E
:104AD000934202BF5A6C42F400425A641A6842F090
:104AE00001021A60002010BD00000140FFF7E8BF7E
:104AF000036A10B504248C4023EA04030362036AAA
:104B00008A401A43026210BD10B5044604220068B0
:104B1000FFF7EEFF23685A6C42F400425A641A68A9
:104B200042F001021A60002010BD00002DE9F0479C
:104B30000668C2683369C16923F440531343336183
:104B4000044683680069F2680343606922F41642F0
:104B5000034322F00C020B431343F3607369A26911
:104B600023F440731343B1F5004F73617A4B7CD14A
:104B70009E4203D003F580639E4244D1FFF7DAFDE5
:104B8000192505FB00F360684FF064094000B3FB92
:104B9000F0F3B3FBF9F34FEA0318FFF7CBFD6368BB
:104BA00068435B00B0FBF3F7FFF7C4FD636868433D
:104BB0005B00B0FBF3F3B3FBF9F309FB1373DB000A
:104BC0003233B3FBF9F35B0003F4F877FFF7B2FD80
:104BD000626868435200B0FBF2FAFFF7ABFD63680E
:104BE00068435B00B0FBF3F3B3FBF9F309FB13A3DA
:104BF000DB003233B3FBF9F303F0070343443B44D8
:104C0000B360BDE8F087FFF77DFD192505FB00F3D4
:104C100060684FF064094000B3FBF0F3B3FBF9F3B5
:104C20004FEA0318FFF76EFD636868435B00B0FB53
:104C3000F3F7FFF767FD636868435B00B0FBF3F3CE
:104C4000B3FBF9F309FB1373DB003233B3FBF9F366
:104C50005B0003F4F877FFF755FD62686843520084
:104C6000B0FBF2FAFFF74EFDB9E79E4202D03B4B94
:104C70009E4240D1FFF75EFD676819254FF0640939
:104C800005FB00F3BF00B3FBF7F3B3FBF9F31F0120
:104C9000FFF750FD636868439B00B0FBF3F8FFF734
:104CA00049FD636868439B00B0FBF3F3B3FBF9F382
:104CB00009FB13831B013233B3FBF9F303F0F00854
:104CC000FFF738FD626868439200B0FBF2FAFFF725
:104CD00031FD636868439B00B0FBF3F3B3FBF9F36A
:104CE00009FB13A31B013233B3FBF9F303F00F03EA
:104CF00043EA080383E7FFF705FD676819254FF0CE
:104D0000640905FB00F3BF00B3FBF7F3B3FBF9F352
:104D10001F01FFF7F7FC636868439B00B0FBF3F8E3
:104D2000FFF7F0FC636868439B00B0FBF3F3B3FB51
:104D3000F9F309FB13831B013233B3FBF9F303F0DF
:104D4000F008FFF7DFFC626868439200B0FBF2FAFC
:104D5000FFF7D8FCBDE700BF001001400014014080
:104D6000704710B5044640B390F8393003F0FF02A5
:104D70001BB980F83820FFF7F3FF2268242384F85A
:104D80003930D36823F40053D3602046FFF7CEFEBA
:104D900023681A6922F490421A615A6922F02A02A1
:104DA0005A61DA6842F40052DA6000202023E0639E
:104DB00084F8393084F83A3010BD012010BD7FB539
:104DC0000F230193022302934FF480520023032107
:104DD00001A8039304920593FFF7DEFBB0FA80F07D
:104DE000400907B05DF804FB0F49D1F8883043F45F
:104DF0007003C1F888300D4B1A68002042F00102A0
:104E00001A6098601A6822F0847222F480321A6064
:104E1000074A5A601A6822F480221A60D8604FF05C
:104E200000638B60704700BF00ED00E00038024077
:104E30001030002400B58FB01C4B002100911A6C7B
:104E400042F080521A641B6C194A03F0805300939D
:104E5000009B0191136823F4404343F40043136023
:104E6000136803F440430193019B01230293C0B9EB
:104E70004FF480330393022308934FF48003099384
:104E800004230A930C930823C8220DEB03000B9212
:104E90000D93FFF7B3F938B9FFF791FF0FB05DF845
:104EA00004FB4FF4A023E5E70020F7E700380240B9
:104EB0000070004010B58EB000241A4B00941A6C9C
:104EC00042F080521A641B6C174A03F0805300931F
:104ED000009B0194136823F4404343F400431360A0
:104EE0001368039403F440430193019B0994032343
:104EF000029301230593102306930223C8220893EB
:104F000008230B920DEB030004220A930C920D93DD
:104F1000FFF774F918B9FFF752FF0EB010BD204625
:104F2000FBE700BF003802400070004008B50120D8
:104F3000FFF780FF18B9FFF7BDFF00B9FEE708BD16
:104F4000174A1849936803F00C03042B10B50DD0D1
:104F5000082B0DD0144B0B60114B144A9B68C3F304
:104F60000313D25C0B68D3400B6010BD104BF2E70B
:104F70005468506852686302C2F3881200F03F0020
:104F80004CBF0B4B084BB3FBF0F35343044A52683E
:104F9000C2F3014201325200B3FBF2F3DBE700BF80
:104FA00000380240A80100200024F400DB0A0108B8
:104FB00000127A0070470000014B586A704700BF2A
:104FC000000C0040054B1B68DA6822F00202DA6030
:104FD0005863DA6842F00202DA6070475C1300201E
:104FE000034B1A68536943F002035361704700BFD3
:104FF0005C130020034B1A68D36823F00203D360CC
:10500000704700BF5C130020024B1B686FF0020268
:105010001A6170475C13002038B504460D460368DA
:105020005AB18268136020460121FCF76DFD2946C4
:105030002046BDE83840FCF763BDC2681B04F1E7B9
:1050400070B50E4604461546FCF73AFD013606D00B
:105050002A4620460021BDE87040FFF7DDBF70BD45
:105060000022FFF7EDBF03689B681847094B10B596
:10507000002203600023C0E902230023036143618F
:10508000044600F079F90449A06100F091FC204643
:1050900010BD00BFFC0A01086750000807B500906A
:1050A00000F10801806900F0BAFC03B05DF804FB70
:1050B00000F10801806900F0DCBC000010B5034B72
:1050C00003600446FFF7F4FF204610BDFC0A010808
:1050D00008B500F01DFD094B1A884FF6FF739A4280
:1050E00004D100F041FD064800F0F6FC0121034820
:1050F00000F058FDBDE8084000F036BDE810002083
:10510000080B010808B500F003FD084B1B8823B904
:1051100000F02AFD064800F0DFFC0121034800F002
:105120004EFDBDE8084000F01FBD00BFE8100020A4
:10513000350B010870B5D0E90823D0E902450646D1
:1051400012196B41FFF7AAFF736B2BB106F1280010
:105150001B68BDE87040184770BDD0B504461646C0
:105160001F4600F0D5FC2046FFF7A2FFC4E9086700
:10517000A06900F099FC321847EB01032046FFF7C5
:105180008DFFBDE8D04000F0EFBC7FB5044600F0D5
:10519000BFFC2046FFF78CFF636B13B194F83830E7
:1051A000E3B904F128066D4610220021684603F099
:1051B00065FAAE420BD03046FBF7D4F83EB1039B04
:1051C0001BB15B68694630469847039B636328467A
:1051D000FBF7C8F800F0C8FC04B070BDFFF792FF01
:1051E000DFE710B480B1146853680CB9DA070BD547
:1051F00013F0010F4FEA63031CBFC258145918443F
:1052000023465DF8044B18475DF8044B70470000D7
:10521000064B19681A1D01B91A601B68934204D025
:105220005D220349034800F0D7BC7047EC10002012
:10523000700B0108B1010108F7B51D4B04460E467D
:10524000174640F8043B1022002103F017FA002310
:105250000093019302A911E9030004F1180282E806
:1052600003001449216248F207016162E362A4620B
:105270002263114A6263BFF36F8FBFF34F8F04F154
:105280003C0584F8383084F8393019469422284691
:1052900003F0F4F9094BC4F8D03028463A463146B9
:1052A000FCF7F8FD064B20461C6003B0F0BD00BFC4
:1052B000D80B010801A090E8E3510008A086010086
:1052C000F4100020036870B504460D461B6898472B
:1052D00004F13C00C4F8D0502946FCF7B3FD044B60
:1052E0001C60236820465B68BDE87040184700BF1B
:1052F000F4100020036870B5094D1B6804469847F8
:105300002B689C4206D0D4F8D01004F13C00FCF786
:1053100099FD2C60236820465B68BDE87040184703
:10532000F4100020F7B51D46036804461B680E46BE
:10533000174698472046FFF7DDFF9DF8203083F0A1
:105340000103314600933A462B4604F13C00FCF73A
:1053500041FE236806465B6820469847A81B18BF95
:10536000012003B0F0BDC36810B504460BB19B68C3
:105370009847204610BD000000487047E80B010820
:10538000024B1B680BB1024818477047AC01002064
:10539000E80B010810B5044601300DD110BD9C4248
:1053A00009D120468968FDF7BFF920460021BDE8F4
:1053B0001040FDF751BA0C31B1F900305A1CEED152
:1053C0000248BDE8104000F087BB00BF5B0C01083D
:1053D000884208B508D0431C06D0013106D00448E5
:1053E00000F07AFB4FF0FF31084608BD0146FBE7AD
:1053F0002A0C0108B1F900305A1C01D11846704737
:10540000834201D1486870470C31F3E7421C10B564
:10541000044607D0FFF7EEFF431C044602D10248C2
:1054200000F05AFB204610BD3B0C0108B1F90030DA
:105430005A1C01D118467047834201D188687047D1
:105440000C31F3E7421C10B5044607D0FFF7EEFF1E
:10545000431C044602D1024800F03EFB204610BD2A
:105460000C0C01087047704710B480B11468536881
:105470000CB9DA070BD513F0010F4FEA63031CBF19
:10548000C2581459184423465DF8044B18475DF878
:10549000044B7047090170B501F198050544EB68AC
:1054A00083B14418D4F8A4302BB94FF404720649E0
:1054B000064800F091FBD4F8A43028461B68BDE8EC
:1054C0007040184770BD00BF6C0C0108C50C010886
:1054D0004C30FDF7F1BD10B54C300C46FDF7FEFD2C
:1054E000204610BD884238B504460D460AD0FAF76A
:1054F00039FF3CB1EB681BB15B68294620469847F1
:10550000EB68E360204638BD2DE9F04F87B00025F9
:105510009246009502460195044689469B469DE8C1
:105520000300324B42F8083B314B82E80300236111
:1055300048F2070363612F4BE561A4612262636255
:10554000BFF36F8FBFF34F8F102284F8285084F879
:10555000295004F12C0003F091F804F14C0629467F
:10556000102204F13C0003F089F804F19808294660
:105570004C22304603F082F804F1A8072946102295
:10558000404603F07BF829461022384603F076F8AF
:1055900010222946C4F8B8B002A803F06FF802A997
:1055A0004046FFF79FFF02A8FAF7DCFE10222946CB
:1055B00002A803F063F802A93846FFF793FF02A898
:1055C000FAF7D0FE524649463046FDF7EFFBD4F8D5
:1055D000B8103046FDF7C4FB304622460649FDF7B9
:1055E0000FFD204607B0BDE8F08F00BFD40C0108C6
:1055F00001A090E869540008955400082DE9FF4186
:105600000646884656F84C3B17461B6805463C0143
:10561000984700F07DFAD8F80C3098342C44ABB1A0
:10562000E3680BB9FFF754FD41462046FFF75AFFE8
:10563000012239463046FDF7EFFC00F095FA2B6861
:1056400028465B68984704B0BDE8F081E3680BB179
:10565000FFF758FD10220021684603F00FF8694655
:105660002046FFF73FFF6846FAF77CFE0022E0E79E
:105670007FB51A4B0360044610220021684602F0F1
:10568000FDFF002269462046FFF7B8FF6846FAF79B
:1056900069FE10220021684602F0F0FF01226946EF
:1056A0002046FFF7ABFF6846FAF75CFE14F1980658
:1056B00008D004F1B805B54204D0103D2846FAF7E9
:1056C00051FEF8E704F13C00FFF74DFE04F12C0019
:1056D000FFF749FE204604B070BD00BFD40C01089E
:1056E00010B50446FFF7C4FF2046FCF72BFF204609
:1056F00010BD00002DE9F34790E8080404465B68FC
:10570000984763681B6A984235D0DAF82040DAF887
:105710000C30DAF80820CAF82000041B1C402E4B7D
:105720009A4226464FF000071FD0DAE90A01B2F587
:10573000004FA4FB0345CDE9000127D1DDE900239B
:1057400047F6FF70E60B00210440121946EA454671
:105750004FEAD53705EA01056B41994208BF9042EF
:1057600014461D460AD3CAE90A45DAE90C23B618DD
:105770005F41CAE90C6702B0BDE8F087013647F126
:105780000007B2F5004443F1FF35ECE74FF00009A4
:105790004B4620462946904608F0D8FD424606462C
:1057A0000F464B462046294608F0D0FDDDE90001B2
:1057B00080185941494508BF404502460B4602D270
:1057C000CAE90A23D1E7013647F10007B0EB080226
:1057D00061EB0903F4E700BF40420F00824206D9A3
:1057E0008A420BD9884294BF00200120704788422A
:1057F00006D98A428CBF00200120704701207047E3
:10580000002070472DE9F0478046D0F80490FFF75C
:1058100071FFD8F80450D8F800A0696800294AD070
:10582000D5E90C23D1E90067BB4208BFB24204D3DB
:10583000DAF81430BDE8F0471847B61A67EB0307EB
:10584000D5E90623BB4208BFB2422C6906D3AB6838
:10585000204A934219D1B44228BF34462A6ADAF862
:1058600010301444EA68144020469847D8F80030B5
:105870005B68984722460146D9F82000FFF7AEFF43
:1058800030B3D8F800305B69D4E7B3F5004F0BD1E3
:10589000F903104A0023F00341EA564108F056FD8F
:1058A000844228BF0446D9E7A3FB060103FB071186
:1058B000084A0023F2E7D9F81030D9F82000D9F8C7
:1058C0000C2018441040DAF81030BDE8F0471847B3
:1058D000BDE8F08740420F0003682DE9F74F04460A
:1058E0001B68984723689B699847D0F800B0054625
:1058F000BBF1000F06D129222A492B48DFF8ACB0B2
:1059000000F06AF9D5F804A0AAF104031C2B06D90B
:105910002F222449244800F05FF94FF0200AAAF111
:10592000040307251BF1FF3005FA03F51F4E4FF066
:10593000000343F1FF315A46C6FB050108F006FD9E
:10594000D4F804800023C8F80030C8F80430236875
:105950005B680F46064698476368C8F820004FF01A
:1059600000094FF00008C3E90A89C3F808B052469D
:1059700001200021019308F04DF8019B012201381C
:10598000D8601D612046C3E90667C3E90C8983F826
:105990003820FFF7AFFE204603B0BDE8F04FFFF719
:1059A00031BF00BFE40C0108D90A010840420F00D2
:1059B00038B5436893F8383004460D460BB9FFF705
:1059C0008BFF00F0A5F863681D60BDE8384000F06B
:1059D000CBB870B5044600F09BF82368DB689847A5
:1059E00063685B68A3B12046FFF784FE65686E6854
:1059F000D5E90C01D6E90023994208BF904207D3AC
:105A0000F3686B602B68002BEAD0B0689847E7E733
:105A10002046FFF7F7FEBDE8704000F0A5B82DE97D
:105A2000F84305460C4616461F46DDF8208000F078
:105A30006FF82846FFF75EFE6968C4F80880C4E97D
:105A400000674B6800224BB9E36082B94C6028467E
:105A5000FFF7D8FEBDE8F84300F086B8D3E9008927
:105A60004F4508BF4645EFD31A46DB68EBE7D460E5
:105A7000EDE738B505460C4600F04AF86A68536809
:105A8000A34209D1DB6853602846FFF7BBFEBDE89F
:105A9000384000F069B81346002BF8D0DA68944219
:105AA000F9D1E268DA60F2E7436893F8383010B56C
:105AB00004460BB9FFF710FF00F02AF82046FFF765
:105AC00019FE00F051F86368D3E90C0110BD08B568
:105AD000FFF7EAFF08BD00000FB413B5084B1A78B2
