:020000040800F2
:1000000000000220A5520008F15200083129000822
:10001000392900084129000849290008000000008A
:100020000000000000000000000000000D2F00088C
:10003000F152000800000000A32F0008B32F0008B1
:10004000F1520008F1520008F1520008F152000884
:10005000F1520008F1520008F1520008F152000874
:10006000F1520008F1520008F1520008F152000864
:10007000F1520008F1520008F1520008F152000854
:10008000F1520008F1520008F1520008000000008F
:10009000000000000000000000000000F152000815
:1000A000F1520008F1520008F1520008F152000824
:1000B000F1520008F1520008F1520008F152000814
:1000C000F1520008F1520008F1520008F152000804
:1000D000F1520008F1520008F1520008000000003F
:1000E000F1520008F1520008F1520008000000002F
:1000F000000000000000000000000000F1520008B5
:1001000000000000F1520008F1520008F15200080E
:1001100000000000000000000000000000000000DF
:10012000F1520008F1520008F1520008F1520008A3
:10013000F152000800000000000000000000000074
:10014000000000000000000000000000F152000864
:10015000F1520008F1520008F1520008F152000873
:10016000F1520008F15200080000000000000000F9
:10017000000000000000000000000000000000007F
:1001800000000000F1520008000000000000000024
:10019000F1520008F152000810B5054C237833B92C
:1001A000044B13B10448AFF300800123237010BD4A
:1001B000580D0020000000007C8B01080C4B43B15F
:1001C0000C480D4910B5AFF300800C48036823B903
:1001D00010BD0A48036833B97047094B002BF7D0AC
:1001E000BDE810401847064B002BF5D0184700BF5C
:1001F000000000007C8B01085C0D0020500D0020E9
:1002000000000000154B002B08BF134B9D46A3F5C3
:10021000803A00218B460F461348144A121A0FF0F9
:100220004DF90F4B002B00D098470E4B002B00D000
:1002300098470020002104000D000D48002802D03E
:100240000C4802F02AF80EF059FC2000290002F0B8
:10025000C5FD02F01FF800BF0000080000000220EA
:1002600000000000ED2D0008580D0020783400201B
:100270009B22000800000000704770477047000094
:1002800010B5034B0360044600F0D2FF204610BDBA
:100290004867010810B5502104460AF071FD204658
:1002A00010BD00002DE9F04F274C2848DFF8C4A00E
:1002B00087B00AF053FA204601F0F0FD2168244887
:1002C0000FF060F9616823480FF05CF9224B234975
:1002D00018784B6809681C68214A224B12781B78F1
:1002E0000C4214BF012100211F4C8DE803001F495F
:1002F000504600F037FD20680AF0FCFC05462068F7
:100300000AF0FEFC834620680AF000FD06462068DD
:100310000F460AF0FEFC80462846894614F06AFC27
:10032000044658460D46CDE90489CDE9026714F02C
:1003300061FC2246CDE900012B460D49504600F0F4
:1003400011FD07B0BDE8F08FD0110020A80E0020ED
:10035000D0650108EA650108B81400206C0E002081
:100360004413002050130020E81100200566010806
:100370005A6601085C13002038B50468054634B19C
:1003800020460AF0E4FBF82120460AF0F9FC284652
:1003900038BD000010B5054C6268207002B190476E
:1003A000A3680BB101489847004810BD50130020C6
:1003B00008B5037843B9074800F0A7FF064BDA6891
:1003C0001B681B04136008BD0020BDE80840FFF750
:1003D000E1BF00BFF0110020740D0020054A5368F2
:1003E0001968136819420EBF9268D2681B04136023
:1003F000704700BF740D002038B51C2204460D461E
:1004000000210FF05BF82046294601F0BFF8204696
:1004100038BD000010B5044601F016F82046064B22
:1004200040F8283B102200210FF048F8012384F8FF
:100430003830204610BD00BFB8670108000000003A
:100440002DE9FF4142F210711348144DDFF854803A
:1004500000F0F0FC0EA7D7E90067022432463B46C5
:10046000294601A80AF092F841460D4800F07AFCAE
:100470004FF0804002F0C6F9019808B102F09EF8F2
:10048000013CEBD1204604B0BDE8F081AFF3008021
:100490002DB29DEFA7C6F13F900D0020581000200F
:1004A0005C130020D8660108C36810B504460BB180
:1004B0009B689847204610BD38B50546064B45F861
:1004C000283B044600F021FF2846FFF7EDFF2046B9
:1004D00000F0E2FF204638BDB867010810B50446B9
:1004E000FFF7EAFF204640210AF04AFC204610BDF3
:1004F00010B50446F030FFF7DFFF04F1D00000F044
:1005000030FF04F1500000F05BFB204600F058FB88
:10051000204610BD38B5CB6804460D460BB15B686C
:100520009847EB68E360204638BD000000B50178CD
:1005300089B049B1194800F0E8FE194B9A681B6868
:10054000136009B05DF804FB102268460EF0B6FF98
:10055000144B0393694604A8FFF7DCFF01F09EFDEE
:100560000E4B5A6B12B993F83830A3B90E48FFF707
:100570009BFF04A90C48FFF7CDFF0C4A0748002356
:1005800000F0ABFE01F0A0FD04A8FFF78DFF684668
:10059000FFF78AFFD5E701F065F8E7E7F0110020E3
:1005A000740D0020CC6601081812002020A107005D
:1005B000C36810B504460BB19B689847204610BD30
:1005C00010B5044B044640F8B83BFFF7F1FF204656
:1005D00010BD00BF6067010810B50446FFF7F0FFCB
:1005E0002046DC210AF0CCFB204610BD70B5044645
:1005F000054654F8043B7BB90C4E4FF0FF31306890
:1006000003F020FD2B6823B914B1204602F038F91D
:100610002C60306803F034FD2B68A34204D05D22C7
:100620000349044801F0BEFC286870BD7822002010
:1006300090660108B566010808B50448FFF7D6FFC3
:100640004FF0FF31BDE8084002F022B90C15002040
:1006500008B50348FFF7CAFFBDE8084002F022B919
:100660000C15002010B50446FFF70AFE2046BC21F9
:100670000AF086FB204610BD10B5044B03607033B2
:100680000446436001F0B0FB204610BD607D0108C8
:10069000A0F10400F0E700BF10B50446FFF7ECFF3F
:1006A000204658210AF06CFB204610BDA0F1040042
:1006B000F2E7000010B5044B03607033044643605A
:1006C000FFF7DAFF204610BDE07C0108A0F104002E
:1006D000F0E700BF10B50446D430FFF7EBFF20462B
:1006E000034B40F8043BFFF763FF204610BD00BFFB
:1006F000F866010810B50446FFF7DCFF20466021CC
:100700000AF03EFB204610BDA0F10400F2E7000015
:100710002DE9FF4717217648764D774CFFF76CFEA1
:100720001F217648FFF768FE1E217548FFF764FE1B
:10073000744BB3F90020744BB3F9001004230193F8
:10074000724B009328464FF4E7530AF0D7F822463D
:100750006F49284601F09CFD6E4BB3F900706E4B5B
:10076000B3F900906D4BF820B3F900A001F00EFF33
:100770006B4B02934FF018086A4BCDF80C80019335
:10078000009553464A46394606460AF041FA6648FD
:10079000664F066022466649DFF80892654E01F012
:1007A00077FD654B03220221384600F0ABFA224662
:1007B0006249384601F06CFD614BB9F900100393B2
:1007C0003F2302931923CDF8048000932A463B4629
:1007D0005C4D304609F064FF22465B49304601F02B
:1007E00057FD5A4E2846FFF715FE2846584D22461B
:1007F000314601F04DFD2846FFF70CFE22463146FA
:10080000284601F045FD534D534B544EB3F90010AB
:10081000284600F0A3F922463146284601F038FD6B
:100820004F4D504B2846B3F9001000F097F9314670
:100830004D4E2246284601F02BFD30464B4B40F8EA
:10084000043B102200210EF039FE002106F1400089
:10085000002502F05BF806F1540002F011F82B4677
:100860000095414630464FF4805204F0D1FB2246B9
:100870003F4930463F4E01F00BFDB9F900803E4B39
:1008800033603046FFF7D8FE4146301D04F032FD9C
:100890003046FFF7DDFE22463849304601F0F8FCCD
:1008A000374B3849596001221A709D60364B3749E1
:1008B0001D705D609960364B1A705D60354A364D2B
:1008C0009A604FF0FF330093062205230721284644
:1008D00000F0FEFA22463149284601F0D9FC3048A2
:1008E0003B461622294604B0BDE8F04709F068BD32
:1008F0006C0E0020A010002098010020740D002034
:10090000880E0020A4010020A20100200000204148
:10091000F1040008A00100209C0100209E0100209D
:100920000AD7233C0AD7233EE81100205C1300209D
:1009300079030008A80E002090D00300810200086F
:100940000014040078140020D5060008B90400083B
:10095000F011002030120020A6010020C10B000879
:10096000BC140020A801002080120020AC720108F5
:10097000D150000818140020C06501087902000851
:1009800068140020A502000844130020B1030008E9
:10099000501300202D050008900D0020C10500080F
:1009A00058100020AA01002010B480B114685368C8
:1009B0000CB9DA070BD513F0010F4FEA63031CBF24
:1009C000C2581459184423465DF8044B18475DF883
:1009D000044B7047F7B51D4B04460E46174640F8CA
:1009E000043B102200210EF069FD002300930193C7
:1009F00002A911E9030004F1180282E80300144976
:100A0000216248F207016162E362A4622263114A33
:100A10006263BFF36F8FBFF34F8F04F13C0584F81F
:100A2000383084F839301946942228460EF046FDB5
:100A3000094BC4F8D03028463A46314607F0EAFC64
:100A4000064B20461C6003B0F0BD00BFF8660108ED
:100A500001A090E8A9090008A08601005C1500200B
:100A6000036870B504460D461B68984704F13C00C6
:100A7000C4F8D050294607F0A5FC044B1C6023683D
:100A800020465B68BDE87040184700BF5C15002039
:100A9000036870B5094D1B68044698472B689C4253
:100AA00006D0D4F8D01004F13C0007F08BFC2C6089
:100AB000236820465B68BDE8704018475C1500203D
:100AC000F7B51D46036804461B680E46174698474F
:100AD0002046FFF7DDFF9DF8203083F0010331460B
:100AE00000933A462B4604F13C0007F033FD23689F
:100AF00006465B6820469847A81B18BF012003B034
:100B0000F0BD000010B5044B044640F8043BFFF76D
:100B10004FFD204610BD00BFF866010810B5044621
:100B2000FFF7F0FF2046D4210AF02AF9204610BD35
:100B300008B50448FFF75AFD4FF0FF31BDE8084003
:100B400001F0A6BE3415002008B50348FFF74EFD9E
:100B5000BDE8084001F0A6BE341500202DE9F041A3
:100B60000546154B45F8043B04460F46102604F194
:100B700020081C22002128460EF0A0FC324600214D
:100B800040460EF09BFC3246002104F130000EF08E
:100B900095FC3246002104F140000EF08FFC234604
:100BA000064A3946404607F099F92846394600F08A
:100BB000DAFC2046BDE8F08138670108E10C000846
:100BC00010B5084B044640F8203B07F049FA04F101
:100BD0004000FFF769FC04F13000FFF765FC204698
:100BE00010BD00BF3867010810B50446FFF7E8FFE5
:100BF000204650210AF0C4F8204610BD884238B57E
:100C000004460D460AD0FFF74FFC3CB1EB681BB120
:100C10005B68294620469847EB68E360204638BD6C
:100C2000F0B50F4685B0044601F038FAFD6804F1CE
:100C30003006203465B139463046FFF7DFFF012228
:100C40000121204607F0D2F801F03EFA05B0F0BDD0
:100C50001022294668460EF031FC69463046FFF7FF
:100C6000CDFF6846FFF720FC2A46E9E7F0B50F46BE
:100C700085B0044601F012FAFD6804F14006203404
:100C800065B139463046FFF7B9FF012202212046FF
:100C900007F0ACF801F018FA05B0F0BD10222946B3
:100CA00068460EF00BFC69463046FFF7A7FF684622
:100CB000FFF7FAFB2A46E9E7C36810B504462BB9EB
:100CC0004FF404720449054801F06CF9E3682046CA
:100CD0001B68BDE81040184708670108296701082C
:100CE000012908B502D0022906D008BDC36B13B193
:100CF0003030FFF7E1FF08BDC36C002BFBD0403064
:100D0000F7E7704710B5044600F0DEF9014B2360A9
:100D1000204610BD4867010838B5036804460D46F3
:100D20001B6898472946204600F0C6F92368054607
:100D30005B6820469847284638BD036870B51B6835
:100D40000D4604469847013D15F8016F26B131461E
:100D50002046FFF7E1FFF7E7236820465B689847E6
:100D6000304670BD0EB4F0B5A0B025AD036855F89F
:100D7000047B1B68044698472B463A460121684687
:100D8000019511F0FBFF7728054612DC3946019AE0
:100D900002A812F01DF802A92046FFF7CEFF236833
:100DA00020465B689847284620B0BDE8F04003B075
:100DB0007047013001F0F6FB39460646019A12F001
:100DC00007F831462046FFF7B8FF002EE7D030463F
:100DD00001F0F6FBE3E710B480B1146853680CB976
:100DE000DA070BD513F0010F4FEA63031CBFC2589B
:100DF0001459184423465DF8044B18475DF8044B1A
:100E00007047000070B50A4D2B68834204460ED02F
:100E1000061DD0F8D020D0F8CC100023304608F0C2
:100E2000EBF9D4F8D410304608F020FA2C6070BDED
:100E3000EC150020036870B59B6804460D46984782
:100E4000094BC4F8D4501B689C4209D12946201D87
:100E500008F00CFA23682046DB68BDE870401847AC
:100E60002046FFF7CFFFF5E7EC15002038B5036803
:100E700004469B680D4698472046FFF7C3FF294666
:100E8000201D08F011FA23680546DB6820469847C4
:100E9000284638BDF7B51F46036804469B680D46D3
:100EA000164698472046FFF7ADFF94F8D8300193D7
:100EB000089B009329463B463246201D08F019FA4C
:100EC00023680546DB6820469847284603B0F0BDF6
:100ED0002DE9F04306469946274B46F8043B85B07A
:100EE000044600250F4690460021902230460EF021
:100EF000E5FA04AB0295039513E9030004F19802A7
:100F00001E4B82E80300C4F8A03048F20703C4F87F
:100F1000A4301B4BC4F8AC50C4F8A840C4F8B020AF
:100F2000C4F8B430BFF36F8FBFF34F8F1022294640
:100F300004F1B8000EF0C2FA0823C4F8CC30114B0B
:100F4000C4F8D430FF2384F8D830BDF93030009392
:100F500042464B463946304684F8C85084F8C9505A
:100F6000C4F8D05008F06AF82046FFF74BFF20463F
:100F700005B0BDE8F08300BF6067010801A090E8FC
:100F8000D70D000840420F0038B5044648B158302C
:100F9000A04206D0A0F12C051438FFF709FB284623
:100FA000F6E7204638BD38B500250446294640F806
:100FB000045B28220EF082FA1022294604F1180060
:100FC0000EF07CFA204638BD08B50448FFF70EFB4A
:100FD0004FF0FF31BDE8084001F05ABCC4150020B5
:100FE00008B50348FFF702FBBDE8084001F05ABC12
:100FF000C415002010B50A4C2046FFF7D4FF04F1B9
:101000002C00FFF7D0FF0023A3652046E365054AC7
:1010100084F860300449BDE8104001F039B900BFE0
:101020006015002098010020890F000803681B69E3
:10103000184703689B69184703689B6A18474FF075
:10104000FF3070471120704770477047704710B4E9
:1010500080B1146853680CB9DA070BD513F0010F8F
:101060004FEA63031CBFC2581459184423465DF865
:10107000044B18475DF8044B70470000090170B538
:1010800001F198050544EB6883B14418D4F8A43005
:101090002BB94FF404720649064800F083FFD4F8D8
:1010A000A43028461B68BDE87040184770BD00BFDB
:1010B000786701082967010810B54C300C4606F026
:1010C0001FFD204610BD00002DE9F04F87B0002520
:1010D0009246009502460195044689469B469DE846
:1010E0000300324B42F8083B314B82E80300236196
:1010F00048F2070363612F4BE561A46122626362DA
:10110000BFF36F8FBFF34F8F102284F8285084F8FD
:10111000295004F12C000EF0D1F904F14C062946B7
:10112000102204F13C000EF0C9F904F19808294698
:101130004C2230460EF0C2F904F1A80729461022CD
:1011400040460EF0BBF92946102238460EF0B6F99B
:1011500010222946C4F8B8B002A80EF0AFF902A9CF
:101160004046FFF74BFD02A8FFF79EF910222946E3
:1011700002A80EF0A3F902A93846FFF73FFD02A826
:10118000FFF792F952464946304607F037FED4F849
:10119000B810304607F00CFE30462246064906F0ED
:1011A00041FC204607B0BDE8F08F00BFA0670108F2
:1011B00001A090E84F1000087D1000082DE9FF41C4
:1011C0000646884656F84C3B17461B6805463C01C8
:1011D000984700F063FFD8F80C3098342C44ABB13A
:1011E000E3680BB900F03EFA41462046FFF706FDE2
:1011F00001223946304606F021FC00F065FF2B68DD
:1012000028465B68984704B0BDE8F081E3680BB1FD
:1012100000F042FA1022002168460EF04FF96946AC
:101220002046FFF7EBFC6846FFF73EF90022E0E7B7
:101230007FB51A4B036004461022002168460EF069
:101240003DF9002269462046FFF7B8FF6846FFF7E0
:101250002BF91022002168460EF030F90122694670
:101260002046FFF7ABFF6846FFF71EF914F198061A
:1012700008D004F1B805B54204D0103D2846FFF768
:1012800013F9F8E704F13C00FFF792F904F12C00A0
:10129000FFF78EF9204604B070BD00BFA0670108BB
:1012A00010B50446FFF7C4FF2046BC2109F068FDD5
:1012B000204610BD70B5D0E90823D0E902450646A6
:1012C00012196B4100F0D8F8736B2BB106F12800AE
:1012D0001B68BDE87040184770BDD0B5044616467F
:1012E0001F4600F0DBFE204600F0D0F8C4E9086796
:1012F000A06900F0D9FB321847EB0103204600F04B
:10130000BBF8BDE8D04000F0DFBE7FB5044600F07A
:10131000C5FE204600F0BAF8636B13B194F838307C
:10132000E3B904F128066D461022002168460EF04C
:10133000C5F8AE420BD03046FFF7B6F83EB1039B7E
:101340001BB15B68694630469847039B6363284638
:10135000FFF7AAF800F0B8FE04B070BD00F09CF9E9
:10136000DFE710B5044600F099FE23681BB1237F28
:101370000BB100F091F90023236000F0A5FE204698
:1013800010BD10B5044600F089FE236853B9237FD1
:101390000BB100F067F9A06900F086FBC4E9020117
:1013A00001232360BDE8104000F08EBE38B504462E
:1013B00000F074FE236863B1A06900F075FBD4E906
:1013C0000245041B61EB050500F07EFE2046294620
:1013D00038BD00240025F7E770B5064600F05EFE34
:1013E0003046D6E90445FFF7E1FF24184D4100F0EF
:1013F0006BFE2046294670BD10B5044600F04EFE37
:10140000A06900F051FB00220023C4E90201C4E9F5
:101410000423BDE8104000F057BE002310B50022A1
:1014200003600023C0E90223C0E90423044600F05E
:1014300053FB0123A06123772046FFF7DDFF204601
:1014400010BD03689B681847094B10B50022036064
:101450000023C0E90223002303614361044600F036
:101460003BFB0449A06100F0A3FA204610BD00BF79
:10147000CC6701084314000807B5009000F108018B
:10148000806900F0CCFA03B05DF804FB00F10801BC
:10149000806900F0EEBA000010B5034B036004460B
:1014A000FFF7F4FF204610BDCC6701080368012256
:1014B0001B6900211847036800221B691146184761
:1014C000EFF31083DB4372B6044A117829B904495B
:1014D00003F001030B70012313707047F115002016
:1014E000F015002008B5EFF31083DB0704D4362293
:1014F0000549064800F056FD054B00221A70054BC1
:101500001B7803B162B608BDD867010803680108FB
:10151000F1150020F015002070B50E460446154662
:1015200006F0BEFB013609D02046002106F0DCFBA8
:1015300029462046BDE8704006F0D2BB70BD38B5E4
:1015400004460D4603685AB18268136020460121A3
:1015500006F0CAFB29462046BDE8384006F0C0BB6D
:10156000C2681B04F1E70022FFF7D6BF70B50E4634
:101570000446154606F094FB013606D02A4620465E
:101580000021BDE87040FFF7DABF70BD0022FFF711
:10159000EDBF000010B5044601300DD110BD9C42D6
:1015A00009D12046896807F0CFF820460021BDE820
:1015B000104007F061B90C31B1F900305A1CEED17E
:1015C0000248BDE8104000F0A1BD00BF6C680108F2
:1015D000884208B508D0431C06D0013106D0044823
:1015E00000F094FD4FF0FF31084608BD0146FBE7CF
:1015F0003B680108B1F900305A1C01D11846704708
:10160000834201D1486870470C31F3E7421C10B5A2
:10161000044607D0FFF7EEFF431C044602D1024800
:1016200000F074FD204610BD4C680108B1F900308F
:101630005A1C01D118467047834201D1886870470F
:101640000C31F3E7421C10B5044607D0FFF7EEFF5C
:10165000431C044602D1024800F058FD204610BD4C
:101660001D68010808B500F019FD094B1A884FF6EE
:10167000FF739A4204D100F027FD064800F046FDB2
:101680000121034800F02EFDBDE8084000F01CBD1C
:10169000F21500207D68010808B500F0FFFC084B3A
:1016A0001B8823B900F010FD064800F02FFD012132
:1016B000034800F021FDBDE8084000F005BD00BF73
:1016C000F2150020AA68010808B500F0E7FC064BF7
:1016D0001B882BB907F064FCBDE8084000F0F4BC9F
:1016E00007F04EFCF8E700BFF21500202DE9F347A4
:1016F00090E8080404465B68984763681B6A984250
:1017000035D0DAF82040DAF80C30DAF80820CAF8D8
:101710002000041B1C402E4B9A4226464FF0000727
:101720001FD0DAE90A01B2F5004FA4FB0345CDE969
:10173000000127D1DDE9002347F6FF70E60B002109
:101740000440121946EA45464FEAD53705EA010535
:101750006B41994208BF904214461D460AD3CAE91C
:101760000A45DAE90C23B6185F41CAE90C6702B0F2
:10177000BDE8F087013647F10007B2F5004443F1B8
:10178000FF35ECE74FF000094B46204629469046CE
:1017900013F0CCFD424606460F464B4620462946EE
:1017A00013F0C4FDDDE9000180185941494508BF27
:1017B000404502460B4602D2CAE90A23D1E7013668
:1017C00047F10007B0EB080261EB0903F4E700BF43
:1017D00040420F00824206D98A420BD9884294BF08
:1017E000002001207047884206D98A428CBF002021
:1017F0000120704701207047002070472DE9F04715
:101800008146D0F80480FFF771FFD9F80450D9F869
:1018100000A0696800294ED0D5E90C23D1E9006702
:10182000BB4208BFB24204D3DAF81430BDE8F04737
:101830001847B61A67EB0307D5E90623BB4208BF72
:10184000B2422C6906D3AB68224A93421DD1B442FE
:1018500028BF34462A6AD8F820301444EA68144075
:10186000A342E1D0DAF8103020469847D9F800308A
:101870005B68984722460146D8F82000FFF7AAFF88
:1018800030B3D9F800305B69D0E7B3F5004F0BD126
:10189000F903104A0023F00341EA564113F046FDD4
:1018A000844228BF0446D5E7A3FB060103FB0711CA
:1018B000084A0023F2E7D8F81030D8F82000D8F80A
:1018C0000C2018441040DAF81030BDE8F0471847F3
:1018D000BDE8F08740420F0003682DE9F74F04464A
:1018E0001B68984723689B699847D0F800B0054665
:1018F000BBF1000F06D129222A492B48DFF8ACB0F2
:1019000000F050FBD5F804A0AAF104031C2B06D963
:101910002F222449244800F045FB4FF0200AAAF169
:10192000040307251BF1FF3005FA03F51F4E4FF0A6
:10193000000343F1FF315A46C6FB050113F0F6FCE4
:10194000D4F804800023C8F80030C8F804302368B5
:101950005B680F46064698476368C8F820004FF05A
:1019600000094FF00008C3E90A89C3F808B05246DD
:1019700001200021019312F0CDFF019B01220138CB
:10198000D8601D612046C3E90667C3E90C8983F866
:101990003820FFF7ABFE204603B0BDE8F04FFFF75D
:1019A0002DBF00BFD06801089E69010840420F00AA
:1019B00038B5436893F8383004460D460BB9FFF745
:1019C0008BFF00F06BFB63681D60BDE8384000F0E2
:1019D0007BBB70B5044600F061FB2368DB68984769
:1019E00063685B68A3B12046FFF780FE65686E6898
:1019F000D5E90C01D6E90023994208BF904207D3EC
:101A0000F3686B602B68002BEAD0B0689847E7E773
:101A10002046FFF7F3FEBDE8704000F055BB2DE90E
:101A2000F84305460C4616461F46DDF8208000F0B8
:101A300035FB2846FFF75AFE6968C4F80880C4E9F8
:101A400000674B6800224BB9E36082B94C602846BE
:101A5000FFF7D4FEBDE8F84300F036BBD3E90089B8
:101A60004F4508BF4645EFD31A46DB68EBE7D46025
:101A7000EDE738B505460C4600F010FB6A68536880
:101A8000A34209D1DB6853602846FFF7B7FEBDE8E3
:101A9000384000F019BB1346002BF8D0DA689442A6
:101AA000F9D1E268DA60F2E7436893F8383010B5AC
:101AB00004460BB9FFF710FF00F0F0FA2046FFF7DD
:101AC00015FE00F001FB6368D3E90C0110BD08B5F9
:101AD000FFF7EAFF08BD000000487047F4680108FE
:101AE000024B1B680BB1024818477047AC0100203D
:101AF000F4680108007B704738B504460D4B03605D
:101B000000234360A16002730B480D46FEF76EFD93
:101B10004FF0FF3100F0BCFE55B1084B1A6862600F
:101B20001C600548FEF762FD00F0BCFE204638BD93
:101B30006560F6E7206901083C1600203816002091
:101B4000124B10B5036004461148FEF74FFD4FF0ED
:101B5000FF3100F09DFEA3682BB10E4A13689C4232
:101B60000ED1636813600A48FEF740FD00F09AFE4C
:101B7000237B13B9201F00F029FD204610BD13461A
:101B80005A689442FBD162685A60ECE72069010808
:101B90003C1600203816002010B50446FFF7D0FF91
:101BA0002046102109F0ECF8204610BD70B506461D
:101BB0000F480D46FEF71AFD4FF0FF3100F068FEAA
:101BC0000C4B1C685CB1A06880B12A4631460EF00F
:101BD000C5FA58B9A0680EF053FA854206D10448F8
:101BE000FEF704FD00F05EFE204670BD6468E9E784
:101BF0003C16002038160020002070470020704757
:101C0000036870B51B690122002104469847051E30
:101C10000DDB236802221B690021204698472368B8
:101C2000064629461B690022204698473546284625
:101C300070BD000070B50E46002504460560456085
:101C40000F4930460EF0DCFA0644266023681A7805
:101C50002F2A0ED10133236025B9282209490A48C9
:101C600000F0A0F929463046FFF7A0FF606020464B
:101C700070BD002AF0D0013301352360E6E700BFD4
:101C8000746901087669010897690108006870475E
:101C9000406808B520B1FFF72DFF431E5842584158
:101CA00008BD10B50446FFF7F3FF10B1606800B13E
:101CB000043810BD406808B520B1FFF71BFFB0FA2B
:101CC00080F0400908BD10B50446FFF7F3FF10B1DE
:101CD000606800B1043810BD4068003018BF0120B2
:101CE000704770477047F8B50368DB6C0E460446D2
:101CF0008F1898473546BD4207D0236815F8011B59
:101D00005B6C204698470130F5D1236820461B6D57
:101D10009847A81BF8BDF8B50368DB6C0E4604466F
:101D20008F1898473546BD4208D0236820469B6CE3
:101D30009847431C02D005F8010BF4E723682046BE
:101D40001B6D9847A81BF8BD002070477047002006
:101D5000704700207047000010B5054B03604C33FE
:101D6000044640F8043FFFF7EBFE204610BD00BFDD
:101D7000A8690108A0F10400EEE700BF10B5044611
:101D8000FFF7EAFF2046142108F0FAFF204610BDB5
:101D9000A0F10400F2E700000F4B10B5002204464A
:101DA00040F8043BFFF7A8FE0C4B23605C336360F4
:101DB000002363610A49204600F060FC606118B1AD
:101DC00000F06DFA204610BD0BF06AFF016805486F
:101DD00000F09CF9F6E700BF30690108286A0108A5
:101DE000FC690108FF69010810B5074B03F10802FF
:101DF000643304460260436040690BF0B9FF20463B
:101E0000FFF7AAFF204610BD206A01080EB477B57F
:101E1000036807AD044655F8046BDB6C98476069AE
:101E200001950CF077F8019A6069314610F01EFFB9
:101E3000236805461B6D20469847284603B0BDE839
:101E4000704003B07047F8B515460C4699B151F88B
:101E5000087C95B128460CF007FF064648B1AF4212
:101E60003A46214628BF2A460DF02AFA20460CF0B1
:101E700003FF3046F8BD0F46EBE72E46F9E738B5CD
:101E800002FB01F420460CF0EFFE054618B1224695
:101E900000210DF013FB284638BD000070B50C4B37
:101EA0000C4C0D4D1B68EB6006462046FEF79EFB72
:101EB0004FF0FF3100F0ECFC2946182230460DF0BF
:101EC000FFF92046FEF792FBBDE8704000F0EABC47
:101ED000DC1600207C1600206416002038B504466D
:101EE00015480D46FEF782FB4FF0FF3100F0D0FCA5
:101EF00005F1080120460CF0C7FE104BB0B19968FF
:101F00001A6804462A4444F8085B0D4419691A60AB
:101F10000131196159689D608A4200D95A600648AA
:101F2000FEF764FB00F0BEFC204638BD5A69013262
:101F30005A610446F3E700BF7C16002064160020B7
:101F400000B572465DF804EBFFF7C8BF38B505462B
:101F50000F480C46FEF74AFB4FF0FF3100F098FCAB
:101F6000A4B10C4B54F8080C1A68121A1A601A69BA
:101F7000013AA4F108011A6128460CF067F90448F7
:101F8000FEF734FBBDE8384000F08CBC2146F3E797
:101F90007C1600206416002000B572465DF804EB44
:101FA000FFF7D4BF70B504460D46164600F076F82C
:101FB00033462A462146034800F05CF8BDE87040ED
:101FC00000F002B88C6A010810B588B000F066F81D
:101FD000052101A8FFF7DAFA0424039B019A1A608D
:101FE000962000F01DFC019B049A1B0413609620B0
:101FF00000F016FC013CF0D10424039B019A1A6006
:102000004FF4C87000F00CFC019B049A1B04136091
:102010004FF4C87000F004FC013CEED1DCE7000096
:1020200070B50D46A0B0044600F038F82B462246A5
:102030008021684610F0A2FE051E03DC00F044F883
:1020400020B070BD094B1B6823B903220221084848
:1020500006F0D4FE064E00241DF80410304601346C
:1020600005F04EFDA542F7D1E8E700BFE41F0020D0
:10207000C83300200FB407B504A951F8040B01912F
:10208000FFF7CEFF03B05DF804EB04B07047EFF349
:102090001080C04300F001007047000010B5074CED
:1020A0002368013304D1552205490648FFF77AFF1A
:1020B000FFF706FA23680133236010BDA416002041
:1020C000BD6A0108E16A0108054B1A6832B11A6855
:1020D000013A1A601B680BB9FFF704BA704700BFDA
:1020E000A4160020D0E85F3F0B449BB2C0E8523FEB
:1020F000002AF7D118467047D0E85F3F5B1A9BB2C1
:10210000C0E8523F002AF7D1184670470FB413B504
:10211000084B1A784AB9012405A904981C7001914A
:10212000FFF77EFF204600F0B5F802B0BDE8104092
:1021300004B07047A81600206FF01C0070476FF0C5
:10214000150070470120704700207047704700005D
:10215000014B186801F094BF78220020F8B5074EB3
:1021600015460C468F18BC4205D014F8011B3046AA
:1021700005F0C6FCF7E72846F8BD00BFC8330020CD
:1021800038B58DB215F0010405D0084806F0C4FD3D
:10219000041C18BF0124EB0605D5044806F0D2FD47
:1021A00008B144F01004204638BD00BFC8330020F9
:1021B00010B50421044608F0E3FD204610BD0000E0
:1021C00010B50C462AB1044805F088FC20700120A7
:1021D00010BD104610BD00BFC833002038B51D46E5
:1021E000074B0360074B1B68044633B9064806F0EB
:1021F00005FE2946044806F0DBFD204638BD00BF39
:10220000246B0108E41F0020C83300200020704721
:10221000002070470148FFF779BF00BF126B01082B
:1022200008B5012000F036F80C4A136810B51844C0
:10223000EFF30881884205D3094B0C221A604FF056
:10224000FF3010BD07490C6824B1074909682144D3
:102250008842F1D21060184610BD00BFB0020020C5
:1022600074340020DC160020E0160020074C08B56E
:102270002368054698680BF04DFE2368D8680BF07C
:1022800049FE0DB1FFF7A0FEFEE700BF7803002076
:102290000120704708B5FFF7E9FF012070470021D2
:1022A0000DF02ABA08B500F0C1FD08BD08B500F070
:1022B000C5FD08BD10B5037803F00303012B0446E8
:1022C0000CD00E4B4FF0FF31186801F0BBFE2378A5
:1022D00003F00303012B03D1FFF73AFF002010BDE9
:1022E0002BB140F20F5206490648FFF75BFE2378F8
:1022F00043F002032370012010BD00BF78220020AC
:10230000AC6B0108D26B010810B5037803F003032E
:10231000022B044605D040F2175207490748FFF741
:1023200041FE237823F0030343F001032370BDE84B
:102330001040FFF70DBF00BFAC6B0108F86B010840
:102340003F2870B504462FDC184D55F820305A1C34
:1023500013D1022811DCFFF75BFF034658B9204672
:10236000FFF754FF034630B9114E3378BFF35B8F4C
:10237000DB0704D50F4B45F82430184670BD3046B6
:10238000FFF798FF0028F5D04FF4E1330322022134
:102390000848FFF723FF3046FFF7B6FF064A074914
:1023A0000448FFF775FFE5E70023E6E7B0010020EA
:1023B000AC160020D8160020980100204D210008FE
:1023C00038B50546FFF7BCFF0B4B002443F825400A
:1023D00030B90BF065FC092303604FF0FF3038BDC6
:1023E00003685B699847051E04DA0BF059FC6D42DF
:1023F0000560F2E7204638BDB0010020FFF7E0BFDE
:1024000038B50C461546FFF79BFF38B90BF048FC72
:10241000092303604FF0FF34204638BD036821468E
:10242000DB682A469847041EF6DA0BF039FC644252
:102430000460EFE708B5131E06DA0BF031FC162333
:1024400003604FF0FF3008BD04D0FFF7D9FF40EA2A
:10245000E07008BD184608BD38B50C461546FFF7B4
:102460006FFF38B90BF01CFC092303604FF0FF34F9
:10247000204638BD036821469B682A469847041EBB
:10248000F6DA0BF00DFC64420460EFE7002A08B5B1
:1024900003DBBDE80840FFF7DFBF0BF001FC1623AC
:1024A00003604FF0FF3008BD10B5FFF749FF044649
:1024B00028B90BF0F5FB09230360204610BD036823
:1024C000DB699847041EF8DA0BF0EAFB644204600B
:1024D0000024F2E71FB504220C4640230DEB020155
:1024E00001900DF109008DF808300CF0E9FE21464D
:1024F00002A80BF053FE044630B10198FFF7D4FF59
:1025000010B12046FFF7CBFE204604B010BDFFF708
:10251000CBBF38B50C461546FFF712FF38B90BF0A4
:10252000BFFB092303604FF0FF34204638BD03682A
:1025300021461B692A469847041EF6DA0BF0B0FBC9
:1025400064420460EFE7FFF7E4BF38B50D46FFF7DC
:10255000F7FE044630B90BF0A3FB092303604FF0EC
:10256000FF3038BD0368DB699847002814BF4FF47B
:1025700000534FF400436B60236820469B6A9847E2
:102580002861002038BDFFF7E0BF000010B50CF057
:102590006BFB044610B90248FFF7B8FD204610BD9A
:1025A0008F6B010810B50CF05FFB044610B90248B0
:1025B000FFF7ACFD204610BD706B01080CF05CBB52
:1025C0000CF05ABB00487047686B010810B5044610
:1025D0000C48FEF70BF84FF0FF3100F059F90023DB
:1025E000094A194652F82300A04208BF42F82310B6
:1025F0000133402BF6D10348FDF7F8FFBDE810404A
:1026000000F050B9B0160020B001002010B51348FA
:10261000FDF7ECFF4FF0FF3100F03AF9104B0324C7
:1026200053F824207AB10134402CF9D10BF038FB57
:10263000182303600948FDF7D9FF00F033F94FF084
:10264000FF34204610BD4FF0FF32044843F82420E9
:10265000FDF7CCFF00F026F9F3E700BFB01600202D
:10266000B001002010B50446FFF7D0FF0028A4BF3A
:10267000014B43F8204010BDB001002070B5064664
:102680000C46FFF7EFFF054690B12146FFF722FF0A
:10269000044630B9074B53F82520964203D143F83E
:1026A0002500204670BD0BF0FBFA09230360F8E714
:1026B0000446F6E7B00100200EB42DE9F04185B0E4
:1026C0000546FFF7A3FF041E13DB0023294602A8DB
:1026D0000193FFF7AFFA02A8FFF7FEFA1B4D06467B
:1026E00068B90BF0DDFA1323036045F824604FF05E
:1026F000FF34204605B0BDE8F04103B0704702A8A2
:10270000FFF7D8FA074602A837B1FFF7DCFA0190C5
:10271000019B45F82430ECE7FFF7C3FA0646002892
:10272000DFD0036802A8D3F80880FFF7AFFA0B9B4D
:10273000024601A93046C04706460028E8D00BF003
:10274000AFFA7642066045F82470D0E7B001002069
:1027500073B50E46184905460DF036F9044620B902
:10276000FFF7EEFD204602B070BD144928460DF07B
:102770002BF920B90120FFF7E3FD0124F2E710490E
:1027800028460DF021F920B90220FFF7D9FD0224D7
:10279000E8E72B78402B07D10422691C0DEB0200DF
:1027A0000CF08EFD019CDDE726F400412846FFF782
:1027B00083FF0446D6E700BF3F6C0108466C010862
:1027C000376C0108F8B50546FFF786F90646FFF7AE
:1027D0007EF94FF47A7495FBF4F4002C074602DD81
:1027E000FFF755FC30B93046FFF771F9C01BA8421E
:1027F000F9D3F8BDFEF736FF204602F066FCFEF77F
:102800004BFFF0E707EE100ADFED047A67EE277A58
:10281000FDEEE77A17EE900AFFF7D4BF0024744963
:102820004FF47A735843FFF7CDBF00007FB5061D04
:1028300005460C461C22002130460CF03FFE1022BB
:10284000002168460CF03AFE0A4B0296002C08BFA5
:102850001C461C23039368460B230094019301F04C
:10286000C5FB286020B9322203490448FFF79AFBD0
:1028700004B070BD4E6C0108676C0108816C0108E2
:1028800010B5002104460162FFF7D0FF204610BDBD
:1028900010B50446006801F0D5FB10B9236A013376
:1028A000236210BD036A013B0362006801F0E8BBCC
:1028B00010B50446006801F0FFFB204610BD000083
:1028C0002DE9FF41061D04468846174600211022C7
:1028D000102530460CF0F2FD2A46002168460CF027
:1028E000EDFD6A46414638460296039501F000FD2B
:1028F000206020B92C2203490348FFF753FB04B0A2
:10290000BDE8F081856C0108A36C010810B54FF695
:10291000FF720446FFF7D4FF204610BD006801F0A7
:1029200017BD10B50446006801F04CFD204610BDEF
:102930004FF0100300F00CB84FF0200300F008B87F
:102940004FF0300300F004B84FF0400300F000B83F
:10295000EFF308804FF0040172460A4201D0EFF312
:1029600009809C46244902680A60043142680A6072
:10297000043182680A600431C2680A600431F0C11F
:1029800047460F6004314F460F60043157460F60D1
:1029900004315F460F60043102690A600831426900
:1029A0000A60043182690A600431C2690A60043134
:1029B000034620334FF40076324200D0043375468C
:1029C0004FF01006354200D148330C46103C2360CE
:1029D000EFF309820A600431EFF308820A600431E0
:1029E00072460A600431EFF314820A60034B6046BA
:1029F0000149034A9847FEE7AC210020ED2B00086F
:102A0000B8020020044B1B6823B9032202210348AB
:102A100006F0F4B9704700BFE41F0020C83300205F
:102A2000F0B5114B85B006460A466D4603F1100716
:102A3000186859682C4603C40833BB422546F7D1B1
:102A400082B102F108010F201C2200FA02F3334088
:102A5000D34004AC2344043A13F8103C01F8013D80
:102A6000131DF2D105B0F0BDAF6C01082DE9F043A4
:102A700085B001AD0024124F019488466C602C7221
:102A8000461E16F8011F11B905B0BDE8F0832529CF
:102A900010D158F824002946FFF7C2FF04F10109BC
:102AA0000724295D384605F02BF814F1FF34F8D2DD
:102AB0004C46E6E7384605F023F8A146F8E700BFA4
:102AC000C833002030B52B4C2B492C4889B0FFF778
:102AD000CDFF21462A48FFF7C9FF1C22002101A88B
:102AE0000CF0ECFCE36A0193A36A2648DBB2029384
:102AF000A36AC3F307230393A36A1B0C0493236BFA
:102B00000593E36B0693636A079301A9FFF7AEFF92
:102B1000029B1A0603D51C491C48FFF7A7FF039B1D
:102B20001B0603D51A491B48FFF7A0FF124CE16CA6
:102B300011F0080516D000211748FFF797FF216D07
:102B400011F0010113D015480021FFF78FFFE16C50
:102B500011F004011ABF002111481248FFF786FF47
:102B600009B030BD29461048FFF780FF29460F48BD
:102B7000EBE700BF00ED00E0AC210020996D0108FB
:102B8000456E01084F6E010834ED00E08F6E0108BC
:102B900038ED00E0996E0108A36E0108B26E0108DD
:102BA000E26E0108EE6E0108D26E0108BF6E0108E8
:102BB0007FB543780193C36B0293436B0393036B1D
:102BC000049301A9836B03480593FFF74FFF07B0F8
:102BD0005DF804FBFA6E010810B5044604B910BD97
:102BE0002046FFF7E5FFA468F8E7000008B50546B2
:102BF0001446FFF707FF00212448FFF737FF202D79
:102C00003ED004D8102D09D00021214808E0302DF5
:102C100039D0402DF8D100211E4801E01E48002186
:102C2000FFF724FF00211D48FFF720FFFFF74AFFB1
:102C300000211B48FFF71AFF6069FFF7B9FF002169
:102C40001848FFF713FFA069FFF7B2FF00211648ED
:102C5000FFF70CFF206BFFF7BFFF00211348FFF7C2
:102C600005FFE06AFFF7B8FF00211148FFF7FEFEFD
:102C7000A06AFFF7B1FF00210E48FFF7F7FEFEE75D
:102C800000210D48CCE700210C48C9E7BF6C0108C2
:102C9000156D01080A6D0108E86C0108236D010833
:102CA0002E6D0108466D01084D6D01085C6D01082F
:102CB0006C6D01087A6D0108F26C0108016D010864
:102CC000154838B5154B03600B251C24144B456083
:102CD000C460836001F08AF9124B18601248134BEC
:102CE000C46080E82800124B836001F07FF9114B2B
:102CF00018601148114BC46080E82800104B8360B5
:102D000001F074F90F4B18600BF0F8FE0021084633
:102D1000BDE8384000F062B82C220020526F010854
:102D200000220020782200201C220020626F01086F
:102D30007C220020742200203C2200206F6F0108BA
:102D4000982200204C2200200A4A0B48C2F100536E
:102D500003F50033B3F5806F194628BF4FF4806147
:102D60005B1A016005499818086005490B60054B1E
:102D70001A60704778340020E4160020E81600201E
:102D8000DC160020E0160020704700000D4A0E48B7
:102D900008B50E4B13614FF4805353614823D36041
:102DA0000B4B93601823936100210A4B136002F0D0
:102DB0002DF810B90848FFF7A9F9BDE8084000F060
:102DC000E3BA00BF50220020C12C000800230020DD
:102DD000B42200202A6F0108366F010808B5FFF7FA
:102DE000D3FFBDE80840FDF72BBB000010B5FFF78F
:102DF000ABFF0B4B0B499A680B48043A52F8044F4F
:102E000041F8044F8142F9D14FF000529A6005F029
:102E100073FC00F06FFABDE81040FFF7B7BF00BFCA
:102E200000ED00E0FCFFFF1F94010020024B4FF07B
:102E3000FF31186801F006B974220020014B1868B0
:102E400001F01EB97422002008B500F057F8FCE725
:102E500008B505460C4601F0F5FF6B1E0246042B33
:102E600024D8DFE803F0030D13191E00204601F0FB
:102E7000D1FF2246034601210F48FFF747F9FEE73D
:102E8000234602210D48FFF741F9F8E723460321C5
:102E90000B48FFF73BF9F2E704210A48FFF736F940
:102EA000EDE705210848FFF731F9E8E7294607482B
:102EB000FFF72CF9E3E700BF796F0108C96F01083C
:102EC0001F70010884700108DF7001083F7101085C
:102ED00008B501F0B7FFBDE8084002F091B802F074
:102EE0008FB808B5FFF7DAF8FEF7BCFBFEF7ECFB8E
:102EF000FEF7D2FBBDE80840FFF7E6B808B5024C84
:102F000023689847FCE700BFB4020020EFF3098074
:102F1000816911F8021CB9BB01B590E80F10E047B8
:102F2000BDE800508CE80300264B93E80600914270
:102F300008BF704741B91EF0100F10D12249086830
:102F400020F0010008600AE02CE9F00F1EF0100FDD
:102F500008BF2CED108AC1F838C081F822E001F0DA
:102F6000B9FC184B93E806001A6092F82210906B97
:102F700061F0FF0E1EF0100F08BFB0EC108AB0E831
:102F8000F00F80F30988704710B5104A1368994212
:102F900006D852F821400FC8A047EFF309842060FB
:102FA00010BD10B501F072FABDE81040EFF3098CC6
:102FB000BAE710B501F030FABDE81040EFF3098C24
:102FC000B2E70000CC02002034EF00E024720108D8
:102FD00008B5014610B1132001F016FE002008BD0F
:102FE00010B5044600F030F8EFF305832BB9EFF38A
:102FF000108313B9EFF311833BB16FF0050100208B
:1030000000F016F86FF0050010BD2046DFF804C090
:1030100000DF10BDD12F0008704770477047704720
:1030200070477047704770477047704770477047E8
:1030300070477047704770477047704770477047D8
:1030400070477047704770477047704770477047C8
:1030500070477047704770477047704770477047B8
:1030600070477047704770477047704770477047A8
:103070007047704770477047704770477047704798
:103080007047704770477047704770477047704788
:10309000704770477047704770B56348017A0129DF
:1030A000044603D1FFF7C0FF002070BD31B14FF0DF
:1030B000FF30FFF7B7FF4FF0FF3070BD5B4D9C2234
:1030C00008300CF0FBF96B6D472B02D86FF00A004B
:1030D000EFE7EA68002AEAD02B8A002BE7D0EE6AF5
:1030E000A4F85430296BAB68E2653046236400F0E5
:1030F00081F908B1C4F880606E69A969304600F0B2
:1031000079F9002800F084806667EE69296A304604
:1031100000F070F900287FD0A6676E6AA96A304671
:1031200000F068F900287BD0E6676E6B46B1F36863
:10313000B2683168304600F0D6F908B1C4F884604E
:10314000AE6B46B1F368B2683168304600F0CBF937
:1031500008B1C4F88860EE6B46B1F368B2683168B4
:10316000304600F0C0F908B1C4F88C602E6C46B14E
:10317000F368B2683168304600F0B5F908B1C4F8B8
:1031800090606E6C46B1F368B2683168304600F00A
:10319000AAF908B1C4F89460AE6C46B1F368B2689D
:1031A0003168304600F09FF908B1C4F89860EE6CC1
:1031B00046B1F368B2683168304600F094F908B15E
:1031C000C4F89C602D6D45B1EB68AA682968284653
:1031D00000F089F908B1C4F8A050154AFF2382F81D
:1031E000223092F82230D16863F0FF03DB43B3FA58
:1031F00083F3C3F12003C1F302218B4298BF4B1C20
:10320000FE2101FA03F3DBB2D3770123237249E7EE
:10321000D4F88030636778E7D4F88030A3677CE720
:10322000D4F88030E36780E7B8020020BC71010861
:1032300000ED00E010B5034C207AFFF7F6FE207A8F
:1032400010BD00BFB802002038B5244C237A012BF2
:1032500006D06FF00600FFF7E5FE4FF0FF3038BDF7
:10326000A36A1F4D4BB9AA6D1E48194601F0C4FB55
:10327000A06210B94FF0FF30EDE76B6E4BB1A36C5D
:103280003BB9EA6D1848194601F0B6FBA064002866
:10329000F0D01649686801F073FE0028DDD101F016
:1032A000ABFE206101F08CFE0028D6D1104801F061
:1032B00002FA0028DED001F02FFB2B6813F0010F7B
:1032C0004FF0020306D083F314882372FFF7AFFE9A
:1032D000002038BD032282F31488F6E7B8020020EC
:1032E000BC710108492E0008354F0008B32F0008B3
:1032F000D402002008B5FFF796FEEFF305832BB943
:10330000EFF3108313B9EFF3118333B16FF00500BE
:10331000FFF788FE6FF0050008BDDFF828C0EFF367
:10332000148313F0020F0AD113F0040FEFF3088394
:103330000CBF203B683B23F0070383F3098800DFC1
:1033400008BD00BF9930000808B5EFF305832BB91D
:10335000EFF3108313B9EFF3118333B14FF0FF3064
:10336000FFF763FE4FF0FF3008BDEFF31483DB0778
:1033700003D4BDE80840FFF75DBFDFF808C000DFF9
:1033800008BD00BF3532000808B5FFF74FFEEFF368
:1033900005832BB9EFF3108313B9EFF3118333B126
:1033A0006FF00500FFF73EFE6FF0050008BDFFF768
:1033B000CBFF022805D00D4B1B6813B15B6803B12E
:1033C0009847DFF82CC0EFF3148313F0020F0AD1F3
:1033D00013F0040FEFF308830CBF203B683B23F08E
:1033E000070383F3098800DF08BD00BF0033002016
:1033F0004932000838B50C46034630B140EA0102B4
:1034000012F0070201D1172906D8184600222146DA
:10341000FFF702FE002038BDA1F108041025196055
:103420004560251885602250C2600122FFF7F4FD37
:10343000012038BDF8B518B111B132F0030304D042
:103440000023FFF7EAFD0020F8BD0F3121F007014E
:1034500000F108031E68D3F804E0F41A2EF0030507
:10346000641BA14204D934683346002CF2D1E7E74B
:1034700044680C44446042EA0107BEF1000F07D1E2
:103480005F6003F108042346FFF7C7FD2046F8BD3F
:103490005C195E5167601C600834F4E738B500B110
:1034A00021B90022FFF7BAFD002038BDA1F10805BF
:1034B00000F108030022AB420CD15C6824F0030544
:1034C0004468641B44605AB95A600122FFF7A6FDA4
:1034D000012038BD1C681A46002CE2D02346EAE7DA
:1034E0001B681360F1E72DE9F0410C4617461D46B5
:1034F000064600B3C1B102B30BB34FF0000E02FB9E
:1035000001F83160C0F804E003EB080EF36073616A
:10351000B260C0F810E0FFF782FD2B46013C06D1F7
:10352000A8EB0707EC5101242046BDE8F081DA1929
:103530001A601346F2E70446F6E71446F4E71C4621
:10354000F2E738B5044628B90146FFF769FD25467C
:10355000284638BD031D026853E8001F8A4202D87E
:10356000BFF32F8F04E0481C43E8000505B1F3E7E3
:1035700023688B4211D904F1140353E8005F15B995
:10358000BFF32F8F04E02A6843E8002101B1F4E77C
:1035900029462046FFF744FDDAE70025F8E738B56D
:1035A00028B1C3688B4202D80369994207D36FF0F0
:1035B0000302FFF736FD6FF00304204638BD031DFC
:1035C00053E8002F12B9BFF32F8F04E0541E43E8D5
:1035D000004505B1F4E79AB100F114031A680A60D6
:1035E000BFF35F8F53E8002F0C689442F6D143E895
:1035F000001505B1F2E700242246FFF712FDDCE7D3
:103600006FF00204F8E7036B30B5E3B1CD78002426
:10361000DA78AA420FD31A464A608C608AB1916068
:10362000A4B16160283050E8003F5A1C40E80021F6
:1036300001B1F8E730BD5A681C46002AECD01346A9
:10364000E6E7C162ECE74B608B60C1620163E9E7CA
:103650004B688A6823B19A608A681AB153607047D0
:10366000C262F9E7036370472DE9F74F8B46804646
:1036700000B141B96FF003010020FFF7FFFC00200B
:1036800003B0BDE8F08FCF1C27F003070C37B0FA6A
:1036900080F3B7FA87F10B441F2BEBDD07FB00F932
:1036A000F2B1946813680193166950693CB1A3079D
:1036B00002D1D368332B05D86FF00801DCE7D3685B
:1036C000002BF9D13EB116F0030501D1814562D935
:1036D0006FF00901D0E70028FAD11CB1054619E0C6
:1036E000019216462E4BD3F8A00048B1FFF729FFF0
:1036F000044660B96FF00401FFF7C0FC2046BFE745
:1037000001223421D3F88000FFF794FEF0E7002E69
:103710003FD10125DFF888A000224946DAF87C0075
:10372000FFF788FE064690B96FF00401FFF7A6FC8C
:10373000002DA4D0DAF8A05021461DB12846FFF78D
:103740002EFF9CE7DAF88000FFF7A8FE97E74A46CD
:1037500000210BF0B3FE45F0020008232370012383
:103760006370019B63600023A070A360A362E362A7
:1037700023633A463346C4F824B0414604F10C00B2
:10378000FFF7B1FE064B074A1A672046FFF778FCA1
:10379000B4E70120E1E7002CA4D02846DDE700BF14
:1037A000B8020020A13800082DE9F0410E469046ED
:1037B0001D46044618B10378082B00D141B92046B4
:1037C0006FF00301FFF75AFC6FF00300BDE8F081D2
:1037D00043783BB96FF00201FFF750FC6FF0020035
:1037E000BDE8F081836803B35B78832B1DD1FFF7BD
:1037F0004CFC204600F05FFF01220546002101F04D
:10380000C9F8284600F0E4FF0546626A8068314640
:103810000BF056FDEB680BB183F80080A9682046D9
:10382000FFF738FC0020BDE8F08104F10C00FFF741
:1038300088FE0746A8B1626A31460C300BF040FDA5
:1038400007233B7000250123394620467B70BD705D
:1038500087F80380FFF7D7FE31462046FFF715FCB7
:10386000E0E7B5B12A4631462046FFF70BFC0B4B8B
:103870002046596900F00CFF2946932001F0C4F955
:10388000EFF309836FF001009E60C3F80C80BDE880
:10389000F08131462046FFF7F9FB9FE7B802002090
:1038A000F8B543780446002B7AD08678002E3ED0B7
:1038B000C5686B78002B73D001460026284605F1B9
:1038C0000C07FFF7C5FE667021463846FFF767FE16
:1038D000AB68002B64D05B78932B61D13846FFF73F
:1038E00030FE044600285BD0284600F0E4FE324655
:1038F0003146074601F04EF8384600F069FF6A6A23
:103900008168074604F10C000BF0DAFC07232370F2
:1039100001236370A670FB68E37021462846FFF719
:1039200072FEB9682846BDE8F840FFF7AEBB85686F
:103930006B78ABB3AB684BB35B78832B26D1416814
:103940002846FFF7A2FB284600F0B5FE3246314676
:10395000074601F01FF8384600F03AFF06466A6A4B
:10396000806804F10C010BF0ABFCF3680BB1E2785A
:103970001A70B1682846FFF78DFB0023637021465B
:1039800005F10C00BDE8F840FFF709BE6168284664
:10399000FFF77BFB21462846BDE8F840FFF733BE22
:1039A000F8BD10B500F1280353E8002F12B9BFF39A
:1039B0002F8F04E0511E43E8001404B1F4E70AB964
:1039C000002010BDC06A01230028F9D0821CD2E873
:1039D0004F1FC2E8443F04B1F9E711F0FF0F01D0D7
:1039E0008068F1E710BD00002DE9F0410D46174653
:1039F0009846044618B10378082B00D141B92046F7
:103A00006FF00301FFF73AFB6FF00300BDE8F081B0
:103A100043783BB96FF00201FFF730FB6FF0020013
:103A2000BDE8F081FFF7BDFF0646E8B1014620463C
:103A3000FFF70EFE626A06F10C0128460BF040FC0F
:103A40000FB1F3783B7029462046002504F10C079E
:103A5000FFF720FB757031463846FFF7A0FDA368DD
:103A600003BB0020BDE8F081B8F1000F15D042463D
:103A700029462046FFF70CFB204B2046596900F0F1
:103A800007FE4146832001F0BFF8EFF309836FF092
:103A900001009D60DF60BDE8F08129462046FFF708
:103AA000FAFABBE75B78932BDBD13846FFF749FD89
:103AB00006460028D5D0204600F0FDFD29460746E1
:103AC000012200F067FF384600F082FE626A8168DA
:103AD000074606F10C000BF0F3FB072333700123BC
:103AE0007370B570FB68F37031462046FFF78BFDAD
:103AF000B9682046FFF7C9FAB3E700BFB802002053
:103B000070B506460D461446FFF7B9FAEFF3058384
:103B10002BB9EFF3108313B9EFF3118333B16FF0C7
:103B200005010020FFF7AAFA002070BD30462946A3
:103B30002246DFF828C0EFF3148313F0020F0AD1F6
:103B400013F0040FEFF308830CBF203B683B23F016
:103B5000070383F3098800DF70BD00BF69360008E2
:103B60002DE9F04104460F4690461D46FFF789FABD
:103B7000EFF3058333B9EFF310831BB9EFF3118330
:103B8000002B3CD024B12378082B01D107B145B1DB
:103B900020466FF00301FFF771FA6FF00300BDE8F4
:103BA000F081637843B96FF002012046FFF766FAAF
:103BB0006FF00200BDE8F08104F10C00FFF7C1FCDA
:103BC0000646B8B1626A39460C300BF079FB072320
:103BD0003370012373703046B57086F803807760C8
:103BE000B46000F097FC20463946FFF74DFA2846AE
:103BF000BDE8F08139462046FFF748FAD8E720466D
:103C0000394642462B46DFF808C000DFBDE8F081A8
:103C1000A9370008F8B504460D4617461E46FFF7BB
:103C200036FAEFF305832BB9EFF3108313B9EFF3F3
:103C30001183A3B324B12378082B01D105B13EB180
:103C400020466FF00301FFF719FA6FF00300F8BD8B
:103C500063783BB96FF002012046FFF70FFA6FF06F
:103C60000200F8BD2046FFF79CFE064690B100F129
:103C70000C01626A28460BF023FB0FB1F3783B700E
:103C800029462046FFF706FA3046F46000F042FC71
:103C90000020F8BD29462046FFF7FDF9DFE7204662
:103CA00029463A463346DFF808C000DFF8BD00BFBA
:103CB000E939000870B500283AD0846890E86000BF
:103CC00064B114F0030302D1C2681B2A1FD86FF03D
:103CD00008010020FFF7BCF9002070BDC368002B6D
:103CE000F5D1154BD3F8940030B901221C21D3F83B
:103CF0008000FFF79FFB01E0FFF723FC044628B993
:103D00006FF00401FFF7A4F9204670BD01230422DF
:103D10002270A370012200236270E6706560A360C8
:103D2000E3602361636123762046FFF793F9EBE7B5
:103D300005460646D5E700BFB8020020304B70B5F7
:103D40005D6904460E4635B96FF00701FFF780F94B
:103D50004FF0FF3070BD10B10378042B07D0204620
:103D60006FF00301FFF774F96FF0030070BD437843
:103D700033B96FF00201FFF76BF96FF0020070BD0D
:103D8000017E69B9EB6AC5604361016103B11861E5
:103D90000121EC6220462176FFF760F9002070BD1A
:103DA000C378DA070BD5C268954208D1FF2902D142
:103DB0006FF00F01DFE70131C9B20176ECE7DEB148
:103DC0009B070AD5E06895F9203090F920209A42A7
:103DD00003DA80F8203000F089FC31462046FFF7F6
:103DE0003BF92946204600F053FC3146532000F0B1
:103DF0000BFF6FF0010070BD2046FFF730F9BCE704
:103E0000B802002038B5334B5D69044635B96FF010
:103E10000701FFF71DF94FF0FF3038BD10B10378EF
:103E2000042B07D020466FF00301FFF711F96FF064
:103E3000030038BD437833B96FF00201FFF708F98A
:103E40006FF0020038BDC3689D4202D06FF00D01D3
:103E5000F4E7017E11B96FF00E01EFE70139C9B245
:103E60000176FFF7FEF8237E3BBB63690BB1226945
:103E70001A6122691AB35361E3789B0705D595F956
:103E80002120EB6AEBB985F82020A36893B1204686
:103E900000F011FC00220546114600F07BFDEB6AA4
:103EA000636101210023E56023612046EC622176F5
:103EB000FFF7D4F8002000F03FFD002038BDEB6292
:103EC000DAE7996821B191F920108A42B8BF0A4611
:103ED0005B69D7E7B802002010B5044610B103783B
:103EE000042B07D020466FF00301FFF7B1F86FF005
:103EF000030010BD437833B96FF00201FFF7A8F853
:103F00006FF0020010BD00234370037EDBB16369D4
:103F1000C0680BB122691A6122691AB35361E37850
:103F20009A070BD590F92130C26AEAB990F920209E
:103F30009A4203D080F8203000F0D8FBA368E3B9A0
:103F4000002000F0F9FCA378DB0706D5124BD3F86C
:103F500094002146D0B1FFF722FB2046FFF783F8FB
:103F6000002010BDC362DAE7916821B191F92010F9
:103F70008B42B8BF0B465269D7E7204600F09BFB47
:103F800000226FF0020100F005FDD7E7D3F88000B2
:103F9000FFF784FAE1E700BFB80200202DE9F04105
:103FA0000446002601270CB9BDE8F081E378D4F877
:103FB00014801B0718D5267600212046FFF751F8FC
:103FC000A3688BB1204600F076FB0022054611461F
:103FD00000F0E0FCEB6AE560636126610121EC62C0
:103FE00020462776FFF73AF84446DCE710B504464A
:103FF000FFF72FF8EFF305832BB9EFF3108313B915
:10400000EFF3118333B16FF005010020FFF720F8C3
:10401000002010BD2046DFF828C0EFF3148313F012
:10402000020F0AD113F0040FEFF308830CBF203BFB
:10403000683B23F0070383F3098800DF10BD00BF4E
:10404000B53C000838B504460D46FFF704F8EFF319
:1040500005832BB9EFF3108313B9EFF311833BB151
:1040600020466FF00501FEF7F3FF6FF0050038BD45
:1040700020462946DFF804C000DF38BD3D3D00087A
:1040800010B50446FEF7ECFFEFF305832BB9EFF311
:10409000108313B9EFF311833BB120466FF0050194
:1040A000FEF7D6FF6FF0050010BD2046DFF804C014
:1040B00000DF10BD053E000810B50446FEF7D2FF34
:1040C000EFF305832BB9EFF3108313B9EFF31183EB
:1040D0003BB120466FF00501FEF7BAFF6FF0050017
:1040E00010BD2046DFF804C000DF10BDD93E000837
:1040F00000F10C03D3E85F0F10B9BFF32F8F04E07A
:10410000421EC3E8512F01B1F4E780B2003018BF5E
:104110000120704730B500F10C02C189D2E85F3F41
:10412000994202D8BFF32F8F04E05C1CC2E8554FC0
:1041300005B1F3E7C0899BB2984294BF00200120EB
:1041400030BD0000F8B50F464FF6FE73411E994290
:10415000054601D8B84206D26FF003010020FEF7F1
:1041600083FF0020F8BD002A35D09468166844B15A
:1041700014F0030302D1D2680F2A1BD86FF0080194
:10418000ECE7D368002BF9D1144BD3F8980030B981
:1041900001221021D3F88000FFF74CF901E0FFF76E
:1041A000D0F9044628B96FF00401FEF75DFF204600
:1041B000F8BD0123A370052200232270A360012211
:1041C000064B62706660A781E581054A9A662046C3
:1041D000FEF74CFFEBE71646D6E700BFB80200201B
:1041E0006142000810B5044610B10378052B07D0D2
:1041F00020466FF00301FEF737FF6FF0030010BD9C
:10420000437833B96FF00201FEF72EFF6FF0020022
:1042100010BD00234370836863B1204600F04BFA61
:1042200000226FF0020100F0B5FBA0680028F4D175
:1042300000F082FBA378DB0706D5084BD3F8980083
:10424000214630B1FFF7ABF92046FEF715FF0020FD
:1042500010BDD3F88000FFF721F9F5E7B802002080
:1042600010B54378044683B1836873B1FFF740FF0C
:1042700058B1204600F01FFA0022114600F08AFBD8
:104280002046BDE81040FEF7F3BE10BD38B5054628
:1042900010B10378052B07D028466FF00301FEF715
:1042A000E3FE6FF0030038BD437833B96FF00201CD
:1042B000FEF7DAFE6FF0020038BD84686CB1FEF7DD
:1042C000D9FE284600F0F7F90122002100F062FB38
:1042D0002846FEF7CDFE002038BDFFF71BFF18B9BA
:1042E0006FF010012846E3E72846FEF7C3FEF2E729
:1042F00070B506460D461446FEF7B7FEEFF305838C
:104300002BB9EFF3108313B9EFF3118333B16FF0CF
:1043100005010020FEF7A8FE002070BD30462946AA
:104320002246DFF828C0EFF3148313F0020F0AD1FE
:1043300013F0040FEFF308830CBF203B683B23F01E
:10434000070383F3098800DF70BD00BF4541000803
:1043500010B50446FEF78DFEEFF305832BB9EFF39E
:10436000108313B9EFF3118323B314B12378052B12
:1043700007D020466FF00301FEF776FE6FF00300D2
:1043800010BD63783BB96FF002012046FEF76CFE6A
:104390006FF0020010BD2046FFF7BCFE38B120468A
:1043A00000F0B8F82046FEF765FE002010BD6FF063
:1043B0001001EAE72046DFF808C000DF10BD00BFAB
:1043C0008D42000810B50446FEF755FEEFF3058355
:1043D0002BB9EFF3108313B9EFF311833BB12046F0
:1043E0006FF00501FEF740FE6FF0050010BD20469E
:1043F000DFF804C000DF10BDE541000810B5D0E8CB
:104400005F3F5A1C914200D80022C0E8542F04B1EB
:10441000F5E798B210BD000038B51B4C00F0E6FD82
:10442000E3680133E360236D03B1984700F0DAF9E4
:10443000002000F081FA236C2BB1A26BA1698A42A3
:1044400002D0A163E36338BDE36B0BB1013BE363CF
:10445000E36B002BF7D1237A022BF4D1656A002D90
:10446000F1D095F9201092F920309942EBD12846ED
:1044700000F032F9A06B00F04BF9284600F04CFA3E
:10448000A563236CDEE700BFB802002070B5204CA6
:1044900004F1560504F15A06B4F85410D5E85F3F0C
:1044A00013B9BFF32F8F04E05A1EC5E8502F00B197
:1044B000F4E79BB23BB33046FFF7A0FFE36D53F840
:1044C000200000B30378013B062BE5D801A252F887
:1044D00023F000BFF144000899440008F7440008A5
:1044E00099440008FB440008FF4400080345000805
:1044F000236E9847D0E7636EFBE7A36EF9E7E36EA0
:10450000F7E7236FF5E70020BDE8704000F014BA2C
:10451000B802002070B5164C0546B4F8541004F1EA
:104520005602D2E85F3F994202D8BFF32F8F04E0D2
:10453000581CC2E8560F06B1F3E79BB2994210D956
:1045400004F15800FFF75AFFE36D43F82050637AF7
:1045500023B9084B4FF080525A6070BD0123A372FB
:1045600070BD29460220BDE87040FEF771BC00BF57
:10457000B802002000ED00E010B5034B5C69204656
:10458000FEF75AFD204610BDB802002008B5FEF720
:104590009FFCDFF810C000DF4FF0FF310020FEF776
:1045A00047FDFEE7514C000812F0020F10B502F073
:1045B000010222D100F1280382B153E8000F00EA82
:1045C00001028A4203D0BFF32F8F002005E020EACA
:1045D000010243E8002404B1EFE710BD53E8000FE7
:1045E000084203D1BFF32F8F002005E020EA01022B
:1045F00043E8002404B1F1E710BD806A01EA00033A
:104600001AB1994218BF002010BD002B08BF00202E
:1046100010BD000010B50023437083789A0704464C
:1046200008D513F0100F016B0E4B0FD0D3F8840098
:10463000FEF7B5FFA378DB0712D50A4BD3F8880045
:10464000214638B1BDE81040FEF7A9BF586FFEF70C
:1046500025FFEFE7D3F88000BDE81040FEF71EBF4E
:1046600010BD00BFB802002010B5044610B1037899
:10467000012B05D020460021FEF7DDFC002010BDF7
:104680004378002BF6D04168FEF7D5FC606810BD7A
:1046900010B561B191F9202083681BB193F92040D6
:1046A000944205DAC8608B60816003B1D96010BDA7
:1046B00018469B68F1E783682BB19A68826002B163
:1046C000D0600022DA601846704710B10378012BE1
:1046D00000D07047C068F8E7C36833B182689A6059
:1046E000826802B1D3600023C360704710B50146F1
:1046F00004462378012B07D00846FFF7EDFF20463C
:10470000BDE81040FFF7C4BFE468002CF1D110BD34
:104710000123014643700148FFF7BABFD4020020CD
:104720004B1C30B5144A0FD1136B00213BB94FF02D
:10473000FF34C4614161036121B1086130BD194694
:104740001B69F3E7106330BDD36A002413B1DD6940
:10475000A9420AD2C1614461036154B120611BB115
:10476000DA695861511AD96130BD1C46491B1B6971
:10477000ECE7D062F3E700BFB802002010B5C469CF
:104780004269631C10D11AB9104B1B6B98421BD1A4
:10479000036903B15A6142691AB11361002343618D
:1047A00010BD0A4A136310BD1AB9084BDB6A984260
:1047B0000AD103691BB1D9695A612144D96142699F
:1047C000002AEAD1014AD36210BD00BFB80200201E
:1047D00090F82220836B12F0100F0CBF6020202075
:1047E0001844704738B52E4DEC6A002C57D0E36959
:1047F000013BE361002B52D16378532B37D008D8AB
:10480000332B2BD0432B2CD0132B07D1FEF71DFCC1
:1048100004E0732B37D017D8632B2ED02046FFF738
:10482000D7FF01682046FEF70AFC2046FFF754FF39
:104830002046FFF76DFF246924B1E369002BDBD02C
:1048400000236361EC6238BD832B22D0932BE5D12A
:104850002046FFF73AFFFEF716FCDFE7FEF7F2FB14
:10486000DCE72046FFF731FFFEF7F1FBD6E72046F5
:10487000FFF72BFFFEF7F1FBD0E72046FFF725FF00
:10488000FEF7F5FBCAE72046FFF71FFFFEF7F5FB33
:10489000C4E72046FFF719FFFEF7FBFBBEE738BD74
:1048A000B802002010B50123094A437090F9201086
:1048B000536A1C321BB193F920408C4205DCC26064
:1048C0008360906003B1D86010BD1A469B68F1E721
:1048D000B8020020044B1B682BB11B691BB1034AB3
:1048E0009269506C1847704700330020B8020020CE
:1048F000074B596951B10B6B8A6B934203D21A680B
:10490000044B9A4202D00120FEF7A2BA704700BFC2
:10491000B8020020A52E5AE210B502234370054BC1
:1049200004469861FFF7E4FF2046BDE81040FEF71B
:1049300087BB00BFB802002010B5154B04461A7A99
:104940005969A8B9022A5C6A20D1F9B1F4B194F985
:10495000202091F920309A4218DD2046FFF7BCFE56
:104960000846FFF79FFF2046BDE81040FFF7D4BF81
:10497000022A06D129B190F9202091F920309A42DB
:10498000EEDC2046BDE81040FFF7C2BE10BD00BF00
:10499000B802002070B504460E461546FEF74FFBE0
:1049A0002046FFF715FF06602046FFF7E7FE20468A
:1049B0001DB1BDE87040FFF7BFBFBDE87040FFF715
:1049C000A7BE38B54378332B044613D190F8232083
:1049D000416AFFF7E9FD054660B101460022204625
:1049E000FFF7D8FF2A4694F82310606ABDE83840E4
:1049F000FEF729BB38BD00002DE9F04F85B0824697
:104A00000391029338B96FF00301FEF711FB002008
:104A100005B0BDE8F08F002A39D0946802F1100586
:104A2000E0CD44B1A30702D1D368472B06D86FF07D
:104A300008010020E9E7D368002BF8D13DB16807F1
:104A400002D1002E40F0CE806FF00A01F1E72FB1C5
:104A50007B1E372B03D96FF00B01EAE718271EB135
:104A60007107F1D1472EEFD95368D2F80080019336
:104A7000D4B95F4BD3F8880078B1FEF762FD0446E5
:104A8000A0BB6FF00401FEF7D3FA2046C0E79046C2
:104A90001827164615460192EBE701224821D3F864
:104AA0008000FEF7C7FCEAE74FF0000B2DBBDFF8F4
:104AB0004091002E7ED14F4AD9F88400566D0028CF
:104AC00078D0FEF73EFD054698B96FF0040100204E
:104AD000FEF7AEFABBF1000F99D0D9F88850214605
:104AE000002D71D02846FEF75AFD90E74FF0010BDC
:104AF000DCE74BF0100B4BF0020B9DF80430E37039
:104B00000023A360E36023616361A361E36184F830
:104B100023306362A362E362A6F1400301222B44C7
:104B2000227062707FB2A363FD22334B84F802B01F
:104B3000C4F8048084F8207084F8217084F822205E
:104B400025636663C4F83CA02B602A4B1B685B0797
:104B500043D50435B608A6F111032A464FF0CC31EF
:104B6000002B36D106F18046113E05EB860505F196
:104B70003403002245F8042B9D42FBD11F4B204AF1
:104B800085E808044FF08073AB60039B45F8143C44
:104B9000174B20461A66FEF74DFA1A4B1B68F3B105
:104BA0009B68E3B102992046984760642046FFF76E
:104BB000C3FE6AE72A463146D9F87400FEF73AFC8C
:104BC0000546002897D180E7D9F88000FEF766FCFB
:104BD0001DE742F8041B013BC2E7A56BC7E7029B38
:104BE0006364E3E7002F7FF433AF182738E700BF93
:104BF000B8020020BC710108A52E5AE28D450008BC
:104C0000C349000800330020F8B5104D6C69074611
:104C10000E46CCB12B7A022B04D02046FFF75CFD68
:104C20000020F8BD686A80B12046FEF707FA3146D9
:104C300020466770FFF774FD05F11C00FFF73BFD90
:104C4000FFF76AFE0120F8BD2046F8BDB80200203B
:104C500038B51B4D6C69002C30D0E06AFFF79EF927
:104C6000A06930B100221146FFF794FEA069FEF75B
:104C7000E4F92B7A022B21D16B6AFBB1EFF30983A4
:104C80001048A363FFF717FDFFF746FE00236B6193
:104C9000E378DB0701D5A3693BB12046FFF7BAFCF7
:104CA0002046BDE83840FEF7CCB904226270E360CC
:104CB0006B6BA36003B1DC606C63F1E738BD00BFD0
:104CC000B8020020D402002038B5044610B10378A1
:104CD000012B07D020466FF00301FEF7A9F96FF012
:104CE000030038BD437803F00F03022B05D0032BDC
:104CF00023D0012B26D1FFF7EFFC294B1B681BB1FA
:104D0000DB680BB1606C9847E06AFFF747F9A06970
:104D100030B100221146FFF73DFEA069FEF78DF984
:104D20006378022B2DD11F4D2B7A022B01D16B6A98
:104D30007BB96FF00201204606E0FFF7CDFCFFF7DC
:104D40001DFDDAE76FF00201FEF772F96FF0020065
:104D500038BDEFF30983A36305F11C00FFF7ABFC3B
:104D6000FFF7DAFD00236B61E378DB0701D5A36968
:104D70005BB12046FFF74EFC2046FEF762F90020AB
:104D800038BD0020FFF7D8FDEEE70422E360054BB5
:104D900062705A6BA26002B1D4605C63ECE700BF42
:104DA00000330020B8020020F8B507460E4615462D
:104DB0001C46FEF73EF9EFF305832BB9EFF31083A2
:104DC00013B9EFF3118333B16FF005010020FEF743
:104DD0002FF90020F8BD384631462A462346DFF831
:104DE00028C0EFF3148414F0020F0AD114F0040F5A
:104DF000EFF308840CBF203C683C24F0070484F3E4
:104E0000098800DFF8BD00BFF94900080023FFF75B
:104E1000CBBF000008B50346EFF305822AB9EFF3D4
:104E2000108212B9EFF311822AB118460021FEF761
:104E300002F9002008BDDFF808C000DF08BD00BF90
:104E40006946000808B5EFF305832BB9EFF310832B
:104E500013B9EFF3118323B10020FEF7EDF8002022
:104E600008BDDFF808C000DF08BD00BF79450008B5
:104E700010B50446FEF733F8EFF305832BB9EFF3D3
:104E8000108313B9EFF311833BB120466FF0050196
:104E9000FEF7CEF86FF0050010BD2046DFF804C025
:104EA00000DF10BDC94C00080C4A536C30B500241B
:104EB00013B11D69A9420AD201618460C3601BB1AC
:104EC0001D699860691A19612CB1E06030BD1C46FB
:104ED000491BDB68ECE7506430BD00BFB80200201E
:104EE00070B5134D6C6C04B32369013B236101263B
:104EF0002369D3B9E3680BB1A2689A606B6400239D
:104F00001A4604F11801E86CFEF72AFE18B1214692
:104F10000320FDF79DFFE378012B07D1616920464F
:104F2000FFF7C2FF6C6C002CE2D170BD6670F9E730
:104F3000B80200200F4B13B51A6E586E0E4C0821A4
:104F4000FEF7DEFDE06490B10C4B23654FF0FF33BC
:104F500000226946E06CFEF75DFE0028F6D19DE870
:104F60000300FEF773F80198009B9847EEE702B044
:104F700010BD00BFBC710108B8020020E14E00085E
:104F8000A8B10C4B1B68B3FBF0F00138B0F1807F87
:104F90000DD2094BFF2283F82320A3F54F6306228D
:104FA0001A60586000209860044B187070474FF0EA
:104FB000FF3070476003002000ED00E0401D00203E
:104FC000074B1A782AB100221A70064B4FF0806204
:104FD0005A60054A136843F00103136000207047CC
:104FE000401D002000ED00E010E000E0014B00203B
:104FF0001B68704710E000E04FF0FF307047000082
:10500000024B1B6803B11847704700BF441D0020C6
:105010002DE9F0471D466B07B5FA85F34FF00009FF
:105020004FEA5313044618BF25F0070680F83C30BA
:105030008A461746C0F8149080F8C0904FF0480296
:10504000494600F1780014BF08362E46DDF820806E
:105050000AF034FA2422494604F118000AF02EFA24
:10506000751B074BC4F830A07D1B25F00705C8450C
:1050700008BF9846E562C4F81880A662BDE8F087CC
:105080008872010870B500F1540504464FF0FF31F5
:105090002846FDF7FDFB04F140006669FDF73EFC84
:1050A0000023636194F8C0302BB100242846FDF73B
:1050B000F9FB204670BD012384F8C030002EF4D0E7
:1050C0003046FFF7D5FE0446F0E7FDF789BF000044
:1050D00010B50D4B03600446FFF7D4FF94F83C3045
:1050E0002BB1A06A08B1FDF76BFA0023A36204F1AB
:1050F0005400FDF7DDFB04F14000FDF712FC201D1C
:10510000FBF7D2F9204610BDAC72010810B5044679
:10511000FFF7DEFF2046C42105F032FE204610BD19
:105120007FB50F230193022302934FF48052002393
:10513000032101A803930492059301F011FCB0FA36
:1051400080F0400907B05DF804FB00000F49D1F87A
:10515000883043F47003C1F888300D4B1A68002082
:1051600042F001021A6098601A6822F0847222F4F8
:1051700080321A60074A5A601A6822F480221A6044
:10518000D8604FF000638B60704700BF00ED00E017
:10519000003802401030002400B58FB01C4B0021B5
:1051A00000911A6C42F080521A641B6C194A03F089
:1051B00080530093009B0191136823F4404343F410
:1051C00000431360136803F440430193019B0123E0
:1051D0000293C0B94FF480330393022308934FF432
:1051E0008003099304230A930C930823C8220DEB30
:1051F00003000B920D9301F003FA38B9FFF790FF0B
:105200000FB05DF804FB4FF4A023E5E70020F7E7BB
:10521000003802400070004010B58EB000241A4BD8
:1052200000941A6C42F080521A641B6C174A03F007
:1052300080530093009B0194136823F4404343F48C
:10524000004313601368039403F440430193019BEC
:105250000994032302930123059310230693022349
:10526000C822089308230B920DEB030004220A9333
:105270000C920D9301F0C4F918B9FFF751FF0EB06D
:1052800010BD2046FBE700BF003802400070004020
:1052900008B50120FFF780FF18B9FFF7BDFF00B97F
:1052A000FEE708BDDFF830D0002103E00B4B5B5870
:1052B000435004310A480B4B42189A42F6D30A4A2B
:1052C00002E0002342F8043B084B9A42F9D3FFF76F
:1052D0003DFFFAF797FF704700000220988E010803
:1052E00098010020540D0020580D00207834002033
:1052F000FEE70000A1F1F0039BB20F2B73B504464B
:105300000D4649D92A492846FCF780F928492060EA
:105310002846FCF797F9264906462846FCF73AF94D
:105320002368013304D13C2222492348FCF73AFE8A
:10533000731C04D13D221F492048FCF733FE012293
:10534000E26121681E4AA4F848500023C6F30436DF
:10535000914284F84A6023646360A3602361A3617F
:1053600023626362E362A362E360236363610AD141
:105370000193144B5A6C42F480725A645B6C03F4D0
:1053800080730193019B204600F0AEF810B10E48E7
:10539000FCF7BCFE02B070BD0C492846FCF736F99C
:1053A0000A4920602846FCF74DF90646B8E700BFD9
:1053B000B472010888770108C7770108F1770108FE
:1053C00000200140003802400A7801086873010893
:1053D0001FB504461022002168460AF06FF894F8C1
:1053E0004A20012301930293122A47D8DFE802F0F2
:1053F0000C0B0A232527292B2D2F31333537393B29
:105400003D3F4400022300931D4A536823F44003A8
:1054100069465360204600F0BFF9204600F008F9C5
:105420000A21204600F064F940BB204600F0B0F9A4
:1054300080B204B010BD0323E5E70423E3E70523AE
:10544000E1E70623DFE70723DDE70823DBE709239E
:10545000D9E70A23D7E70B23D5E70C23D3E70D239E
:10546000D1E70E23CFE70F23CDE7064BCBE7112380
:10547000009307230293C7E71223F9E70020D8E738
:1054800000230140120000107047000008B50B4BCC
:105490001A6842F400721A601A6842F480621A6054
:1054A0001A6842F480721A60032000F00DFA0F208F
:1054B00002F02CFEFFF7E8FF002008BD003C024090
:1054C000034A044B11681B780B441360704700BFFC
:1054D000043300205C030020014B1868704700BFB4
:1054E000043300207047000010B50446002800F087
:1054F0009980036C23B9436480F83C30FFF7F2FFD6
:10550000236CDB0600F18C80236C23F4885323F09A
:10551000020343F002032364434B5A6822F44032EF
:105520005A605A6861680A435A60236821695A6858
:1055300022F480725A605A6842EA01225A605A681C
:10554000A16822F040725A605A680A435A609A6809
:10555000E16822F400629A609A680A439A603349CB
:10556000A26A8A4250D0996821F070619960996866
:105570000A439A609A68E16A22F040529A609A68F7
:105580000A439A609A68A16922F002029A609A68B6
:1055900042EA41029A60226A002A3DD05A68616A52
:1055A00042F400625A605A6822F460425A605A68B3
:1055B000013942EA41325A60DA6AE16922F4700242
:1055C000DA62DA6A013942EA0152DA629A68216BD8
:1055D00022F400729A609A6842EA41229A609A68BC
:1055E000616922F480629A609A68002042EA81220E
:1055F0009A606064236C23F0030343F00103236487
:10560000002384F83C3010BD9A6822F070629A60E2
:105610009A6822F04052B4E75A6822F40062CAE75E
:105620000120EDE7012010BD002301400100000F23
:1056300082B00023019390F83C30012B4ED001231F
:1056400080F83C3003689A68D10705D59A68D2077C
:1056500014D4002002B070479A68214942F0010238
:105660009A60204A1268B2FBF1F202EB4202019208
:10567000019A002AEAD0019A013AF8E7026C22F472
:10568000E06222F0010242F4807202645A6851051D
:1056900041BF026C22F4405242F480520264026C18
:1056A00012F480521CBF426C22F0060242640022B7
:1056B00080F83C206FF022021A600B4A5268D20632
:1056C00008D1986810F04050C3D19A6842F08042E7
:1056D0009A60BFE7054A9342BBD1F2E70220B9E7DF
:1056E00040420F00600300200023014000200140E1
:1056F00003689A6870B5560504460D460BD59B683D
:10570000D80508D5236C43F020032364002384F8D4
:105710003C30012070BDFFF7DFFE064623681A68A3
:1057200092070CD56FF012021A60226C42F40072DC
:1057300022649A6812F0405F13D0002070BD691C8B
:10574000EDD045B9236C43F004032364002384F8AF
:105750003C30032070BDFFF7BFFE801B8542DDD2C9
:10576000F0E7A269002AE8D1DA6A12F4700F02D0D9
:105770009B685B05E1D4236C23F480732364206C65
:1057800010F48050D9D1236C43F00103236470BD21
:105790000368D86C70470000F7B50023019390F8B8
:1057A0003C30012B6AD00D6804688A680123092DFA
:1057B00080F83C30AEB22AD906EB4603E7681E3BC0
:1057C0004FF0070E0EFA03FE27EA0E07E760E768C0
:1057D00002FA03F33B43E3604A68062A4FEA820376
:1057E00025D81344676B591F1F238B4027EA0303F7
:1057F0006363626B06FA01F1114361632D4B9C42B6
:1058000034D0002380F83C30184603B0F0BD27693F
:1058100005EB45034FF0070E0EFA03FE27EA0E07CD
:105820002761276902FA03F33B432361D4E70C2A7B
:105830000ED81344216BA3F123021F23934021EAC6
:1058400003032363236B06FA02F21A432263D5E7AC
:105850001344E16A413B1F229A4021EA0202E262BC
:10586000E26A06FA03F11143E162C7E7122D07D19C
:10587000114A536843F480035360C2E70220C4E72F
:105880000E4B9D4201D0112DBBD10B494A689D4260
:1058900042F400024A60B4D1094B0A4A1B68B3FBC8
:1058A000F2F20A2353430193019B002BA9D0019BE1
:1058B000013BF8E7002001400023014012000010E6
:1058C0006003002040420F00074AD36823F4E063DE
:1058D0001B041B0C43F0BF63000243F4003300F4CD
:1058E000E0600343D360704700ED00E000280DDB6B
:1058F0004309012200F01F0002FA00F02033044A9D
:1059000042F82300BFF34F8FBFF36F8F704700BF84
:1059100000E100E090F83530022B03D0802343658E
:10592000012070470268052380F83530136823F0A2
:1059300001031360002070477047000070B50446F3
:10594000002862D090F83D3003F0FF021BB980F8C8
:105950003C20FFF7F1FF22682D4E2E4D242384F8C2
:105960003D30136823F00103136001F093F863687E
:105970002268B0FBF5F5B34284BF4FF496716943DA
:10598000556091BF691C4FF47A75B1FBF5F1013197
:10599000B342116221D85B00B0FBF3F0C0F30B03FC
:1059A000032B98BF0420216AE369D0610B43136085
:1059B000E16823690B439360A16963690B43D3607A
:1059C000136843F00103136000202023206484F84F
:1059D0003D30206384F83E0070BDA16849B903EBF7
:1059E0004303B0FBF3F0C0F30B0363B140F400409A
:1059F000D9E719214B43B0FBF3F0C0F30B0313B10C
:105A000040F44040CFE70120CDE7012070BD00BF4A
:105A1000A086010040420F0073B500240094019459
:105A200090F83D40069D202C02D0022002B070BDAF
:105A3000042D32D0012D30D090F83C40012CF4D010
:105A4000012480F83C4004682668F6075EBF26689B
:105A500046F001062660266826F4006626602126A8
:105A600080F83D60102680F83E600026066443857D
:105A7000C562438D41640385036B0093009B4262C2
:105A8000122B01D0009B2BBB042D01D0012D1ED168
:105A9000236843F4807323601CE0134C46F2A8167D
:105AA0002468B4FBF6F6192474430194019C661E25
:105AB00001963CB92023046380F83C4080F83D30D7
:105AC0000320B3E70468A469A407EFD4B4E7009BFC
:105AD000122BDDD06268002342F4E06280F83C3093
