:020000040800F2
:100000000000022061500008AD500008ED260008F5
:10001000F5260008FD26000805270008000000005E
:10002000000000000000000000000000C92C0008D3
:10003000AD500008000000005F2D00086F2D000883
:10004000AD500008AD500008AD500008AD5000089C
:10005000AD500008AD500008AD500008AD5000088C
:10006000AD500008AD500008AD500008AD5000087C
:10007000AD500008AD500008AD500008AD5000086C
:10008000AD500008AD500008AD5000080000000061
:10009000000000000000000000000000AD5000085B
:1000A000AD500008AD500008AD500008AD5000083C
:1000B000AD500008AD500008AD500008AD5000082C
:1000C000AD500008AD500008AD500008AD5000081C
:1000D000AD500008AD500008AD5000080000000011
:1000E000AD500008AD500008AD5000080000000001
:1000F000000000000000000000000000AD500008FB
:1001000000000000AD500008AD500008AD500008E0
:1001100000000000000000000000000000000000DF
:10012000AD500008AD500008AD500008AD500008BB
:10013000AD500008000000000000000000000000BA
:10014000000000000000000000000000AD500008AA
:10015000AD500008AD500008AD500008AD5000088B
:10016000AD500008AD500008000000000000000085
:10017000000000000000000000000000000000007F
:1001800000000000AD50000800000000000000006A
:10019000AD500008AD50000810B5054C237833B9B8
:1001A000044B13B10448AFF300800123237010BD4A
:1001B000500D002000000000546501080C4B43B1B5
:1001C0000C480D4910B5AFF300800C48036823B903
:1001D00010BD0A48036833B97047094B002BF7D0AC
:1001E000BDE810401847064B002BF5D0184700BF5C
:1001F0000000000054650108540D0020480D002047
:1002000000000000154B002B08BF134B9D46A3F5C3
:10021000803A00218B460F461348144A121A0CF0FC
:10022000FDFD0F4B002B00D098470E4B002B00D04C
:1002300098470020002104000D000D48002802D03E
:100240000C4801F008FF0CF009F92000290002F029
:10025000A3FC01F0FDFE00BF00000800000002202A
:1002600000000000A92B0008500D00209034002051
:1002700057200008000000007047704770470000DA
:1002800010B5034B0360044600F056FF204610BD36
:10029000B043010810B55021044609F047FE20463E
:1002A00010BD00002DE9F04F2448DFF8B0A087B062
:1002B00009F01CFA224B234A19785368126818680F
:1002C0000491104214BF0122002205921E4A1F4BC6
:1002D00007CA01AC84E807009A681D4C00920CCB59
:1002E0001C49504600F0B0FD204609F091FD05463E
:1002F000204609F093FD8346204609F095FD064609
:1003000020460F4609F093FD80462846894612F0A4
:10031000B1FA044658460D46CDE90489CDE9026795
:1003200012F0A8FA2246CDE900012B460A495046B0
:1003300000F08AFD07B0BDE8F08F00BFC00D0020BF
:1003400040150020880D0020BC130020B0130020B1
:10035000A010002050420108A5420108C813002047
:10036000064B1A78064B3AB1064A127822B11A782F
:1003700012B901221A7070470022FBE7B013002067
:1003800040150020BC130020436810B504460170DE
:1003900003B19847A3680BB120469847204610BD8B
:1003A0000248017881F00101FFF7EEBFB013002091
:1003B00000210148FFF7E8BFD414002070477047C0
:1003C000704770477047704708B5037843B90748CE
:1003D00000F01FFF064BDA681B681B04136008BDA2
:1003E00000210448BDE80840FFF7CEBF9811002067
:1003F0006C0D0020BC130020054A5368196813686F
:1004000019420EBF9268D2681B041360704700BF88
:100410006C0D0020F7B51F460E4B04460D4640F804
:10042000043B1646002110220CF0F8FC002104F1D8
:10043000400002F049F904F1540002F0FFF8089B73
:10044000009320463B463246294604F0BFFC204636
:1004500003B0F0BDF44E010838B51C2204460D4629
:1004600000210CF0DBFC2046294601F013F8204661
:1004700038BD000010B50446044B40F8043B236926
:100480000BB19B689847204610BD00BF6043010830
:1004900010B50446FFF7EEFF2046D42109F046FDD3
:1004A000204610BD10B5044600F052FF2046064B12
:1004B00040F8283B102200210CF0B0FC012384F806
:1004C0003830204610BD00BF00440108C36810B595
:1004D00004460BB19B689847204610BD38B50546C9
:1004E000064B45F8283B044600F093FE2846FFF7EC
:1004F000EDFF204600F054FF204638BD00440108BF
:1005000010B50446FFF7EAFF2046402109F00EFD32
:10051000204610BD10B50446F030FFF7DFFF04F1B0
:10052000D00000F0A2FE04F1500000F0BBFB20461A
:1005300000F0B8FB204610BD38B5CB6804460D4628
:100540000BB15B689847EB68E360204638BD2DE946
:100550007043044699460E46904601F07DFC636B5D
:1005600013B994F83830A3B904F12805B54207D07F
:100570002846FFF7ABFF1DB131462846FFF7DCFFE9
:1005800042464B46204600F02CFEBDE8704301F089
:1005900079BC00F0EBFFE7E700B5017889B049B11D
:1005A000104800F036FE104B9A681B68136009B0C3
:1005B0005DF804FB102268460CF030FC0B4B0393F3
:1005C000694604A8FFF7B8FF094A0648002304A9B2
:1005D000FFF7BDFF04A8FFF779FF6846FFF776FF36
:1005E000E5E700BF981100206C0D002014430108BE
:1005F00020A1070070B50446054654F8043B7BB9BA
:100600000C4E4FF0FF31306803F0FAFB2B6823B932
:1006100014B1204602F012F82C60306803F00EFC92
:100620002B68A34204D05D220349044801F098FBE3
:10063000286870BD90220020DB42010800430108B9
:1006400008B50448FFF7D6FF4FF0FF31BDE808407A
:1006500001F0FCBF9415002008B50348FFF7CAFF5E
:10066000BDE8084001F0FCBF94150020F0B5394901
:1006700039483A4D3A4C89B000F0E6FB10220DEBB8
:10068000020000210CF0CAFB364B3748079304A93F
:1006900000F038FB04A8FFF719FF10220DEB020051
:1006A00000210CF0BBFB314B3148079304A900F04B
:1006B00029FB04A8FFF70AFF1022002168460CF06E
:1006C000ADFB2C4B0393694604A8FFF735FF2A4A7C
:1006D0002A48002304A9FFF73AFF04A8FFF7F6FE13
:1006E0006846FFF7F3FE26491B4800F0ADFB2E4697
:1006F0002B78F3B1A36822681A603278214BEAB1F3
:100700009A681B681360204B1B78DBB11F48FFF70A
:1007100097FF1F4806F024FD07461C48FFF79CFF83
:10072000384612F0A7F802460B461A4809F0F0F9CD
:10073000DEE72368E2681B041360DEE7DA681B6803
:100740001B04DFE7134809F0A7FA134804F078FB0D
:10075000CEE700BF44430108C81300204015002025
:10076000880D002038430108D811002020430108DB
:10077000441500202C43010820A10700E0140020AC
:1007800050430108A40D0020B01300208414002061
:1007900088140020A0100020EC12002010B50446A0
:1007A000FFF76EFD2046BC2109F0C0FB204610BDBE
:1007B00010B5044B036070330446436001F098FAAF
:1007C000204610BD74570108A0F10400F0E700BFF7
:1007D00010B50446FFF7ECFF2046582109F0A6FBB0
:1007E000204610BDA0F10400F2E7000010B5044B54
:1007F0000360703304464360FFF7DAFF204610BD04
:10080000F4560108A0F10400F0E700BF10B504465B
:10081000D430FFF7EBFF2046FFF72CFE204610BD3B
:1008200010B50446FFF7E2FF2046602109F07EFB89
:10083000204610BDA0F10400F2E700002DE9F043CE
:10084000172185B06C486D4D6D4C6E4FDFF84C82B2
:10085000DFF84C92FFF700FE1F216B48FFF7FCFD0D
:100860001E216A48FFF7F8FD694BB3F90020694B78
:10087000B3F9001004230193674B009328464FF40B
:10088000E75309F003F822466449284601F0DEFBED
:10089000634B644A64496548B3F90030B2F90020FB
:1008A000B1F90010029018264FF07C500396019089
:1008B0000095384609F03AFA38465D4F5D492246C0
:1008C00001F0C4FB5C4B03220221384600F08CFA95
:1008D00022465A49384601F0B9FB594B03933F234E
:1008E00002931923B8F90010019600932A463B465B
:1008F000544D554F484608F09BFE22465349484602
:1009000001F0A4FB284600F00CFD2846504D51494B
:10091000DFF89091224601F099FB2846FFF7C2FDCF
:1009200028464D4D2246394601F090FB2846FFF7F8
:10093000B9FD22463946284601F088FB474D484B11
:10094000484FB3F90010284600F07AF9224639469C
:10095000284601F07BFB444D444B2846B3F9001078
:1009600000F06EF93946424F22462846002501F034
:100970006DFB2B46314600954FF480523846FFF709
:1009800049FD38463B4F2246494601F05FFB2B4666
:10099000314600954FF480523846FFF73BFD364E06
:1009A00022464946384601F051FBB8F90070334BF6
:1009B00033603046FFF744FE3946301D04F078FBC3
:1009C0003046FFF749FE22462D49304601F03EFBF6
:1009D0002C4B2D49596001221A709D602B4B2C49DC
:1009E0001D705D6099602B4B1A702B4A5D609A6098
:1009F00005B0BDE8F08300BF880D0020700F002017
:100A000098010020A01000206C0D0020A40D0020F3
:100A1000A4010020A20100200000204115050008CB
:100A20009E0100209C010020A00100208FC2753C87
:100A3000C8130020DF9A000890D00300810200084C
:100A40000014040020150020DD0400080D08000833
:100A5000E01400206B12000898110020D81100202B
:100A6000A6010020A50C000844150020A8010020C4
:100A700028120020EC1200208414002040420108BB
:100A800079020008D4140020A5020008B013002049
:100A9000C9030008BC13002099050008AA01002022
:100AA000C00D00208D4E000810B480B1146853684A
:100AB0000CB9DA070BD513F0010F4FEA63031CBF23
:100AC000C2581459184423465DF8044B18475DF882
:100AD000044B7047F7B51D4B04460E46174640F8C9
:100AE000043B102200210CF099F90023009301939C
:100AF00002A911E9030004F1180282E80300144975
:100B0000216248F207016162E362A4622263114A32
:100B10006263BFF36F8FBFF34F8F04F13C0584F81E
:100B2000383084F839301946942228460CF076F98A
:100B3000094BC4F8D03028463A46314606F060FFEB
:100B4000064B20461C6003B0F0BD00BF60430108A7
:100B500001A090E8A90A0008A0860100E415002081
:100B6000036870B504460D461B68984704F13C00C5
:100B7000C4F8D050294606F01BFF044B1C602368C4
:100B800020465B68BDE87040184700BFE4150020B0
:100B9000036870B5094D1B68044698472B689C4252
:100BA00006D0D4F8D01004F13C0006F001FF2C6010
:100BB000236820465B68BDE870401847E4150020B4
:100BC000F7B51D46036804461B680E46174698474E
:100BD0002046FFF7DDFF9DF8203083F0010331460A
:100BE00000933A462B4604F13C0006F0A9FF236827
:100BF00006465B6820469847A81B18BF012003B033
:100C0000F0BDC36810B504460BB19B6898472046F9
:100C100010BD000008B50448FFF7ECFC4FF0FF31B1
:100C2000BDE8084001F012BDBC15002008B503481E
:100C3000FFF7E0FCBDE8084001F012BDBC15002044
:100C40002DE9F0410546154B45F8043B04460F4697
:100C5000102604F120081C22002128460CF0DEF8A2
:100C60003246002140460CF0D9F83246002104F10A
:100C700030000CF0D3F83246002104F140000CF0B3
:100C8000CDF82346064A3946404606F01DFC284664
:100C9000394600F0ECFB2046BDE8F081A043010896
:100CA000C50D000810B5084B044640F8203B06F07F
:100CB000CDFC04F14000FFF709FC04F13000FFF720
:100CC00005FC204610BD00BFA043010810B5044636
:100CD000FFF7E8FF2046502109F028F9204610BD13
:100CE000884238B504460D460AD0FFF7EFFB3CB109
:100CF000EB681BB15B68294620469847EB68E360C8
:100D0000204638BDF0B50F4685B0044601F0A4F882
:100D1000FD6804F13006203465B139463046FFF7EE
:100D2000DFFF01220121204606F056FB01F0AAF860
:100D300005B0F0BD1022294668460CF06FF86946F0
:100D40003046FFF7CDFF6846FFF7C0FB2A46E9E7CC
:100D5000F0B50F4685B0044601F07EF8FD6804F159
:100D60004006203465B139463046FFF7B9FF01220D
:100D70000221204606F030FB01F084F805B0F0BDFA
:100D80001022294668460CF049F869463046FFF7BC
:100D9000A7FF6846FFF79AFB2A46E9E7C36810B544
:100DA00004462BB94FF404720449054800F0D8FFFB
:100DB000E36820461B68BDE81040184770430108EF
:100DC00091430108012908B502D0022906D008BDC7
:100DD000C36B13B13030FFF7E1FF08BDC36C002BCC
:100DE000FBD04030F7E7704710B5044600F0F0F84C
:100DF000014B2360204610BDB043010838B503689D
:100E000004460D461B6898472946204600F0D8F84E
:100E1000236805465B6820469847284638BD036826
:100E200070B51B680D4604469847013D15F8016FE3
:100E300026B131462046FFF7E1FFF7E72368204659
:100E40005B689847304670BD0EB4F0B5A0B025ADD4
:100E5000036855F8047B1B68044698472B463A46BE
:100E60000121684601950FF0C9FD7728054612DC7F
:100E70003946019A02A80FF0EBFD02A92046FFF7C0
:100E8000CEFF236820465B689847284620B0BDE81F
:100E9000F04003B07047013001F062FA394606466F
:100EA000019A0FF0D5FD31462046FFF7B8FF002E1E
:100EB000E7D0304601F062FAE3E738B5044648B1BE
:100EC0005830A04206D0A0F12C051438FFF799FE47
:100ED0002846F6E7204638BD38B5002504462946A1
:100EE00040F8045B28220BF099FF1022294604F1F8
:100EF00018000BF093FF204638BD000010B50A4CD7
:100F00002046FFF7E9FF04F12C00FFF7E5FF00237F
:100F1000A3652046E365054A84F860300449BDE8CE
:100F2000104001F093B800BFE815002098010020A0
:100F3000BB0E000803681B69184703689B691847C4
:100F400003689B6A18474FF0FF30704711207047C5
:100F500070477047704710B480B1146853680CB97B
:100F6000DA070BD513F0010F4FEA63031CBFC25819
:100F70001459184423465DF8044B18475DF8044B98
:100F800070470000090170B501F198050544EB6850
:100F900083B14418D4F8A4302BB94FF40472064935
:100FA000064800F0DDFED4F8A43028461B68BDE8F2
:100FB0007040184770BD00BFC0430108914301084D
:100FC00010B54C300C4606F0B9F8204610BD0000B4
:100FD0002DE9F04F87B00025924600950246019515
:100FE000044689469B469DE80300324B42F8083B85
:100FF000314B82E80300236148F2070363612F4B02
:10100000E561A46122626362BFF36F8FBFF34F8F0C
:10101000102284F8285084F8295004F12C000BF099
:10102000FDFE04F14C062946102204F13C000BF0B1
:10103000F5FE04F1980829464C2230460BF0EEFEEE
:1010400004F1A8072946102240460BF0E7FE294686
:10105000102238460BF0E2FE10222946C4F8B8B040
:1010600002A80BF0DBFE02A94046FFF739FE02A8FA
:10107000FFF72CFA1022294602A80BF0CFFE02A996
:101080003846FFF72DFE02A8FFF720FA52464946E0
:10109000304607F0A9F9D4F8B810304607F07EF9C9
:1010A00030462246064905F0DBFF204607B0BDE882
:1010B000F08F00BFE843010801A090E8570F000837
:1010C000850F00082DE9FF410646884656F84C3B3F
:1010D00017461B6805463C01984700F0BDFED8F84E
:1010E0000C3098342C44ABB1E3680BB900F03EFAF5
:1010F00041462046FFF7F4FD01223946304605F00F
:10110000BBFF00F0BFFE2B6828465B68984704B021
:10111000BDE8F081E3680BB100F042FA1022002133
:1011200068460BF07BFE69462046FFF7D9FD68460E
:10113000FFF7CCF90022E0E77FB51A4B03600446C5
:101140001022002168460BF069FE00226946204605
:10115000FFF7B8FF6846FFF7B9F91022002168468B
:101160000BF05CFE012269462046FFF7ABFF6846A4
:10117000FFF7ACF914F1980608D004F1B805B542B0
:1011800004D0103D2846FFF7A1F9F8E704F13C0030
:10119000FFF737FD04F12C00FFF733FD204604B0C4
:1011A00070BD00BFE843010810B50446FFF7C4FF57
:1011B0002046BC2108F0BAFE204610BD70B5D0E92B
:1011C0000823D0E90245064612196B4100F0D8F811
:1011D000736B2BB106F128001B68BDE870401847FF
:1011E00070BDD0B5044616461F4600F035FE2046B9
:1011F00000F0D0F8C4E90867A06900F0D9FB321804
:1012000047EB0103204600F0BBF8BDE8D04000F0FA
:1012100039BE7FB5044600F01FFE204600F0BAF844
:10122000636B13B194F83830E3B904F128066D46C6
:101230001022002168460BF0F1FDAE420BD0304683
:10124000FFF744F93EB1039B1BB15B68694630462A
:101250009847039B63632846FFF738F900F012FEB6
:1012600004B070BD00F09CF9DFE710B5044600F053
:10127000F3FD23681BB1237F0BB100F091F900232C
:10128000236000F0FFFD204610BD10B5044600F0BD
:10129000E3FD236853B9237F0BB100F067F9A06920
:1012A00000F086FBC4E9020101232360BDE8104081
:1012B00000F0E8BD38B5044600F0CEFD236863B108
:1012C000A06900F075FBD4E90245041B61EB05053C
:1012D00000F0D8FD2046294638BD00240025F7E758
:1012E00070B5064600F0B8FD3046D6E90445FFF774
:1012F000E1FF24184D4100F0C5FD2046294670BD90
:1013000010B5044600F0A8FDA06900F051FB0022D2
:101310000023C4E90201C4E90423BDE8104000F041
:10132000B1BD002310B5002203600023C0E90223F1
:10133000C0E90423044600F053FB0123A061237796
:101340002046FFF7DDFF204610BD03689B68184765
:10135000094B10B5002203600023C0E902230023DB
:1013600003614361044600F03BFB0449A06100F0C7
:10137000A3FA204610BD00BF144401084B13000817
:1013800007B5009000F10801806900F0CCFA03B0C5
:101390005DF804FB00F10801806900F0EEBA00007E
:1013A00010B5034B03600446FFF7F4FF204610BD61
:1013B00014440108036801221B69002118470368CF
:1013C00000221B6911461847EFF31083DB4372B606
:1013D000044A117829B9044903F001030B70012371
:1013E000137070474D1600204C16002008B5EFF31F
:1013F0001083DB0704D436220549064800F0B0FC10
:10140000054B00221A70054B1B7803B162B608BD6C
:10141000204401084B4401084D1600204C160020C2
:1014200070B50E460446154605F030FF013609D06A
:101430002046002105F04EFF29462046BDE87040B9
:1014400005F044BF70BD38B504460D4603685AB177
:10145000826813602046012105F03CFF29462046A2
:10146000BDE8384005F032BFC2681B04F1E7002236
:10147000FFF7D6BF70B50E460446154605F006FFC9
:10148000013606D02A4620460021BDE87040FFF70D
:10149000DABF70BD0022FFF7EDBF000010B50446B3
:1014A00001300DD110BD9C4209D12046896806F05B
:1014B00041FC20460021BDE8104006F0D3BC0C31B1
:1014C000B1F900305A1CEED10248BDE8104000F0DE
:1014D000FBBC00BFB4440108884208B508D0431CD7
:1014E00006D0013106D0044800F0EEFC4FF0FF3189
:1014F000084608BD0146FBE783440108B1F9003006
:101500005A1C01D118467047834201D14868704780
:101510000C31F3E7421C10B5044607D0FFF7EEFF8D
:10152000431C044602D1024800F0CEFC204610BD08
:1015300094440108B1F900305A1C01D11846704793
:10154000834201D1886870470C31F3E7421C10B523
:10155000044607D0FFF7EEFF431C044602D10248C1
:1015600000F0B2FC204610BD6544010808B500F04B
:1015700073FC094B1A884FF6FF739A4204D100F0AE
:1015800081FC064800F0A0FC0121034800F088FC23
:10159000BDE8084000F076BC4E160020C5440108A6
:1015A00008B500F059FC084B1B8823B900F06AFC11
:1015B000064800F089FC0121034800F07BFCBDE8EF
:1015C000084000F05FBC00BF4E160020F244010846
:1015D00008B500F041FC064B1B882BB906F0D6FF7E
:1015E000BDE8084000F04EBC06F0C0FFF8E700BFC1
:1015F0004E1600202DE9F34790E8080404465B6886
:10160000984763681B6A984235D0DAF82040DAF8C8
:101610000C30DAF80820CAF82000041B1C402E4BBE
:101620009A4226464FF000071FD0DAE90A01B2F5C8
:10163000004FA4FB0345CDE9000127D1DDE90023DC
:1016400047F6FF70E60B00210440121946EA4546B2
:101650004FEAD53705EA01056B41994208BF904230
:1016600014461D460AD3CAE90A45DAE90C23B6181E
:101670005F41CAE90C6702B0BDE8F087013647F167
:101680000007B2F5004443F1FF35ECE74FF00009E5
:101690004B4620462946904611F088FC42460646B5
:1016A0000F464B462046294611F080FCDDE900013B
:1016B00080185941494508BF404502460B4602D2B1
:1016C000CAE90A23D1E7013647F10007B0EB080267
:1016D00061EB0903F4E700BF40420F00824206D9E4
:1016E0008A420BD9884294BF00200120704788426B
:1016F00006D98A428CBF0020012070470120704724
:10170000002070472DE9F0478146D0F80480FFF7AC
:1017100071FFD9F80450D9F800A0696800294ED0AB
:10172000D5E90C23D1E90067BB4208BFB24204D31C
:10173000DAF81430BDE8F0471847B61A67EB03072C
:10174000D5E90623BB4208BFB2422C6906D3AB6879
:10175000224A93421DD1B44228BF34462A6AD8F89F
:1017600020301444EA681440A342E1D0DAF8103083
:1017700020469847D9F800305B68984722460146D2
:10178000D8F82000FFF7AAFF30B3D9F800305B6922
:10179000D0E7B3F5004F0BD1F903104A0023F00353
:1017A00041EA564111F002FC844228BF0446D5E7C5
:1017B000A3FB060103FB0711084A0023F2E7D8F850
:1017C0001030D8F82000D8F80C2018441040DAF86F
:1017D0001030BDE8F0471847BDE8F08740420F00E1
:1017E00003682DE9F74F04461B68984723689B69F7
:1017F0009847D0F800B00546BBF1000F06D129226A
:101800002A492B48DFF8ACB000F0AAFAD5F804A0BA
:10181000AAF104031C2B06D92F222449244800F0E6
:101820009FFA4FF0200AAAF1040307251BF1FF30AD
:1018300005FA03F51F4E4FF0000343F1FF315A46FE
:10184000C6FB050111F0B2FBD4F804800023C8F8F0
:101850000030C8F8043023685B680F460646984796
:101860006368C8F820004FF000094FF00008C3E992
:101870000A89C3F808B0524601200021019310F0F4
:1018800089FE019B01220138D8601D612046C3E911
:101890000667C3E90C8983F83820FFF7ABFE2046C2
:1018A00003B0BDE8F04FFFF72DBF00BF184501089A
:1018B000E645010840420F0038B5436893F83830D8
:1018C00004460D460BB9FFF78BFF00F0C5FA6368BD
:1018D0001D60BDE8384000F0D5BA70B5044600F090
:1018E000BBFA2368DB68984763685B68A3B120464E
:1018F000FFF780FE65686E68D5E90C01D6E9002324
:10190000994208BF904207D3F3686B602B68002BA5
:10191000EAD0B0689847E7E72046FFF7F3FEBDE856
:10192000704000F0AFBA2DE9F84305460C46164664
:101930001F46DDF8208000F08FFA2846FFF75AFE98
:101940006968C4F80880C4E900674B6800224BB995
:10195000E36082B94C602846FFF7D4FEBDE8F84347
:1019600000F090BAD3E900894F4508BF4645EFD350
:101970001A46DB68EBE7D460EDE738B505460C4660
:1019800000F06AFA6A685368A34209D1DB685360C1
:101990002846FFF7B7FEBDE8384000F073BA13469B
:1019A000002BF8D0DA689442F9D1E268DA60F2E705
:1019B000436893F8383010B504460BB9FFF710FFB1
:1019C00000F04AFA2046FFF715FE00F05BFA636864
:1019D000D3E90C0110BD08B5FFF7EAFF08BD000010
:1019E000004870473C450108024B1B680BB1024898
:1019F00018477047AC0100203C450108007B704748
:101A000038B504460D4B036000234360A1600273A8
:101A10000B480D46FEF7EEFD4FF0FF3100F016FECD
:101A200055B1084B1A6862601C600548FEF7E2FD7C
:101A300000F016FE204638BD6560F6E768450108EF
:101A40009416002090160020124B10B50360044637
:101A50001148FEF7CFFD4FF0FF3100F0F7FDA3680E
:101A60002BB10E4A13689C420ED1636813600A487A
:101A7000FEF7C0FD00F0F4FD237B13B9201F00F03A
:101A800083FC204610BD13465A689442FBD162681D
:101A90005A60ECE768450108941600209016002073
:101AA00010B50446FFF7D0FF2046102108F03EFA9B
:101AB000204610BD70B506460F480D46FEF79AFD4C
:101AC0004FF0FF3100F0C2FD0C4B1C685CB1A06808
:101AD00080B12A4631460CF081F958B9A0680CF063
:101AE0000FF9854206D10448FEF784FD00F0B8FDE9
:101AF000204670BD6468E9E7941600209016002027
:101B00000020704700207047036870B51B690122F0
:101B1000002104469847051E0DDB236802221B693D
:101B20000021204698472368064629461B69002263
:101B3000204698473546284670BD000070B50E46D1
:101B400000250446056045600F4930460CF098F9C1
:101B50000644266023681A782F2A0ED101332360A9
:101B600025B9282209490A4800F0FAF829463046E2
:101B7000FFF7A0FF6060204670BD002AF0D001335F
:101B800001352360E6E700BFBC450108BE450108FA
:101B9000DF45010800687047406808B520B1FFF7CD
:101BA0002DFF431E5842584108BD10B50446FFF7AB
:101BB000F3FF10B1606800B1043810BD406808B58B
:101BC00020B1FFF71BFFB0FA80F0400908BD10B547
:101BD0000446FFF7F3FF10B1606800B1043810BD90
:101BE0004068003018BF0120704770477047F8B553
:101BF0000368DB6C0E4604468F1898473546BD4295
:101C000007D0236815F8011B5B6C2046984701300C
:101C1000F5D1236820461B6D9847A81BF8BDF8B581
:101C20000368DB6C0E4604468F1898473546BD4264
:101C300008D0236820469B6C9847431C02D005F8C7
:101C4000010BF4E7236820461B6D9847A81BF8BDDD
:101C50000020704770470020704700207047000048
:101C600010B5054B03604C33044640F8043FFFF7C2
:101C7000EBFE204610BD00BFF0450108A0F10400B6
:101C8000EEE700BF10B50446FFF7EAFF2046142137
:101C900008F04CF9204610BDA0F10400F2E7000066
:101CA0000F4B10B50022044640F8043BFFF7A8FE96
:101CB0000C4B23605C336360002363610A49204658
:101CC00000F0BAFB606118B100F0C7F9204610BD02
:101CD00009F096FC0168054800F0F6F8F6E700BF49
:101CE0007845010870460108444601084746010846
:101CF00010B5074B03F108026433044602604360E9
:101D0000406909F0E5FC2046FFF7AAFF204610BD18
:101D1000684601080EB477B5036807AD044655F868
:101D2000046BDB6C98476069019509F0A3FD019A8B
:101D3000606931460EF0DAFD236805461B6D2046CA
:101D40009847284603B0BDE8704003B070470AF0DA
:101D50004BBC0BF0C7B809F029BF09F021BC00004B
:101D600070B504460D46164600F076F833462A460E
:101D70002146034800F05CF8BDE8704000F002B86E
:101D8000D446010810B588B000F066F8052101A816
:101D9000FFF780FB0424039B019A1A60962000F051
:101DA0001DFC019B049A1B041360962000F016FC96
:101DB000013CF0D10424039B019A1A604FF4C870CF
:101DC00000F00CFC019B049A1B0413604FF4C870D4
:101DD00000F004FC013CEED1DCE7000070B50D46DC
:101DE000A0B0044600F038F82B4622468021684611
:101DF0000EF004FE051E03DC00F044F820B070BDB8
:101E0000094B1B6823B903220221084806F0ECFAAB
:101E1000064E00241DF804103046013405F08EF9FA
:101E2000A542F7D1E8E700BFFC1F0020E033002007
:101E30000FB407B504A951F8040B0191FFF7CEFFC9
:101E400003B05DF804EB04B07047EFF31080C043BB
:101E500000F001007047000010B5074C2368013303
:101E600004D1552205490648FFF77AFFFFF7ACFA7F
:101E700023680133236010BDBC160020054701080C
:101E800029470108054B1A6832B11A68013A1A60ED
:101E90001B680BB9FFF7AABA704700BFBC16002039
:101EA000D0E85F3F0B449BB2C0E8523F002AF7D115
:101EB00018467047D0E85F3F5B1A9BB2C0E8523FBC
:101EC000002AF7D1184670470FB413B5084B1A789B
:101ED0004AB9012405A904981C700191FFF77EFFFF
:101EE000204600F0B5F802B0BDE8104004B07047DD
:101EF000C01600206FF01C0070476FF0150070478F
:101F0000012070470020704770470000014B18689F
:101F100001F094BF90220020F8B5074E15460C46FC
:101F20008F18BC4205D014F8011B304605F006F9A5
:101F3000F7E72846F8BD00BFE033002038B58DB282
:101F400015F0010405D0084806F0DCF9041C18BFA0
:101F50000124EB0605D5044806F0EAF908B144F07F
:101F60001004204638BD00BFE033002010B5042126
:101F7000044607F0DBFF204610BD000010B50C46FC
:101F80002AB1044805F0C8F82070012010BD1046A1
:101F900010BD00BFE033002038B51D46074B03607D
:101FA000074B1B68044633B9064806F01DFA29465C
:101FB000044806F0F3F9204638BD00BF6C4701081D
:101FC000FC1F0020E03300200020704700207047F5
:101FD0000148FFF779BF00BF5A47010808B5012043
:101FE00000F036F80C4A136810B51844EFF3088176
:101FF000884205D3094B0C221A604FF0FF3010BD08
:1020000007490C6824B10749096821448842F1D284
:102010001060184610BD00BFB00200208C340020B4
:10202000F4160020F8160020074C08B52368054672
:10203000986809F01FFC2368D86809F01BFC0DB1F3
:10204000FFF7A0FEFEE700BF7403002001207047E9
:1020500008B5FFF7E9FF0120704700210BF08EB9AA
:1020600008B500F0C1FD08BD08B500F0C5FD08BD0C
:1020700010B5037803F00303012B04460CD00E4B7C
:102080004FF0FF31186801F0BBFE237803F0030323
:10209000012B03D1FFF73AFF002010BD2BB140F216
:1020A0000F5206490648FFF75BFE237843F0020310
:1020B0002370012010BD00BF90220020F4470108CA
:1020C0001A48010810B5037803F00303022B0446F5
:1020D00005D040F2175207490748FFF741FE237821
:1020E00023F0030343F001032370BDE81040FFF722
:1020F0000DBF00BFF4470108404801083F2870B5F4
:1021000004462FDC184D55F820305A1C13D10228F4
:1021100011DCFFF75BFF034658B92046FFF754FF79
:10212000034630B9114E3378BFF35B8FDB0704D51C
:102130000F4B45F82430184670BD3046FFF798FF26
:102140000028F5D04FF4E133032202210848FFF7BD
:1021500023FF3046FFF7B6FF064A07490448FFF75A
:1021600075FFE5E70023E6E7B0010020C416002074
:10217000F016002098010020091F000838B5054618
:10218000FFF7BCFF0B4B002443F8254030B909F0A2
:1021900037FA092303604FF0FF3038BD03685B69ED
:1021A0009847051E04DA09F02BFA6D420560F2E744
:1021B000204638BDB0010020FFF7E0BF38B50C461F
:1021C0001546FFF79BFF38B909F01AFA0923036097
:1021D0004FF0FF34204638BD03682146DB682A46AD
:1021E0009847041EF6DA09F00BFA64420460EFE740
:1021F00008B5131E06DA09F003FA162303604FF040
:10220000FF3008BD04D0FFF7D9FF40EAE07008BDF9
:10221000184608BD38B50C461546FFF76FFF38B9AC
:1022200009F0EEF9092303604FF0FF34204638BD72
:10223000036821469B682A469847041EF6DA09F08F
:10224000DFF964420460EFE7002A08B503DBBDE86C
:102250000840FFF7DFBF09F0D3F9162303604FF002
:10226000FF3008BD10B5FFF749FF044628B909F053
:10227000C7F909230360204610BD0368DB6998474E
:10228000041EF8DA09F0BCF9644204600024F2E7A5
:102290001FB504220C4640230DEB020101900DF105
:1022A00009008DF808300AF0BBFC214602A809F0AD
:1022B00025FC044630B10198FFF7D4FF10B1204649
:1022C000FFF7CBFE204604B010BDFFF7CBBF38B5FB
:1022D0000C461546FFF712FF38B909F091F90923AA
:1022E00003604FF0FF34204638BD036821461B6968
:1022F0002A469847041EF6DA09F082F9644204601F
:10230000EFE7FFF7E4BF38B50D46FFF7F7FE0446E9
:1023100030B909F075F9092303604FF0FF3038BD7B
:102320000368DB699847002814BF4FF400534FF44B
:1023300000436B60236820469B6A98472861002011
:1023400038BDFFF7E0BF000010B50AF03DF90446C4
:1023500010B90248FFF7B8FD204610BDD747010865
:1023600010B50AF031F9044610B90248FFF7ACFD88
:10237000204610BDB84701080AF02EB90AF02CB962
:1023800000487047B047010810B504460C48FEF7F6
:1023900031F94FF0FF3100F059F90023094A19468D
:1023A00052F82300A04208BF42F823100133402B0B
:1023B000F6D10348FEF71EF9BDE8104000F050B911
:1023C000C8160020B001002010B51348FEF712F91E
:1023D0004FF0FF3100F03AF9104B032453F824205A
:1023E0007AB10134402CF9D109F00AF918230360BD
:1023F0000948FEF7FFF800F033F94FF0FF342046AC
:1024000010BD4FF0FF32044843F82420FEF7F2F8E5
:1024100000F026F9F3E700BFC8160020B001002045
:1024200010B50446FFF7D0FF0028A4BF014B43F8C6
:10243000204010BDB001002070B506460C46FFF7E5
:10244000EFFF054690B12146FFF722FF044630B961
:10245000074B53F82520964203D143F82500204628
:1024600070BD09F0CDF809230360F8E70446F6E7EC
:10247000B00100200EB42DE9F04185B00546FFF70C
:10248000A3FF041E13DB0023294602A80193FFF7D4
:1024900055FB02A8FFF7A4FB1B4D064668B909F0DF
:1024A000AFF81323036045F824604FF0FF34204653
:1024B00005B0BDE8F04103B0704702A8FFF77EFB0E
:1024C000074602A837B1FFF782FB0190019B45F850
:1024D0002430ECE7FFF769FB06460028DFD00368ED
:1024E00002A8D3F80880FFF755FB0B9B024601A911
:1024F0003046C04706460028E8D009F081F8764209
:10250000066045F82470D0E7B001002073B50E4690
:10251000184905460BF098F8044620B9FFF7EEFD80
:10252000204602B070BD144928460BF08DF820B942
:102530000120FFF7E3FD0124F2E7104928460BF0E4
:1025400083F820B90220FFF7D9FD0224E8E72B78B1
:10255000402B07D10422691C0DEB02000AF060FB3E
:10256000019CDDE726F400412846FFF783FF04467F
:10257000D6E700BF874801088E4801087F48010858
:10258000F8B50546FFF72CFA0646FFF724FA4FF494
:102590007A7495FBF4F4002C074602DDFFF755FC36
:1025A00030B93046FFF717FAC01BA842F9D3F8BD7F
:1025B000FEF7DCFF204602F066FCFEF7F1FFF0E7D5
:1025C00007EE100ADFED047A67EE277AFDEEE77A70
:1025D00017EE900AFFF7D4BF002474494FF47A73C2
:1025E0005843FFF7CDBF00007FB5061D05460C46DA
:1025F0001C22002130460AF011FC102200216846FE
:102600000AF00CFC0A4B0296002C08BF1C461C2347
:10261000039368460B230094019301F0C5FB2860E7
:1026200020B9322203490448FFF79AFB04B070BD79
:1026300096480108AF480108C948010810B50021B3
:1026400004460162FFF7D0FF204610BD10B50446D6
:10265000006801F0D5FB10B9236A0133236210BD75
:10266000036A013B0362006801F0E8BB10B5044651
:10267000006801F0FFFB204610BD00002DE9FF417E
:10268000061D0446884617460021102210253046B4
:102690000AF0C4FB2A46002168460AF0BFFB6A46DE
:1026A000414638460296039501F000FD206020B9AE
:1026B0002C2203490348FFF753FB04B0BDE8F08127
:1026C000CD480108EB48010810B54FF6FF720446EB
:1026D000FFF7D4FF204610BD006801F017BD10B50C
:1026E0000446006801F04CFD204610BD4FF0100379
:1026F00000F00CB84FF0200300F008B84FF03003A2
:1027000000F004B84FF0400300F000B8EFF3088089
:102710004FF0040172460A4201D0EFF309809C4653
:10272000244902680A60043142680A600431826800
:102730000A600431C2680A600431F0C147460F6084
:1027400004314F460F60043157460F6004315F4635
:102750000F60043102690A60083142690A6004317D
:1027600082690A600431C2690A6004310346203379
:102770004FF40076324200D0043375464FF0100615
:10278000354200D148330C46103C2360EFF30982F8
:102790000A600431EFF308820A60043172460A606D
:1027A0000431EFF314820A60034B60460149034A87
:1027B0009847FEE7C4210020A9290008B80200209C
:1027C000044B1B6823B903220221034805F00CBE09
:1027D000704700BFFC1F0020E0330020F0B5114B14
:1027E00085B006460A466D4603F110071868596819
:1027F0002C4603C40833BB422546F7D182B102F10F
:1028000008010F201C2200FA02F33340D34004AC2D
:102810002344043A13F8103C01F8013D131DF2D192
:1028200005B0F0BDF74801082DE9F04385B001ADD2
:102830000024124F019488466C602C72461E16F8D4
:10284000011F11B905B0BDE8F083252910D158F852
:1028500024002946FFF7C2FF04F101090724295D7E
:10286000384604F06BFC14F1FF34F8D24C46E6E72E
:10287000384604F063FCA146F8E700BFE0330020CF
:1028800030B52B4C2B492C4889B0FFF7CDFF2146A2
:102890002A48FFF7C9FF1C22002101A80AF0BEFA4E
:1028A000E36A0193A36A2648DBB20293A36AC3F3E7
:1028B00007230393A36A1B0C0493236B0593E36B19
:1028C0000693636A079301A9FFF7AEFF029B1A06FE
:1028D00003D51C491C48FFF7A7FF039B1B0603D524
:1028E0001A491B48FFF7A0FF124CE16C11F00805D4
:1028F00016D000211748FFF797FF216D11F0010155
:1029000013D015480021FFF78FFFE16C11F004018F
:102910001ABF002111481248FFF786FF09B030BDE9
:1029200029461048FFF780FF29460F48EBE700BF14
:1029300000ED00E0C4210020E14901088D4A0108B2
:10294000974A010834ED00E0D74A010838ED00E06D
:10295000E14A0108EB4A0108FA4A01082A4B01083A
:10296000364B01081A4B0108074B01087FB5437825
:102970000193C36B0293436B0393036B049301A90D
:10298000836B03480593FFF74FFF07B05DF804FB27
:10299000424B010810B5044604B910BD2046FFF7AC
:1029A000E5FFA468F8E7000008B505461446FFF700
:1029B00007FF00212448FFF737FF202D3ED004D821
:1029C000102D09D00021214808E0302D39D0402DAC
:1029D000F8D100211E4801E01E480021FFF724FF26
:1029E00000211D48FFF720FFFFF74AFF00211B4889
:1029F000FFF71AFF6069FFF7B9FF00211848FFF7DA
:102A000013FFA069FFF7B2FF00211648FFF70CFF84
:102A1000206BFFF7BFFF00211348FFF705FFE06AB7
:102A2000FFF7B8FF00211148FFF7FEFEA06AFFF78D
:102A3000B1FF00210E48FFF7F7FEFEE700210D4829
:102A4000CCE700210C48C9E7074901085D490108A6
:102A500052490108304901086B49010876490108CB
:102A60008E49010895490108A4490108B4490108A3
:102A7000C24901083A49010849490108154838B5D1
:102A8000154B03600B251C24144B4560C460836008
:102A900001F08AF9124B18601248134BC46080E8A9
:102AA0002800124B836001F07FF9114B1860114828
:102AB000114BC46080E82800104B836001F074F96A
:102AC0000F4B186009F0CAFC00210846BDE83840E9
:102AD00000F062B8442200209A4B0108182200201E
:102AE0009022002034220020AA4B010894220020CA
:102AF0008C22002054220020B74B0108B022002075
:102B0000642200200A4A0B48C2F1005303F5003347
:102B1000B3F5806F194628BF4FF480615B1A0160DE
:102B200005499818086005490B60054B1A60704705
:102B300090340020FC16002000170020F41600201E
:102B4000F8160020704700000D4A0E4808B50E4BDD
:102B500013614FF4805353614823D3600B4B936050
:102B60001823936100210A4B136002F02DF810B96D
:102B70000848FFF7A9F9BDE8084000F0E3BA00BF34
:102B8000682200207D2A000818230020CC22002083
:102B9000724B01087E4B010808B5FFF7D3FFBDE873
:102BA0000840FDF763BD000010B5FFF7ABFF0B4B0E
:102BB0000B499A680B48043A52F8044F41F8044F05
:102BC0008142F9D14FF000529A6005F08BF800F085
:102BD0006FFABDE81040FFF7B7BF00BF00ED00E09F
:102BE000FCFFFF1F94010020024B4FF0FF311868DB
:102BF00001F006B98C220020014B186801F01EB9C3
:102C00008C22002008B500F057F8FCE708B505460F
:102C10000C4601F0F5FF6B1E0246042B24D8DFE8BA
:102C200003F0030D13191E00204601F0D1FF2246C8
:102C3000034601210F48FFF747F9FEE7234602212B
:102C40000D48FFF741F9F8E7234603210B48FFF74A
:102C50003BF9F2E704210A48FFF736F9EDE70521D1
:102C60000848FFF731F9E8E729460748FFF72CF94C
:102C7000E3E700BFC14B0108114C0108674C010894
:102C8000CC4C0108274D0108874D010808B501F01B
:102C9000B7FFBDE8084002F091B802F08FB808B560
:102CA000FFF7DAF8FEF762FCFEF792FCFEF778FC1D
:102CB000BDE80840FFF7E6B808B5024C236898471E
:102CC000FCE700BFB4020020EFF30980816911F82E
:102CD000021CB9BB01B590E80F10E047BDE80050F9
:102CE0008CE80300264B93E80600914208BF70472A
:102CF00041B91EF0100F10D12249086820F00100E0
:102D000008600AE02CE9F00F1EF0100F08BF2CED50
:102D1000108AC1F838C081F822E001F0B9FC184BE4
:102D200093E806001A6092F82210906B61F0FF0E93
:102D30001EF0100F08BFB0EC108AB0E8F00F80F35F
:102D40000988704710B5104A1368994206D852F89E
:102D500021400FC8A047EFF30984206010BD10B5D3
:102D600001F072FABDE81040EFF3098CBAE710B534
:102D700001F030FABDE81040EFF3098CB2E7000033
:102D8000CC02002034EF00E06C4E010808B501468B
:102D900010B1132001F016FE002008BD10B5044646
:102DA00000F030F8EFF305832BB9EFF3108313B97C
:102DB000EFF311833BB16FF00501002000F016F82E
:102DC0006FF0050010BD2046DFF804C000DF10BD25
:102DD0008D2D0008704770477047704770477047E7
:102DE000704770477047704770477047704770472B
:102DF000704770477047704770477047704770471B
:102E0000704770477047704770477047704770470A
:102E100070477047704770477047704770477047FA
:102E200070477047704770477047704770477047EA
:102E300070477047704770477047704770477047DA
:102E400070477047704770477047704770477047CA
:102E50007047704770B56348017A0129044603D171
:102E6000FFF7C0FF002070BD31B14FF0FF30FFF71A
:102E7000B7FF4FF0FF3070BD5B4D9C22083009F06A
:102E8000CDFF6B6D472B02D86FF00A00EFE7EA68C1
:102E9000002AEAD02B8A002BE7D0EE6AA4F854303F
:102EA000296BAB68E2653046236400F081F908B114
:102EB000C4F880606E69A969304600F079F900288D
:102EC00000F084806667EE69296A304600F070F988
:102ED00000287FD0A6676E6AA96A304600F068F9BC
:102EE00000287BD0E6676E6B46B1F368B268316844
:102EF000304600F0D6F908B1C4F88460AE6B46B134
:102F0000F368B2683168304600F0CBF908B1C4F814
:102F10008860EE6B46B1F368B2683168304600F005
:102F2000C0F908B1C4F88C602E6C46B1F368B26881
:102F30003168304600F0B5F908B1C4F890606E6CA5
:102F400046B1F368B2683168304600F0AAF908B1BA
:102F5000C4F89460AE6C46B1F368B268316830462C
:102F600000F09FF908B1C4F89860EE6C46B1F368C0
:102F7000B2683168304600F094F908B1C4F89C603A
:102F80002D6D45B1EB68AA682968284600F089F9DB
:102F900008B1C4F8A050154AFF2382F8223092F8F5
:102FA0002230D16863F0FF03DB43B3FA83F3C3F14C
:102FB0002003C1F302218B4298BF4B1CFE2101FA72
:102FC00003F3DBB2D3770123237249E7D4F88030CF
:102FD000636778E7D4F88030A3677CE7D4F8803063
:102FE000E36780E7B8020020044E010800ED00E02E
:102FF00010B5034C207AFFF7F6FE207A10BD00BF13
:10300000B802002038B5244C237A012B06D06FF08B
:103010000600FFF7E5FE4FF0FF3038BDA36A1F4DF5
:103020004BB9AA6D1E48194601F0C4FBA06210B945
:103030004FF0FF30EDE76B6E4BB1A36C3BB9EA6D1F
:103040001848194601F0B6FBA0640028F0D01649D4
:10305000686801F073FE0028DDD101F0ABFE20614D
:1030600001F08CFE0028D6D1104801F002FA0028A9
:10307000DED001F02FFB2B6813F0010F4FF002039D
:1030800006D083F314882372FFF7AFFE002038BD0B
:10309000032282F31488F6E7B8020020044E0108E8
:1030A000052C0008F14C00086F2D0008D402002008
:1030B00008B5FFF796FEEFF305832BB9EFF3108306
:1030C00013B9EFF3118333B16FF00500FFF788FEFA
:1030D0006FF0050008BDDFF828C0EFF3148313F08C
:1030E000020F0AD113F0040FEFF308830CBF203B4B
:1030F000683B23F0070383F3098800DF08BD00BFA6
:10310000552E000808B5EFF305832BB9EFF31083B4
:1031100013B9EFF3118333B14FF0FF30FFF763FEC4
:103120004FF0FF3008BDEFF31483DB0703D4BDE895
:103130000840FFF75DBFDFF808C000DF08BD00BF33
:10314000F12F000808B5FFF74FFEEFF305832BB909
:10315000EFF3108313B9EFF3118333B16FF0050070
:10316000FFF73EFE6FF0050008BDFFF7CBFF02281A
:1031700005D00D4B1B6813B15B6803B19847DFF8AE
:103180002CC0EFF3148313F0020F0AD113F0040FD5
:10319000EFF308830CBF203B683B23F0070383F366
:1031A000098800DF08BD00BF183300200530000883
:1031B00038B50C46034630B140EA010212F007026E
:1031C00001D1172906D8184600222146FFF702FE32
:1031D000002038BDA1F108041025196045602518AC
:1031E00085602250C2600122FFF7F4FD012038BD46
:1031F000F8B518B111B132F0030304D00023FFF782
:10320000EAFD0020F8BD0F3121F0070100F10803AD
:103210001E68D3F804E0F41A2EF00305641BA142E3
:1032200004D934683346002CF2D1E7E744680C44F3
:10323000446042EA0107BEF1000F07D15F6003F16D
:1032400008042346FFF7C7FD2046F8BD5C195E5110
:1032500067601C600834F4E738B500B121B900227A
:10326000FFF7BAFD002038BDA1F1080500F1080301
:103270000022AB420CD15C6824F003054468641B57
:1032800044605AB95A600122FFF7A6FD012038BDFB
:103290001C681A46002CE2D02346EAE71B6813603C
:1032A000F1E72DE9F0410C4617461D46064600B3EE
:1032B000C1B102B30BB34FF0000E02FB01F8316055
:1032C000C0F804E003EB080EF3607361B260C0F86D
:1032D00010E0FFF782FD2B46013C06D1A8EB070763
:1032E000EC5101242046BDE8F081DA191A6013463A
:1032F000F2E70446F6E71446F4E71C46F2E738B571
:10330000044628B90146FFF769FD2546284638BD21
:10331000031D026853E8001F8A4202D8BFF32F8FB3
:1033200004E0481C43E8000505B1F3E723688B423D
:1033300011D904F1140353E8005F15B9BFF32F8FBF
:1033400004E02A6843E8002101B1F4E72946204659
:10335000FFF744FDDAE70025F8E738B528B1C36880
:103360008B4202D80369994207D36FF00302FFF73B
:1033700036FD6FF00304204638BD031D53E8002FCF
:1033800012B9BFF32F8F04E0541E43E8004505B186
:10339000F4E79AB100F114031A680A60BFF35F8F73
:1033A00053E8002F0C689442F6D143E8001505B1AC
:1033B000F2E700242246FFF712FDDCE76FF002047B
:1033C000F8E7036B30B5E3B1CD780024DA78AA4290
:1033D0000FD31A464A608C608AB19160A4B16160D3
:1033E000283050E8003F5A1C40E8002101B1F8E7BE
:1033F00030BD5A681C46002AECD01346E6E7C1628D
:10340000ECE74B608B60C1620163E9E74B688A6857
:1034100023B19A608A681AB153607047C262F9E7B3
:10342000036370472DE9F74F8B46804600B141B9E1
:103430006FF003010020FFF7FFFC002003B0BDE8A0
:10344000F08FCF1C27F003070C37B0FA80F3B7FAE0
:1034500087F10B441F2BEBDD07FB00F9F2B19468F9
:1034600013680193166950693CB1A30702D1D36870
:10347000332B05D86FF00801DCE7D368002BF9D1B6
:103480003EB116F0030501D1814562D96FF0090103
:10349000D0E70028FAD11CB1054619E00192164682
:1034A0002E4BD3F8A00048B1FFF729FF044660B9BE
:1034B0006FF00401FFF7C0FC2046BFE70122342172
:1034C000D3F88000FFF794FEF0E7002E3FD10125EE
:1034D000DFF888A000224946DAF87C00FFF788FE72
:1034E000064690B96FF00401FFF7A6FC002DA4D0AA
:1034F000DAF8A05021461DB12846FFF72EFF9CE7C1
:10350000DAF88000FFF7A8FE97E74A46002109F0A5
:1035100085FC45F002000823237001236370019BA2
:1035200063600023A070A360A362E36223633A4652
:103530003346C4F824B0414604F10C00FFF7B1FE55
:10354000064B074A1A672046FFF778FCB4E70120CC
:10355000E1E7002CA4D02846DDE700BFB802002038
:103560005D3600082DE9F0410E4690461D460446A2
:1035700018B10378082B00D141B920466FF0030140
:10358000FFF75AFC6FF00300BDE8F08143783BB9C8
:103590006FF00201FFF750FC6FF00200BDE8F08110
:1035A000836803B35B78832B1DD1FFF74CFC204667
:1035B00000F05FFF01220546002101F0C9F828460E
:1035C00000F0E4FF0546626A8068314609F028FB96
:1035D000EB680BB183F80080A9682046FFF738FC40
:1035E0000020BDE8F08104F10C00FFF788FE0746DB
:1035F000A8B1626A31460C3009F012FB07233B7018
:1036000000250123394620467B70BD7087F8038072
:10361000FFF7D7FE31462046FFF715FCE0E7B5B1CE
:103620002A4631462046FFF70BFC0B4B20465969D2
:1036300000F00CFF2946932001F0C4F9EFF3098351
:103640006FF001009E60C3F80C80BDE8F081314648
:103650002046FFF7F9FB9FE7B8020020F8B5437852
:103660000446002B7AD08678002E3ED0C5686B7851
:10367000002B73D001460026284605F10C07FFF702
:10368000C5FE667021463846FFF767FEAB68002B23
:1036900064D05B78932B61D13846FFF730FE044647
:1036A00000285BD0284600F0E4FE3246314607464B
:1036B00001F04EF8384600F069FF6A6A81680746F3
:1036C00004F10C0009F0ACFA0723237001236370A6
:1036D000A670FB68E37021462846FFF772FEB968C2
:1036E0002846BDE8F840FFF7AEBB85686B78ABB302
:1036F000AB684BB35B78832B26D141682846FFF734
:10370000A2FB284600F0B5FE32463146074601F0DE
:103710001FF8384600F03AFF06466A6A806804F1EE
:103720000C0109F07DFAF3680BB1E2781A70B16808
:103730002846FFF78DFB00236370214605F10C003E
:10374000BDE8F840FFF709BE61682846FFF77BFB3C
:1037500021462846BDE8F840FFF733BEF8BD10B556
:1037600000F1280353E8002F12B9BFF32F8F04E0B4
:10377000511E43E8001404B1F4E70AB9002010BD5B
:10378000C06A01230028F9D0821CD2E84F1FC2E88A
:10379000443F04B1F9E711F0FF0F01D08068F1E771
:1037A00010BD00002DE9F0410D461746984604462D
:1037B00018B10378082B00D141B920466FF00301FE
:1037C000FFF73AFB6FF00300BDE8F08143783BB9A7
:1037D0006FF00201FFF730FB6FF00200BDE8F081EF
:1037E000FFF7BDFF0646E8B101462046FFF70EFE93
:1037F000626A06F10C01284609F012FA0FB1F3785B
:103800003B7029462046002504F10C07FFF720FBFA
:10381000757031463846FFF7A0FDA36803BB002052
:10382000BDE8F081B8F1000F15D042462946204688
:10383000FFF70CFB204B2046596900F007FE41467C
:10384000832001F0BFF8EFF309836FF001009D6062
:10385000DF60BDE8F08129462046FFF7FAFABBE7B2
:103860005B78932BDBD13846FFF749FD06460028ED
:10387000D5D0204600F0FDFD29460746012200F084
:1038800067FF384600F082FE626A8168074606F1EB
:103890000C0009F0C5F90723337001237370B5706C
:1038A000FB68F37031462046FFF78BFDB968204670
:1038B000FFF7C9FAB3E700BFB802002070B50646AB
:1038C0000D461446FFF7B9FAEFF305832BB9EFF372
:1038D000108313B9EFF3118333B16FF005010020AA
:1038E000FFF7AAFA002070BD304629462246DFF8CD
:1038F00028C0EFF3148313F0020F0AD113F0040F62
:10390000EFF308830CBF203B683B23F0070383F3EE
:10391000098800DF70BD00BF253400082DE9F041A3
:1039200004460F4690461D46FFF789FAEFF30583DC
:1039300033B9EFF310831BB9EFF31183002B3CD0A5
:1039400024B12378082B01D107B145B120466FF08F
:103950000301FFF771FA6FF00300BDE8F0816378AF
:1039600043B96FF002012046FFF766FA6FF00200DC
:10397000BDE8F08104F10C00FFF7C1FC0646B8B1C8
:10398000626A39460C3009F04BF907233370012382
:1039900073703046B57086F803807760B46000F0CD
:1039A00097FC20463946FFF74DFA2846BDE8F081DE
:1039B00039462046FFF748FAD8E7204639464246BE
:1039C0002B46DFF808C000DFBDE8F0816535000850
:1039D000F8B504460D4617461E46FFF736FAEFF3D4
:1039E00005832BB9EFF3108313B9EFF31183A3B35E
:1039F00024B12378082B01D105B13EB120466FF0E8
:103A00000301FFF719FA6FF00300F8BD63783BB9C3
:103A10006FF002012046FFF70FFA6FF00200F8BDC9
:103A20002046FFF79CFE064690B100F10C01626A49
:103A3000284609F0F5F80FB1F3783B702946204687
:103A4000FFF706FA3046F46000F042FC0020F8BDB3
:103A500029462046FFF7FDF9DFE7204629463A468A
:103A60003346DFF808C000DFF8BD00BFA537000807
:103A700070B500283AD0846890E8600064B114F012
:103A8000030302D1C2681B2A1FD86FF0080100206F
:103A9000FFF7BCF9002070BDC368002BF5D1154BB2
:103AA000D3F8940030B901221C21D3F88000FFF72D
:103AB0009FFB01E0FFF723FC044628B96FF00401E7
:103AC000FFF7A4F9204670BD012304222270A370E1
:103AD000012200236270E6706560A360E3602361E9
:103AE000636123762046FFF793F9EBE70546064628
:103AF000D5E700BFB8020020304B70B55D690446C1
:103B00000E4635B96FF00701FFF780F94FF0FF302F
:103B100070BD10B10378042B07D020466FF003016D
:103B2000FFF774F96FF0030070BD437833B96FF09D
:103B30000201FFF76BF96FF0020070BD017E69B9F9
:103B4000EB6AC5604361016103B118610121EC6258
:103B500020462176FFF760F9002070BDC378DA07B0
:103B60000BD5C268954208D1FF2902D16FF00F0131
:103B7000DFE70131C9B20176ECE7DEB19B070AD578
:103B8000E06895F9203090F920209A4203DA80F815
:103B9000203000F089FC31462046FFF73BF92946EA
:103BA000204600F053FC3146532000F00BFF6FF02D
:103BB000010070BD2046FFF730F9BCE7B8020020D5
:103BC00038B5334B5D69044635B96FF00701FFF72F
:103BD0001DF94FF0FF3038BD10B10378042B07D02A
:103BE00020466FF00301FFF711F96FF0030038BDB5
:103BF000437833B96FF00201FFF708F96FF0020064
:103C000038BDC3689D4202D06FF00D01F4E7017E1C
:103C100011B96FF00E01EFE70139C9B20176FFF774
:103C2000FEF8237E3BBB63690BB122691A612269EE
:103C30001AB35361E3789B0705D595F92120EB6A08
:103C4000EBB985F82020A36893B1204600F011FC61
:103C500000220546114600F07BFDEB6A63610121FD
:103C60000023E56023612046EC622176FFF7D4F85B
:103C7000002000F03FFD002038BDEB62DAE79968D4
:103C800021B191F920108A42B8BF0A465B69D7E793
:103C9000B802002010B5044610B10378042B07D0F9
:103CA00020466FF00301FFF7B1F86FF0030010BD7D
:103CB000437833B96FF00201FFF7A8F86FF0020004
:103CC00010BD00234370037EDBB16369C0680BB194
:103CD00022691A6122691AB35361E3789A070BD5F6
:103CE00090F92130C26AEAB990F920209A4203D0B3
:103CF00080F8203000F0D8FBA368E3B9002000F082
:103D0000F9FCA378DB0706D5124BD3F894002146C3
:103D1000D0B1FFF722FB2046FFF783F8002010BD4B
:103D2000C362DAE7916821B191F920108B42B8BFE4
:103D30000B465269D7E7204600F09BFB00226FF04C
:103D4000020100F005FDD7E7D3F88000FFF784FA01
:103D5000E1E700BFB80200202DE9F041044600264B
:103D600001270CB9BDE8F081E378D4F814801B0773
:103D700018D5267600212046FFF751F8A3688BB1AD
:103D8000204600F076FB00220546114600F0E0FCDC
:103D9000EB6AE560636126610121EC6220462776CB
:103DA000FFF73AF84446DCE710B50446FFF72FF872
:103DB000EFF305832BB9EFF3108313B9EFF31183FE
:103DC00033B16FF005010020FFF720F8002010BD8F
:103DD0002046DFF828C0EFF3148313F0020F0AD156
:103DE00013F0040FEFF308830CBF203B683B23F074
:103DF000070383F3098800DF10BD00BF713A000894
:103E000038B504460D46FFF704F8EFF305832BB9E8
:103E1000EFF3108313B9EFF311833BB120466FF03A
:103E20000501FEF7F3FF6FF0050038BD2046294677
:103E3000DFF804C000DF38BDF93A000810B50446C9
:103E4000FEF7ECFFEFF305832BB9EFF3108313B903
:103E5000EFF311833BB120466FF00501FEF7D6FF6B
:103E60006FF0050010BD2046DFF804C000DF10BD74
:103E7000C13B000810B50446FEF7D2FFEFF30583FF
:103E80002BB9EFF3108313B9EFF311833BB1204645
:103E90006FF00501FEF7BAFF6FF0050010BD204678
:103EA000DFF804C000DF10BD953C000800F10C03F2
:103EB000D3E85F0F10B9BFF32F8F04E0421EC3E8B1
:103EC000512F01B1F4E780B2003018BF01207047D4
:103ED00030B500F10C02C189D2E85F3F994202D8A7
:103EE000BFF32F8F04E05C1CC2E8554F05B1F3E728
:103EF000C0899BB2984294BF0020012030BD0000D1
:103F0000F8B50F464FF6FE73411E9942054601D89B
:103F1000B84206D26FF003010020FEF783FF0020B5
:103F2000F8BD002A35D09468166844B114F0030334
:103F300002D1D2680F2A1BD86FF00801ECE7D368D2
:103F4000002BF9D1144BD3F8980030B9012210217D
:103F5000D3F88000FFF74CF901E0FFF7D0F90446F1
:103F600028B96FF00401FEF75DFF2046F8BD01237C
:103F7000A370052200232270A3600122064B627009
:103F80006660A781E581054A9A662046FEF74CFFE8
:103F9000EBE71646D6E700BFB80200201D40000838
:103FA00010B5044610B10378052B07D020466FF0FA
:103FB0000301FEF737FF6FF0030010BD437833B9FC
:103FC0006FF00201FEF72EFF6FF0020010BD00231C
:103FD0004370836863B1204600F04BFA00226FF013
:103FE000020100F0B5FBA0680028F4D100F082FBCC
:103FF000A378DB0706D5084BD3F89800214630B1EB
:10400000FFF7ABF92046FEF715FF002010BDD3F8EF
:104010008000FFF721F9F5E7B802002010B54378DA
:10402000044683B1836873B1FFF740FF58B120465F
:1040300000F01FFA0022114600F08AFB2046BDE87E
:104040001040FEF7F3BE10BD38B5054610B1037839
:10405000052B07D028466FF00301FEF7E3FE6FF053
:10406000030038BD437833B96FF00201FEF7DAFE82
:104070006FF0020038BD84686CB1FEF7D9FE2846A7
:1040800000F0F7F90122002100F062FB2846FEF75C
:10409000CDFE002038BDFFF71BFF18B96FF01001EF
:1040A0002846E3E72846FEF7C3FEF2E770B506466A
:1040B0000D461446FEF7B7FEEFF305832BB9EFF379
:1040C000108313B9EFF3118333B16FF005010020B2
:1040D000FEF7A8FE002070BD304629462246DFF8D4
:1040E00028C0EFF3148313F0020F0AD113F0040F6A
:1040F000EFF308830CBF203B683B23F0070383F3F7
:10410000098800DF70BD00BF013F000810B50446FC
:10411000FEF78DFEEFF305832BB9EFF3108313B990
:10412000EFF3118323B314B12378052B07D0204676
:104130006FF00301FEF776FE6FF0030010BD6378A9
:104140003BB96FF002012046FEF76CFE6FF00200F3
:1041500010BD2046FFF7BCFE38B1204600F0B8F88D
:104160002046FEF765FE002010BD6FF01001EAE763
:104170002046DFF808C000DF10BD00BF494000083E
:1041800010B50446FEF755FEEFF305832BB9EFF3A8
:10419000108313B9EFF311833BB120466FF0050193
:1041A000FEF740FE6FF0050010BD2046DFF804C0AA
:1041B00000DF10BDA13F000810B5D0E85F3F5A1CDA
:1041C000914200D80022C0E8542F04B1F5E798B21C
:1041D00010BD000038B51B4C00F0E6FDE36801336C
:1041E000E360236D03B1984700F0DAF9002000F096
:1041F00081FA236C2BB1A26BA1698A4202D0A16320
:10420000E36338BDE36B0BB1013BE363E36B002B6E
:10421000F7D1237A022BF4D1656A002DF1D095F9FC
:10422000201092F920309942EBD1284600F032F963
:10423000A06B00F04BF9284600F04CFAA563236C04
:10424000DEE700BFB802002070B5204C04F156052F
:1042500004F15A06B4F85410D5E85F3F13B9BFF320
:104260002F8F04E05A1EC5E8502F00B1F4E79BB22F
:104270003BB33046FFF7A0FFE36D53F8200000B3D7
:104280000378013B062BE5D801A252F823F000BFCA
:10429000AD42000855420008B342000855420008EC
:1042A000B7420008BB420008BF420008236E98478F
:1042B000D0E7636EFBE7A36EF9E7E36EF7E7236FE2
:1042C000F5E70020BDE8704000F014BAB802002005
:1042D00070B5164C0546B4F8541004F15602D2E8F5
:1042E0005F3F994202D8BFF32F8F04E0581CC2E809
:1042F000560F06B1F3E79BB2994210D904F158006A
:10430000FFF75AFFE36D43F82050637A23B9084B57
:104310004FF080525A6070BD0123A37270BD2946D0
:104320000220BDE87040FEF771BC00BFB80200205B
:1043300000ED00E010B5034B5C692046FEF75AFD26
:10434000204610BDB802002008B5FEF79FFCDFF83C
:1043500010C000DF4FF0FF310020FEF747FDFEE701
:104360000D4A000812F0020F10B502F0010222D12E
:1043700000F1280382B153E8000F00EA01028A42EB
:1043800003D0BFF32F8F002005E020EA010243E8AD
:10439000002404B1EFE710BD53E8000F084203D139
:1043A000BFF32F8F002005E020EA010243E800243C
:1043B00004B1F1E710BD806A01EA00031AB1994225
:1043C00018BF002010BD002B08BF002010BD00004A
:1043D00010B50023437083789A07044608D513F07C
:1043E000100F016B0E4B0FD0D3F88400FEF7B5FF12
:1043F000A378DB0712D50A4BD3F88800214638B1E1
:10440000BDE81040FEF7A9BF586FFEF725FFEFE7A4
:10441000D3F88000BDE81040FEF71EBF10BD00BFFE
:10442000B802002010B5044610B10378012B05D066
:1044300020460021FEF7DDFC002010BD4378002B54
:10444000F6D04168FEF7D5FC606810BD10B561B1CB
:1044500091F9202083681BB193F92040944205DA3A
:10446000C8608B60816003B1D96010BD18469B683D
:10447000F1E783682BB19A68826002B1D0600022B4
:10448000DA601846704710B10378012B00D07047EE
:10449000C068F8E7C36833B182689A60826802B185
:1044A000D3600023C360704710B5014604462378EB
:1044B000012B07D00846FFF7EDFF2046BDE810406E
:1044C000FFF7C4BFE468002CF1D110BD0123014601
:1044D00043700148FFF7BABFD40200204B1C30B52F
:1044E000144A0FD1136B00213BB94FF0FF34C46164
:1044F0004161036121B1086130BD19461B69F3E7D1
:10450000106330BDD36A002413B1DD69A9420AD219
:10451000C1614461036154B120611BB1DA69586122
:10452000511AD96130BD1C46491B1B69ECE7D062AA
:10453000F3E700BFB802002010B5C4694269631CEC
:1045400010D11AB9104B1B6B98421BD1036903B1F0
:104550005A6142691AB113610023436110BD0A4ACE
:10456000136310BD1AB9084BDB6A98420AD103697C
:104570001BB1D9695A612144D9614269002AEAD143
:10458000014AD36210BD00BFB802002090F822207B
:10459000836B12F0100F0CBF60202020184470476E
:1045A00038B52E4DEC6A002C57D0E369013BE3612E
:1045B000002B52D16378532B37D008D8332B2BD014
:1045C000432B2CD0132B07D1FEF71DFC04E0732BDB
:1045D00037D017D8632B2ED02046FFF7D7FF0168BE
:1045E0002046FEF70AFC2046FFF754FF2046FFF75F
:1045F0006DFF246924B1E369002BDBD000236361E4
:10460000EC6238BD832B22D0932BE5D12046FFF7F7
:104610003AFFFEF716FCDFE7FEF7F2FBDCE7204689
:10462000FFF731FFFEF7F1FBD6E72046FFF72BFF40
:10463000FEF7F1FBD0E72046FFF725FFFEF7F5FB7D
:10464000CAE72046FFF71FFFFEF7F5FBC4E7204649
:10465000FFF719FFFEF7FBFBBEE738BDB8020020ED
:1046600010B50123094A437090F92010536A1C3297
:104670001BB193F920408C4205DCC26083609060DE
:1046800003B1D86010BD1A469B68F1E7B80200205C
:10469000044B1B682BB11B691BB1034A9269506C18
:1046A0001847704718330020B8020020074B59699B
:1046B00051B10B6B8A6B934203D21A68044B9A4236
:1046C00002D00120FEF7A2BA704700BFB802002056
:1046D000A52E5AE210B502234370054B044698619B
:1046E000FFF7E4FF2046BDE81040FEF787BB00BFA0
:1046F000B802002010B5154B04461A7A5969A8B9BA
:10470000022A5C6A20D1F9B1F4B194F9202091F920
:1047100020309A4218DD2046FFF7BCFE0846FFF71E
:104720009FFF2046BDE81040FFF7D4BF022A06D104
:1047300029B190F9202091F920309A42EEDC2046F0
:10474000BDE81040FFF7C2BE10BD00BFB802002098
:1047500070B504460E461546FEF74FFB2046FFF7A0
:1047600015FF06602046FFF7E7FE20461DB1BDE8B5
:104770007040FFF7BFBFBDE87040FFF7A7BE38B578
:104780004378332B044613D190F82320416AFFF776
:10479000E9FD054660B1014600222046FFF7D8FF3B
:1047A0002A4694F82310606ABDE83840FEF729BB1A
:1047B00038BD00002DE9F04F85B082460391029389
:1047C00038B96FF00301FEF711FB002005B0BDE81A
:1047D000F08F002A39D0946802F11005E0CD44B181
:1047E000A30702D1D368472B06D86FF00801002039
:1047F000E9E7D368002BF8D13DB1680702D1002E5C
:1048000040F0CE806FF00A01F1E72FB17B1E372B0D
:1048100003D96FF00B01EAE718271EB17107F1D138
:10482000472EEFD95368D2F800800193D4B95F4B7B
:10483000D3F8880078B1FEF762FD0446A0BB6FF0A4
:104840000401FEF7D3FA2046C0E790461827164623
:1048500015460192EBE701224821D3F88000FEF7CC
:10486000C7FCEAE74FF0000B2DBBDFF84091002EAC
:104870007ED14F4AD9F88400566D002878D0FEF7D3
:104880003EFD054698B96FF004010020FEF7AEFA30
:10489000BBF1000F99D0D9F888502146002D71D076
:1048A0002846FEF75AFD90E74FF0010BDCE74BF08E
:1048B000100B4BF0020B9DF80430E3700023A36053
:1048C000E36023616361A361E36184F82330636281
:1048D000A362E362A6F1400301222B4422706270BE
:1048E0007FB2A363FD22334B84F802B0C4F8048086
:1048F00084F8207084F8217084F822202563666390
:10490000C4F83CA02B602A4B1B685B0743D50435D9
:10491000B608A6F111032A464FF0CC31002B36D150
:1049200006F18046113E05EB860505F134030022B1
:1049300045F8042B9D42FBD11F4B204A85E8080413
:104940004FF08073AB60039B45F8143C174B204637
:104950001A66FEF74DFA1A4B1B68F3B19B68E3B178
:1049600002992046984760642046FFF7C3FE6AE735
:104970002A463146D9F87400FEF73AFC054600286D
:1049800097D180E7D9F88000FEF766FC1DE742F872
:10499000041B013BC2E7A56BC7E7029B6364E3E727
:1049A000002F7FF433AF182738E700BFB80200208C
:1049B000044E0108A52E5AE2494300087F4700082B
:1049C00018330020F8B5104D6C6907460E46CCB17F
:1049D0002B7A022B04D02046FFF75CFD0020F8BDA7
:1049E000686A80B12046FEF707FA314620466770B4
:1049F000FFF774FD05F11C00FFF73BFDFFF76AFEB2
:104A00000120F8BD2046F8BDB802002038B51B4D86
:104A10006C69002C30D0E06AFFF79EF9A06930B1D4
:104A200000221146FFF794FEA069FEF7E4F92B7A05
:104A3000022B21D16B6AFBB1EFF309831048A3630A
:104A4000FFF717FDFFF746FE00236B61E378DB07F6
:104A500001D5A3693BB12046FFF7BAFC2046BDE86B
:104A60003840FEF7CCB904226270E3606B6BA36040
:104A700003B1DC606C63F1E738BD00BFB802002011
:104A8000D402002038B5044610B10378012B07D0BA
:104A900020466FF00301FEF7A9F96FF0030038BD5F
:104AA000437803F00F03022B05D0032B23D0012BF7
:104AB00026D1FFF7EFFC294B1B681BB1DB680BB15C
:104AC000606C9847E06AFFF747F9A06930B10022AF
:104AD0001146FFF73DFEA069FEF78DF96378022BC2
:104AE0002DD11F4D2B7A022B01D16B6A7BB96FF050
:104AF0000201204606E0FFF7CDFCFFF71DFDDAE7D7
:104B00006FF00201FEF772F96FF0020038BDEFF3AB
:104B10000983A36305F11C00FFF7ABFCFFF7DAFD87
:104B200000236B61E378DB0701D5A3695BB1204605
:104B3000FFF74EFC2046FEF762F9002038BD00204A
:104B4000FFF7D8FDEEE70422E360054B62705A6B75
:104B5000A26002B1D4605C63ECE700BF18330020B0
:104B6000B8020020F8B507460E4615461C46FEF76B
:104B70003EF9EFF305832BB9EFF3108313B9EFF38D
:104B8000118333B16FF005010020FEF72FF90020EB
:104B9000F8BD384631462A462346DFF828C0EFF3F1
:104BA000148414F0020F0AD114F0040FEFF30884F8
:104BB0000CBF203C683C24F0070484F3098800DF24
:104BC000F8BD00BFB54700080023FFF7CBBF0000CA
:104BD00008B50346EFF305822AB9EFF3108212B944
:104BE000EFF311822AB118460021FEF702F90020E6
:104BF00008BDDFF808C000DF08BD00BF254400087D
:104C000008B5EFF305832BB9EFF3108313B9EFF376
:104C1000118323B10020FEF7EDF8002008BDDFF876
:104C200008C000DF08BD00BF3543000810B50446CA
:104C3000FEF733F8EFF305832BB9EFF3108313B9C5
:104C4000EFF311833BB120466FF00501FEF7CEF87C
:104C50006FF0050010BD2046DFF804C000DF10BD76
:104C6000854A00080C4A536C30B5002413B11D6905
:104C7000A9420AD201618460C3601BB11D699860BA
:104C8000691A19612CB1E06030BD1C46491BDB6814
:104C9000ECE7506430BD00BFB802002070B5134D82
:104CA0006C6C04B32369013B236101262369D3B9EA
:104CB000E3680BB1A2689A606B6400231A4604F1A2
:104CC0001801E86CFEF72AFE18B121460320FDF713
:104CD0009DFFE378012B07D161692046FFF7C2FFF2
:104CE0006C6C002CE2D170BD6670F9E7B802002050
:104CF0000F4B13B51A6E586E0E4C0821FEF7DEFDF1
:104D0000E06490B10C4B23654FF0FF3300226946FD
:104D1000E06CFEF75DFE0028F6D19DE80300FEF78B
:104D200073F80198009B9847EEE702B010BD00BFF2
:104D3000044E0108B80200209D4C0008A8B10C4B9D
:104D40001B68B3FBF0F00138B0F1807F0DD2094B46
:104D5000FF2283F82320A3F54F6306221A605860D0
:104D600000209860044B187070474FF0FF30704778
:104D70006003002000ED00E0581D0020074B1A786A
:104D80002AB100221A70064B4FF080625A60054A21
:104D9000136843F00103136000207047581D002082
:104DA00000ED00E010E000E0014B00201B687047C0
:104DB00010E000E04FF0FF3070470000024B1B682E
:104DC00003B11847704700BF5C1D00202DE9F04774
:104DD0001D466B07B5FA85F34FF000094FEA5313F0
:104DE000044618BF25F0070680F83C308A4617466F
:104DF000C0F8149080F8C0904FF04802494600F186
:104E0000780014BF08362E46DDF8208008F006F83A
:104E10002422494604F1180008F000F8751B074BDE
:104E2000C4F830A07D1B25F00705C84508BF98468B
:104E3000E562C4F81880A662BDE8F087D04E01088C
:104E400070B500F1540504464FF0FF312846FDF7D8
:104E5000FDFB04F140006669FDF73EFC0023636141
:104E600094F8C0302BB100242846FDF7F9FB20460A
:104E700070BD012384F8C030002EF4D03046FFF717
:104E8000D5FE0446F0E7FDF789BF000010B50D4BD5
:104E900003600446FFF7D4FF94F83C302BB1A06ABE
:104EA00008B1FDF76BFA0023A36204F15400FDF78B
:104EB000DDFB04F14000FDF712FC201DFBF706FBB3
:104EC000204610BDF44E010810B50446FFF7DEFF82
:104ED0002046C42105F02AF8204610BD7FB50F23D7
:104EE0000193022302934FF480520023032101A86F
:104EF00003930492059301F011FCB0FA80F040098D
:104F000007B05DF804FB00000F49D1F8883043F486
:104F10007003C1F888300D4B1A68002042F001027E
:104F20001A6098601A6822F0847222F480321A6043
:104F3000074A5A601A6822F480221A60D8604FF03B
:104F400000638B60704700BF00ED00E00038024056
:104F50001030002400B58FB01C4B002100911A6C5A
:104F600042F080521A641B6C194A03F0805300937C
:104F7000009B0191136823F4404343F40043136002
:104F8000136803F440430193019B01230293C0B9CA
:104F90004FF480330393022308934FF48003099363
:104FA00004230A930C930823C8220DEB03000B92F1
:104FB0000D9301F003FA38B9FFF790FF0FB05DF8D9
:104FC00004FB4FF4A023E5E70020F7E70038024098
:104FD0000070004010B58EB000241A4B00941A6C7B
:104FE00042F080521A641B6C174A03F080530093FE
:104FF000009B0194136823F4404343F4004313607F
:105000001368039403F440430193019B0994032321
:10501000029301230593102306930223C8220893C9
:1050200008230B920DEB030004220A930C920D93BC
:1050300001F0C4F918B9FFF751FF0EB010BD2046BA
:10504000FBE700BF003802400070004008B50120B7
:10505000FFF780FF18B9FFF7BDFF00B9FEE708BDF5
:10506000DFF830D0002103E00B4B5B584350043194
:105070000A480B4B42189A42F6D30A4A02E0002330
:1050800042F8043B084B9A42F9D3FFF73DFFFBF788
:10509000B9F87047000002207068010898010020EC
:1050A0004C0D0020500D002090340020FEE7000041
:1050B000A1F1F0039BB20F2B73B504460D4649D9FD
:1050C0002A492846FCF726FA284920602846FCF79A
:1050D0003DFA264906462846FCF7E0F923680133E5
:1050E00004D13C2222492348FCF73AFE731C04D128
:1050F0003D221F492048FCF733FE0122E26121686E
:105100001E4AA4F848500023C6F30436914284F89E
:105110004A6023646360A3602361A36123626362C6
:10512000E362A362E360236363610AD10193144BDA
:105130005A6C42F480725A645B6C03F4807301937E
:10514000019B204600F0AEF810B10E48FCF7BCFE03
:1051500002B070BD0C492846FCF7DCF90A49206012
:105160002846FCF7F3F90646B8E700BFFC4E0108F5
:105170005C5201089B520108C55201080020014001
:1051800000380240DE520108B04F01081FB5044646
:1051900010220021684607F041FE94F84A200123BE
:1051A00001930293122A47D8DFE802F00C0B0A237E
:1051B0002527292B2D2F31333537393B3D3F4400EF
:1051C000022300931D4A536823F440036946536049
:1051D000204600F0BFF9204600F008F90A212046D9
:1051E00000F064F940BB204600F0B0F980B204B092
:1051F00010BD0323E5E70423E3E70523E1E70623E6
:10520000DFE70723DDE70823DBE70923D9E70A23E4
:10521000D7E70B23D5E70C23D3E70D23D1E70E23E4
:10522000CFE70F23CDE7064BCBE7112300930723EE
:105230000293C7E71223F9E70020D8E700230140D3
:10524000120000107047000008B50B4B1A6842F4BA
:1052500000721A601A6842F480621A601A6842F496
:1052600080721A60032000F00DFA0F2002F044FA59
:10527000FFF7E8FF002008BD003C0240034A044B52
:1052800011681B780B441360704700BF1C3300206B
:105290005C030020014B1868704700BF1C330020DE
:1052A0007047000010B50446002800F09980036C98
:1052B00023B9436480F83C30FFF7F2FF236CDB0630
:1052C00000F18C80236C23F4885323F0020343F015
:1052D00002032364434B5A6822F440325A605A68EE
:1052E00061680A435A60236821695A6822F480720F
:1052F0005A605A6842EA01225A605A68A16822F04C
:1053000040725A605A680A435A609A68E16822F407
:1053100000629A609A680A439A603349A26A8A4294
:1053200050D0996821F07061996099680A439A6039
:105330009A68E16A22F040529A609A680A439A6039
:105340009A68A16922F002029A609A6842EA4102D0
:105350009A60226A002A3DD05A68616A42F400626B
:105360005A605A6822F460425A605A68013942EA27
:1053700041325A60DA6AE16922F47002DA62DA6A6A
:10538000013942EA0152DA629A68216B22F4007212
:105390009A609A6842EA41229A609A68616922F4A6
:1053A00080629A609A68002042EA81229A60606472
:1053B000236C23F0030343F001032364002384F8E8
:1053C0003C3010BD9A6822F070629A609A6822F0B0
:1053D0004052B4E75A6822F40062CAE70120EDE7C0
:1053E000012010BD002301400100000F82B0002306
:1053F000019390F83C30012B4ED0012380F83C30D3
:1054000003689A68D10705D59A68D20714D400209A
:1054100002B070479A68214942F001029A60204A1E
:105420001268B2FBF1F202EB42020192019A002AE9
:10543000EAD0019A013AF8E7026C22F4E06222F025
:10544000010242F4807202645A68510541BF026C45
:1054500022F4405242F480520264026C12F48052F0
:105460001CBF426C22F006024264002280F83C20FD
:105470006FF022021A600B4A5268D20608D198686F
:1054800010F04050C3D19A6842F080429A60BFE762
:10549000054A9342BBD1F2E70220B9E740420F0030
:1054A00060030020002301400020014003689A6847
:1054B00070B5560504460D460BD59B68D80508D532
:1054C000236C43F020032364002384F83C30012044
:1054D00070BDFFF7DFFE064623681A6892070CD5F9
:1054E0006FF012021A60226C42F4007222649A6811
:1054F00012F0405F13D0002070BD691CEDD045B99B
:10550000236C43F004032364002384F83C3003201D
:1055100070BDFFF7BFFE801B8542DDD2F0E7A269B8
:10552000002AE8D1DA6A12F4700F02D09B685B059A
:10553000E1D4236C23F480732364206C10F4805036
:10554000D9D1236C43F00103236470BD0368D86C88
:1055500070470000F7B50023019390F83C30012B11
:105560006AD00D6804688A680123092D80F83C30F0
:10557000AEB22AD906EB4603E7681E3B4FF0070E92
:105580000EFA03FE27EA0E07E760E76802FA03F364
:105590003B43E3604A68062A4FEA820325D8134456
:1055A000676B591F1F238B4027EA03036363626BFA
:1055B00006FA01F1114361632D4B9C4234D0002364
:1055C00080F83C30184603B0F0BD276905EB450371
:1055D0004FF0070E0EFA03FE27EA0E072761276930
:1055E00002FA03F33B432361D4E70C2A0ED8134499
:1055F000216BA3F123021F23934021EA03032363BA
:10560000236B06FA02F21A432263D5E71344E16AD8
:10561000413B1F229A4021EA0202E262E26A06FA54
:1056200003F11143E162C7E7122D07D1114A536814
:1056300043F480035360C2E70220C4E70E4B9D424F
:1056400001D0112DBBD10B494A689D4242F40002A2
:105650004A60B4D1094B0A4A1B68B3FBF2F20A2331
:1056600053430193019B002BA9D0019B013BF8E719
:1056700000200140002301401200001060030020C0
:1056800040420F00074AD36823F4E0631B041B0C5D
:1056900043F0BF63000243F4003300F4E0600343CF
:1056A000D360704700ED00E000280DDB43090122C4
:1056B00000F01F0002FA00F02033044A42F82300F1
:1056C000BFF34F8FBFF36F8F704700BF00E100E063
:1056D00090F83530022B03D08023436501207047BA
:1056E0000268052380F83530136823F00103136046
:1056F000002070477047000070B50446002862D053
:1057000090F83D3003F0FF021BB980F83C20FFF712
:10571000F1FF22682D4E2E4D242384F83D3013686E
:1057200023F00103136001F093F863682268B0FB73
:10573000F5F5B34284BF4FF496716943556091BF4C
:10574000691C4FF47A75B1FBF5F10131B342116276
:1057500021D85B00B0FBF3F0C0F30B03032B98BF21
:105760000420216AE369D0610B431360E168236977
:105770000B439360A16963690B43D360136843F0E3
:105780000103136000202023206484F83D3020634F
:1057900084F83E0070BDA16849B903EB4303B0FB38
:1057A000F3F0C0F30B0363B140F40040D9E71921D3
:1057B0004B43B0FBF3F0C0F30B0313B140F4404094
:1057C000CFE70120CDE7012070BD00BFA08601001A
:1057D00040420F0073B500240094019490F83D40BE
:1057E000069D202C02D0022002B070BD042D32D0C4
:1057F000012D30D090F83C40012CF4D0012480F8E9
:105800003C4004682668F6075EBF266846F001063D
:105810002660266826F400662660212680F83D6012
:10582000102680F83E60002606644385C562438DDD
:1058300041640385036B0093009B4262122B01D0ED
:10584000009B2BBB042D01D0012D1ED1236843F4F6
:10585000807323601CE0134C46F2A8162468B4FB46
:10586000F6F6192474430194019C661E01963CB916
:105870002023046380F83C4080F83D300320B3E7E8
:105880000468A469A407EFD4B4E7009B122BDDD011
:105890006268002342F4E06280F83C30626018469F
:1058A000A2E700BF6003002073B50024019490F8C4
:1058B0003D40069D202C02D0022002B070BD042D78
:1058C00037D0012D35D090F83C40012CF4D0012484
:1058D00080F83C4004682668F6075EBF266846F0FC
:1058E00001062660266826F400662660222680F8D7
:1058F0003D60102680F83E60002606644385C56240
:10590000438D41640385036B4262112B01D0036B0D
:1059100063BB042D04D0012D02D015F5803F22D1A8
:10592000236843F480632360236843F48073236017
:105930001CE0134C46F2A8162468B4FBF6F61924B2
:1059400074430194019C661E01963CB920230463B4
:1059500080F83C4080F83D300320AEE70468A4693D
:10596000A407EFD4AFE7036B112BD9D062680023F3
:1059700042F4E06280F83C30626018469DE700BF68
:105980006003002090F83D30202B14D1282380F8AC
:105990003D3003681A68D2075EBF1A6842F0010200
:1059A0001A601A6842F480621A605A6842F44072BF
:1059B0005A6000207047022070477047704700000F
:1059C00090F83D30293B012B10B50368044639D8C7
:1059D00000220263282280F83D201A6822F4006227
:1059E0001A605A6812F4006254D05A68606B22F44C
:1059F00000625A6090F83530012B394B31D0036585
:105A0000FFF766FE50B12268606B136823F0010354
:105A10001360202384F83D30036D984794F83D309F
:105A2000282B0ED1236C5B070BD52E4BE362202273
:105A300000232363204684F83D2084F83E3002F0A2
:105A400041F910BD90F83D20602A05D05A68120532
:105A50005CBF202280F83D200022226384F83E2093
:105A6000BBE7A06B0365FFF733FE0028D6D02268A2
:105A70005369580604D5636A1269591C61621A7029
:105A80002268A06B136823F001031360202384F8BD
:105A90003D30C1E794F83D10602914D1202184F8ED
:105AA0003D1022645A69510604D5626A1B69511C73
:105AB000616213702268136823F0010313602046AB
:105AC00002F002F9AAE75A69520604D5626A1B6914
:105AD000511C61621370204602F0C6F89EE700BFB9
