:020000040800F2
:100000000000022079570008C55700081D28000885
:10001000252800082D2800083528000800000000C9
:10002000000000000000000000000000F92D0008A2
:10003000C5570008000000008F2E00089F2E000802
:10004000C5570008C5570008C5570008C557000820
:10005000C5570008C5570008C5570008C557000810
:10006000C5570008C5570008C5570008C557000800
:10007000C5570008C5570008C5570008C5570008F0
:10008000C5570008C5570008C55700080000000004
:10009000000000000000000000000000C55700083C
:1000A000C5570008C5570008C5570008C5570008C0
:1000B000C5570008C5570008C5570008C5570008B0
:1000C000C5570008C5570008C5570008C5570008A0
:1000D000C5570008C5570008C557000800000000B4
:1000E000C5570008C5570008C557000800000000A4
:1000F000000000000000000000000000C5570008DC
:1001000000000000C5570008C5570008C557000883
:1001100000000000000000000000000000000000DF
:10012000C5570008C5570008C5570008C55700083F
:10013000C55700080000000000000000000000009B
:10014000000000000000000000000000C55700088B
:10015000C5570008C5570008C5570008C55700080F
:10016000C5570008C5570008000000000000000047
:10017000000000000000000000000000000000007F
:1001800000000000C557000800000000000000004B
:10019000C5570008C557000810B5054C237833B97A
:1001A000044B13B10448AFF300800123237010BD4A
:1001B000500D002000000000046D01080C4B43B1FD
:1001C0000C480D4910B5AFF300800C48036823B903
:1001D00010BD0A48036833B97047094B002BF7D0AC
:1001E000BDE810401847064B002BF5D0184700BF5C
:1001F00000000000046D0108540D0020480D00208F
:1002000000000000154B002B08BF134B9D46A3F5C3
:10021000803A00218B460F461348144A121A0DF0FB
:1002200075F90F4B002B00D098470E4B002B00D0D8
:1002300098470020002104000D000D48002802D03E
:100240000C4801F056FF0CF087FC2000290002F05A
:100250003BFD01F04BFF00BF000008000000022042
:1002600000000000D92C0008500D0020103500209F
:10027000F32000080000000070470368184708B129
:100280000B680360704770477047000010B5034B60
:100290000360044600F09EFF204610BDD44A0108CA
:1002A00010B5502104460AF0BFF9204610BD0000E9
:1002B000064B1A78064B3AB1064A127822B11A78E0
:1002C00012B901221A7070470022FBE72C1300209C
:1002D000A41500202D1300200121014802F0FDB9D2
:1002E00090150020704770477047704770477047FF
:1002F00070477047704770477047000008B5054861
:1003000000F0D5FF044B9A681B681360034B012271
:100310001A7008BDD81100206C0D00202D1300208C
:10032000064A137883F001031370054B9A68196825
:100330001160DA681B681B04136070472C130020DF
:10034000501500200A4B1A780A4B62B15A6811689E
:100350001A6811420EBF9B68DB6812041A60064BD4
:1003600000221A707047DA681B681B041360F6E7F6
:100370002C1300206C0D00202D1300202DE9804847
:10038000DFF8B4A0DFF8B4B089B0012319464FF00C
:10039000FF32214802F0B6F9204809F033FD204B26
:1003A00020491A78204B1B78087820494C68096846
:1003B00024680C4214BF012100218DE803001C4970
:1003C000584600F08FFD50460AF000F804465046AB
:1003D0000AF002F8079050460AF004F80646504624
:1003E0000F460AF002F880462046894612F0C2FD08
:1003F000079B044618460D46CDE90489CDE90267FE
:1004000012F0B8FD2246CDE900012B4609495846B5
:1004100000F068FDB9E700BF90150020000E002035
:100420002C130020A41500202D130020880D00207F
:100430005C490108AE490108E0100020301300209B
:10044000F7B51F460E4B04460D4640F8043B1646D2
:10045000002110220DF05AF8002104F1400002F0B2
:10046000CBF904F1540002F081F9089B0093204677
:100470003B463246294604F0C3FF204603B0F0BD98
:100480009856010838B51C2204460D4600210DF08F
:100490003DF82046294601F04BF8204638BD0000C3
:1004A00010B50446044B40F8043B23690BB19B682C
:1004B0009847204610BD00BF844A010810B5044685
:1004C000FFF7EEFF2046D4210AF0AEF8204610BD1B
:1004D00010B5044600F08AFF2046064B40F8283B42
:1004E000102200210DF012F8012384F83830204644
:1004F00010BD00BF244B0108C36810B504460BB102
:100500009B689847204610BD38B50546064B45F810
:10051000283B044600F0CBFE2846FFF7EDFF2046BF
:1005200000F08CFF204638BD244B010810B504466E
:10053000FFF7EAFF204640210AF076F8204610BD7A
:1005400010B50446F030FFF7DFFF04F1D00000F0F3
:10055000DAFE04F1500000F0F3FB204600F0F0FB5F
:10056000204610BD38B5CB6804460D460BB15B681C
:100570009847EB68E360204638BD2DE97043044698
:1005800099460E46904601F0B5FC636B13B994F89A
:100590003830A3B904F12805B54207D02846FFF743
:1005A000ABFF1DB131462846FFF7DCFF42464B4604
:1005B000204600F064FEBDE8704301F0B1BC01F0DC
:1005C00023F8E7E700000000F0B553495348544EC4
:1005D00089B000F087FC534800F0A5FE10220DEB17
:1005E000020000210CF092FF4F4B5048079304A9E2
:1005F00000F0D6FB04A8FFF77FFF10220DEB0200EE
:1006000000210CF083FF4A4B4848079304A900F0EF
:10061000EDFB04A8FFF770FF1022002168460CF0E4
:1006200075FF444B0393694604A8FFF79BFF002323
:10063000414A424804A9FFF7A0FF04A8FFF75CFF66
:100640006846FFF759FF10220DEB020000210CF065
:100650005DFF3B4B3B48079304A900F0A1FB04A8B6
:10066000FFF74AFF10220DEB020000210CF04EFFB5
:10067000354B3648079304A900F092FB04A8FFF716
:100680003BFF10220DEB020000210CF03FFF304B2E
:10069000049304A92F4B3048079304F039FF04A8B2
:1006A000FFF72AFF2D491D4800F01CFC18A5D5E9CD
:1006B000004537462A4B1B787BB92A4809F07CFE57
:1006C0003278294BD2B19A681B6813603A78274B6D
:1006D000C2B19A681B681360ECE7254B1A78254B6A
:1006E00042B19A681B6813601E4822462B4609F0E7
:1006F000B7FDE5E7DA681B681B04F4E7DA681B68F6
:100700001B04E2E7DA681B681B04E4E7AFF3008030
:10071000000000606666E63F684A0108301300206A
:10072000A415002070150020504A01080015002073
:10073000204A01082C4A010820A10700C00D002012
:10074000384A010818120020444A0108A815002060
:100750007D030008504901083C140020744A010838
:100760002C130020E0100020880D0020A40D002094
:100770002D1300205015002000B589B01022002153
:1007800068460CF0C3FE0A4B0393694604A8FFF7C2
:10079000E9FE084A0848002304A9FFF7EEFE04A872
:1007A000FFF7AAFE6846FFF7A7FE09B05DF804FB55
:1007B0005C4A010820A10700D811002070B504464A
:1007C000054654F8043B7BB90C4E4FF0FF313068BE
:1007D00003F00CFE2B6823B914B1204601F0C6FFCC
:1007E0002C60306803F020FE2B68A34204D05D2209
:1007F0000349044801F002FB286870BD1023002063
:10080000E4490108094A010808B50348FFF7D6FF83
:10081000BDE8084001F0BCBFF815002008B5044849
:10082000FFF7CCFF4FF0FF31BDE8084001F0A6BF55
:10083000F815002010B50446FFF728FD2046BC211E
:1008400009F0F2FE204610BD10B5044B0360703372
:100850000446436001F09AFA204610BD185F010873
:10086000A0F10400F0E700BF10B50446FFF7ECFF6D
:100870002046582109F0D8FE204610BDA0F1040002
:10088000F2E7000010B5044B036070330446436088
:10089000FFF7DAFF204610BD985E0108A0F10400C2
:1008A000F0E700BF10B50446D430FFF7EBFF204659
:1008B000FFF7F6FD204610BD10B50446FFF7E2FF36
:1008C0002046602109F0B0FE204610BDA0F10400D2
:1008D000F2E700002DE9F043172185B07048714E12
:1008E000714C724FDFF84C82DFF84C92FFF7CAFD73
:1008F0001F216F48FFF7C6FD1E216E48FFF7C2FD9E
:100900006D4BB3F900206D4BB3F900100423019334
:100910006B4B009330464FF4E75309F043FB2246FC
:100920006849304601F0E0FB674B0322022138465C
:1009300000F0A8FA22466549384601F0D5FB644B21
:10094000644A6549B3F90030B2F90020B1F90010EA
:1009500000960020182502904FF07E5003950190DC
:10096000404609F05DFD22465C494046DFF8CC81F7
:1009700001F0BAFB5A4BB8F9001003933F230293DE
:1009800019230195009332463B46564E564F484632
:1009900009F0DAF922465549484601F0A5FB3046F0
:1009A00000F00DFD3046524E5249DFF89491224638
:1009B00001F09AFB3046FFF78BFD30464E4E224643
:1009C000394601F091FB3046FFF782FD2246394659
:1009D000304601F089FB494F494B4A4EB3F90010AC
:1009E000384600F07BF922463146384601F07CFB60
:1009F000454F464B3846B3F9001000F06FF92246D8
:100A000031463846424F01F06FFB2C214148FFF739
:100A100039FD2A21384600F061F938463E4F22461A
:100A20003146002601F060FB3346009629464FF41C
:100A300080523846FFF704FD3846384F2246494673
:100A400001F052FB3346009629464FF48052384657
:100A5000FFF7F6FC324D22464946384601F044FB8A
:100A6000B8F900602F4B2B602846FFF7D7FE3146C0
:100A7000281D04F0A9FE2846FFF7C6FE28462A4D89
:100A80002A49224601F030FB284601F01FFE284982
:100A90002246284605B0BDE8F04301F025BB00BF63
:100AA000880D0020B00F0020980100203013002096
:100AB0006C0D0020A40D0020A4010020A201002044
:100AC0000000C8414105000890D003008D020008D5
:100AD0009E0100209C010020A0010020F1A300083D
:100AE000001404007015002009050008A50800087E
:100AF000C00D002007130008D81100201812002094
:100B0000A6010020410D0008A8150020A801002022
:100B10000015002050150020681200203C14002011
:100B2000EC130020404901089015002079020008CC
:100B3000E1260008E0100020000E0020AA0100209D
:100B4000C154000810B480B1146853680CB9DA07B6
:100B50000BD513F0010F4FEA63031CBFC2581459A1
:100B6000184423465DF8044B18475DF8044B704762
:100B7000F7B51D4B04460E46174640F8043B1022BD
:100B800000210CF0C3FC00230093019302A911E99A
:100B9000030004F1180282E803001449216248F2BC
:100BA00007016162E362A4622263114A6263BFF3D8
:100BB0006F8FBFF34F8F04F13C0584F8383084F811
:100BC00039301946942228460CF0A0FC094BC4F891
:100BD000D03028463A46314607F09EFA064B20466A
:100BE0001C6003B0F0BD00BF844A010801A090E87A
:100BF000450B0008A086010048160020036870B568
:100C000004460D461B68984704F13C00C4F8D050D8
:100C1000294607F059FA044B1C60236820465B689C
:100C2000BDE87040184700BF48160020036870B543
:100C3000094D1B68044698472B689C4206D0D4F89F
:100C4000D01004F13C0007F03FFA2C6023682046E6
:100C50005B68BDE87040184748160020F7B51D4690
:100C6000036804461B680E46174698472046FFF760
:100C7000DDFF9DF8203083F00103314600933A46B2
:100C80002B4604F13C0007F0E7FA236806465B6850
:100C900020469847A81B18BF012003B0F0BDC368C9
:100CA00010B504460BB19B689847204610BD000064
:100CB00008B50448FFF782FD4FF0FF31BDE808405A
:100CC00001F05CBD2016002008B50348FFF776FD53
:100CD000BDE8084001F05CBD201600202DE9F04180
:100CE0000546154B45F8043B04460F46102604F113
:100CF00020081C22002128460CF008FC3246002166
:100D000040460CF003FC3246002104F130000CF0A8
:100D1000FDFB3246002104F140000CF0F7FB2346B6
:100D2000064A3946404606F05BFF2846394600F041
:100D3000ECFB2046BDE8F081C44A0108610E0008C2
:100D400010B5084B044640F8203B07F00BF804F1BF
:100D50004000FFF7D1FB04F13000FFF7CDFB204648
:100D600010BD00BFC44A010810B50446FFF7E8FFF4
:100D70002046502109F058FC204610BD884238B565
:100D800004460D460AD0FFF7B7FB3CB1EB681BB138
:100D90005B68294620469847EB68E360204638BDEB
:100DA000F0B50F4685B0044601F0A4F8FD6804F1E3
:100DB0003006203465B139463046FFF7DFFF0122A7
:100DC0000121204606F094FE01F0AAF805B0F0BD1E
:100DD0001022294668460CF099FB69463046FFF719
:100DE000CDFF6846FFF788FB2A46E9E7F0B50F46D6
:100DF00085B0044601F07EF8FD6804F14006203419
:100E000065B139463046FFF7B9FF0122022120467D
:100E100006F06EFE01F084F805B0F0BD1022294600
:100E200068460CF073FB69463046FFF7A7FF68463B
:100E3000FFF762FB2A46E9E7C36810B504462BB901
:100E40004FF404720449054800F0D8FFE3682046D7
:100E50001B68BDE810401847944A0108B54A0108CC
:100E6000012908B502D0022906D008BDC36B13B111
:100E70003030FFF7E1FF08BDC36C002BFBD04030E2
:100E8000F7E7704710B5044600F0F0F8014B236017
:100E9000204610BDD44A010838B5036804460D4603
:100EA0001B6898472946204600F0D8F82368054675
:100EB0005B6820469847284638BD036870B51B68B4
:100EC0000D4604469847013D15F8016F26B131469D
:100ED0002046FFF7E1FFF7E7236820465B68984765
:100EE000304670BD0EB4F0B5A0B025AD036855F81E
:100EF000047B1B68044698472B463A460121684606
:100F0000019510F0FBF87728054612DC3946019A66
:100F100002A810F01DF902A92046FFF7CEFF2368B2
:100F200020465B689847284620B0BDE8F04003B0F3
:100F30007047013001F062FA39460646019A10F016
:100F400007F931462046FFF7B8FF002EE7D03046BC
:100F500001F062FAE3E738B5044648B15830A042E0
:100F600006D0A0F12C051438FFF799FE2846F6E7C5
:100F7000204638BD38B500250446294640F8045BB4
:100F800028220CF0C3FA1022294604F118000CF0B4
:100F9000BDFA204638BD000010B50A4C2046FFF7C8
:100FA000E9FF04F12C00FFF7E5FF0023A3652046CD
:100FB000E365054A84F860300449BDE8104001F05B
:100FC00093B800BF4C16002098010020570F00086E
:100FD00003681B69184703689B69184703689B6A85
:100FE00018474FF0FF307047112070477047704727
:100FF000704710B480B1146853680CB9DA070BD588
:1010000013F0010F4FEA63031CBFC2581459184470
:1010100023465DF8044B18475DF8044B7047000009
:10102000090170B501F198050544EB6883B14418D6
:10103000D4F8A4302BB94FF404720649064800F0E6
:10104000DDFED4F8A43028461B68BDE87040184780
:1010500070BD00BFE44A0108B54A010810B54C3024
:101060000C4606F0F7FB204610BD00002DE9F04FBE
:1010700087B00025924600950246019504468946B0
:101080009B469DE80300324B42F8083B314B82E817
:101090000300236148F2070363612F4BE561A461FC
:1010A00022626362BFF36F8FBFF34F8F102284F809
:1010B000285084F8295004F12C000CF027FA04F190
:1010C0004C062946102204F13C000CF01FFA04F1F2
:1010D000980829464C2230460CF018FA04F1A8076B
:1010E0002946102240460CF011FA294610223846B3
:1010F0000CF00CFA10222946C4F8B8B002A80CF083
:1011000005FA02A94046FFF739FE02A8FFF7F4F9F5
:101110001022294602A80CF0F9F902A93846FFF777
:101120002DFE02A8FFF7E8F952464946304607F07F
:10113000E7FCD4F8B810304607F0BCFC3046224635
:10114000064906F019FB204607B0BDE8F08F00BF46
:101150000C4B010801A090E8F30F000821100008D3
:101160002DE9FF410646884656F84C3B17461B685A
:1011700005463C01984700F0BDFED8F80C30983485
:101180002C44ABB1E3680BB900F03EFA414620466F
:10119000FFF7F4FD01223946304606F0F9FA00F077
:1011A000BFFE2B6828465B68984704B0BDE8F08115
:1011B000E3680BB100F042FA1022002168460CF0FF
:1011C000A5F969462046FFF7D9FD6846FFF794F96F
:1011D0000022E0E77FB51A4B03600446102200218D
:1011E00068460CF093F9002269462046FFF7B8FFE5
:1011F0006846FFF781F91022002168460CF086F955
:10120000012269462046FFF7ABFF6846FFF774F9F5
:1012100014F1980608D004F1B805B54204D0103D89
:101220002846FFF769F9F8E704F13C00FFF737FDBE
:1012300004F12C00FFF733FD204604B070BD00BF61
:101240000C4B010810B50446FFF7C4FF2046BC2133
:1012500009F0EAF9204610BD70B5D0E90823D0E9BD
:101260000245064612196B4100F0D8F8736B2BB19A
:1012700006F128001B68BDE87040184770BDD0B566
:10128000044616461F4600F035FE204600F0D0F812
:10129000C4E90867A06900F0D9FB321847EB0103E5
:1012A000204600F0BBF8BDE8D04000F039BE7FB565
:1012B000044600F01FFE204600F0BAF8636B13B13D
:1012C00094F83830E3B904F128066D461022002165
:1012D00068460CF01BF9AE420BD03046FFF70CF914
:1012E0003EB1039B1BB15B68694630469847039B40
:1012F00063632846FFF700F900F012FE04B070BDEA
:1013000000F09CF9DFE710B5044600F0F3FD236818
:101310001BB1237F0BB100F091F90023236000F093
:10132000FFFD204610BD10B5044600F0E3FD236824
:1013300053B9237F0BB100F067F9A06900F086FB79
:10134000C4E9020101232360BDE8104000F0E8BDBC
:1013500038B5044600F0CEFD236863B1A06900F003
:1013600075FBD4E90245041B61EB050500F0D8FDCF
:101370002046294638BD00240025F7E770B506460B
:1013800000F0B8FD3046D6E90445FFF7E1FF241828
:101390004D4100F0C5FD2046294670BD10B50446FC
:1013A00000F0A8FDA06900F051FB00220023C4E971
:1013B0000201C4E90423BDE8104000F0B1BD0023E0
:1013C00010B5002203600023C0E90223C0E9042312
:1013D000044600F053FB0123A06123772046FFF76A
:1013E000DDFF204610BD03689B681847094B10B508
:1013F000002203600023C0E902230023036143614C
:10140000044600F03BFB0449A06100F0A3FA20462B
:1014100010BD00BF384B0108E713000807B5009066
:1014200000F10801806900F0CCFA03B05DF804FB1C
:1014300000F10801806900F0EEBA000010B5034B1E
:1014400003600446FFF7F4FF204610BD384B010847
:10145000036801221B6900211847036800221B69E9
:1014600011461847EFF31083DB4372B6044A117834
:1014700029B9044903F001030B700123137070476D
:10148000B1160020B016002008B5EFF31083DB077B
:1014900004D436220549064800F0B0FC054B002272
:1014A0001A70054B1B7803B162B608BD444B0108A6
:1014B0006F4B0108B1160020B016002070B50E4623
:1014C0000446154606F06EFA013609D02046002182
:1014D00006F08CFA29462046BDE8704006F082BA34
:1014E00070BD38B504460D4603685AB18268136072
:1014F0002046012106F07AFA29462046BDE8384008
:1015000006F070BAC2681B04F1E70022FFF7D6BFED
:1015100070B50E460446154606F044FA013606D06C
:101520002A4620460021BDE87040FFF7DABF70BDB3
:101530000022FFF7EDBF000010B5044601300DD1C9
:1015400010BD9C4209D12046896806F07FFF2046E5
:101550000021BDE8104007F011B80C31B1F900309E
:101560005A1CEED10248BDE8104000F0FBBC00BFA1
:10157000D84B0108884208B508D0431C06D0013179
:1015800006D0044800F0EEFC4FF0FF31084608BDDD
:101590000146FBE7A74B0108B1F900305A1C01D105
:1015A00018467047834201D1486870470C31F3E711
:1015B000421C10B5044607D0FFF7EEFF431C04465B
:1015C00002D1024800F0CEFC204610BDB84B010805
:1015D000B1F900305A1C01D118467047834201D13D
:1015E000886870470C31F3E7421C10B5044607D0F9
:1015F000FFF7EEFF431C044602D1024800F0B2FCA4
:10160000204610BD894B010808B500F073FC094B5A
:101610001A884FF6FF739A4204D100F081FC064805
:1016200000F0A0FC0121034800F088FCBDE8084060
:1016300000F076BCB2160020E94B010808B500F0B6
:1016400059FC084B1B8823B900F06AFC064800F0DF
:1016500089FC0121034800F07BFCBDE8084000F054
:101660005FBC00BFB2160020164C010808B500F0A0
:1016700041FC064B1B882BB907F014FBBDE8084062
:1016800000F04EBC07F0FEFAF8E700BFB2160020EB
:101690002DE9F34790E8080404465B6898476368BF
:1016A0001B6A984235D0DAF82040DAF80C30DAF8C4
:1016B0000820CAF82000041B1C402E4B9A422646E4
:1016C0004FF000071FD0DAE90A01B2F5004FA4FB82
:1016D0000345CDE9000127D1DDE9002347F6FF707E
:1016E000E60B00210440121946EA45464FEAD53779
:1016F00005EA01056B41994208BF904214461D4618
:101700000AD3CAE90A45DAE90C23B6185F41CAE9E7
:101710000C6702B0BDE8F087013647F10007B2F56B
:10172000004443F1FF35ECE74FF000094B462046FB
:101730002946904611F0BAFF424606460F464B46F0
:101740002046294611F0B2FFDDE900018018594119
:10175000494508BF404502460B4602D2CAE90A2362
:10176000D1E7013647F10007B0EB080261EB09034E
:10177000F4E700BF40420F00824206D98A420BD9EB
:10178000884294BF002001207047884206D98A42CF
:101790008CBF002001207047012070470020704757
:1017A0002DE9F0478146D0F80480FFF771FFD9F8A2
:1017B0000450D9F800A0696800294ED0D5E90C235F
:1017C000D1E90067BB4208BFB24204D3DAF8143053
:1017D000BDE8F0471847B61A67EB0307D5E90623BB
:1017E000BB4208BFB2422C6906D3AB68224A93427F
:1017F0001DD1B44228BF34462A6AD8F82030144498
:10180000EA681440A342E1D0DAF810302046984745
:10181000D9F800305B68984722460146D8F8200086
:10182000FFF7AAFF30B3D9F800305B69D0E7B3F512
:10183000004F0BD1F903104A0023F00341EA56414F
:1018400011F034FF844228BF0446D5E7A3FB06010C
:1018500003FB0711084A0023F2E7D8F81030D8F844
:101860002000D8F80C2018441040DAF81030BDE8F9
:10187000F0471847BDE8F08740420F0003682DE9A4
:10188000F74F04461B68984723689B699847D0F830
:1018900000B00546BBF1000F06D129222A492B488A
:1018A000DFF8ACB000F0AAFAD5F804A0AAF104035E
:1018B0001C2B06D92F222449244800F09FFA4FF010
:1018C000200AAAF1040307251BF1FF3005FA03F5EE
:1018D0001F4E4FF0000343F1FF315A46C6FB05018E
:1018E00011F0E4FED4F804800023C8F80030C8F8F2
:1018F000043023685B680F46064698476368C8F85B
:1019000020004FF000094FF00008C3E90A89C3F82E
:1019100008B0524601200021019311F0BBF9019B50
:1019200001220138D8601D612046C3E90667C3E97A
:101930000C8983F83820FFF7ABFE204603B0BDE8E2
:10194000F04FFFF72DBF00BF3C4C01080A4D0108C6
:1019500040420F0038B5436893F8383004460D46CE
:101960000BB9FFF78BFF00F0C5FA63681D60BDE897
:10197000384000F0D5BA70B5044600F0BBFA2368D1
:10198000DB68984763685B68A3B12046FFF780FE79
:1019900065686E68D5E90C01D6E90023994208BF55
:1019A000904207D3F3686B602B68002BEAD0B068D5
:1019B0009847E7E72046FFF7F3FEBDE8704000F0E8
:1019C000AFBA2DE9F84305460C4616461F46DDF82A
:1019D000208000F08FFA2846FFF75AFE6968C4F8A5
:1019E0000880C4E900674B6800224BB9E36082B904
:1019F0004C602846FFF7D4FEBDE8F84300F090BAEB
:101A0000D3E900894F4508BF4645EFD31A46DB6846
:101A1000EBE7D460EDE738B505460C4600F06AFA0E
:101A20006A685368A34209D1DB6853602846FFF710
:101A3000B7FEBDE8384000F073BA1346002BF8D06B
:101A4000DA689442F9D1E268DA60F2E7436893F821
:101A5000383010B504460BB9FFF710FF00F04AFA12
:101A60002046FFF715FE00F05BFA6368D3E90C012E
:101A700010BD08B5FFF7EAFF08BD00000048704739
:101A8000604C0108024B1B680BB1024818477047B5
:101A9000AC010020604C0108007B704738B504465B
:101AA0000D4B036000234360A16002730B480D4699
:101AB000FEF784FE4FF0FF3100F060FE55B1084B99
:101AC0001A6862601C600548FEF778FE00F060FE50
:101AD000204638BD6560F6E78C4C0108FC160020F6
:101AE000F8160020124B10B5036004461148FEF7AB
:101AF00065FE4FF0FF3100F041FEA3682BB10E4AA6
:101B000013689C420ED1636813600A48FEF756FEC4
:101B100000F03EFE237B13B9201F00F083FC20461B
:101B200010BD13465A689442FBD162685A60ECE7D4
:101B30008C4C0108FC160020F816002010B5044655
:101B4000FFF7D0FF2046102108F06EFD204610BDA3
:101B500070B506460F480D46FEF730FE4FF0FF31D8
:101B600000F00CFE0C4B1C685CB1A06880B12A46EA
:101B700031460CF0B3FC58B9A0680CF041FC85422A
:101B800006D10448FEF71AFE00F002FE204670BDA2
:101B90006468E9E7FC160020F81600200020704772
:101BA00000207047036870B51B69012200210446BC
:101BB0009847051E0DDB236802221B690021204681
:101BC00098472368064629461B6900222046984705
:101BD0003546284670BD000070B50E460025044607
:101BE000056045600F4930460CF0CAFC064426608B
:101BF00023681A782F2A0ED10133236025B92822B1
:101C000009490A4800F0FAF829463046FFF7A0FFD4
:101C10006060204670BD002AF0D00133013523609A
:101C2000E6E700BFE04C0108E24C0108034D010863
:101C300000687047406808B520B1FFF72DFF431ECC
:101C40005842584108BD10B50446FFF7F3FF10B1E4
:101C5000606800B1043810BD406808B520B1FFF7D6
:101C60001BFFB0FA80F0400908BD10B50446FFF72D
:101C7000F3FF10B1606800B1043810BD4068003057
:101C800018BF0120704770477047F8B50368DB6CD8
:101C90000E4604468F1898473546BD4207D0236844
:101CA00015F8011B5B6C204698470130F5D123687D
:101CB00020461B6D9847A81BF8BDF8B50368DB6C80
:101CC0000E4604468F1898473546BD4208D0236813
:101CD00020469B6C9847431C02D005F8010BF4E7A3
:101CE000236820461B6D9847A81BF8BD002070474D
:101CF00070470020704700207047000010B5054B6A
:101D000003604C33044640F8043FFFF7EBFE2046E7
:101D100010BD00BF144D0108A0F10400EEE700BFA4
:101D200010B50446FFF7EAFF2046142108F07CFCBA
:101D3000204610BDA0F10400F2E700000F4B10B5E3
:101D40000022044640F8043BFFF7A8FE0C4B23603A
:101D50005C336360002363610A49204600F0BAFBEC
:101D6000606118B100F0C7F9204610BD09F0C6FF48
:101D70000168054800F0F6F8F6E700BF9C4C010842
:101D8000944D0108684D01086B4D010810B5074BD3
:101D900003F10802643304460260436040690AF0BC
:101DA00015F82046FFF7AAFF204610BD8C4D01080C
:101DB0000EB477B5036807AD044655F8046BDB6CC9
:101DC0009847606901950AF0D3F8019A6069314635
:101DD0000FF00CF9236805461B6D204698472846EE
:101DE00003B0BDE8704003B070470AF07BBF0BF052
:101DF000F1BB0AF059BA09F051BF000070B50446B2
:101E00000D46164600F076F833462A46214603482A
:101E100000F05CF8BDE8704000F002B8F84D010831
:101E200010B588B000F066F8052101A8FFF780FB27
:101E30000424039B019A1A60962000F01DFC019B6C
:101E4000049A1B041360962000F016FC013CF0D1AC
:101E50000424039B019A1A604FF4C87000F00CFC34
:101E6000019B049A1B0413604FF4C87000F004FC3B
:101E7000013CEED1DCE7000070B50D46A0B0044691
:101E800000F038F82B462246802168460FF036F9DC
:101E9000051E03DC00F044F820B070BD094B1B6840
:101EA00023B903220221084806F02AFE064E002428
:101EB0001DF804103046013405F0CCFCA542F7D1E2
:101EC000E8E700BF64200020603400200FB407B5AD
:101ED00004A951F8040B0191FFF7CEFF03B05DF8A0
:101EE00004EB04B07047EFF31080C04300F0010032
:101EF0007047000010B5074C2368013304D1552208
:101F000005490648FFF77AFFFFF7ACFA236801336B
:101F1000236010BD24170020294E01084D4E0108F2
:101F2000054B1A6832B11A68013A1A601B680BB97E
:101F3000FFF7AABA704700BF24170020D0E85F3F20
:101F40000B449BB2C0E8523F002AF7D118467047B5
:101F5000D0E85F3F5B1A9BB2C0E8523F002AF7D13E
:101F6000184670470FB413B5084B1A784AB90124C4
:101F700005A904981C700191FFF77EFF204600F030
:101F8000B5F802B0BDE8104004B070472817002033
:101F90006FF01C0070476FF015007047012070470C
:101FA0000020704770470000014B186802F03CBAEF
:101FB00010230020F8B5074E15460C468F18BC427A
:101FC00005D014F8011B304605F044FCF7E728461D
:101FD000F8BD00BF6034002038B58DB215F00104A3
:101FE00005D0084806F01AFD041C18BF0124EB06B2
:101FF00005D5044806F028FD08B144F01004204639
:1020000038BD00BF6034002010B50421044608F03C
:102010000BFB204610BD000010B50C462AB1044849
:1020200005F006FC2070012010BD104610BD00BF59
:102030006034002038B51D46074B0360074B1B6812
:10204000044633B9064806F05BFD2946044806F00D
:1020500031FD204638BD00BF904E010864200020AD
:102060006034002000207047002070470148FFF7CF
:1020700079BF00BF7E4E010808B5012000F036F898
:102080000C4A136810B51844EFF30881884205D351
:10209000094B0C221A604FF0FF3010BD07490C6845
:1020A00024B10749096821448842F1D210601846DA
:1020B00010BD00BFB00200200C3500205C170020CE
:1020C00060170020074C08B523680546986809F09A
:1020D0004FFF2368D86809F04BFF0DB1FFF7A0FE52
:1020E000FEE700BF740300200120704708B5FFF72A
:1020F000E9FF0120704700210BF0B8BC08B500F0E3
:102100000BFE08BD08B500F00FFE08BD10B5037842
:1021100003F00303012B04460CD00E4B4FF0FF31AC
:10212000186802F063F9237803F00303012B03D14D
:10213000FFF73AFF002010BD2BB140F20F520649C5
:102140000648FFF75BFE237843F00203237001206B
:1021500010BD00BF10230020184F01083E4F01089A
:1021600010B5037803F00303022B044605D040F2B8
:10217000175207490748FFF741FE237823F003036E
:1021800043F001032370BDE81040FFF70DBF00BF0F
:10219000184F0108644F01083F2870B504462FDC32
:1021A000184D55F820305A1C13D1022811DCFFF7C6
:1021B0005BFF034658B92046FFF754FF034630B98A
:1021C000114E3378BFF35B8FDB0704D50F4B45F817
:1021D0002430184670BD3046FFF798FF0028F5D030
:1021E0004FF4E133032202210848FFF723FF304672
:1021F000FFF7B6FF064A07490448FFF775FFE5E712
:102200000023E6E7B00100202C170020581700201B
:1022100098010020A51F000838B50546FFF7BCFF50
:102220000B4B002443F8254030B909F067FD092322
:1022300003604FF0FF3038BD03685B699847051EA7
:1022400004DA09F05BFD6D420560F2E7204638BD17
:10225000B0010020FFF7E0BF38B50C461546FFF788
:102260009BFF38B909F04AFD092303604FF0FF34A2
:10227000204638BD03682146DB682A469847041E7D
:10228000F6DA09F03BFD64420460EFE708B5131E7F
:1022900006DA09F033FD162303604FF0FF3008BD66
:1022A00004D0FFF7D9FF40EAE07008BD184608BD2A
:1022B00038B50C461546FFF76FFF38B909F01EFD1B
:1022C000092303604FF0FF34204638BD03682146E0
:1022D0009B682A469847041EF6DA09F00FFD64420F
:1022E0000460EFE7002A08B503DBBDE80840FFF70C
:1022F000DFBF09F003FD162303604FF0FF3008BD78
:1023000010B5FFF749FF044628B909F0F7FC092387
:102310000360204610BD0368DB699847041EF8DAA5
:1023200009F0ECFC644204600024F2E71FB50422CB
:102330000C4640230DEB020101900DF109008DF8D0
:1023400008300AF0E5FF214602A809F055FF0446CF
:1023500030B10198FFF7D4FF10B12046FFF7CBFE54
:10236000204604B010BDFFF7CBBF38B50C4615466C
:10237000FFF712FF38B909F0C1FC092303604FF0E1
:10238000FF34204638BD036821461B692A4698471A
:10239000041EF6DA09F0B2FC64420460EFE7FFF7CE
:1023A000E4BF38B50D46FFF7F7FE044630B909F033
:1023B000A5FC092303604FF0FF3038BD0368DB69DB
:1023C0009847002814BF4FF400534FF400436B604C
:1023D000236820469B6A98472861002038BDFFF794
:1023E000E0BF000010B50AF06DFC044610B90248C9
:1023F000FFF7B8FD204610BDFB4E010810B50AF0EE
:1024000061FC044610B90248FFF7ACFD204610BD40
:10241000DC4E01080AF05EBC0AF05CBC0048704764
:10242000D44E010810B504460C48FEF7C7F94FF02A
:10243000FF3100F0A3F90023094A194652F823009E
:10244000A04208BF42F823100133402BF6D10348C5
:10245000FEF7B4F9BDE8104000F09AB9301700203B
:10246000B001002010B51348FEF7A8F94FF0FF3176
:1024700000F084F9104B032453F824207AB101347E
:10248000402CF9D109F03AFC182303600948FEF703
:1024900095F900F07DF94FF0FF34204610BD4FF064
:1024A000FF32044843F82420FEF788F900F070F961
:1024B000F3E700BF30170020B001002010B504463C
:1024C000FFF7D0FF0028A4BF014B43F8204010BD08
:1024D000B001002070B506460C46FFF7EFFF054639
:1024E00090B12146FFF722FF044630B9074B53F85D
:1024F0002520964203D143F82500204670BD09F0FF
:10250000FDFB09230360F8E70446F6E7B00100206D
:102510000EB42DE9F04185B00546FFF7A3FF041E78
:1025200013DB0023294602A80193FFF755FB02A8FD
:10253000FFF7A4FB1B4D064668B909F0DFFB132328
:10254000036045F824604FF0FF34204605B0BDE835
:10255000F04103B0704702A8FFF77EFB074602A8D0
:1025600037B1FFF782FB0190019B45F82430ECE77F
:10257000FFF769FB06460028DFD0036802A8D3F8FE
:102580000880FFF755FB0B9B024601A93046C04768
:1025900006460028E8D009F0B1FB7642066045F80F
:1025A0002470D0E7B001002073B50E4618490546E7
:1025B0000BF0CAFB044620B9FFF7EEFD204602B03F
:1025C00070BD144928460BF0BFFB20B90120FFF76E
:1025D000E3FD0124F2E7104928460BF0B5FB20B9D2
:1025E0000220FFF7D9FD0224E8E72B78402B07D122
:1025F0000422691C0DEB02000AF08AFE019CDDE753
:1026000026F400412846FFF783FF0446D6E700BFC3
:10261000AB4F0108B24F0108A34F0108F8B50546BA
:10262000FFF72CFA0646FFF724FA4FF47A7495FB6D
:10263000F4F4002C074602DDFFF755FC30B93046B4
:10264000FFF717FAC01BA842F9D3F8BDFEF7DCFF6D
:10265000204602F032FFFEF7F1FFF0E707EE100A26
:10266000DFED047A67EE277AFDEEE77A17EE900A3F
:10267000FFF7D4BF002474494FF47A735843FFF72F
:10268000CDBF00007FB5061D05460C461022002177
:1026900030460AF03BFF0A4B0296002C08BF1C464E
:1026A000684610230094039300F0AAFD286020B927
:1026B0002F2204490448FFF7A1FB04B070BD00BFFE
:1026C000BA4F0108DA4F0108F94F010810B500218F
:1026D0000446FFF7D7FF204610BD006800F0BCBDE0
:1026E00010B50446006800F043FE204610BD10B44B
:1026F0009DF804400CB942F0020200685DF8044BFA
:1027000000F0ECBD07B5009313460122FFF7EFFF81
:1027100003B05DF804FB00007FB5061D05460C46BE
:102720001C22002130460AF0F1FE102200216846EA
:102730000AF0ECFE0A4B0296002C08BF1C461C2334
:10274000039368460B230094019301F023FE286055
:1027500020B9322203490448FFF750FB04B070BD92
:10276000FD4F010816500108F94F010810B500216E
:1027700004460162FFF7D0FF204610BD10B50446A5
:10278000006801F033FE10B9236A0133236210BDE3
:10279000036A013B0362006801F046BE10B50446BF
:1027A000006801F05DFE204610BD00002DE9FF41EC
:1027B000061D044688461746002110221025304683
:1027C0000AF0A4FE2A46002168460AF09FFE6A46E7
:1027D000414638460296039501F05EFF206020B91D
:1027E0002C2203490348FFF709FB04B0BDE8F08140
:1027F000305001084E50010810B54FF6FF720446E4
:10280000FFF7D4FF204610BD006801F075BF10B57A
:102810000446006801F0AAFF204610BD4FF01003E7
:1028200000F00CB84FF0200300F008B84FF0300370
:1028300000F004B84FF0400300F000B8EFF3088058
:102840004FF0040172460A4201D0EFF309809C4622
:10285000244902680A60043142680A6004318268CF
:102860000A600431C2680A600431F0C147460F6053
:1028700004314F460F60043157460F6004315F4604
:102880000F60043102690A60083142690A6004314C
:1028900082690A600431C2690A6004310346203348
:1028A0004FF40076324200D0043375464FF01006E4
:1028B000354200D148330C46103C2360EFF30982C7
:1028C0000A600431EFF308820A60043172460A603C
:1028D0000431EFF314820A60034B60460149034A56
:1028E0009847FEE740220020D92A0008B8020020BD
:1028F000044B1B6823B903220221034806F000B9E8
:10290000704700BF6420002060340020F0B5114BF8
:1029100085B006460A466D4603F1100718685968E7
:102920002C4603C40833BB422546F7D182B102F1DD
:1029300008010F201C2200FA02F33340D34004ACFC
:102940002344043A13F8103C01F8013D131DF2D161
:1029500005B0F0BD5A5001082DE9F04385B001AD36
:102960000024124F019488466C602C72461E16F8A3
:10297000011F11B905B0BDE8F083252910D158F821
:1029800024002946FFF7C2FF04F101090724295D4D
:10299000384604F05FFF14F1FF34F8D24C46E6E706
:1029A000384604F057FFA146F8E700BF6034002026
:1029B00030B52B4C2B492C4889B0FFF7CDFF214671
:1029C0002A48FFF7C9FF1C22002101A80AF09EFD3A
:1029D000E36A0193A36A2648DBB20293A36AC3F3B6
:1029E00007230393A36A1B0C0493236B0593E36BE8
:1029F0000693636A079301A9FFF7AEFF029B1A06CD
:102A000003D51C491C48FFF7A7FF039B1B0603D5F2
:102A10001A491B48FFF7A0FF124CE16C11F00805A2
:102A200016D000211748FFF797FF216D11F0010123
:102A300013D015480021FFF78FFFE16C11F004015E
:102A40001ABF002111481248FFF786FF09B030BDB8
:102A500029461048FFF780FF29460F48EBE700BFE3
:102A600000ED00E04022002044510108F05101082F
:102A7000FA51010834ED00E03A52010838ED00E067
:102A8000445201084E5201085D5201088D5201085E
:102A9000995201087D5201086A5201087FB54378B6
:102AA0000193C36B0293436B0393036B049301A9DC
:102AB000836B03480593FFF74FFF07B05DF804FBF6
:102AC000A552010810B5044604B910BD2046FFF711
:102AD000E5FFA468F8E7000008B505461446FFF7CF
:102AE00007FF00212448FFF737FF202D3ED004D8F0
:102AF000102D09D00021214808E0302D39D0402D7B
:102B0000F8D100211E4801E01E480021FFF724FFF4
:102B100000211D48FFF720FFFFF74AFF00211B4857
:102B2000FFF71AFF6069FFF7B9FF00211848FFF7A8
:102B300013FFA069FFF7B2FF00211648FFF70CFF53
:102B4000206BFFF7BFFF00211348FFF705FFE06A86
:102B5000FFF7B8FF00211148FFF7FEFEA06AFFF75C
:102B6000B1FF00210E48FFF7F7FEFEE700210D48F8
:102B7000CCE700210C48C9E76A500108C0500108A1
:102B8000B550010893500108CE500108D9500108F2
:102B9000F1500108F85001080751010817510108C8
:102BA000255101089D500108AC500108154838B561
:102BB000154B03600B251C24144B4560C4608360D7
:102BC00001F0E8FB124B18601248134BC46080E818
:102BD0002800124B836001F0DDFB114B1860114897
:102BE000114BC46080E82800104B836001F0D2FBD9
:102BF0000F4B186009F0B0FF00210846BDE83840CF
:102C000000F062B8C4220020FD5201089822002082
:102C100010230020B42200200D53010814230020AB
:102C20000C230020D42200201A5301083023002056
:102C3000E42200200A4A0B48C2F1005303F5003396
:102C4000B3F5806F194628BF4FF480615B1A0160AD
:102C500005499818086005490B60054B1A607047D4
:102C60001035002064170020681700205C17002032
:102C700060170020704700000D4A0E4808B50E4B43
:102C800013614FF4805353614823D3600B4B93601F
:102C90001823936100210A4B136002F08BFA10B9DC
:102CA0000848FFF75FF9BDE8084000F041BD00BFEC
:102CB000E8220020AD2B0008982300204C230020A0
:102CC000D5520108E152010808B5FFF7D3FFBDE86E
:102CD0000840FDF779BC000010B5FFF7ABFF0B4BC8
:102CE0000B499A680B48043A52F8044F41F8044FD4
:102CF0008142F9D14FF000529A6005F07FFB00F05D
:102D0000CDFCBDE81040FFF7B7BF00BF00ED00E00D
:102D1000FCFFFF1F94010020024B4FF0FF311868A9
:102D200001F064BB0C230020014B186801F07CBB50
:102D30000C23002008B500F057F8FCE708B505465D
:102D40000C4602F053FA6B1E0246042B24D8DFE82F
:102D500003F0030D13191E00204602F02FFA22463D
:102D6000034601210F48FFF7FDF8FEE72346022145
:102D70000D48FFF7F7F8F8E7234603210B48FFF764
:102D8000F1F8F2E704210A48FFF7ECF8EDE7052136
:102D90000848FFF7E7F8E8E729460748FFF7E2F8B1
:102DA000E3E700BF2453010874530108CA53010824
:102DB0002F5401088A540108EA54010808B502F0AA
:102DC00015FABDE8084002F013BB02F011BB08B5CC
:102DD000FFF790F8FEF718FCFEF748FCFEF72EFC14
:102DE000BDE80840FFF79CB808B5024C2368984737
:102DF000FCE700BFB4020020EFF30980816911F8FD
:102E0000021CB9BB01B590E80F10E047BDE80050C7
:102E10008CE80300264B93E80600914208BF7047F8
:102E200041B91EF0100F10D12249086820F00100AE
:102E300008600AE02CE9F00F1EF0100F08BF2CED1F
:102E4000108AC1F838C081F822E001F017FF184B52
:102E500093E806001A6092F82210906B61F0FF0E62
:102E60001EF0100F08BFB0EC108AB0E8F00F80F32E
:102E70000988704710B5104A1368994206D852F86D
:102E800021400FC8A047EFF30984206010BD10B5A2
:102E900001F0D0FCBDE81040EFF3098CBAE710B5A3
:102EA00001F08EFCBDE81040EFF3098CB2E70000A2
:102EB000CC02002034EF00E0D055010808B50146EF
:102EC00010B1132002F074F8002008BD10B50446BC
:102ED00000F082FAEFF305832BB9EFF3108313B9F7
:102EE000EFF311833BB16FF00501002000F068FAA9
:102EF0006FF0050010BD2046DFF804C000DF10BDF4
:102F0000BD2E000838B5002838D08468056864B143
:102F100014F0030302D1C2680F2A1FD86FF0080112
:102F2000002000F05CFA002038BDC368002BF5D10A
:102F3000134BD3F8900030B901221021D3F8800050
:102F400000F04CFC01E000F0D0FC044628B96FF022
:102F5000040100F044FA204638BD0123A370032287
:102F600000232270A360E3600122054B627065605C
:102F7000044A5A66204600F034FAECE70546D7E7E3
:102F8000B80200201931000810B5044610B10378CA
:102F9000032B07D020466FF0030100F020FA6FF0FA
:102FA000030010BD437833B96FF0020100F017FA47
:102FB0006FF0020010BD00234370836863B12046A8
:102FC00001F04DFD00226FF0020101F0B7FEA06894
:102FD0000028F4D101F084FEA378DB0706D5084B66
:102FE000D3F89000214630B100F0ADFC204600F04F
:102FF00001FA002010BDD3F8800000F023FCF5E7B3
:10300000B802002012F0020F10B502F0010222D126
:1030100000F10C0382B153E8000F00EA01028A427A
:1030200003D0BFF32F8F002005E020EA010243E820
:10303000002404B1EFE710BD53E8000F084203D1AC
:10304000BFF32F8F002005E020EA010243E80024AF
:1030500004B1F1E710BDC06801EA00031AB199425A
:1030600018BF002010BD002B08BF002010BD0000BD
:103070002DE9F8439946274BD3F8148005460E46B0
:103080001746B8F1000F08D16FF0070100F0A7F95B
:103090004FF0FF342046BDE8F88320B10378032BBE
:1030A00001D1002907DA6FF00301284600F097F9F3
:1030B0006FF00304EEE7437833B96FF0020100F0DC
:1030C0008EF96FF00204E5E7FFF79CFF044628B194
:1030D00003463A46284600F08AF9DBE7B9F1000FCB
:1030E00013D04B463A46284600F07FF94146284621
:1030F000C8F8246088F8237001F09EFC49464320FC
:1031000001F056FF6FF00104C4E73A46284600F08C
:103110006FF9D6E7B8020020F8B5437805460BB141
:10312000846804B9F8BD94F82320616AA76828462A
:10313000FFF768FF064670B1204601F0A1FC0022AF
:103140003146204601F0FAFD334694F82320616AA7
:10315000284600F04CF93C46E3E72DE9F0410646ED
:1031600020B10378032B01D1002909DA6FF00301A4
:10317000304600F034F96FF003052846BDE8F081D1
:10318000437833B96FF0020100F029F96FF00205BE
:10319000F3E700F10C0353E8002F42EA010543E88E
:1031A000005000B1F7E7B4683CB9204601F098FD43
:1031B0002946304600F017F9DFE794F82320616ACA
:1031C000D4F808803046FFF71DFF0746B0B194F8E9
:1031D00023309B0756BF656A054620EA0505204651
:1031E00001F04EFC00223946204601F0A7FD3B4687
:1031F00094F82320616A304600F0F9F84446D3E79A
:1032000010B5044600F0ECF8EFF305832BB9EFF3AB
:10321000108313B9EFF3118333B16FF00501002070
:1032200000F0DDF8002010BD2046DFF828C0EFF3E5
:10323000148313F0020F0AD113F0040FEFF3088385
:103240000CBF203B683B23F0070383F3098800DFB2
:1032500010BD00BF052F000870B504460E4600F0F3
:10326000C1F8EFF305832BB9EFF3108313B9EFF334
:10327000118353B324B12378032B01D1002E08DA34
:103280006FF00301204600F0AAF86FF0030528460E
:1032900070BD63783BB96FF00201204600F09FF8E3
:1032A0006FF00205F3E704F10C0353E8002F42EA44
:1032B000060543E8005101B1F7E7204601F0FEFAA8
:1032C0002946204600F08FF8E1E720463146DFF836
:1032D00008C000DF0546DAE75B310008F8B50446B0
:1032E0000E4617461D4600F07FF8EFF305832BB915
:1032F000EFF3108313B9EFF311836BB32CB1237881
:10330000032B02D10DB9002E08DA6FF0030120461D
:1033100000F065F86FF003052846F8BD63783BB907
:103320006FF00201204600F05AF86FF00205F3E753
:103330003A4631462046FFF765FE054630B1034662
:103340003A463146204600F052F8E5E73A46314623
:10335000204600F04DF8E8E7204631463A462B4635
:10336000DFF808C000DF0546D6E700BF713000086F
:1033700010B5044600F03DF8EFF305832BB9EFF3E9
:10338000108313B9EFF311833BB120466FF00501B1
:1033900000F025F86FF0050010BD2046DFF804C0EE
:1033A00000DF10BD892F00087047704770477047D5
:1033B0007047704770477047704770477047704755
:1033C0007047704770477047704770477047704745
:1033D0007047704770477047704770477047704735
:1033E0007047704770477047704770477047704725
:1033F0007047704770477047704770477047704715
:103400007047704770477047704770477047704704
:1034100070477047704770477047704770477047F4
:1034200070477047704770477047704770477047E4
:10343000704770477047704770477047704700008B
:1034400070B56348017A0129044603D1FFF7B4FF40
:10345000002070BD31B14FF0FF30FFF7ABFF4FF0F0
:10346000FF3070BD5B4D9C2208300AF04FF86B6D49
:10347000472B02D86FF00A00EFE7EA68002AEAD08B
:103480002B8A002BE7D0EE6AA4F85430296BAB6886
:10349000E2653046236400F081F908B1C4F8806029
:1034A0006E69A969304600F079F9002800F084803F
:1034B0006667EE69296A304600F070F900287FD00F
:1034C000A6676E6AA96A304600F068F900287BD0CA
:1034D000E6676E6B46B1F368B2683168304600F05B
:1034E000D6F908B1C4F88460AE6B46B1F368B2682F
:1034F0003168304600F0CBF908B1C4F88860EE6B53
:1035000046B1F368B2683168304600F0C0F908B1DE
:10351000C4F88C602E6C46B1F368B26831683046EE
:1035200000F0B5F908B1C4F890606E6C46B1F3686C
:10353000B2683168304600F0AAF908B1C4F8946066
:10354000AE6C46B1F368B2683168304600F09FF95E
:1035500008B1C4F89860EE6C46B1F368B26831689F
:10356000304600F094F908B1C4F89C602D6D45B167
:10357000EB68AA682968284600F089F908B1C4F800
:10358000A050154AFF2382F8223092F82230D168E9
:1035900063F0FF03DB43B3FA83F3C3F12003C1F30A
:1035A00002218B4298BF4B1CFE2101FA03F3DBB2D0
:1035B000D3770123237249E7D4F88030636778E733
:1035C000D4F88030A3677CE7D4F88030E36780E7E5
:1035D000B80200206855010800ED00E010B5034C6A
:1035E000207AFFF7EAFE207A10BD00BFB802002063
:1035F00038B5244C237A012B06D06FF00600FFF774
:10360000D9FE4FF0FF3038BDA36A1F4D4BB9AA6DEC
:103610001E48194601F0C4FBA06210B94FF0FF30FC
:10362000EDE76B6E4BB1A36C3BB9EA6D18481946D8
:1036300001F0B6FBA0640028F0D01649686801F0DC
:1036400073FE0028DDD101F0ABFE206101F08CFE9D
:103650000028D6D1104801F002FA0028DED001F08F
:103660002FFB2B6813F0010F4FF0020306D083F3FA
:1036700014882372FFF7A3FE002038BD032282F3D3
:103680001488F6E7B802002068550108352D0008B7
:10369000DD5200089F2E0008D402002008B5FFF775
:1036A0008AFEEFF305832BB9EFF3108313B9EFF321
:1036B000118333B16FF00500FFF77CFE6FF005005A
:1036C00008BDDFF828C0EFF3148313F0020F0AD10E
:1036D00013F0040FEFF308830CBF203B683B23F08B
:1036E000070383F3098800DF08BD00BF41340008E9
:1036F00008B5EFF305832BB9EFF3108313B9EFF39C
:10370000118333B14FF0FF30FFF757FE4FF0FF301A
:1037100008BDEFF31483DB0703D4BDE80840FFF7CF
:103720005DBFDFF808C000DF08BD00BFDD35000861
:1037300008B5FFF743FEEFF305832BB9EFF31083D2
:1037400013B9EFF3118333B16FF00500FFF732FEC9
:103750006FF0050008BDFFF7CBFF022805D00D4B29
:103760001B6813B15B6803B19847DFF82CC0EFF317
:10377000148313F0020F0AD113F0040FEFF3088340
:103780000CBF203B683B23F0070383F3098800DF6D
:1037900008BD00BF98330020F135000838B50C464D
:1037A000034630B140EA010212F0070201D11729A5
:1037B00006D8184600222146FFF7F6FD002038BD46
:1037C000A1F1080410251960456025188560225074
:1037D000C2600122FFF7E8FD012038BDF8B518B13D
:1037E00011B132F0030304D00023FFF7DEFD002007
:1037F000F8BD0F3121F0070100F108031E68D3F86E
:1038000004E0F41A2EF00305641BA14204D93468C5
:103810003346002CF2D1E7E744680C44446042EAA6
:103820000107BEF1000F07D15F6003F108042346D2
:10383000FFF7BBFD2046F8BD5C195E5167601C6058
:103840000834F4E738B500B121B90022FFF7AEFD26
:10385000002038BDA1F1080500F108030022AB42A9
:103860000CD15C6824F003054468641B44605AB9B9
:103870005A600122FFF79AFD012038BD1C681A46E4
:10388000002CE2D02346EAE71B681360F1E72DE93C
:10389000F0410C4617461D46064600B3C1B102B3BF
:1038A0000BB34FF0000E02FB01F83160C0F804E0EA
:1038B00003EB080EF3607361B260C0F810E0FFF72D
:1038C00076FD2B46013C06D1A8EB0707EC510124FD
:1038D0002046BDE8F081DA191A601346F2E7044683
:1038E000F6E71446F4E71C46F2E738B5044628B973
:1038F0000146FFF75DFD2546284638BD031D0268D9
:1039000053E8001F8A4202D8BFF32F8F04E0481CFF
:1039100043E8000505B1F3E723688B4211D904F1B0
:10392000140353E8005F15B9BFF32F8F04E02A6832
:1039300043E8002101B1F4E729462046FFF738FDAE
:10394000DAE70025F8E738B528B1C3688B4202D81A
:103950000369994207D36FF00302FFF72AFD6FF066
:103960000304204638BD031D53E8002F12B9BFF3EE
:103970002F8F04E0541E43E8004505B1F4E79AB1E7
:1039800000F114031A680A60BFF35F8F53E8002F39
:103990000C689442F6D143E8001505B1F2E7002423
:1039A0002246FFF706FDDCE76FF00204F8E7036B41
:1039B00030B5E3B1CD780024DA78AA420FD31A46A5
:1039C0004A608C608AB19160A4B16160283050E88F
:1039D000003F5A1C40E8002101B1F8E730BD5A68A9
:1039E0001C46002AECD01346E6E7C162ECE74B60C8
:1039F0008B60C1620163E9E74B688A6823B19A6012
:103A00008A681AB153607047C262F9E7036370476E
:103A10002DE9F74F8B46804600B141B96FF00301A5
:103A20000020FFF7FEFC002003B0BDE8F08FCF1CA4
:103A300027F003070C37B0FA80F3B7FA87F10B448D
:103A40001F2BEBDD07FB00F9F2B1946813680193BB
:103A5000166950693CB1A30702D1D368332B05D84E
:103A60006FF00801DCE7D368002BF9D13EB116F006
:103A7000030501D1814562D96FF00901D0E7002823
:103A8000FAD11CB1054619E0019216462E4BD3F827
:103A9000A00048B1FFF729FF044660B96FF00401A8
:103AA000FFF7BFFC2046BFE701223421D3F8800096
:103AB000FFF794FEF0E7002E3FD10125DFF888A044
:103AC00000224946DAF87C00FFF788FE064690B9E6
:103AD0006FF00401FFF7A5FC002DA4D0DAF8A05088
:103AE00021461DB12846FFF72EFF9CE7DAF880003B
:103AF000FFF7A8FE97E74A46002109F007FD45F0C9
:103B000002000823237001236370019B636000237C
:103B1000A070A360A362E36223633A463346C4F80D
:103B200024B0414604F10C00FFF7B1FE064B074AF2
:103B30001A672046FFF777FCB4E70120E1E7002C85
:103B4000A4D02846DDE700BFB8020020493C0008A9
:103B50002DE9F0410E4690461D46044618B1037803
:103B6000082B00D141B920466FF00301FFF759FC43
:103B70006FF00300BDE8F08143783BB96FF00201BC
:103B8000FFF74FFC6FF00200BDE8F081836803B3DC
:103B90005B78832B1DD1FFF74BFC204600F05FFFC5
:103BA00001220546002101F0C9F8284600F0E4FF93
:103BB0000546626A8068314609F0AAFBEB680BB1E2
:103BC00083F80080A9682046FFF737FC0020BDE895
:103BD000F08104F10C00FFF788FE0746A8B1626A85
:103BE00031460C3009F094FB07233B70002501237C
:103BF000394620467B70BD7087F80380FFF7D7FEFB
:103C000031462046FFF714FCE0E7B5B12A463146BD
:103C10002046FFF70AFC0B4B2046596900F00CFFC9
:103C20002946932001F0C4F9EFF309836FF00100F6
:103C30009E60C3F80C80BDE8F08131462046FFF756
:103C4000F8FB9FE7B8020020F8B543780446002B44
:103C50007AD08678002E3ED0C5686B78002B73D062
:103C600001460026284605F10C07FFF7C5FE6670E1
:103C700021463846FFF767FEAB68002B64D05B78BF
:103C8000932B61D13846FFF730FE044600285BD005
:103C9000284600F0E4FE32463146074601F04EF871
:103CA000384600F069FF6A6A8168074604F10C0033
:103CB00009F02EFB0723237001236370A670FB68B5
:103CC000E37021462846FFF772FEB9682846BDE832
:103CD000F840FFF7ADBB85686B78ABB3AB684BB30F
:103CE0005B78832B26D141682846FFF7A1FB284645
:103CF00000F0B5FE32463146074601F01FF838465F
:103D000000F03AFF06466A6A806804F10C0109F087
:103D1000FFFAF3680BB1E2781A70B1682846FFF732
:103D20008CFB00236370214605F10C00BDE8F840D0
:103D3000FFF709BE61682846FFF77AFB214628464F
:103D4000BDE8F840FFF733BEF8BD10B500F1280319
:103D500053E8002F12B9BFF32F8F04E0511E43E840
:103D6000001404B1F4E70AB9002010BDC06A0123B1
:103D70000028F9D0821CD2E84F1FC2E8443F04B1AA
:103D8000F9E711F0FF0F01D08068F1E710BD0000E6
:103D90002DE9F0410D4617469846044618B10378C0
:103DA000082B00D141B920466FF00301FFF739FB22
:103DB0006FF00300BDE8F08143783BB96FF002017A
:103DC000FFF72FFB6FF00200BDE8F081FFF7BDFFAA
:103DD0000646E8B101462046FFF70EFE626A06F18C
:103DE0000C01284609F094FA0FB1F3783B7029468C
:103DF0002046002504F10C07FFF71FFB75703146C4
:103E00003846FFF7A0FDA36803BB0020BDE8F081A2
:103E1000B8F1000F15D0424629462046FFF70BFBAC
:103E2000204B2046596900F007FE4146832001F0EF
:103E3000BFF8EFF309836FF001009D60DF60BDE81C
:103E4000F08129462046FFF7F9FABBE75B78932B10
:103E5000DBD13846FFF749FD06460028D5D020467D
:103E600000F0FDFD29460746012200F067FF3846B5
:103E700000F082FE626A8168074606F10C0009F0D4
:103E800047FA0723337001237370B570FB68F37032
:103E900031462046FFF78BFDB9682046FFF7C8FA88
:103EA000B3E700BFB802002070B506460D461446C1
:103EB000FFF7B8FAEFF305832BB9EFF3108313B9CB
:103EC000EFF3118333B16FF005010020FFF7A9FA7A
:103ED000002070BD304629462246DFF828C0EFF3A7
:103EE000148313F0020F0AD113F0040FEFF30883C9
:103EF0000CBF203B683B23F0070383F3098800DFF6
:103F000070BD00BF113A00082DE9F04104460F468C
:103F100090461D46FFF788FAEFF3058333B9EFF3B8
:103F200010831BB9EFF31183002B3CD024B123780D
:103F3000082B01D107B145B120466FF00301FFF70F
:103F400070FA6FF00300BDE8F081637843B96FF059
:103F500002012046FFF765FA6FF00200BDE8F0812C
:103F600004F10C00FFF7C1FC0646B8B1626A39469D
:103F70000C3009F0CDF907233370012373703046FC
:103F8000B57086F803807760B46000F097FC204637
:103F90003946FFF74CFA2846BDE8F08139462046FD
:103FA000FFF747FAD8E72046394642462B46DFF866
:103FB00008C000DFBDE8F081513B0008F8B50446B9
:103FC0000D4617461E46FFF735FAEFF305832BB96A
:103FD000EFF3108313B9EFF31183A3B324B1237864
:103FE000082B01D105B13EB120466FF00301FFF768
:103FF00018FA6FF00300F8BD63783BB96FF0020167
:104000002046FFF70EFA6FF00200F8BD2046FFF7DA
:104010009CFE064690B100F10C01626A284609F048
:1040200077F90FB1F3783B7029462046FFF705FA80
:104030003046F46000F042FC0020F8BD29462046DE
:10404000FFF7FCF9DFE7204629463A463346DFF81A
:1040500008C000DFF8BD00BF913D000870B5002822
:104060003AD0846890E8600064B114F0030302D190
:10407000C2681B2A1FD86FF008010020FFF7BBF9A8
:10408000002070BDC368002BF5D1154BD3F8940008
:1040900030B901221C21D3F88000FFF79FFB01E01B
:1040A000FFF723FC044628B96FF00401FFF7A3F9DA
:1040B000204670BD012304222270A3700122002338
:1040C0006270E6706560A360E360236163612376DC
:1040D0002046FFF792F9EBE705460646D5E700BF15
:1040E000B8020020304B70B55D6904460E4635B904
:1040F0006FF00701FFF77FF94FF0FF3070BD10B18F
:104100000378042B07D020466FF00301FFF773F903
:104110006FF0030070BD437833B96FF00201FFF711
:104120006AF96FF0020070BD017E69B9EB6AC56083
:104130004361016103B118610121EC6220462176DF
:10414000FFF75FF9002070BDC378DA070BD5C268AE
:10415000954208D1FF2902D16FF00F01DFE701314D
:10416000C9B20176ECE7DEB19B070AD5E06895F9A4
:10417000203090F920209A4203DA80F8203000F0B5
:1041800089FC31462046FFF73AF92946204600F0DF
:1041900053FC3146532000F00BFF6FF0010070BD5F
:1041A0002046FFF72FF9BCE7B802002038B5334BA3
:1041B0005D69044635B96FF00701FFF71CF94FF050
:1041C000FF3038BD10B10378042B07D020466FF0C4
:1041D0000301FFF710F96FF0030038BD437833B9DE
:1041E0006FF00201FFF707F96FF0020038BDC368F6
:1041F0009D4202D06FF00D01F4E7017E11B96FF01E
:104200000E01EFE70139C9B20176FFF7FDF8237E11
:104210003BBB63690BB122691A6122691AB353610E
:10422000E3789B0705D595F92120EB6AEBB985F872
:104230002020A36893B1204600F011FC002205461F
:10424000114600F07BFDEB6A636101210023E5600C
:1042500023612046EC622176FFF7D3F8002000F0BE
:104260003FFD002038BDEB62DAE7996821B191F992
:1042700020108A42B8BF0A465B69D7E7B80200201F
:1042800010B5044610B10378042B07D020466FF018
:104290000301FFF7B0F86FF0030010BD437833B9A6
:1042A0006FF00201FFF7A7F86FF0020010BD0023C6
:1042B0004370037EDBB16369C0680BB122691A6188
:1042C00022691AB35361E3789A070BD590F921302C
:1042D000C26AEAB990F920209A4203D080F82030CF
:1042E00000F0D8FBA368E3B9002000F0F9FCA37844
:1042F000DB0706D5124BD3F894002146D0B1FFF767
:1043000022FB2046FFF782F8002010BDC362DAE7E7
:10431000916821B191F920108B42B8BF0B465269C8
:10432000D7E7204600F09BFB00226FF0020100F06F
:1043300005FDD7E7D3F88000FFF784FAE1E700BF77
:10434000B80200202DE9F0410446002601270CB9EF
:10435000BDE8F081E378D4F814801B0718D52676E1
:1043600000212046FFF750F8A3688BB1204600F0EB
:1043700076FB00220546114600F0E0FCEB6AE560A2
:10438000636126610121EC6220462776FFF739F848
:104390004446DCE710B50446FFF72EF8EFF305833B
:1043A0002BB9EFF3108313B9EFF3118333B16FF02F
:1043B00005010020FFF71FF8002010BD2046DFF8A0
:1043C00028C0EFF3148313F0020F0AD113F0040F87
:1043D000EFF308830CBF203B683B23F0070383F314
:1043E000098800DF10BD00BF5D40000838B50446F5
:1043F0000D46FFF703F8EFF305832BB9EFF31083B6
:1044000013B9EFF311833BB120466FF00501FEF7BE
:10441000F2FF6FF0050038BD20462946DFF804C0E2
:1044200000DF38BDE540000810B50446FEF7EBFF9D
:10443000EFF305832BB9EFF3108313B9EFF3118377
:104440003BB120466FF00501FEF7D5FF6FF0050088
:1044500010BD2046DFF804C000DF10BDAD410008EC
:1044600010B50446FEF7D1FFEFF305832BB9EFF348
:10447000108313B9EFF311833BB120466FF00501B0
:10448000FEF7B9FF6FF0050010BD2046DFF804C04D
:1044900000DF10BD8142000800F10C03D3E85F0F7C
:1044A00010B9BFF32F8F04E0421EC3E8512F01B1B2
:1044B000F4E780B2003018BF0120704730B500F13A
:1044C0000C02C189D2E85F3F994202D8BFF32F8F17
:1044D00004E05C1CC2E8554F05B1F3E7C0899BB20C
:1044E000984294BF0020012030BD0000F8B50F466F
:1044F0004FF6FE73411E9942054601D8B84206D2D6
:104500006FF003010020FEF782FF0020F8BD002AB3
:1045100035D09468166844B114F0030302D1D26810
:104520000F2A1BD86FF00801ECE7D368002BF9D1F4
:10453000144BD3F8980030B901221021D3F8800031
:10454000FFF74CF901E0FFF7D0F9044628B96FF006
:104550000401FEF75CFF2046F8BD0123A37005228D
:1045600000232270A3600122064B62706660A7815F
:10457000E581054A9A662046FEF74BFFEBE71646B3
:10458000D6E700BFB80200200946000810B504466F
:1045900010B10378052B07D020466FF00301FEF71A
:1045A00036FF6FF0030010BD437833B96FF002019E
:1045B000FEF72DFF6FF0020010BD002343708368EB
:1045C00063B1204600F04BFA00226FF0020100F0C8
:1045D000B5FBA0680028F4D100F082FBA378DB07CC
:1045E00006D5084BD3F89800214630B1FFF7ABF958
:1045F0002046FEF714FF002010BDD3F88000FFF71F
:1046000021F9F5E7B802002010B54378044683B1DC
:10461000836873B1FFF740FF58B1204600F01FFADE
:104620000022114600F08AFB2046BDE81040FEF74C
:10463000F2BE10BD38B5054610B10378052B07D082
:1046400028466FF00301FEF7E2FE6FF0030038BD6D
:10465000437833B96FF00201FEF7D9FE6FF0020024
:1046600038BD84686CB1FEF7D8FE284600F0F7F933
:104670000122002100F062FB2846FEF7CCFE00205C
:1046800038BDFFF71BFF18B96FF010012846E3E7AC
:104690002846FEF7C2FEF2E770B506460D46144600
:1046A000FEF7B6FEEFF305832BB9EFF3108313B9D2
:1046B000EFF3118333B16FF005010020FEF7A7FE81
:1046C000002070BD304629462246DFF828C0EFF3AF
:1046D000148313F0020F0AD113F0040FEFF30883D1
:1046E0000CBF203B683B23F0070383F3098800DFFE
:1046F00070BD00BFED44000810B50446FEF78CFE07
:10470000EFF305832BB9EFF3108313B9EFF31183A4
:1047100023B314B12378052B07D020466FF0030193
:10472000FEF775FE6FF0030010BD63783BB96FF0C4
:1047300002012046FEF76BFE6FF0020010BD20461E
:10474000FFF7BCFE38B1204600F0B8F82046FEF76F
:1047500064FE002010BD6FF01001EAE72046DFF88C
:1047600008C000DF10BD00BF3546000810B5044684
:10477000FEF754FEEFF305832BB9EFF3108313B963
:10478000EFF311833BB120466FF00501FEF73FFECA
:104790006FF0050010BD2046DFF804C000DF10BD3B
:1047A0008D45000810B5D0E85F3F5A1C914200D8F3
:1047B0000022C0E8542F04B1F5E798B210BD000004
:1047C00038B51B4C00F0E6FDE3680133E360236D70
:1047D00003B1984700F0DAF9002000F081FA236C69
:1047E0002BB1A26BA1698A4202D0A163E36338BDF9
:1047F000E36B0BB1013BE363E36B002BF7D1237A4F
:10480000022BF4D1656A002DF1D095F9201092F9B0
:1048100020309942EBD1284600F032F9A06B00F02D
:104820004BF9284600F04CFAA563236CDEE700BF85
:10483000B802002070B5204C04F1560504F15A0668
:10484000B4F85410D5E85F3F13B9BFF32F8F04E0DD
:104850005A1EC5E8502F00B1F4E79BB23BB3304677
:10486000FFF7A0FFE36D53F8200000B30378013B8E
:10487000062BE5D801A252F823F000BF99480008A2
:10488000414800089F48000841480008A348000824
:10489000A7480008AB480008236E9847D0E7636E2E
:1048A000FBE7A36EF9E7E36EF7E7236FF5E7002078
:1048B000BDE8704000F014BAB802002070B5164C84
:1048C0000546B4F8541004F15602D2E85F3F99420D
:1048D00002D8BFF32F8F04E0581CC2E8560F06B170
:1048E000F3E79BB2994210D904F15800FFF75AFF41
:1048F000E36D43F82050637A23B9084B4FF08052A0
:104900005A6070BD0123A37270BD29460220BDE824
:104910007040FEF713BA00BFB802002000ED00E0BF
:1049200010B5034B5C692046FEF74EFD204610BDD6
:10493000B802002008B5FEF741FADFF810C000DF2A
:104940004FF0FF310020FEF73BFDFEE7F94F000876
:1049500012F0020F10B502F0010222D100F128037B
:1049600082B153E8000F00EA01028A4203D0BFF38C
:104970002F8F002005E020EA010243E8002404B163
:10498000EFE710BD53E8000F084203D1BFF32F8FAC
:10499000002005E020EA010243E8002404B1F1E729
:1049A00010BD806A01EA00031AB1994218BF0020C5
:1049B00010BD002B08BF002010BD000010B5002363
:1049C000437083789A07044608D513F0100F016BE3
:1049D0000E4B0FD0D3F88400FEF7B5FFA378DB07AA
:1049E00012D50A4BD3F88800214638B1BDE81040F3
:1049F000FEF7A9BF586FFEF725FFEFE7D3F8800059
:104A0000BDE81040FEF71EBF10BD00BFB802002079
:104A100010B5044610B10378012B05D020460021C3
:104A2000FEF7D1FC002010BD4378002BF6D0416882
:104A3000FEF7C9FC606810BD10B561B191F9202086
:104A400083681BB193F92040944205DAC8608B60FB
:104A5000816003B1D96010BD18469B68F1E7836897
:104A60002BB19A68826002B1D0600022DA601846E9
:104A7000704710B10378012B00D07047C068F8E789
:104A8000C36833B182689A60826802B1D360002340
:104A9000C360704710B5014604462378012B07D048
:104AA0000846FFF7EDFF2046BDE81040FFF7C4BF02
:104AB000E468002CF1D110BD012301464370014888
:104AC000FFF7BABFD40200204B1C30B5144A0FD1F7
:104AD000136B00213BB94FF0FF34C46141610361A6
:104AE00021B1086130BD19461B69F3E7106330BD81
:104AF000D36A002413B1DD69A9420AD2C1614461BD
:104B0000036154B120611BB1DA695861511AD9614E
:104B100030BD1C46491B1B69ECE7D062F3E700BFC0
:104B2000B802002010B5C4694269631C10D11AB9DB
:104B3000104B1B6B98421BD1036903B15A61426948
:104B40001AB113610023436110BD0A4A136310BDFB
:104B50001AB9084BDB6A98420AD103691BB1D969BB
:104B60005A612144D9614269002AEAD1014AD362DB
:104B700010BD00BFB802002090F82220836B12F015
:104B8000100F0CBF602020201844704738B52E4D00
:104B9000EC6A002C57D0E369013BE361002B52D152
:104BA0006378532B37D008D8332B2BD0432B2CD002
:104BB000132B07D1FEF711FC04E0732B37D017D865
:104BC000632B2ED02046FFF7D7FF01682046FEF763
:104BD000FEFB2046FFF754FF2046FFF76DFF2469D8
:104BE00024B1E369002BDBD000236361EC6238BDA4
:104BF000832B22D0932BE5D12046FFF73AFFFEF717
:104C000015FCDFE7FEF7E6FBDCE72046FFF731FFA8
:104C1000FEF7ECFBD6E72046FFF72BFFFEF7F0FB95
:104C2000D0E72046FFF725FFFEF7F4FBCAE7204652
:104C3000FFF71FFFFEF7F4FBC4E72046FFF719FF5D
:104C4000FEF7FAFBBEE738BDB802002010B501231D
:104C5000094A437090F92010536A1C321BB193F932
:104C600020408C4205DCC2608360906003B1D86054
:104C700010BD1A469B68F1E7B8020020044B1B6880
:104C80002BB11B691BB1034A9269506C18477047DE
:104C900098330020B8020020074B596951B10B6BC3
:104CA0008A6B934203D21A68044B9A4202D00120C5
:104CB000FEF744B8704700BFB8020020A52E5AE2A4
:104CC00010B502234370054B04469861FFF7E4FFDB
:104CD0002046BDE81040FEF77BBB00BFB8020020B5
:104CE00010B5154B04461A7A5969A8B9022A5C6AAC
:104CF00020D1F9B1F4B194F9202091F920309A42F1
:104D000018DD2046FFF7BCFE0846FFF79FFF204650
:104D1000BDE81040FFF7D4BF022A06D129B190F9AF
:104D2000202091F920309A42EEDC2046BDE8104068
:104D3000FFF7C2BE10BD00BFB802002070B5044628
:104D40000E461546FEF743FB2046FFF715FF0660AB
:104D50002046FFF7E7FE20461DB1BDE87040FFF793
:104D6000BFBFBDE87040FFF7A7BE38B54378332B0F
:104D7000044613D190F82320416AFFF7E9FD054668
:104D800060B1014600222046FFF7D8FF2A4694F87A
:104D90002310606ABDE83840FEF71DBB38BD000037
:104DA0002DE9F04F85B082460391029338B96FF038
:104DB0000301FEF705FB002005B0BDE8F08F002AD7
:104DC00039D0946802F11005E0CD44B1A30702D1B7
:104DD000D368472B06D86FF008010020E9E7D368B5
:104DE000002BF8D13DB1680702D1002E40F0CE80F3
:104DF0006FF00A01F1E72FB17B1E372B03D96FF05B
:104E00000B01EAE718271EB17107F1D1472EEFD940
:104E10005368D2F800800193D4B95F4BD3F888006F
:104E200078B1FEF762FD0446A0BB6FF00401FEF707
:104E3000C7FA2046C0E79046182716461546019245
:104E4000EBE701224821D3F88000FEF7C7FCEAE730
:104E50004FF0000B2DBBDFF84091002E7ED14F4A62
:104E6000D9F88400566D002878D0FEF73EFD05463F
:104E700098B96FF004010020FEF7A2FABBF1000F11
:104E800099D0D9F888502146002D71D02846FEF7D8
:104E90005AFD90E74FF0010BDCE74BF0100B4BF0A5
:104EA000020B9DF80430E3700023A360E3602361EC
:104EB0006361A361E36184F823306362A362E36208
:104EC000A6F1400301222B44227062707FB2A363DB
:104ED000FD22334B84F802B0C4F8048084F82070BB
:104EE00084F8217084F8222025636663C4F83CA00E
:104EF0002B602A4B1B685B0743D50435B608A6F127
:104F000011032A464FF0CC31002B36D106F18046F2
:104F1000113E05EB860505F13403002245F8042B0C
:104F20009D42FBD11F4B204A85E808044FF0807357
:104F3000AB60039B45F8143C174B20461A66FEF7FE
:104F400041FA1A4B1B68F3B19B68E3B10299204602
:104F5000984760642046FFF7C3FE6AE72A46314659
:104F6000D9F87400FEF73AFC0546002897D180E78F
:104F7000D9F88000FEF766FC1DE742F8041B013BF0
:104F8000C2E7A56BC7E7029B6364E3E7002F7FF4EA
:104F900033AF182738E700BFB80200206855010872
:104FA000A52E5AE2354900086B4D000898330020C1
:104FB000F8B5104D6C6907460E46CCB12B7A022B22
:104FC00004D02046FFF75CFD0020F8BD686A80B180
:104FD0002046FEF7FBF9314620466770FFF774FD67
:104FE00005F11C00FFF73BFDFFF76AFE0120F8BD4D
:104FF0002046F8BDB802002038B51B4D6C69002C66
:1050000030D0E06AFFF79EF9A06930B10022114666
:10501000FFF794FEA069FEF7D8F92B7A022B21D175
:105020006B6AFBB1EFF309831048A363FFF717FD29
:10503000FFF746FE00236B61E378DB0701D5A36928
:105040003BB12046FFF7BAFC2046BDE83840FEF7EA
:10505000C0B904226270E3606B6BA36003B1DC60D3
:105060006C63F1E738BD00BFB8020020D402002015
:1050700038B5044610B10378012B07D020466FF0F5
:105080000301FEF79DF96FF0030038BD437803F08C
:105090000F03022B05D0032B23D0012B26D1FFF7C2
:1050A000EFFC294B1B681BB1DB680BB1606C9847A8
:1050B000E06AFFF747F9A06930B100221146FFF717
:1050C0003DFEA069FEF781F96378022B2DD11F4DBB
:1050D0002B7A022B01D16B6A7BB96FF0020120465B
:1050E00006E0FFF7CDFCFFF71DFDDAE76FF00201E8
:1050F000FEF766F96FF0020038BDEFF30983A36392
:1051000005F11C00FFF7ABFCFFF7DAFD00236B6134
:10511000E378DB0701D5A3695BB12046FFF74EFCBE
:105120002046FEF756F9002038BD0020FFF7D8FDD5
:10513000EEE70422E360054B62705A6BA26002B195
:10514000D4605C63ECE700BF98330020B802002015
:10515000F8B507460E4615461C46FEF732F9EFF342
:1051600005832BB9EFF3108313B9EFF3118333B138
:105170006FF005010020FEF723F90020F8BD384646
:1051800031462A462346DFF828C0EFF3148414F092
:10519000020F0AD114F0040FEFF308840CBF203C77
:1051A000683C24F0070484F3098800DFF8BD00BFE1
:1051B000A14D00080023FFF7CBBF000008B5034650
:1051C000EFF305822AB9EFF3108212B9EFF31182DF
:1051D0002AB118460021FEF7F6F8002008BDDFF8D6
:1051E00008C000DF08BD00BF114A000808B5EFF392
:1051F00005832BB9EFF3108313B9EFF3118323B1B8
:105200000020FEF7E1F8002008BDDFF808C000DF4D
:1052100008BD00BF2149000810B50446FDF7D5FDC3
:10522000EFF305832BB9EFF3108313B9EFF3118379
:105230003BB120466FF00501FEF7C2F86FF00500A4
:1052400010BD2046DFF804C000DF10BD715000081B
:105250000C4A536C30B5002413B11D69A9420AD21F
:1052600001618460C3601BB11D699860691A19618E
:105270002CB1E06030BD1C46491BDB68ECE7506494
:1052800030BD00BFB802002070B5134D6C6C04B384
:105290002369013B236101262369D3B9E3680BB17C
:1052A000A2689A606B6400231A4604F11801E86C46
:1052B000FEF72AFE18B121460320FDF73FFDE378F3
:1052C000012B07D161692046FFF7C2FF6C6C002CEF
:1052D000E2D170BD6670F9E7B80200200F4B13B53C
:1052E0001A6E586E0E4C0821FEF7DEFDE06490B198
:1052F0000C4B23654FF0FF3300226946E06CFEF74C
:105300005DFE0028F6D19DE80300FEF767F80198DE
:10531000009B9847EEE702B010BD00BF685501083A
:10532000B802002089520008A8B10C4B1B68B3FBDF
:10533000F0F00138B0F1807F0DD2094BFF2283F8E5
:105340002320A3F54F6306221A605860002098605E
:10535000044B187070474FF0FF3070476003002017
:1053600000ED00E0C01D0020074B1A782AB1002292
:105370001A70064B4FF080625A60054A136843F07A
:105380000103136000207047C01D002000ED00E005
:1053900010E000E0014B00201B68704710E000E0C7
:1053A0004FF0FF307047000038B503690446051D13
:1053B0002BB94FF404720C490C48FCF71FFD23690C
:1053C00028461B68984704F154004FF0FF31FDF761
:1053D000D5F900236361012384F8C03004F1400053
:1053E000BDE83840FDF710BA944A0108B54A0108F3
:1053F000024B1B6803B11847704700BFC41D002053
:105400002DE9F0471D466B07B5FA85F34FF000090B
:105410004FEA5313044618BF25F0070680F83C30C6
:105420008A461746C0F8149080F8C0904FF04802A2
:10543000494600F1780014BF08362E46DDF820807A
:1054400008F064F82422494604F1180008F05EF8D8
:10545000751B074BC4F830A07D1B25F00705C84518
:1054600008BF9846E562C4F81880A662BDE8F087D8
:105470003456010870B500F1540504464FF0FF3171
:105480002846FDF77BF904F140006669FDF7BCF999
:105490000023636194F8C0302BB100242846FDF747
:1054A00077F9204670BD012384F8C030002EF4D077
:1054B0003046FFF7B1FE0446F0E7FDF707BD0000F8
:1054C00010B50D4B03600446FFF7D4FF94F83C3051
:1054D0002BB1A06A08B1FCF79FFF0023A36204F17F
:1054E0005400FDF75BF904F14000FDF790F9201D31
:1054F000FBF702F8204610BD9856010810B5044687
:10550000FFF7DEFF2046C42105F08EF8204610BDCF
:10551000F8B5044600F154050F4628464FF0FF3118
:10552000FDF72CF9636913B994F8C0302BB1284604
:10553000FDF72EF96FF00300F8BDA36A83B9E06AA6
:10554000274B984294BF20F003004FF0FF30FCF748
:1055500055FFA06220B95D2222492348FCF74EFC8A
:1055600022490023E26AB3EB920F04D2A26A42F806
:1055700023100133F6E704F1780630464822002173
:1055800007F0C4FF2662261D4823BE42636207D08F
:105590003046FAF7B1FF1EB139463046FAF7E2FF5E
:1055A00004F1180221461248FFF704FE606190B929
:1055B00094F83C302BB1A06A08B1FCF72DFF002312
:1055C000A3622846FDF7E4F804F14000FDF71CF95A
:1055D0006FF00200F8BD2846FDF7DAF80020F8BDAC
:1055E000FBFFFF7F4F56010877560108A52E5AE2B0
:1055F000A95300087FB50F230193022302934FF4B0
:1056000080520023032101A803930492059301F023
:1056100011FCB0FA80F0400907B05DF804FB00000F
:105620000F49D1F8883043F47003C1F888300D4B2E
:105630001A68002042F001021A6098601A6822F08D
:10564000847222F480321A60074A5A601A6822F47F
:1056500080221A60D8604FF000638B60704700BFF3
:1056600000ED00E0003802401030002400B58FB09B
:105670001C4B002100911A6C42F080521A641B6C82
:10568000194A03F080530093009B0191136823F49F
:10569000404343F400431360136803F44043019311
:1056A000019B01230293C0B94FF48033039302237B
:1056B00008934FF48003099304230A930C9308235F
:1056C000C8220DEB03000B920D9301F003FA38B9D9
:1056D000FFF790FF0FB05DF804FB4FF4A023E5E760
:1056E0000020F7E7003802400070004010B58EB08F
:1056F00000241A4B00941A6C42F080521A641B6CFE
:10570000174A03F080530093009B0194136823F41D
:10571000404343F4004313601368039403F440438D
:105720000193019B09940323029301230593102302
:1057300006930223C822089308230B920DEB030063
:1057400004220A930C920D9301F0C4F918B9FFF7E3
:1057500051FF0EB010BD2046FBE700BF00380240ED
:105760000070004008B50120FFF780FF18B9FFF76F
:10577000BDFF00B9FEE708BDDFF830D0002103E02F
:105780000B4B5B58435004310A480B4B42189A426A
:10579000F6D30A4A02E0002342F8043B084B9A423F
:1057A000F9D3FFF73DFFFAF72DFD70470000022007
:1057B00020700108980100204C0D0020500D0020A1
:1057C00010350020FEE70000A1F1F0039BB20F2B83
:1057D00073B504460D4649D92A492846FBF7E8FE29
:1057E000284920602846FBF7FFFE26490646284642
:1057F000FBF7A2FE2368013304D13C22224923484F
:10580000FCF7FCFA731C04D13D221F492048FCF729
:10581000F5FA0122E26121681E4AA4F848500023EB
:10582000C6F30436914284F84A6023646360A3603F
:105830002361A36123626362E362A362E360236383
:1058400063610AD10193144B5A6C42F480725A641A
:105850005B6C03F480730193019B204600F0AEF86B
:1058600010B10E48FCF77EFB02B070BD0C49284613
:10587000FBF79EFE0A4920602846FBF7B5FE064668
:10588000B8E700BFA0560108005A01083F5A0108B6
:10589000695A01080020014000380240825A01087C
:1058A000545701081FB5044610220021684607F02E
:1058B0002DFE94F84A20012301930293122A47D81F
:1058C000DFE802F00C0B0A232527292B2D2F31337B
:1058D0003537393B3D3F4400022300931D4A53684E
:1058E00023F4400369465360204600F0BFF9204688
:1058F00000F008F90A21204600F064F940BB204678
:1059000000F0B0F980B204B010BD0323E5E7042332
:10591000E3E70523E1E70623DFE70723DDE70823C5
:10592000DBE70923D9E70A23D7E70B23D5E70C23C5
:10593000D3E70D23D1E70E23CFE70F23CDE7064BA7
:10594000CBE71123009307230293C7E71223F9E75C
:105950000020D8E70023014012000010704700002B
:1059600008B50B4B1A6842F400721A601A6842F4C8
:1059700080621A601A6842F480721A60032000F094
:105980000DFA0F2002F044FAFFF7E8FF002008BDEF
:10599000003C0240034A044B11681B780B4413601F
:1059A000704700BF9C3300205C030020014B186847
:1059B000704700BF9C3300207047000010B50446BC
:1059C000002800F09980036C23B9436480F83C30D0
:1059D000FFF7F2FF236CDB0600F18C80236C23F4CD
:1059E000885323F0020343F002032364434B5A68B5
:1059F00022F440325A605A6861680A435A60236848
:105A000021695A6822F480725A605A6842EA012277
:105A10005A605A68A16822F040725A605A680A4374
:105A20005A609A68E16822F400629A609A680A43B0
:105A30009A603349A26A8A4250D0996821F0706115
:105A4000996099680A439A609A68E16A22F0405224
:105A50009A609A680A439A609A68A16922F00202E1
:105A60009A609A6842EA41029A60226A002A3DD00E
:105A70005A68616A42F400625A605A6822F46042CD
:105A80005A605A68013942EA41325A60DA6AE16979
:105A900022F47002DA62DA6A013942EA0152DA6209
:105AA0009A68216B22F400729A609A6842EA412255
:105AB0009A609A68616922F480629A609A6800200C
:105AC00042EA81229A606064236C23F0030343F06E
:105AD00001032364002384F83C3010BD9A6822F04F
